:100000000C94C1010C94E2010C94E2010C94E20105
:100010000C94E2010C94E2010C94E2010C94E201D4
:100020000C94E2010C94E2010C94E2010C94E201C4
:100030000C94E2010C94E2010C94E2010C94E201B4
:100040000C94E2010C94E2010C94E2010C94E201A4
:100050000C94E2010C94E2010C94E2010C94E20194
:100060000C94E2010C949C370C94E2010C94E20194
:100070000C94E2010C94E2010C94E2010C94E20174
:100080000C94E2010C94E2010C94E2010C94E20164
:100090000C94F2080C94E2010C94E2010C94E2013D
:1000A0000C94E2010C94E2010C94E2010C94E20144
:1000B0000C94E2010C94E2010C94E2010C94E20134
:1000C0000C94E2010C94E2010C94E2013E2F073300
:1000D000073307335A30073396300733073301317C
:1000E00007330733073307330733BA31FC3107339C
:1000F0000733073307330733073307330733073330
:10010000073307330733073307330733532F622F80
:100110000733B92FD02F9330BA300733BD300733B0
:10012000073307332531343139310733E531FF31B6
:10013000073329320733C4325232F632036EDB36CC
:100140003D9A9999993DABAAAA2A3E000000803FAA
:10015000084AD73B3BCE016E84BCBFFDC12F3D6C2E
:1001600074319ABD56833DDA3D00C77F11BED9E494
:10017000BB4C3E916BAAAABE000000803F072C7AC0
:10018000A5BA6CC590DA3B9365FC8BBC53F810FDA7
:100190003C5692834DBD879D3AB63DCBC9BF5BBEF1
:1001A00073DA0FC93F05A84CCDB2D44EB93836A981
:1001B000020C50B9918688083CA6AAAA2ABE000063
:1001C00000803F07634236B79BD8A71A3968561894
:1001D000AEBAAB558C1D3CB7CC5763BD6DEDFD750C
:1001E0003EF6177231BF000000803F08000000BEDD
:1001F000922449123EABAAAA2ABECDCCCC4C3E00DA
:10020000000080BEABAAAAAA3E00000000BF00000A
:1002100000803F0000000000084178D3BB4387D135
:10022000133D190E3CC3BD4282AD2B3E68EC827675
:10023000BED98FE1A93E4C80EFFFBE01C4FF7F3FD6
:1002400000000000006E616E00696E6600494E4657
:10025000494E4954594E414ECDCCCC3D0AD7233C52
:1002600017B7D13877CC2B329595E6241FB14F0ABA
:10027000000020410000C84200401C4620BCBE4C8B
:10028000CA1B0E5AAEC59D7400407A10F35A00A0E6
:10029000724E18090010A5D4E80000E8764817004F
:1002A00000E40B54020000CA9A3B000000E1F5058F
:1002B000000080969800000040420F000000A086D9
:1002C00001000000102700000000E803000000000B
:1002D0006400000000000A000000000001000000AF
:1002E00000002C76D888DC674F0823DFC1DFAE59C9
:1002F000E1B1B796E5E3E453C63AE651997696E85C
:10030000E6C28426EB898C9B62ED407C6FFCEFBCDF
:100310009C9F40F2BAA56FA5F490055A2AF75C930A
:100320006B6CF9676DC11BFCE0E40D47FEF520E640
:10033000B500D0ED902E0300943577050080841E23
:10034000080000204E0A000000C80C333333330F7E
:10035000986E12831141EF8D2114893BE65516CF1B
:10036000FEE6DB18D1844B381BF77C1D901DA4BB27
:10037000E424203284725E228100C9F124ECA1E5DC
:100380003D2711241FBECFEFD1E2DEBFCDBF00E07D
:100390000CBF18E0A0E0B2E0E0E0FAE800E00BBF3C
:1003A00002C007900D92A43EB107D9F712E1A4EE66
:1003B000B8E001C01D92AA3EB107E1F70E942333C5
:1003C0000C94A5410C9400002F923F924F925F92A3
:1003D0006F927F928F929F92AF92BF92CF92DF9255
:1003E000EF92FF920F931F931A012B01FC01EE0F66
:1003F000FF1FE35FFD4E0190F081E02DE130F1053C
:1004000009F060C0DC01AA0FBB1FAA0FBB1FFD01D2
:10041000E15CF34FA080B180C280D380FD01E15444
:10042000F34F6080718082809380A55EB34FC601D8
:10043000B5012D913D914D915C910E94843B7B01D2
:100440008C01C601B50120E030E044E353E40E9492
:10045000843B20E030E040E05FEB0E94493E9B019E
:10046000AC01C801B7010E94853B7B018C01C20130
:10047000B1012CEC3EE245E652E40E94493E9B016C
:10048000AC01C801B7010E94853B7B018C01C4010E
:10049000B301A60195010E94693C9B01AC01C80112
:1004A000B7010E94493E0E94D13C882777FD809584
:1004B000982F0E94043D9B01AC01C401B3010E942E
:1004C000843B4BC0EF2B09F04BC06C01CC0CDD1C06
:1004D000CC0CDD1CF601E15CF34F80809180A280A2
:1004E000B380CB01BA012CEC3EE245E652E40E9417
:1004F000493EF601E55EF34F20813181428153810F
:100500000E94853B7B018C01C501B40120E030E0F5
:1005100044E353E40E94843B20E030E040E05FE3AA
:100520000E94493E9B01AC01C801B7010E94853B76
:100530007B018C018FEB9CE0C80ED91EF601608117
:10054000718182819381A50194010E94693C9B0184
:10055000AC01C801B7010E94493E0E94D13CCB01C9
:100560001F910F91FF90EF90DF90CF90BF90AF90D1
:100570009F908F907F906F905F904F903F902F90C3
:100580000895DF92EF92FF920F931F93CF93DF9323
:100590007A018B01FC01EE0FFF1FE35FFD4E8081AE
:1005A0009181019779F4C0E0D0E0CB01BA0120E05D
:1005B00030E040E050E00E94623C1816A4F0C1E038
:1005C000D0E011C0DD24CB01BA0120E030E040E0F2
:1005D00050E00E94623C181614F0DD24D39481E0B0
:1005E000D826CD2DD0E0C801B7010E94D13C9B0197
:1005F00077FF03C0309521953F4FB901882777FDDC
:100600008095982F0E94043D24E13EEA43E251E4A4
:100610000E94493E0E94D13CCB0177FF02C080E09E
:1006200090E09C0184E02030380714F02FEF33E095
:10063000219711F420503C4FC901DF91CF911F91B8
:100640000F91FF90EF90DF900895CF93DF93C3EA6F
:10065000DBE020E030E080E090E0A0E0B0E0F901F5
:10066000EC59FD4E80839183A283B383F901E75156
:10067000FE4E80839183A283B383F901E957F44F3F
:1006800080839183A283B383F901E854FD4E808374
:100690009183A283B383F901ED59F34F8083918352
:1006A000A283B383F901E158F34F80839183A2833E
:1006B000B383F901E058FD4E80839183A283B38315
:1006C00088839983AA83BB838C839D83AE83BF83F6
:1006D00088879987AA87BB878C879D87AE87BF87C6
:1006E0002C5F3F4F60962C31310509F0B8CFDF9178
:1006F000CF910895EF92FF920F931F937B018C018E
:1007000020E030E040E050E00E94623C882324F486
:1007100017FB109517F91095B701C8011F910F919C
:10072000FF90EF9008952F923F924F925F926F92B9
:100730007F928F929F92AF92BF92CF92DF92EF9271
:10074000FF920F931F93DF93CF93CDB7DEB7A097A0
:100750000FB6F894DEBF0FBECDBFA98ABA8ACB8A86
:10076000DC8AED8AFE8A0F8B188F298F3A8F4B8F88
:100770005C8F6D8F7E8F8F8F98A33E010894611CD4
:10078000711C230188249924E6E72E2E312C2C0E8F
:100790003D1E80E190E0280E391E26C0F6016191D1
:1007A0007191819191916F01F50121913191419167
:1007B00051915F010E94493E9B01AC01C801B70104
:1007C0000E94853B7B018C01A214B30439F7F2012E
:1007D00061937193819391932F010894811C911CD3
:1007E000F4E08F169104E1F0640174E0CC0CDD1CA0
:1007F0007A95E1F786E390E08C0F9D1FC80ED91E15
:1008000066E7A62EB12CAC0EBD1E0F2EF0E0EF2E2B
:10081000F0E0FF2EF0E00F2FF0E01F2FF02DBECF05
:1008200051E1C52ED12CCC0EDD1E0F2EF0E0EF2EA7
:10083000F0E0FF2EF0E00F2FF0E01F2FF02D41E24F
:10084000A42EB12CAC0EBD1EF60161917191819167
:1008500091916F01F30121913191419151913F01AA
:100860000E94493E9B01AC01C801B7010E94853B33
:100870007B018C01CA14DB0439F7C801A0960FB6BE
:10088000F894DEBF0FBECDBFCF91DF911F910F91C6
:10089000FF90EF90DF90CF90BF90AF909F908F90A0
:1008A0007F906F905F904F903F902F9008952F9280
:1008B0003F924F925F926F927F928F929F92AF92F0
:1008C000BF92CF92DF92EF92FF920F931F93DF932D
:1008D000CF93CDB7DEB762970FB6F894DEBF0FBEE9
:1008E000CDBF898B9A8B3E010894611C711C8824B2
:1008F0009924B8E62B2E312C2C0E3D1EA0E14A2E59
:10090000512C420C531C26C0F601619171918191CA
:1009100091916F01F50121913191419151915F01C7
:100920000E94493E9B01AC01C801B7010E94853B72
:100930007B018C01A414B50439F7F3016193719321
:10094000819391933F010894811C911CF4E08F16D0
:100950009104C1F06401F4E0CC0CDD1CFA95E1F7E0
:1009600088E290E08C0F9D1FC80ED91E51010F2EFA
:10097000F0E0EF2EF0E0FF2EF0E00F2FF0E01F2F61
:10098000F02DC2CF89899A899C01D901FE01319647
:1009900080E101900D928150E1F789899A896296F0
:1009A0000FB6F894DEBF0FBECDBFCF91DF911F9180
:1009B0000F91FF90EF90DF90CF90BF90AF909F90FE
:1009C0008F907F906F905F904F903F902F90089501
:1009D0002F923F924F925F926F927F928F929F924F
:1009E000AF92BF92CF92DF92EF92FF920F931F933D
:1009F000DF93CF93CDB7DEB7C655D0400FB6F8948E
:100A0000DEBF0FBECDBF66968FAF669767969FAF6E
:100A10006797FE0171969E012F5F3F4F0F2EF0E00A
:100A2000EF2EF0E0FF2EF0E00F2FF0E01F2FF02D63
:100A3000AF01D901ED92FD920D931D939D01E082CE
:100A4000F18202831383E482F58206831783E086B2
:100A5000F18602871387E486F586068717877096E6
:100A6000A417B50731F7FE0175966396FFAFEEAF99
:100A700063972224332486C06596AEADBFAD6597DB
:100A80006D917D918D919D916596BFAFAEAF65974C
:100A9000F60120813181428153810E94493E9B01B0
:100AA000AC01C801B7010E94853B7B018C01089411
:100AB000A11CB11C80E190E0C80ED91E94E0A916DB
:100AC000B104D1F6D201ED92FD920D931D932D014B
:100AD0000894811C911CB4E08B169104B9F0F201CA
:100AE000E080F1800281138165967FAE6EAE6597DE
:100AF0006401CC0CDD1CCC0CDD1C8CEA90E08C0F6E
:100B00009D1FC80ED91EAA24BB24B6CFF10104E054
:100B1000EE0FFF1F0A95E1F7A1E0B0E0AC0FBD1F9B
:100B2000EA0FFB1F89819A81AB81BC81808B918BFD
:100B3000A28BB38B8D819E81AF81B8856396EEAD1C
:100B4000FFAD639780839183A283B38389859A8560
:100B5000AB85BC8584839583A683B7838D859E856D
:100B6000AF85B88980879187A287B3870894211CB5
:100B7000311C70966396FFAFEEAF6397F4E02F16CB
:100B8000310439F180E090E0A0E0B0E089839A83FD
:100B9000AB83BC838D839E83AF83B88789879A8715
:100BA000AB87BC878D879E87AF87B88B2E01089453
:100BB000411C511C88249924310114E0660C771CD7
:100BC0001A95E1F7ACE6B0E0AC0FBD1F6A0E7B1ED4
:100BD00086CF66968FAD669767969FAD67979C01A7
:100BE000D901FE01719680E401900D928150E1F7E8
:100BF00066968FAD669767969FAD6797CA5ADF4F27
:100C00000FB6F894DEBF0FBECDBFCF91DF911F911D
:100C10000F91FF90EF90DF90CF90BF90AF909F909B
:100C20008F907F906F905F904F903F902F9008959E
:100C3000EF92FF920F931F93CF93DF9300E010E0AA
:100C400060E070E020E030E040E050E0FB01E35382
:100C5000FE4E2083318342835383FB01ED5AF24FD2
:100C60002083318342835383FB01E456FD4E20836E
:100C7000318342835383FB01EF54FE4E2083318343
:100C800042835383FB01E85BFD4E20833183428323
:100C90005383E0E0F0E07801EE0CFF1CEE0CFF1C4B
:100CA00010C029933993499359932D933D934D93B4
:100CB0005D93019684309105A1F73196E430F105FA
:100CC00089F0CF018E0D9F1DA4E0880F991FAA9572
:100CD000E1F7EC01CF54D04FDC01A159B24F80E0D5
:100CE00090E0DFCF0F5F1F4F6C5F7F4F0730110524
:100CF00009F0ACCFEFE6FFE021E731E16FE27FE002
:100D000080E090E0A0E0B0E080839183A283B38391
:100D1000E90188839983AA83BB83EB018883998344
:100D2000AA83BB8384839583A683B783E9018C83DD
:100D30009D83AE83BF83EB018C839D83AE83BF8392
:100D400080879187A287B387E90188879987AA87D7
:100D5000BB87EB0188879987AA87BB87848795879C
:100D6000A687B787E9018C879D87AE87BF87EB0190
:100D70008C879D87AE87BF877096205F3F4F605FEF
:100D80007F4F4FE0EF3AF40709F0BECF8093530D49
:100D90009093540DA093550DB093560D8BE996EE9C
:100DA000ADE9BEE380935B0D90935C0DA0935D0D68
:100DB000B0935E0D80ED93EBA9E5BEE38093630DE8
:100DC0009093640DA093650DB093660D84EA90E74F
:100DD000ADE3BEE380936B0D90936C0DA0936D0D0E
:100DE000B0936E0D82E29DEFA6E7BDE38093CD1137
:100DF0009093CE11A093CF11B093D0118BED9FE0C3
:100E0000A9ECBFE380939C1290939D12A0939E1235
:100E1000B0939F128093A0129093A112A093A2125C
:100E2000B093A3122BED3FE049EC5FEB2093A412AB
:100E30003093A5124093A6125093A7128093A81244
:100E40009093A912A093AA12B093AB122093AC1264
:100E50003093AD124093AE125093AF128093B01204
:100E60009093B112A093B212B093B3128093B511C4
:100E70009093B611A093B711B093B8112093B91104
:100E80003093BA114093BB115093BC1180E090E0B5
:100E9000A0E8BFE38093911190939211A0939311D6
:100EA000B09394118093751190937611A09377115C
:100EB000B09378118093891190938A11A0938B112C
:100EC000B0938C118093AD119093AE11A093AF119C
:100ED000B093B011DF91CF911F910F91FF90EF90E0
:100EE00008952F923F924F925F926F927F928F92CE
:100EF0009F92AF92BF92CF92DF92EF92FF920F93A9
:100F00001F93DF93CF93CDB7DEB7C654D0400FB653
:100F1000F894DEBF0FBECDBF26968FAF26972796DB
:100F20009FAF2797AE01445A5F4F6E010894C11CD2
:100F3000D11CFA019601BE0164567F4F80809180DA
:100F4000A280B380D9018D929D92AD92BC921397ED
:100F500084809580A680B78014968D929D92AD92E4
:100F6000BC92179780849184A284B38418968D9242
:100F70009D92AD92BC921B9784849584A684B7847D
:100F80001C968D929D92AD92BC921F977096205F99
:100F90003F4FE617F70791F6F6019E0128593F4F9C
:100FA000DA018D909D90AD90BC90139780829182D4
:100FB000A282B38250968D909D90AD90BC90539735
:100FC00084829582A682B78290968D909D90AD90F6
:100FD000BC90939780869186A286B3864C5F5F4FC4
:100FE000709642175307E1F6AC968CAD9DADAEAD51
:100FF000BFADAC9725968CAF9DAFAEAFBFAF259779
:10100000EC964CAC5DAC6EAC7FACEC97C857DF4F48
:1010100088809980AA80BB80C858D04011E3212ED7
:10102000312C2C0E3D1E25966CAD7DAD8EAD9FAD49
:101030002597D6012D913D914D915C910E94493E9D
:1010400020E030E040E050E00E94853B7B018C01D5
:10105000C301B201F60124813581468157810E9486
:10106000493E9B01AC01C801B7010E94853B7B0151
:101070008C01C501B401D60118962D913D914D9179
:101080005C911B970E94493E9B01AC01C801B701CE
:101090000E94853B9058F6016487758786879787FD
:1010A00080E190E0C80ED91EC214D30409F0BBCF72
:1010B00026968FAD269727969FAD27979C01D9013D
:1010C000FE01319680E401900D928150E1F7269661
:1010D0008FAD269727969FAD2797CA5BDF4F0FB638
:1010E000F894DEBF0FBECDBFCF91DF911F910F915E
:1010F000FF90EF90DF90CF90BF90AF909F908F9038
:101100007F906F905F904F903F902F9008952F9217
:101110003F924F925F926F927F928F929F92AF9287
:10112000BF92CF92DF92EF92FF920F931F931C0119
:101130004A015B01C901B801A50194010E94843BE9
:101140004B015C01A70196010E94693C2B013C0107
:10115000C501B401A50194010E94853BA701960138
:101160000E94693C9B01AC01C301B2010E94853B16
:1011700020E030E040E05FE30E94493E4B015C012B
:10118000C701B60120E030E040E450E40E94693C31
:101190009B01AC01F101C486D586E686F78660879F
:1011A000718782879387C501B4010E94693CF10170
:1011B000648375838683978380829182A282B382BF
:1011C000C1011F910F91FF90EF90DF90CF90BF90E2
:1011D000AF909F908F907F906F905F904F903F90D7
:1011E0002F9008951F920F920FB60F920BB60F9289
:1011F00011248F939F93AF93BF93EF93FF9390919D
:101200008609A92FB0E08091CE00FD01E450F74F90
:1012100080838081813618F080818B37F0F0FD016A
:10122000E450F74F8081803318F080818A33A8F032
:10123000FD01E450F74F80818D3279F0808180325A
:1012400061F08081893049F080818E3231F0808177
:10125000813450F080818B3538F4892F8F5F8093F3
:10126000860987FF17C014C0FD01E450F74F808145
:101270008D3019F080818A3069F4A450B74F1C92E8
:10128000992341F081E090E090937F0980937E095B
:1012900010928609FF91EF91BF91AF919F918F912D
:1012A0000F900BBE0F900FBE0F901F9018959C01D2
:1012B000815690404A9738F040E050E02154304049
:1012C0002A31310510F441E050E0CA0108958F92AF
:1012D0009F92AF92BF92CF92DF92EF92FF920F93C5
:1012E0001F93DF93CF93CDB7DEB780932712409340
:1012F00028125093291260932A1270932B12009394
:101300002C1210932D1220932E1230932F12C09274
:101310003012D0923112E0923212F0923312809257
:10132000341290923512A0923612B09237128889F8
:101330009989AA89BB898093381290933912A09316
:101340003A12B0933B128C899D89AE89BF898093F4
:101350003C1290933D12A0933E12B0933F12888DA1
:10136000998DAA8DBB8D8093401290934112A093CA
:101370004212B09343128C8D9D8DAE8DBF8D8093A4
:10138000441290934512A0934612B0934712CF9106
:10139000DF911F910F91FF90EF90DF90CF90BF9062
:1013A000AF909F908F90089520E030E0C0970A970B
:1013B00010F421E030E0C9010895AC0120E030E0F4
:1013C0000CC08091C80085FFFCCFFA01E20FF31F2B
:1013D00080818093CE002F5F3F4F261737078CF315
:1013E000089590917C0980917D09981719F420E067
:1013F00030E017C090917C0980917D09981738F4EE
:1014000080917D0990917C09282F30E008C080915F
:101410007D0990917C09282F30E020583F4F291BEF
:101420003109C90108951F93182F0E94F1098F37C0
:10143000910591F0E0917D09F0E0E450F74F1083C1
:1014400080917D098F3719F410927D0905C0809134
:101450007D098F5F80937D091F91089590917C098C
:1014600080917D09981711F4EFEF12C0E0917C098B
:10147000F0E0E450F74FE08180917C098F3719F458
:1014800010927C0905C080917C098F5F80937C0954
:101490008E2F0895EF92FF920F931F93CF93DF93B8
:1014A0007C01EB0190917C0980917D09981711F4E2
:1014B00080E015C00E94F1098C01C817D9070CF40F
:1014C0008E01C0E0D0E007C00E942E0AF701EC0FA9
:1014D000FD1F80832196C017D107B4F3802FDF91C1
:1014E000CF911F910F91FF90EF900895DF93CF93CD
:1014F0000F920F92CDB7DEB7282FAE014F5F5F4F2F
:101500008A3039F48DE089832A83CA0162E070E071
:1015100004C08983CA0161E070E00E94DD0980E0B7
:1015200090E00F900F90CF91DF9108950E94F10904
:10153000892BE1F30E942E0A8D3009F48AE090E0B5
:1015400008958091D3089091D408892B21F088B117
:101550008F7388B901C0469A8091D5089091D608BA
:10156000892B21F088B18F7588B901C0459A809187
:10157000E8089091E908892B21F088B18F7688B925
:1015800001C0449A809184099091850989589341BA
:1015900044F088B192E0892788B9109285091092A9
:1015A0008409809184099091850901969093850919
:1015B00080938409089584309105B9F085309105B0
:1015C00034F48230910561F0039741F513C0863001
:1015D0009105D1F08630910594F00797F9F419C080
:1015E0000F920F9280E092E01DC00F920F9285E063
:1015F00092E018C00F920F928AE092E013C00F920F
:101600000F928FE092E00EC00F920F9284E192E071
:1016100009C00F920F9289E192E004C00F920F92DD
:101620008EE192E0EDB7FEB7928381830E942E4354
:101630000F900F900895EF92FF921F93CF93DF9337
:10164000EC017B018881E82FF0E0E450F74F8081C6
:10165000803239F08081893009F04BC002C04F5F81
:1016600048834881E42FF0E0E450F74F80818032D6
:10167000B1F38081893099F380818D3229F08081A6
:1016800090E0C0970A97A8F54F5F4883415020E04B
:1016900030E009C0E450F74F80818E3211F42F5FA3
:1016A0003F4F5F5F58835881E52FF0E0DF01A45082
:1016B000B74F8C9190E0C0970A9760F323C0223017
:1016C0003105BCF41C911C92842F90E08450974FFC
:1016D00060E070E00E943740F7016083718382838D
:1016E0009383E881F0E0E450F74F108321E030E08D
:1016F00002C020E030E0C901DF91CF911F91FF903F
:10170000EF9008958C918E3229F2D9CF2F923F928B
:101710004F925F926F927F928F929F92AF92BF9201
:10172000CF92DF92EF92FF920F931F93DF93CF93AD
:10173000CDB7DEB7E1970FB6F894DEBF0FBECDBFD1
:101740008091FC088A37C1F08091FC088736A1F0AF
:101750008091FC08833781F08091FC08883661F025
:101760008091FC08893641F08091FC08833521F096
:101770008091FC08863731F541E0E42FF0E0E45039
:10178000F74F8081282F30E0C901815690404A9759
:1017900030F0215430402A31310508F0C5C34F5F85
:1017A000ECCF8091FC088093271280E090E0A0E0CD
:1017B000B0E08093281290932912A0932A12B0933C
:1017C0002B1279C080E090E0A0E0B0E08A839B8398
:1017D000AC83BD838E839F83A887B9878A879B87C5
:1017E000AC87BD878E879F87A88BB98B8A8B9B8B95
:1017F000AC8BBD8B8E8B9F8BA88FB98F8A8F9B8F65
:10180000AC8FBD8F8E8F9F8FA8A3B9A38091FC084A
:101810008B3601F18091FC088334E1F08091FC0863
:101820008C34C1F08091FC088235A1F08091FC08D5
:10183000873481F08091FC08843761F08091FC0846
:101840008F3641F08091FC08833621F08091FC08AE
:101850008934D1F541E0E42FF0E0E450F74F808186
:10186000282F30E0C901815690404A9730F021542A
:1018700030402A31310508F05CC34F5FECCFE9817D
:10188000F0E0E450F74F8081882309F031C32091C4
:10189000FC088A819B81AC81BD81209327128093B3
:1018A000281290932912A0932A12B0932B1280E051
:1018B00090E0A0E0B0E080932C1290932D12A093C2
:1018C0002E12B0932F124FC08091FC08863629F05B
:1018D0008091FC08843609F04FC041E0E42FF0E02D
:1018E000E450F74F8081282F30E0C90181569040A5
:1018F0004A9730F0215430402A31310508F025C391
:101900004F5FECCFC801BE016A5F7F4F0E941B0B87
:10191000892B09F4EDC2E981F0E0E450F74F8081B2
:10192000882309F0E5C26091FC088A819B81AC8123
:10193000BD812E813F814885598560932712809310
:10194000281290932912A0932A12B0932B1220935D
:101950002C1230932D1240932E1250932F1280E0B0
:1019600090E0A0E0B0E08093301290933112A09309
:101970003212B093331267C08091FC088E3609F0A2
:101980006BC041E0E42FF0E0E450F74F8081282F56
:1019900030E0C901815690404A9730F021543040E0
:1019A0002A31310508F0DEC24F5FECCFC801BE011D
:1019B0006A5F7F4F0E941B0B892B09F499C2C801F3
:1019C000BE01665F7F4F0E941B0B892B41F480E0B4
:1019D00090E0A0E0B0E08A879B87AC87BD87E98173
:1019E000F0E0E450F74F8081882309F081C26091D4
:1019F000FC088A819B81AC81BD812E813F81488515
:101A00005985EA84FB840C851D8560932712809399
:101A1000281290932912A0932A12B0932B1220938C
:101A20002C1230932D1240932E1250932F12E092CD
:101A30003012F0923112009332121093331280E080
:101A400090E0A0E0B0E08093341290933512A09320
:101A50003612B09337127CC08091FC08883709F0A9
:101A600090C041E0E42FF0E0E450F74F8081282F50
:101A700030E0C901815690404A9730F021543040FF
:101A80002A31310508F07CC24F5FECCFC801BE019E
:101A90006A5F7F4F0E941B0B892B09F429C2C80182
:101AA000BE01665F7F4F0E941B0B892B09F420C289
:101AB000C801BE01625F7F4F0E941B0B892B41F45E
:101AC00080E090E0A0E0B0E08E879F87A88BB98B84
:101AD000E981F0E0E450F74F8081882309F008C2E3
:101AE0006091FC088A819B81AC81BD812E813F8100
:101AF00048855985EA84FB840C851D85AE84BF84A6
:101B0000C888D9886093271280932812909329124D
:101B1000A0932A12B0932B1220932C1230932D12E3
:101B200040932E1250932F12E0923012F092311205
:101B30000093321210933312A0923412B0923512E5
:101B4000C0923612D092371280E090E0A0E0B0E070
:101B50008093381290933912A0933A12B0933B12AB
:101B600080933C1290933D12A0933E12B0933F128B
:101B70008093401290934112A0934212B09343126B
:101B8000CBC08091FC08883709F0D1C041E0E42F38
:101B9000F0E0E450F74F8081282F30E0C9018156F2
:101BA00090404A9730F0215430402A31310508F0F6
:101BB000F5C14F5FECCFC801BE016A5F7F4F0E9445
:101BC0001B0B892B09F494C1C801BE01665F7F4FCE
:101BD0000E941B0B892B09F48BC1C801BE01625FF7
:101BE0007F4F0E941B0B892B09F482C1C801BE01E3
:101BF0006E5E7F4F0E941B0B892B09F479C1C801CF
:101C0000BE016A5E7F4F0E941B0B892B09F470C1D5
:101C1000C801BE01665E7F4F0E941B0B892B41F4F9
:101C200080E090E0A0E0B0E08A8F9B8FAC8FBD8F0A
:101C3000E981F0E0E450F74F8081882309F058C132
:101C40006091FC088A819B81AC81BD818EA79FA792
:101C5000A8ABB9AB2E813F8148855985EA84FB84C6
:101C60000C851D85AE84BF84C888D9886A887B8826
:101C70008C889D882E883F88488C598C8A8D9B8DB6
:101C8000AC8DBD8D8AA79BA7ACA7BDA7609327127B
:101C90008EA59FA5A8A9B9A980932812909329126F
:101CA000A0932A12B0932B1220932C1230932D1252
:101CB00040932E1250932F12E0923012F092311274
:101CC0000093321210933312A0923412B092351254
:101CD000C0923612D0923712609238127092391236
:101CE00080923A1290923B1220923C1230923D1216
:101CF00040923E1250923F128AA59BA5ACA5BDA56D
:101D00008093401290934112A0934212B0934312D9
:101D100080E090E0A0E0B0E0809344129093451200
:101D2000A0934612B093471221E030E0E3C08091C7
:101D3000FC08803729F08091FC08813709F0D8C071
:101D400041E0E42FF0E0E450F74F8081282F30E0AD
:101D5000C901815690404A9730F0215430402A31D1
:101D6000310508F029C14F5FECCFC801BE016A5FA1
:101D70007F4F0E941B0B892B09F4BAC0C801BE011A
:101D8000665F7F4F0E941B0B892B09F4B1C0C8010D
:101D9000BE01625F7F4F0E941B0B892B09F4A8C014
:101DA000C801BE016E5E7F4F0E941B0B892B09F498
:101DB0009FC0C801BE016A5E7F4F0E941B0B892B2A
:101DC00009F496C0C801BE01665E7F4F0E941B0BDE
:101DD000892B09F48DC0C801BE01625E7F4F0E944D
:101DE0001B0B892B41F480E090E0A0E0B0E08E8FE7
:101DF0009F8FA8A3B9A3E981F0E0E450F74F808159
:101E0000882309F075C06091FC088A819B81AC81B0
:101E1000BD818EA79FA7A8ABB9AB2E813F81488516
:101E20005985EA84FB840C851D85AE84BF84C888EF
:101E3000D9886A887B888C889D882E883F88488CC2
:101E4000598C8A8D9B8DAC8DBD8D8AA39BA3ACA331
:101E5000BDA38E8D9F8DA8A1B9A18EA39FA3A8A776
:101E6000B9A7609327128EA59FA5A8A9B9A98093A9
:101E7000281290932912A0932A12B0932B12209328
:101E80002C1230932D1240932E1250932F12E09269
:101E90003012F09231120093321210933312A0924A
:101EA0003412B0923512C0923612D092371260922C
:101EB00038127092391280923A1290923B1220920C
:101EC0003C1230923D1240923E1250923F128AA133
:101ED0009BA1ACA1BDA18093401290934112A0930D
:101EE0004212B09343128EA19FA1A8A5B9A514CF09
:101EF00020E030E0C901E1960FB6F894DEBF0FBED6
:101F0000CDBFCF91DF911F910F91FF90EF90DF90A8
:101F1000CF90BF90AF909F908F907F906F905F9089
:101F20004F903F902F9008958091FD08882301F7EE
:101F300038CC4983CE010196BE016E5F7F4F0E946F
:101F40001B0B892B09F09BCCD3CF49838E010F5FEC
:101F50001F4FC801BE016E5F7F4F0E941B0B892B74
:101F600039F2D0CC49838E010F5F1F4FC801BE01EB
:101F70006E5F7F4F0E941B0B892B09F4B9CF16CDE2
:101F800049838E010F5F1F4FC801BE016E5F7F4FF7
:101F90000E941B0B892B09F4ABCF78CD49838E01AE
:101FA0000F5F1F4FC801BE016E5F7F4F0E941B0B6A
:101FB000892B09F49DCFFFCD49838E010F5F1F4F01
:101FC000C801BE016E5F7F4F0E941B0B892B09F475
:101FD0008FCFCBCEAF92BF92DF92EF92FF920F9353
:101FE0001F93CF93DF935C017A018B01FC01EE0F0D
:101FF000FF1FE35FFD4E80819181019779F4C0E07E
:10200000D0E0CB01BA0120E030E040E050E00E9497
:10201000623C1816A4F0C1E0D0E011C0DD24CB0171
:10202000BA0120E030E040E050E00E94623C181627
:1020300014F0DD24D39481E0D826CD2DD0E0C80162
:10204000B7010E94D13C9B0177FF03C030952195D9
:102050003F4FB901882777FD8095982F0E94043D56
:102060007B018C01F501EE0FFF1FEE0FFF1FE55600
:10207000F34F60E070EC8FE794E42081318142817E
:1020800053810E94693C9B01AC01C801B7010E94C9
:10209000493E0E94D13CAB0177FF02C040E050E0D6
:1020A00084E04030580714F04FEF53E0219711F4CB
:1020B00040505C4FC50160E270E00E943635DF9110
:1020C000CF911F910F91FF90EF90DF90BF90AF9055
:1020D00008956F927F928F929F92AF92BF92CF920C
:1020E000DF92EF92FF920F931F935A016B01FC0155
:1020F000EE0FFF1FDF01AD5EB34F8D909C90DF01AF
:10210000AB5FBD4E6D907C90E15EFD4E6081718154
:1021100068197909882777FD8095982F0E94043DDA
:102120007B018C01C601B50120E030E048EC52E4AF
:102130000E94693C9B01AC01C801B7010E94493E65
:102140000E94D13C9B01AC01280D391DC3016EE1F9
:1021500070E0A9010E9436351F910F91FF90EF901A
:10216000DF90CF90BF90AF909F908F907F906F90B7
:1021700008956F927F928F929F92AF92BF92CF926B
:10218000DF92EF92FF920F931F933B014C0181E08E
:1021900090E0BA01A9010E94691088EE93E020E95D
:1021A00031E0F9013197F1F70197D9F780E090E03C
:1021B000B401A3010E94691082E090E0B801A70178
:1021C0000E94691083E090E0B601A5010E946910A9
:1021D00081E090E01F910F91FF90EF90DF90CF9002
:1021E000BF90AF909F908F907F906F900895CF9306
:1021F000DF93EC01CB01BA0124E13EEA43E251E472
:102200000E94493E0E94D13CAB011616170614F0FD
:1022100041E050E084E04030580714F04FEF53E0C5
:10222000CE0160E270E00E943635DF91CF910895D3
:10223000CF92DF92EF92FF920F931F93CF93DF9392
:102240007B018C01C0E0D0E030E4C32E3CE9D32E0A
:10225000CE01B801A7010E94F710C6010197F1F75E
:102260002196C730D105A1F7DF91CF911F910F9132
:10227000FF90EF90DF90CF900895EF92FF920F9331
:102280001F93CF93DF937C018B01EC01CC0FDD1FFB
:10229000CB58D44F8881998140E050E060E070E0F5
:1022A0000E94F7100130110579F48881998166E068
:1022B00070E040E050E00E9436358881998168E006
:1022C00070E040E050E021C0012B09F58881998140
:1022D00066E070E041E050E00E94363508811981E7
:1022E000EE0CFF1CEE0CFF1C8FEB9CE0E80EF91EC1
:1022F000F70160817181828193810E94D13C9B01B1
:10230000AC01C80168E070E0A9010E943635DF9198
:10231000CF911F910F91FF90EF9008950F931F930E
:10232000CF93DF938C01C0E0D0E0CE01B8010E94D2
:102330003D112196C730D105C1F7DF91CF911F9193
:102340000F910895EF92FF920F931F937B018C01E1
:1023500087E090E061E070E00E943D1187E090E04E
:10236000B801A7010E94C102AC0187E090E060E2E1
:1023700070E00E94363580E49CE90197F1F788E02F
:1023800090E061E070E00E943D1188E090E0B801CB
:10239000A7010E94C102AC0181E190E060E270E01F
:1023A0000E943635E092F608F092F7080093F8089C
:1023B0001093F90881E090E09093F5088093F40879
:1023C0001F910F91FF90EF900895EF92FF920F935E
:1023D0001F937B018C0187E090E060E070E00E9439
:1023E0003D1187E090E040E050E060EA71E40E9437
:1023F000F710C801B7012DEC3CEC4CE85FE30E94FC
:10240000493E20E030E048EC52E40E94693C7B0108
:102410008C0187E090E0A701B8010E94E401AC01C3
:1024200087E090E06EE170E00E94363580E49CE940
:102430000197F1F788E090E060E070E00E943D11C4
:1024400081E190E040E050E060EA71E40E94F71022
:1024500088E090E0A701B8010E94E401AC0181E1AD
:1024600090E06EE170E00E9436351F910F91FF9071
:10247000EF900895CF92DF92EF92FF920F931F9308
:10248000CF93DF93EC0168E270E00E9451356C015C
:1024900092FD03C021E030E002C02FEF3FEFCC0FF0
:1024A000DD1FC35FDD4E88819981019719F4309556
:1024B00021953F4FB901882777FD8095982F0E947D
:1024C000043D7B018C018FEF93E0C822D922B60135
:1024D000882777FD8095982F0E94043D20E030E00A
:1024E00048EC52E40E94493E20E030EC4FE754E4CF
:1024F0000E94693C9B01AC01C801B7010E94493EA2
:10250000DF91CF911F910F91FF90EF90DF90CF90CF
:1025100008956F927F928F929F92AF92BF92CF92C7
:10252000DF92EF92FF920F931F93CF93DF937C0183
:102530008C01000F111FF801EB58F44F808191813D
:1025400064E270E00E945135035F1D4EF801208166
:102550003181E701CC0FDD1FCC0FDD1F3C0188244A
:1025600077FC8094982C21303105A9F5FE01E15CBF
:10257000F34FE080F180028113817BE1C72E7CE084
:10258000D72ECC0EDD1EC801B70120E030E044E3B9
:1025900053E40E94843B20E030E040E05FE30E948F
:1025A000493EF60120813181428153810E94853B61
:1025B0005B016C01C401B3010E94043DA8019701B5
:1025C0000E94493EC154D34F288139814A815B81A1
:1025D0000E94693C30C0FE01E15CF34FE080F18075
:1025E00002811381C401B3010E94043DA801970137
:1025F0000E94493EFE01E154F34F20813181428126
:1026000053810E94693C5B016C01C55ED34FC801D8
:10261000B70120E030E044E353E40E94843B20E033
:1026200030E040E05FE30E94493E288139814A81E1
:102630005B810E94853B9B01AC01C601B5010E94F4
:10264000843B25E33AEF4EE85CE30E94493EDF918C
:10265000CF911F910F91FF90EF90DF90CF90BF909F
:10266000AF909F908F907F906F900895AF92BF92A0
:10267000CF92DF92EF92FF920F931F9387E090E04B
:102680000E9489125B016C0120E030E040E050E0E4
:102690000E94623C882324F4D7FAD094D7F8D094CF
:1026A00080E49CE90197F1F788E090E00E948912AC
:1026B0007B018C0120E030E040E050E00E94623C71
:1026C000882324F417FB109517F91095C601B5015E
:1026D0002DEC3CEC4CEC5DE30E94843B2AE939E9AB
:1026E00049E15EE30E94623C87FD03C021E030E0E7
:1026F00011C0DD24C801B7012AE939E949E15EE3E7
:102700000E94623C882314F4DD24D39481E0D8260F
:102710002D2D30E0C9011F910F91FF90EF90DF90B8
:10272000CF90BF90AF9008958091FA089091FB08E8
:1027300001969093FB088093FA0884369105D4F0B3
:102740001092F5081092F4080E9436139093E7084F
:102750008093E60800D00F9223E232E0EDB7FEB797
:1027600032832183948383830E942E430F900F90A2
:102770000F900F9008950F931F93CF93DF9309EE5F
:1027800011E1C0E0D0E0CE010E948912F80161930E
:102790007193819391938F012196C730D10599F759
:1027A000DF91CF911F910F910895EF92FF920F93B8
:1027B0001F93DF93CF93CDB7DEB76C970FB6F89426
:1027C000DEBF0FBECDBF7E010894E11CF11C00E00E
:1027D00010E0C8010E948912F701619371938193FF
:1027E00091937F010F5F1F4F0730110591F7CE01C5
:1027F00001966C960FB6F894DEBF0FBECDBFCF9199
:10280000DF911F910F91FF90EF9008958BE292E07E
:102810000E94404387E692E00E94404384E792E0B2
:102820000E94404383EC92E00E94404383E093E0A7
:102830000E94404388E493E00E94404389E893E08B
:102840000E94404383ED93E00E94404388E094E07F
:102850000E94404389E894E00E9440438EED94E05A
:102860000E94404382E195E00E94404382E795E068
:102870000E94404382EA95E00E9440438FEB95E03E
:102880000E9440438EEF95E00E94404384E496E02E
:102890000E94404308950E94043D9B01AC0160E00A
:1028A00074E284EF99E40E94693C0E94D63C615036
:1028B000704022E42093C80028E92093C90026E054
:1028C0002093CA002FEF2093CE0010927C09109223
:1028D0007D09272F332727FD3A952093CD0060935C
:1028E000CC007298739A86E79AE066E97AE00E94D3
:1028F000B642909388098093870908956F927F92DA
:102900008F929F92AF92BF92CF92DF92EF92FF92FF
:102910000F931F93DF93CF93CDB7DEB7EAA0FBA051
:102920000CA11DA1C801B70120E030E040E450E453
:102930000E94AC3E3B014C01C801B70120E030E0F1
:1029400040E850E40E94AC3E5B016C01C801B70155
:1029500020E030E040EA50E40E94AC3E7B018C0174
:10296000C401B3012E893F89488D598D0E94493E8B
:102970002A893B894C895D890E94853B3B014C013A
:10298000C601B5012A8D3B8D4C8D5D8D0E94493E5F
:102990009B01AC01C401B3010E94853B5B016C014A
:1029A000C801B7012E8D3F8D48A159A10E94493E13
:1029B0009B01AC01C601B5010E94853BCF91DF911F
:1029C0001F910F91FF90EF90DF90CF90BF90AF904D
:1029D0009F908F907F906F9008952F923F924F928B
:1029E0005F926F927F928F929F92AF92BF92CF929F
:1029F000DF92EF92FF920F931F93DF93CF93CDB7A8
:102A0000DEB728970FB6F894DEBF0FBECDBF1C010E
:102A100049835A836B837C83C901B80129813A8138
:102A20004B815C810E94843B6D837E838F8398877A
:102A3000C701B60120E030E040E450E40E94AC3E23
:102A40002B013C01C701B60120E030E040E850E432
:102A50000E94AC3E4B015C01C701B60120E030E0B2
:102A600040EA50E40E94AC3E7B018C016D817E8186
:102A70008F81988520E030E040EC50E40E94493E90
:102A8000A80197010E94693CD1011C966D937D932A
:102A90008D939C931F976D817E818F81988520E017
:102AA00030E040E751EC0E94493EA50194010E94AC
:102AB000693CF10160877187828793876D817E8190
:102AC0008F81988520E030E040E251E40E94493E49
:102AD000A30192010E94693CD10114966D937D93EC
:102AE0008D939C93179789819A81AB81BC81F10169
:102AF00080839183A283B383C10128960FB6F89493
:102B0000DEBF0FBECDBFCF91DF911F910F91FF9020
:102B1000EF90DF90CF90BF90AF909F908F907F907D
:102B20006F905F904F903F902F9008952F923F921B
:102B30004F925F926F927F928F929F92AF92BF92CD
:102B4000CF92DF92EF92FF920F931F93DF93CF9379
:102B5000CDB7DEB72C970FB6F894DEBF0FBECDBF52
:102B60005B016C0129873A874B875C872AA83BA8C1
:102B70004CA85DA88AA19BA1ACA1BDA18D839E8319
:102B8000AF83B8878EA19FA1A8A5B9A589839A8391
:102B9000AB83BC83EAA4FBA40CA51DA56EA47FA4F3
:102BA00088A899A8C201B101A80197010E94623CBE
:102BB0001816DCF0C201B101A20191010E94493E48
:102BC0007B018C0169817A818B819C8120E030E0DE
:102BD00040E05FE30E94493EA80197010E94493E00
:102BE0009B01AC01C601B50196C0C201B101A801AB
:102BF00097010E943E3E18160CF03FC0C401B3017D
:102C0000A80197010E94843B9B01AC01C201B10164
:102C10000E94623C18168CF169857A858B859C85AB
:102C2000A60195010E94843B7B018C016D817E8110
:102C30008F819885A40193010E94493E9B01AC01BC
:102C4000C801B7010E94843B20E030E040E05FE330
:102C50000E94493E7B018C016D817E818F81988528
:102C6000A20191010E94493E9B01AC01C801B7013C
:102C70000E94853BA60195014EC0C401B301A40189
:102C800093010E94493E7B018C01C201B101A20166
:102C900091010E94493E5B016C0169817A818B81BF
:102CA0009C81A80197010E94493E20E030E040E06D
:102CB0005FEB0E94493E9B01AC0169857A858B855B
:102CC0009C850E94853B7B018C0169817A818B8187
:102CD0009C81A40193010E94493EA20191010E949E
:102CE000493E9B01AC01C801B7010E94853B7B01B5
:102CF0008C0169817A818B819C8120E030E040E009
:102D00005FEB0E94493EA60195010E94493E9B014E
:102D1000AC01C801B7010E94853BE62F2E2F372F4B
:102D2000482F592FB901CA012C960FB6F894DEBF6F
:102D30000FBECDBFCF91DF911F910F91FF90EF900C
:102D4000DF90CF90BF90AF909F908F907F906F90CB
:102D50005F904F903F902F9008952F923F924F9207
:102D60005F926F927F928F929F92AF92BF92CF921B
:102D7000DF92EF92FF920F931F93DF93CF93CDB724
:102D8000DEB72A970FB6F894DEBF0FBECDBF01970E
:102D900021F5EE24FF248701085B1D4EF701EC5955
:102DA000FD4ED701AF54BE4E608171818281938107
:102DB0002D913D914D915C910E94853BD8016D9381
:102DC0007D938D939C931397E4E0F0E0EE0EFF1E4D
:102DD000FCE1EF16F104F9F623C0EE24FF2487018D
:102DE000085B1D4EF701E751FE4ED701AF54BE4EB2
:102DF00060817181828193812D913D914D915C9192
:102E00000E94853BD8016D937D938D939C9313977E
:102E1000E4E0F0E0EE0EFF1EFCE1EF16F104F9F63F
:102E200081EB9FE09A8789874C969A8389831C82DD
:102E30001B82EB81FC81E85BFD4EE080F18002812A
:102E40001381C801B7010E94663C5B016C01A98532
:102E5000BA856D937D938D939C931397C801B701A9
:102E60000E94F83E3B014C01EB81FC81E456FD4E93
:102E7000E080F18002811381C801B7010E94663CA5
:102E80001B012C01C401B3019058A20191010E94C1
:102E9000493EE985FA856483758386839783C801F3
:102EA000B7010E94F83E7B018C01C401B301A80167
:102EB00097010E94493EA985BA8518966D937D9326
:102EC0008D939C931B972B813C8123533E4ED901BC
:102ED0008D919D910D90BC91A02D8D839E83AF838C
:102EE000B887BC01CD01A60195010E94493EE98544
:102EF000FA856487758786879787608A718A828A50
:102F0000938AC601B501A20191010E94493EE9855B
:102F1000FA85648B758B868B978BD7FAD094D7F80C
:102F2000D094C601B501A80197010E94493EA98528
:102F3000BA8558966D937D938D939C935B976D8125
:102F40007E818F819885A40193010E94493EE98189
:102F5000FA816083718382839383E086F18602879E
:102F600013872486358646865786EB81FC81ED5A89
:102F7000F24F80819181A281B381E981FA81808BB6
:102F8000918BA28BB38B80E090E0A0E8BFE380A39D
:102F900091A3A2A3B3A38B819C8104969C838B8372
:102FA000A985BA85A05CBF4FBA87A987E05CFF4FAF
:102FB000FA83E9834C9709F03CCF2A960FB6F89430
:102FC000DEBF0FBECDBFCF91DF911F910F91FF905C
:102FD000EF90DF90CF90BF90AF909F908F907F90B9
:102FE0006F905F904F903F902F9008952F923F9257
:102FF0004F925F926F927F928F929F92AF92BF9209
:10300000CF92DF92EF92FF920F931F93DF93CF93B4
:10301000CDB7DEB768970FB6F894DEBF0FBECDBF51
:103020000E94AD16EFE6FFE080E090E0A0E0B0E0A7
:1030300080839183A283B38384839583A683B7839C
:1030400080879187A287B38784879587A687B7876C
:1030500070962FE0EF3AF20759F780E090E0A0E891
:10306000BFE380936F0F9093700FA093710FB09395
:10307000720F8093830F9093840FA093850FB0936A
:10308000860F8093970F9093980FA093990FB0930A
:103090009A0F8093AB0F9093AC0FA093AD0FB093AA
:1030A000AE0F1E8A1D8ADCC0AB89BC896D917D91F3
:1030B0008D919D91BC8BAB8BF80120813181428138
:1030C00053810E94493E9B01AC01C701B6010E9499
:1030D000853B6B017C010894A11CB11C005F1F4F54
:1030E000F4E0AF16B10401F7D2016D937D938D9397
:1030F0009D932D010894811C911CB4E08B169104C2
:10310000A1F0F201C080D180E280F3807C8A6B8ADA
:103110000F89188D080D191D000F111F000F111FA9
:103120000F54104FAA24BB24BFCFF10194E0EE0F3F
:10313000FF1F9A95E1F7E159F04F89819A81AB81A0
:10314000BC8180839183A283B3838D819E81AF8173
:10315000B885E989FA8980839183A283B3838985BD
:103160009A85AB85BC8584839583A683B7838D853B
:103170009E85AF85B88980879187A287B387089499
:10318000211C311C7096FA8BE98BF4E02F16310468
:1031900061F42D893E8986E0220F331F8A95E1F77D
:1031A0002159324FEFE6FFE025C080E090E0A0E03B
:1031B000B0E089839A83AB83BC838D839E83AF8386
:1031C000B88789879A87AB87BC878D879E87AF87AB
:1031D000B88B2E010894411C511C8824992431017C
:1031E00004E0660C771C0A95E1F7AFE6BFE06A0ED3
:1031F0007B1E87CF4081518162817381D9014D93BC
:103200005D936D937C93139744815581668177819B
:1032100014964D935D936D937C93179740855185DC
:103220006285738518964D935D936D937C931B9780
:1032300044855585668577851C964D935D936D9382
:103240007C931F977096205F3F4FBFE0EF3AFB07DC
:1032500089F6ED89FE893196FE8BED8B389781F0EA
:1032600083E79FE09A8B898B22243324AD89BE8922
:1032700014E0AA0FBB1F1A95E1F7B88FAF8B95CF5B
:1032800068960FB6F894DEBF0FBECDBFCF91DF9129
:103290001F910F91FF90EF90DF90CF90BF90AF9074
:1032A0009F908F907F906F905F904F903F902F9066
:1032B0000895EF92FF920F931F9380E090E00E9499
:1032C000F61780917B0F90917C0FA0917D0FB091AC
:1032D0007E0F8093630C9093640CA093650CB09365
:1032E000660C80918B0F90918C0FA0918D0FB091F7
:1032F0008E0F8093670C9093680CA093690CB09329
:103300006A0C80919B0F90919C0FA0919D0FB091A2
:103310009E0F80936B0C90936C0CA0936D0CB093EC
:103320006E0C60917F0F7091800F8091810F909152
:10333000820F20916F0F3091700F4091710F50915B
:10334000720F0E940F3C60936F0C7093700C80930F
:10335000710C9093720CE0908F0FF090900F009191
:10336000910F1091920FC801B701A80197010E9417
:10337000493E9B01AC0160E070E080E89FE30E9461
:10338000843B0E94023F9B01AC0117FB109517F98B
:103390001095C801B7010E940F3C6093730C7093A5
:1033A000740C8093750C9093760C6091930F7091D0
:1033B000940F8091950F9091960F2091970F3091D7
:1033C000980F4091990F50919A0F0E940F3C609373
:1033D000770C7093780C8093790C90937A0C2091F1
:1033E000F1113091F2114091F3115091F4112093A9
:1033F0007B0C30937C0C40937D0C50937E0C809121
:10340000EA089091EB08019709F069C08DB79EB763
:103410004E970FB6F8949EBF0FBE8DBFEDB7FEB7A7
:1034200031968EE696E0ADB7BEB712969C938E931A
:1034300011978091630C9091640CA091650CB091F0
:10344000660C82839383A483B5838091670C9091EB
:10345000680CA091690CB0916A0C86839783A08751
:10346000B18780916B0C90916C0CA0916D0CB09118
:103470006E0C82879387A487B58780916F0C90919B
:10348000700CA091710CB091720C86879787A08BFD
:10349000B18B8091730C9091740CA091750CB091CC
:1034A000760C828B938BA48BB58B8091770C90914B
:1034B000780CA091790CB0917A0C868B978BA08FA9
:1034C000B18F228F338F448F558F0E942E438DB73B
:1034D0009EB74E960FB6F8949EBF0FBE8DBF1F913C
:1034E0000F91FF90EF9008952F923F924F925F922D
:1034F0006F927F928F929F92AF92BF92CF92DF9204
:10350000EF92FF920F931F93DF93CF93CDB7DEB768
:10351000C25ED1400FB6F894DEBF0FBECDBFA0E0B3
:10352000B0E060E070E020E030E040E050E091E1A9
:10353000292E312C2C0E3D1E81E6482E512C4C0E8E
:103540005D1E01EA602E712C6C0E7D1E11EE812E27
:10355000912C8C0E9D1EF1E2EF2EF1E0FF2EEC0E71
:10356000FD1EE1E0F0E0EC0FFD1FE60FF71F2083EA
:10357000318342835383F101E60FF71F20833183A8
:1035800042835383CD01E4E0880F991FEA95E1F768
:103590005201A80EB91E6301C80ED91E8401080F7E
:1035A000191FF701E80FF91FCF51DE4FF983E883A8
:1035B000C15ED14080E090E0F501219331934193C9
:1035C00051935F01F60121933193419351936F0120
:1035D000F80121933193419351938F01CF51DE4FE5
:1035E000E881F981C15ED140219331934193519398
:1035F000CF51DE4FF983E883C15ED140019684301C
:103600009105D1F611966C5F7F4FA430B10509F09A
:10361000A8CFE090C412F090C5120091C61210918C
:10362000C712C801B7010E94663C3B014C012090C3
:10363000C8123090C9124090CA125090CB12C201E9
:10364000B1010E94663CC353DE4F688379838A834D
:103650009B83CD5CD140C401B301C353DE4F2881AD
:1036600039814A815B81CD5CD1400E94493EA5965B
:103670006CAF7DAF8EAF9FAFA597C801B7010E9419
:10368000F83E5B016C01E090CC12F090CD120091FD
:10369000CE121091CF12C801B7010E94663CC753E9
:1036A000DE4F688379838A839B83C95CD140C201E2
:1036B000B1010E94F83ECB53DE4F688379838A8341
:1036C0009B83C55CD140C401B301CB53DE4F28813D
:1036D00039814A815B81C55CD1400E94493ECF520D
:1036E000DE4F688379838A839B83C15DD140C801A3
:1036F000B7010E94F83E1B012C01C601B50190588C
:10370000C753DE4F288139814A815B81C95CD14032
:103710000E94493E7B018C01CF52DE4F6881798146
:103720008A819B81C15DD140A20191010E94493EE5
:103730009B01AC01C801B7010E94853BA9966CAF03
:103740007DAF8EAF9FAFA997C601B501A2019101D0
:103750000E94493E7B018C01CF52DE4F6881798106
:103760008A819B81C15DD140C753DE4F2881398159
:103770004A815B81C95CD1400E94493E9B01AC01FA
:10378000C801B7010E94853BAD966CAF7DAF8EAF8F
:103790009FAFAD97C601B501C353DE4F2881398174
:1037A0004A815B81CD5CD1400E94493EE5966CAF79
:1037B0007DAF8EAF9FAFE597C601B501CB53DE4F0E
:1037C000288139814A815B81C55CD1400E94493E94
:1037D0005B016C01C401B301C753DE4F28813981FD
:1037E0004A815B81C95CD1400E94493E7B018C01CA
:1037F000C601B501A20191010E94493E9B01AC01A5
:10380000C801B7010E94853BE9966CAF7DAF8EAFD2
:103810009FAFE99797FA909497F89094C401B301F9
:10382000A20191010E94493E7B018C01C601B501B4
:10383000C753DE4F288139814A815B81C95CD14001
:103840000E94493E9B01AC01C801B7010E94853B23
:10385000ED966CAF7DAF8EAF9FAFED97CB53DE4F44
:10386000288139814A815B81C55CD1405058CF574E
:10387000DF4F288339834A835B83C158D040C353C9
:10388000DE4F688179818A819B81CD5CD140A20124
:1038900091010E94493ECB57DF4F688379838A8329
:1038A0009B83C558D040C353DE4F688179818A819C
:1038B0009B81CD5CD140C753DE4F288139814A813D
:1038C0005B81C95CD1400E94493EC757DF4F688386
:1038D00079838A839B83C958D04080E090E0A0E838
:1038E000BFE3C356DF4F88839983AA83BB83CD5937
:1038F000D0406090D0127090D1128090D2129090EF
:10390000D312C401B3012BED3FE049E450E40E941F
:103910003E3E181684F4C401B3012BED3FE049ECA0
:1039200050E40E94843B6093D0127093D112809334
:10393000D2129093D3126090D0127090D1128090D6
:10394000D2129090D312C401B3012BED3FE049E4B1
:1039500050EC0E94623C882384F4C401B3012BED37
:103960003FE049EC50E40E94853B6093D012709395
:10397000D1128093D2129093D31280916B0D9091BB
:103980006C0DA0916D0DB0916E0D89839A83AB8300
:10399000BC8380E090E0A0E8BFE38D879E87AF877F
:1039A000B88BDE01AF59BE4FFE01EF59FF4F80E4E7
:1039B00001900D928150E1F7DE01AF5BBF4FFE0138
:1039C000319680E101900D928150E1F731E5432E6F
:1039D000512C4C0E5D1E00E010E021E4E22EF12C93
:1039E000EC0EFD1E90E1292E312C2E0C3F1C24C024
:1039F000D6016D917D918D919D916D01F501219182
:103A00003191419151915F010E94493E9B01AC016E
:103A1000C401B3010E94853B3B014C01A214B304D5
:103A200039F7D2016D937D938D939D932D010F5F97
:103A30001F4F04301105C1F0680184E0CC0CDD1C7F
:103A40008A95E1F7E1E6F1E0EC0FFD1FCE0EDF1EF7
:103A500057010F2EF0E06F2EF0E07F2EF0E08F2E5A
:103A6000F0E09F2EF02DC4CFDE019196FE01EF5ABB
:103A7000FF4F80E101900D928150E1F7DE01119638
:103A8000FE01B19680E101900D928150E1F76091C5
:103A9000B8127091B9128091BA129091BB1229811B
:103AA0003A814B815C810E94843BCB52DE4F68831C
:103AB00079838A839B83C55DD1406091BC127091EC
:103AC000BD128091BE129091BF122D813E814F8117
:103AD00058850E94843BC752DE4F688379838A836E
:103AE0009B83C95DD1406091C0127091C1128091D9
:103AF000C2129091C31229853A854B855C850E943C
:103B0000843BC352DE4F6883CD5DD140C252DE4F4D
:103B10007883CE5DD140C152DE4F8883CF5DD140E6
:103B2000C052DE4F9883C05ED140962E872E782EED
:103B3000692E862F982DA72DB62D8093C0129093B5
:103B4000C112A093C212B093C312C752DE4F688154
:103B500079818A819B81C95DD140CB52DE4F28811A
:103B600039814A815B81C55DD1400E940F3CCF53B2
:103B7000DE4F688379838A839B83C15CD1406093E5
:103B800064127093651280936612909367120E947C
:103B9000663C2091CD113091CE114091CF115091C2
:103BA000D0110E94493E9B01AC01CB52DE4F68818F
:103BB00079818A819B81C55DD1400E94843B5B01F4
:103BC0006C016093B8127093B9128093BA129093FB
:103BD000BB12CF53DE4F688179818A819B81C15CA2
:103BE000D1400E94F83E2091CD113091CE114091EC
:103BF000CF115091D0110E94493E9B01AC01C75298
:103C0000DE4F688179818A819B81C95DD1400E94A4
:103C1000843B7B018C016093BC127093BD12809336
:103C2000BE129093BF128091530D9091540DA091AC
:103C3000550DB091560DC354DE4F88839983AA83E6
:103C4000BB83CD5BD140692D782D872D962DC35434
:103C5000DE4F288139814A815B81CD5BD1400E9452
:103C6000843B1B012C01C601B501A60195010E94F0
:103C7000493E3B014C01C801B701A80197010E94D0
:103C8000493E5B016C01C401B301A60195010E948C
:103C9000853B7B018C01C201B101A20191010E940F
:103CA000493E9B01AC01C801B7010E94853B0E94BF
:103CB000023FC355DE4F688379838A839B83CD5A45
:103CC000D14080915B0D90915C0DA0915D0DB09104
:103CD0005E0DC754DE4F88839983AA83BB83C95B7B
:103CE000D1408091630D9091640DA091650DB091CC
:103CF000660DCB54DE4F88839983AA83BB83C55B53
:103D0000D140C754DE4F688179818A819B81C95B2C
:103D1000D140CB54DE4F288139814A815B81C55B1C
:103D2000D1400E94853B9B01AC01C355DE4F6881A9
:103D300079818A819B81CD5AD1400E943E3E882361
:103D4000CCF040E050E09A012C593D4EFA01E75189
:103D5000FE4E80819181A281B381F901808391839C
:103D6000A283B3834C5F5F4F4C31510561F780E014
:103D700090E007C6B301C4019501A6010E94853BEE
:103D80000E94023F9B01AC01C201B1010E940F3CA5
:103D90002B013C01C754DE4F688179818A819B8168
:103DA000C95BD1409058C754DE4F288139814A8180
:103DB0005B81C95BD1400E94493E7B018C01CB54A1
:103DC000DE4F688179818A819B81C55BD1409B01EF
:103DD000AC010E94493E9B01AC01C801B7010E94A1
:103DE000843B7B018C01C355DE4F688179818A81D8
:103DF0009B81CD5AD1409B01AC010E94493E9B0161
:103E0000AC01C801B7010E94853B7B018C01C754FE
:103E1000DE4F688179818A819B81C95BD14020E036
:103E200030E040E050EC0E94493ECB54DE4F288108
:103E300039814A815B81C55BD1400E94493E9B012B
:103E4000AC01C801B7010E94693C0E94763B0E9408
:103E5000F83E9B01AC01CB54DE4F688179818A81A9
:103E60009B81C55BD1400E94493EC355DE4F2881EE
:103E700039814A815B81CD5AD1400E94693C0E94C0
:103E8000E93BC755DE4F688379838A839B83C95A90
:103E9000D1400E94F83E9B01AC0180E090E0A0E0A0
:103EA000B0E0898B9A8BAB8BBC8BC754DE4F68819B
:103EB00079818A819B81C95BD1400E94493E7B0107
:103EC0008C0117FB109517F91095A090D012B090A7
:103ED000D112C090D212D090D312C601B5010E9467
:103EE000663C9B01AC01C801B7010E94493E6D8B45
:103EF0007E8B8F8B988FC601B5010E94F83E9B0187
:103F0000AC01C801B7010E94493E698F7A8F8B8F3F
:103F10009C8F80E090E0A0E8BFE38D8F9E8FAF8FF5
:103F2000B8A3CF53DE4F688179818A819B81C15CC0
:103F3000D1400E94663CCB55DE4F688379838A83EB
:103F40009B83C55AD140C301B2010E94663C4B011C
:103F50005C0111E2C12E11E0D12ECC0EDD1ECB553D
:103F6000DE4F688179818A819B81C55AD140A50144
:103F700094010E94493ED6016D937D938D939C934D
:103F80001397CF53DE4F688179818A819B81C15C11
:103F9000D1400E94F83ECF55DE4F688379838A83F3
:103FA0009B83C15AD140A50194010E94493EF6016C
:103FB000608B718B828B938BC301B2010E94F83EA0
:103FC000CF54DE4F688379838A839B83C15BD14062
:103FD000D60190966D937D938D939C939397CF5537
:103FE000DE4F88819981AA81BB81C15AD140B058E6
:103FF000F60184839583A683B783CB55DE4F8881F2
:104000009981AA81BB81C55AD140848B958BA68B9F
:10401000B78B80E090E0A0E0B0E084A395A3A6A3D6
:10402000B7A377FA709477F87094C301B2010E9435
:10403000F83E7B018C01CB55DE4F688179818A8106
:104040009B81C55AD140A80197010E94493ED601E3
:1040500018966D937D938D939C931B97CF55DE4F50
:10406000688179818A819B81C15AD140A8019701D9
:104070000E94493EF601608F718F828F938FD60127
:1040800098968D929D92AD92BC929B97C755DE4FAC
:10409000688179818A819B81C95AD1400E94663C9E
:1040A0009B01AC01C754DE4F688179818A819B8175
:1040B000C95BD1400E94493E2B013C01A5019401FE
:1040C0000E94493E7B018C01CB55DE4F288139810E
:1040D0004A815B81C55AD1400E94493EF6016487FE
:1040E000758786879787C801B701CF55DE4F28812E
:1040F00039814A815B81C15AD1400E94493ED60133
:104100005C966D937D938D939C935F97C301B201F1
:10411000CF54DE4F288139814A815B81C15BD14018
:104120000E94493EC354DE4F288139814A815B8118
:10413000CD5BD1400E94853BF60164A775A786A799
:1041400097A780E090E0A0E8BFE384AF95AFA6AF6B
:10415000B7AFDE01AF59BE4F80E401900D928150A0
:10416000E1F7DE01AF5ABF4FFE01719680E1019089
:104170000D928150E1F7B1E44B2E512C4C0E5D1E97
:1041800000E010E0A1E5EA2EF12CEC0EFD1EF0E1BE
:104190002F2E312C2E0C3F1C24C0D6016D917D9109
:1041A0008D919D916D01F501219131914191519137
:1041B0005F010E94493E9B01AC01C401B3010E9412
:1041C000853B3B014C01A214B30439F7D2016D9336
:1041D0007D938D939D932D010F5F1F4F043011052B
:1041E000C1F06801E4E0CC0CDD1CEA95E1F7E1E602
:1041F000F1E0EC0FFD1FCE0EDF1E57010F2EF0E099
:104200006F2EF0E07F2EF0E08F2EF0E09F2EF02D4D
:10421000C4CFDE01D196FE01EF5BFF4F80E101903C
:104220000D928150E1F7DE015196FE01F19680E199
:1042300001900D928150E1F76D887E888F88988C6F
:10424000A090CD11B090CE11C090CF11D090D011D0
:10425000E988FA880B891C89C601B501CF55DE4F64
:10426000288139814A815B81C15AD1400E94493EEF
:104270009B01AC01C401B3010E94853B1B012C01D1
:10428000C601B501CB55DE4F288139814A815B815A
:10429000C55AD1400E94493E9B01AC01C801B701FB
:1042A0000E94853B9B01AC01C201B1010E940F3C01
:1042B00060936412709365128093661290936712F4
:1042C000C801B701A80197010E94493E7B018C01FA
:1042D000C401B301A40193010E94493E9B01AC01BA
:1042E000C801B7010E94853B0E94023F7B018C01FF
:1042F000698D7A8D8B8D9C8D2091530D3091540D4D
:104300004091550D5091560D0E94843BA801970194
:104310000E940F3C609368127093691280936A1236
:1043200090936B1280E090E0A0E0B0E080936C127C
:1043300090936D12A0936E12B0936F1280937012CF
:1043400090937112A0937212B093731281E090E077
:104350000E94F6178DB79EB7805490400FB6F89420
:104360009EBF0FBE8DBFADB7BEB71196EFE2FEE0A8
:1043700080E401900D928150E1F7CE018F519F4F63
:104380000E947107DE01AF59BE4FFE01EF51FF4F92
:1043900080E401900D928150E1F780E090E0A0E888
:1043A000BFE38D879E87AF87B88BC352DE4F2881CE
:1043B000CD5DD140C252DE4F3881CE5DD140C15279
:1043C000DE4F4881CF5DD140C052DE4F5881C05E84
:1043D000D140C901DA0189879A87AB87BC87C75268
:1043E000DE4F88819981AA81BB81C95DD1408D83CF
:1043F0009E83AF83B887CB52DE4F88819981AA8193
:10440000BB81C55DD14089839A83AB83BC83DE01C8
:10441000AF5BBF4FFE01319680E101900D9281505C
:10442000E1F771E5472E512C4C0E5D1E00E010E0C7
:10443000ADB7BEB7A05CBF4F0FB6F894BEBF0FBEFE
:10444000ADBF61E4E62EF12CEC0EFD1E50E1252EF1
:10445000312C2E0C3F1C24C0F60161917191819189
:1044600091916F01D5012D913D914D915D915D012E
:104470000E94493E9B01AC01C401B3010E94853BEF
:104480003B014C01A214B30439F7F201619371931B
:10449000819391932F010F5F1F4F04301105C1F0DD
:1044A000680144E0CC0CDD1C4A95E1F781E691E01F
:1044B0008C0F9D1FC80ED91E57010F2EF0E06F2ED6
:1044C000F0E07F2EF0E08F2EF0E09F2EF02DC4CF95
:1044D000FE01EF5AFF4F6084718482849384E080F0
:1044E000F18002811381A480B580C680D780C60187
:1044F000B501A80197010E940F3C60936C12709364
:104500006D1280936E1290936F12C801B701A801CB
:1045100097010E94493E7B018C01C601B501A601AD
:1045200095010E94493E9B01AC01C801B7010E9460
:10453000853B0E94023F9B01AC01C401B3010E9474
:104540000F3C9B01AC016BED7FE089EC9FE30E9487
:10455000843B6093701270937112809372129093E7
:10456000731281E090E00E94F617ADB7BEB7A05479
:10457000B0400FB6F894BEBF0FBEADBF1196EFE2CC
:10458000FEE080E401900D928150E1F7CE018F5161
:104590009F4F0E947107EDB7FEB7E05CFF4F0FB66B
:1045A000F894FEBF0FBEEDBF8DB79EB78058904008
:1045B0000FB6F8949EBF0FBE8DBF2DB73EB72F5FCD
:1045C0003F4FD901FE01EF51FF4F80E401900D9262
:1045D0008150E1F7D901A05CBF4FFE01EF59FF4FB9
:1045E00080E401900D928150E1F7CE018F559F4FED
:1045F0000E94E8048E010F551F4FD8018D909D90A9
:10460000AD90BC90EDB7FEB7E058FF4F0FB6F894F1
:10461000FEBF0FBEEDBFC501B40127E137EB41ED91
:1046200058E30E94623C882364F5C501B40127E188
:1046300037EB41ED58EB0E943E3E181614F580E032
:1046400090E0A0E0B0E08093741290937512A09374
:104650007612B09377128093781290937912A09388
:104660007A12B0937B12D80154966D917D918D9101
:104670009C91579758962D913D914D915C915B97E8
:1046800043C031EAC32ED12CCC0EDD1EF601E0A0D2
:10469000F1A002A113A1C801B701A80197010E94CE
:1046A000493E9B01AC0160E070E080E89FE30E941E
:1046B000843B0E94023FA80197010E940F3C609337
:1046C00078127093791280937A1290937B12D601AC
:1046D00050966D917D918D919C915397A501940178
:1046E0000E940F3C6093741270937512809376123F
:1046F00090937712F60160A571A582A593A524A1D8
:1047000035A146A157A150580E940F3C60937C12DE
:1047100070937D1280937E1290937F12609074123A
:10472000709075128090761290907712C401B30148
:104730002AE939E949E150E40E943E3E18160CF09E
:104740004CC0C401B3012BED3FE049E450E40E94AA
:10475000843B6093741270937512809376129093D9
:1047600077128091781290917912A0917A12B0917B
:104770007B12B0588093781290937912A0937A129A
:10478000B0937B1260907C1270907D1280907E12AC
:1047900090907F12C401B30120E030E040E050E08F
:1047A0000E943E3E18164CF4C401B3012BED3FE0CD
:1047B00049E450E40E94843B08C0C401B3012BEDDE
:1047C0003FE049E450E40E94853B60937C12709383
:1047D0007D1280937E1290937F126090741270907D
:1047E00075128090761290907712C401B3012AE975
:1047F00039E949E150EC0E94623C88230CF04CC03E
:10480000C401B3012BED3FE049E450E40E94853B35
:10481000609374127093751280937612909377124E
:104820008091781290917912A0917A12B0917B12B6
:10483000B0588093781290937912A0937A12B09323
:104840007B1260907C1270907D1280907E1290900E
:104850007F12C401B30120E030E040E050E00E944C
:104860003E3E18164CF4C401B3012BED3FE049E481
:1048700050E40E94843B08C0C401B3012BED3FE02B
:1048800049E450E40E94853B60937C1270937D1252
:1048900080937E1290937F1281E090E00E94F61741
:1048A0008DB79EB74E970FB6F8949EBF0FBE8DBFC3
:1048B000EDB7FEB7319689E896E0ADB7BEB7129670
:1048C0009C938E9311978091641290916512A091A0
:1048D0006612B091671282839383A483B58380911B
:1048E000681290916912A0916A12B0916B1286833E
:1048F0009783A087B18780916C1290916D12A091DF
:104900006E12B0916F1282879387A487B5878091CA
:10491000701290917112A0917212B09173128687E9
:104920009787A08BB18B8091741290917512A09192
:104930007612B0917712828B938BA48BB58B80917A
:10494000781290917912A0917A12B0917B12868B95
:10495000978BA08FB18F80917C1290917D12A09146
:104960007E12B0917F12828F938FA48FB58F0E9499
:104970002E43EDB7FEB77E960FB6F894FEBF0FBE7E
:10498000EDBFCE51DE4F0FB6F894DEBF0FBECDBFE8
:10499000CF91DF911F910F91FF90EF90DF90CF901B
:1049A000BF90AF909F908F907F906F905F904F904F
:1049B0003F902F9008950E94741A8DB79EB74E971E
:1049C0000FB6F8949EBF0FBE8DBFEDB7FEB7319600
:1049D00089EA96E0ADB7BEB712969C938E93119775
:1049E0008091641290916512A0916612B091671245
:1049F00082839383A483B583809168129091691216
:104A0000A0916A12B0916B1286839783A087B187B9
:104A100080916C1290916D12A0916E12B0916F12F4
:104A200082879387A487B5878091701290917112C5
:104A3000A0917212B091731286879787A08BB18B69
:104A40008091741290917512A0917612B0917712A4
:104A5000828B938BA48BB58B809178129091791275
:104A6000A0917A12B0917B12868B978BA08FB18F19
:104A700080917C1290917D12A0917E12B0917F1254
:104A8000828F938FA48FB58F0E942E438DB79EB7D0
:104A90004E960FB6F8949EBF0FBE8DBF08952F920D
:104AA0003F924F925F926F927F928F929F92AF92BE
:104AB000BF92CF92DF92EF92FF920F931F93DF93FB
:104AC000CF93CDB7DEB760970FB6F894DEBF0FBEB9
:104AD000CDBF3B014C0119012A0160E070E080EA82
:104AE00091E40E9418110E94BB136AA97BA98CA9AA
:104AF0009DA920E030E040E05FE30E94623C882313
:104B00000CF4E6C18091F2089091F3088130910590
:104B100009F048C06092B8127092B9128092BA122D
:104B20009092BB122092BC123092BD124092BE12E3
:104B30005092BF12E092C012F092C1120093C212C2
:104B40001093C312A092C412B092C512C092C612A2
:104B5000D092C7128EA19FA1A8A5B9A58093C81213
:104B60009093C912A093CA12B093CB128AA59BA5A9
:104B7000ACA5BDA58093CC129093CD12A093CE127C
:104B8000B093CF128EA59FA5A8A9B9A98093D012E2
:104B90009093D112A093D212B093D3120E94741AA0
:104BA0002C014CC0029719F04424552447C0609250
:104BB000641270926512809266129092671220922F
:104BC00068123092691240926A1250926B12E0920F
:104BD0006C12F0926D1200936E1210936F12A092ED
:104BE0007012B0927112C0927212D09273128EA192
:104BF0009FA1A8A5B9A58093741290937512A09354
:104C00007612B09377128AA59BA5ACA5BDA580931B
:104C1000781290937912A0937A12B0937B128EA59A
:104C20009FA5A8A9B9A980937C1290937D12A09307
:104C30007E12B0937F1231E0432E512C1092F10876
:104C40001092F0088AA99BA9ACA9BDA98093EC0891
:104C50009093ED08A093EE08B093EF08ADB7BEB700
:104C60005E970FB6F894BEBF0FBEADBFEDB7FEB7EF
:104C7000319685EC96E012969C938E9311978091D5
:104C8000E9119091EA11A091EB11B091EC1182839E
:104C90009383A483B5838091ED119091EE11A0913F
:104CA000EF11B091F01186839783A087B18780912F
:104CB000F1119091F211A091F311B091F41182874A
:104CC0009387A487B5878091F5119091F611A091F3
:104CD000F711B091F81186879787A08BB18B8091DF
:104CE000F9119091FA11A091FB11B091FC11828BF6
:104CF000938BA48BB58B8091FD119091FE11A091A7
:104D0000FF11B0910012868B978BA08FB18F80918D
:104D1000011290910212A0910312B0910412828F9D
:104D2000938FA48FB58F0E942E43EDB7FEB73196B7
:104D300086EF96E0ADB7BEB712969C938E9311970F
:104D40008091641290916512A0916612B0916712E1
:104D500082839383A483B5838091681290916912B2
:104D6000A0916A12B0916B1286839783A087B18756
:104D700080916C1290916D12A0916E12B0916F1291
:104D800082879387A487B587809170129091711262
:104D9000A0917212B091731286879787A08BB18B06
:104DA0008091741290917512A0917612B091771241
:104DB000828B938BA48BB58B809178129091791212
:104DC000A0917A12B0917B12868B978BA08FB18FB6
:104DD00080917C1290917D12A0917E12B0917F12F1
:104DE000828F938FA48FB58F0E942E43EE24FF24D1
:104DF00000E010E08DB79EB74E960FB6F8949EBFB8
:104E00000FBE8DBFC7010E948912F801E751FE4E07
:104E10006083718382839383F801E957F44F608341
:104E20007183828393830894E11CF11C0C5F1F4FF4
:104E300097E0E916F10431F7662477248824992451
:104E40001E010894211C311C530124E0AA0CBB1C38
:104E50002A95E1F7A3EABBE0AA0EBB1EF401E957CD
:104E6000F44F4081518162817381F401EC59FD4E10
:104E70000081118122813381C090EC08D090ED082F
:104E8000E090EE08F090EF08C1010E94ED14D5010A
:104E9000F10180E101900D928150E1F70894611CCD
:104EA000711C84E090E0880E991E97E069167104E9
:104EB00059F6452849F081E090E09093E908809305
:104EC000E80821E030E006C01092E9081092E808F6
:104ED00020E030E0C90160960FB6F894DEBF0FBE47
:104EE000CDBFCF91DF911F910F91FF90EF90DF9099
:104EF000CF90BF90AF909F908F907F906F905F907A
:104F00004F903F902F90089581E090E00E94CE3323
:104F1000019739F182E090E00E94CE33019709F1C8
:104F200084E090E00E94CE330197D9F088E090E0D1
:104F30000E94CE330197A9F080E190E00E94CE3329
:104F4000019779F080E290E00E94CE33019749F01A
:104F500080E490E00E94CE33019719F021E030E028
:104F600006C088B190E1892788B920E030E0C90106
:104F70000895CF93DF930E94A23581E090E00E94D4
:104F8000CE33019719F4C2E0D0E002C0C1E0D0E016
:104F900084E090E00E94CE33019729F4CE01880F7F
:104FA000991FC80FD91F80E290E00E94CE3301976D
:104FB00039F4CE01880F991F880F991FC80FD91F88
:104FC000CE01DF91CF9108952F923F924F925F9241
:104FD0006F927F928F929F92AF92BF92CF92DF9209
:104FE000EF92FF920F931F9380E090E00E94B92709
:104FF0002C018AE090E00E94B9271C0181E090E03A
:105000000E94B9273C0182E090E00E94B9274C0140
:1050100083E090E00E94B9275C0184E090E00E9468
:10502000B9276C0185E090E00E94B9277C0186E0F9
:1050300090E00E94B9278C0187E090E00E94B92798
:105040002DB73EB7245130400FB6F8943EBF0FBE87
:105050002DBFEDB7FEB7319627E237E0ADB7BEB74B
:1050600012963C932E9311975382428275826482EA
:1050700097828682B186A086D386C286F586E4862C
:1050800017870687918B808B338A228A0E942E4352
:105090002DB73EB72C5E3F4F0FB6F8943EBF0FBE04
:1050A0002DBF1F910F91FF90EF90DF90CF90BF9099
:1050B000AF909F908F907F906F905F904F903F90B8
:1050C0002F9008950E94A2350E94BB339093B00F99
:1050D0008093AF0F019719F020E030E003C00E94E9
:1050E00084279C01C90108956F927F928F929F92AD
:1050F000AF92BF92CF92DF92EF92FF920F931F93E6
:1051000080E090E00E9462283C0181E090E00E94F3
:1051100062284C0182E090E00E9462285C0183E0FA
:1051200090E00E9462286C0184E090E00E94622876
:105130007C0185E090E00E9462288C0186E090E08E
:105140000E9462282DB73EB7205130400FB6F89428
:105150003EBF0FBE2DBFEDB7FEB7319627E437E057
:10516000ADB7BEB712963C932E93119773826282AD
:1051700095828482B782A682D186C086F386E28633
:1051800015870487978786870E942E432DB73EB7E1
:10519000205F3F4F0FB6F8943EBF0FBE2DBF1F914B
:1051A0000F91FF90EF90DF90CF90BF90AF909F90C6
:1051B0008F907F906F9008956AE270E00E9487352B
:1051C000AA2797FDA095BA2FBC01CD010E94043DEE
:1051D00020E030E040E251E40E94693C08952F92C3
:1051E0003F924F925F926F927F928F929F92AF9277
:1051F000BF92CF92DF92EF92FF920F931F93CF93C4
:10520000DF9387E090E00E94DC281B012C0100D096
:1052100000D081E697E0EDB7FEB7928381832382C9
:105220003482458256820E942E4324EF31E08DB7AE
:105230009EB706960FB6F8949EBF0FBE8DBF40E98D
:1052400051E0CA010197F1F721503040D1F780E0D9
:1052500090E00E94DC283B014C0100D000D081E7A7
:1052600097E0EDB7FEB79283818363827482858273
:1052700096820E942E431092760B1092750B61E07D
:1052800070E07093780B6093770B82E090E09093DE
:105290007A0B8093790B83E090E090937C0B809362
:1052A0007B0B84E090E090937E0B80937D0B85E0F8
:1052B00090E09093800B80937F0B86E090E090933A
:1052C000820B8093810B87E090E09093840B809316
:1052D000830B81E190E09093860B8093850B80E0B7
:1052E00090E0A8E7B2E480931B0C90931C0CA09371
:1052F0001D0CB0931E0C80E090E0A0E0B0E0809325
:105300001F0C9093200CA093210CB093220C20E052
:1053100030E044EB52E42093230C3093240C409370
:10532000250C5093260C80E090E0ACEDB2E4809325
:10533000270C9093280CA093290CB0932A0C80E0A2
:1053400090E0A2EEB2E480932B0C90932C0CA093EF
:105350002D0CB0932E0C20932F0C3093300C4093D7
:10536000310C5093320C2093330C3093340C409317
:10537000350C5093360C80E090E0A8EDB1E48093BA
:10538000370C9093380CA093390CB0933A0C80E012
:1053900090E0A9E1B3E480933B0C90933C0CA09384
:1053A0003D0CB0933E0C10920E1210920D12109202
:1053B000101210920F12109212121092111270937A
:1053C0001412609313121092161210921512709309
:1053D00018126093171210921A121092191210924A
:1053E0001C1210921B1270931E1260931D1280E00B
:1053F00090EFAFE7B5E48093BF0C9093C00CA093FF
:10540000C10CB093C20C8093C30C9093C40CA093B6
:10541000C50CB093C60C20E030EC4FE754E4209369
:10542000C70C3093C80C4093C90C5093CA0C80939E
:10543000CB0C9093CC0CA093CD0CB093CE0C80935E
:10544000CF0C9093D00CA093D10CB093D20C80933E
:10545000D30C9093D40CA093D50CB093D60C20937E
:10546000D70C3093D80C4093D90C5093DA0C20937E
:10547000DB0C3093DC0C4093DD0C5093DE0C20935E
:10548000DF0C3093E00C4093E10C5093E20C85E884
:105490009BEEAAE7B3E480933F0C9093400CA0935B
:1054A000410CB093420C8093430C9093440CA09316
:1054B000450CB093460C20E030E046E953E42093DD
:1054C000470C3093480C4093490C50934A0C83E3AB
:1054D00093EFA3EBB3E480934B0C90934C0CA0930D
:1054E0004D0CB0934E0C80934F0C9093500CA093A6
:1054F000510CB093520C8093530C9093540CA09386
:10550000550CB093560C2093570C3093580C409385
:10551000590C50935A0C20935B0C30935C0C4093C5
:105520005D0C50935E0C20935F0C3093600C4093A5
:10553000610C5093620CC401B30120E335E44EEBDF
:1055400050E40E94493E20E030E040E850E40E94F0
:10555000843B7B018C01C401B30129E838E848E8A9
:1055600050E40E94493E2DEC3CEC4CEC5EE30E9482
:10557000853B5B016C01C401B30122E93BE149EBCE
:105580005FE30E94493E2AE333E24FE251E40E9486
:10559000853B3B014C01C201B10120E030E040EC11
:1055A0005FE30E94493E20E030E040EC5FE30E9470
:1055B000853B1B012C01C701D80180939B0C909364
:1055C0009C0CA0939D0CB0939E0C80939F0C909389
:1055D000A00CA093A10CB093A20CC301D4018093A2
:1055E000A30C9093A40CA093A50CB093A60CC70198
:1055F000D8018093A70C9093A80CA093A90CB0930A
:10560000AA0CC501D6018093AB0C9093AC0CA0936F
:10561000AD0CB093AE0C8093AF0C9093B00CA093F4
:10562000B10CB093B20CC301D4018093B30C90932E
:10563000B40CA093B50CB093B60CC101D201809309
:10564000B70C9093B80CA093B90CB093BA0C80939C
:10565000BB0C9093BC0CA093BD0CB093BE0C81E826
:1056600097E0EDB7FEB792838183C701D8018383AA
:105670009483A583B6830E942E4384E997E0EDB717
:10568000FEB792838183C501D60183839483A5836A
:10569000B6830E942E4386EA97E0EDB7FEB7928369
:1056A0008183C301D40183839483A583B6830E943D
:1056B0002E4388EB97E0EDB7FEB792838183C1015B
:1056C000D20183839483A583B6830E942E4384E111
:1056D00090E0909306128093051285E190E09093FC
:1056E00008128093071286E190E090930A1280934B
:1056F000091287E190E090930C1280930B1284EFD3
:1057000091E09093201280931F1290932212809325
:105710002112909324128093231290932612809347
:1057200025128CE291E09093140C8093130C80E28C
:1057300093E09093160C8093150C86E792E090937B
:10574000180C8093170C90931A0C8093190CC4E1D9
:10575000D0E08DB79EB706960FB6F8949EBF0FBEE9
:105760008DBF00E41CE9CE0140E050E060E271E44E
:105770000E94F710C8010197F1F72196C831D105B1
:1057800091F7DF91CF911F910F91FF90EF90DF90F4
:10579000CF90BF90AF909F908F907F906F905F90D1
:1057A0004F903F902F900895CF92DF92EF92FF920B
:1057B0000F931F93CF93DF93182F092F8EEF90E055
:1057C0000E94C03383E890E00E94C33380E090E001
:1057D00060E270E00E94C63381E090E062E070E039
:1057E0000E94C633212F302FC9016C01EE24FF2403
:1057F000C2E0D0E0CE01B7010E94C633F60141916C
:105800005191619171916F01C7010E94C1028C0198
:105810000894E11CF11C0E94E833BC01CE01019602
:105820000E94C633C8010E94EC33BC01CE0102962F
:105830000E94C6332396F7E0EF16F104D9F689E10A
:1058400090E00E94CB330E9425358091E40890912E
:10585000E508019771F40E94BB339093B00F8093D9
:10586000AF0F8130910519F40E94842702C00E9475
:10587000DB0ADF91CF911F910F91FF90EF90DF90A6
:10588000CF900895CF92DF92EF92FF920F931F93E4
:10589000CF93DF93182F092F8EEF90E00E94C03333
:1058A00083E890E00E94C33380E090E06EE170E016
:1058B0000E94C63381E090E062E070E00E94C6334F
:1058C000212F302FC9016C01EE24FF24C2E0D0E06B
:1058D000CE01B7010E94C633F60141915191619109
:1058E00071916F01C7010E94E4018C010894E11CD1
:1058F000F11C0E94E833BC01CE0101960E94C63320
:10590000C8010E94EC33BC01CE0102960E94C6334E
:105910002396F7E0EF16F104D9F689E190E00E94B2
:10592000CB330E9425350E94BB339093B00F8093F8
:10593000AF0F8130910519F40E94842702C00E94A4
:10594000DB0ADF91CF911F910F91FF90EF90DF90D5
:10595000CF9008954F925F926F927F928F929F9215
:10596000AF92BF92CF92DF92EF92FF920F931F936D
:10597000DF93CF93CDB7DEB76C970FB6F894DEBF49
:105980000FBECDBF8091D5089091D608019709F040
:1059900003C18091E8089091E908892B09F0FCC0C7
:1059A0000E94BB130E9459198091F2089091F3084C
:1059B000019709F075C08DB79EB74E970FB6F89452
:1059C0009EBF0FBE8DBFEDB7FEB731968AEC97E054
:1059D000ADB7BEB712969C938E9311978091630CCE
:1059E0009091640CA091650CB091660C82839383B6
:1059F000A483B5838091670C9091680CA091690C89
:105A0000B0916A0C86839783A087B18780916B0CD5
:105A100090916C0CA0916D0CB0916E0C8287938765
:105A2000A487B58780916F0C9091700CA091710C38
:105A3000B091720C86879787A08BB18B8091730C85
:105A40009091740CA091750CB091760C828B938B15
:105A5000A48BB58B8091770C9091780CA091790CE8
:105A6000B0917A0C868B978BA08FB18F80917B0C35
:105A700090917C0CA0917D0CB0917E0C828F938FC5
:105A8000A48FB58F0E942E431092F3081092F20853
:105A9000EDB7FEB77E960FB6F894FEBF0FBEEDBF12
:105AA0008091F2089091F308029709F075C08DB7C4
:105AB0009EB74E970FB6F8949EBF0FBE8DBFEDB741
:105AC000FEB7319685EE97E0ADB7BEB712969C93C0
:105AD0008E9311978091E9119091EA11A091EB11A9
