:100000000C947F010C94A0010C94A0010C94A0010D
:100010000C94A0010C94A0010C94A0010C94A001DC
:100020000C94A0010C94A0010C94A0010C94A001CC
:100030000C94A0010C94A0010C94A0010C94A001BC
:100040000C94A0010C94A0010C94A0010C94A001AC
:100050000C94A0010C94A0010C94A0010C94A0019C
:100060000C94A0010C9467340C94A0010C94A00192
:100070000C94A0010C94A0010C94A0010C94A0017C
:100080000C94A0010C94A0010C94A0010C94A0016C
:100090000C94B1080C94A0010C94A0010C94A00144
:1000A0000C94A0010C94A0010C94A0010C94A0014C
:1000B0000C94A0010C94A0010C94A0010C94A0013C
:1000C0000C94A0010C94A0010C94A0013B2AFC2DDF
:1000D000FC2DFC2D412BFC2DFC2DFC2DFC2DB92BDA
:1000E000FC2DFC2DFC2DFC2DFC2DE22C2A2DFC2DB5
:1000F000FC2DFC2DFC2DFC2DFC2DFC2DFC2DFC2DB8
:10010000FC2DFC2DFC2DFC2DFC2DFC2D2C2A502A29
:10011000FC2DA52ABC2A7A2BFC2DFC2D7D2BFC2D39
:10012000FC2DFC2DDD2BEC2B612CFC2D132D2D2D0E
:10013000FC2D572DFC2DFC2D802D036EDB363D9ABA
:100140009999993DABAAAA2A3E000000803F084A2F
:10015000D73B3BCE016E84BCBFFDC12F3D6C7431DB
:100160009ABD56833DDA3D00C77F11BED9E4BB4C32
:100170003E916BAAAABE000000803F072C7AA5BA68
:100180006CC590DA3B9365FC8BBC53F810FD3C5674
:1001900092834DBD879D3AB63DCBC9BF5BBE73DA36
:1001A0000FC93F05A84CCDB2D44EB93836A9020CC0
:1001B00050B9918688083CA6AAAA2ABE00000080F1
:1001C0003F6E616E00696E6600494E46494E495465
:1001D000594E414ECDCCCC3D0AD7233C17B7D13830
:1001E00077CC2B329595E6241FB14F0A00002041B1
:1001F0000000C84200401C4620BCBE4CCA1B0E5A20
:10020000AEC59D7400407A10F35A00A0724E1809D2
:100210000010A5D4E80000E87648170000E40B546D
:10022000020000CA9A3B000000E1F505000080963C
:100230009800000040420F000000A086010000006E
:10024000102700000000E803000000006400000028
:1002500000000A00000000000100000000002C76F1
:10026000D888DC674F0823DFC1DFAE59E1B1B7960C
:10027000E5E3E453C63AE651997696E8E6C2842669
:10028000EB898C9B62ED407C6FFCEFBC9C9F40F245
:10029000BAA56FA5F490055A2AF75C936B6CF967C1
:1002A0006DC11BFCE0E40D47FEF520E6B500D0ED86
:1002B000902E0300943577050080841E08000020EE
:1002C0004E0A000000C80C333333330F986E12838C
:1002D0001141EF8D2114893BE65516CFFEE6DB1860
:1002E000D1844B381BF77C1D901DA4BBE424203225
:1002F00084725E228100C9F124ECA1E53D2711241E
:100300001FBECFEFD1E2DEBFCDBF00E00CBF18E0D3
:10031000A0E0B2E0E0E4F1E800E00BBF02C007902B
:100320000D92A435B107D9F711E1A4E5B8E001C0F9
:100330001D92A23DB107E1F70E94F12F0C94453DBB
:100340000C9400002F923F924F925F926F927F9297
:100350008F929F92AF92BF92CF92DF92EF92FF92D5
:100360000F931F931A012B01FC01EE0FFF1FE350A7
:10037000FF4E0190F081E02DE130F10509F060C001
:10038000DC01AA0FBB1FAA0FBB1FFD01E95CF44FE4
:10039000A080B180C280D380FD01E954F44F608019
:1003A000718082809380AD5EB44FC601B5012D91FE
:1003B0003D914D915C910E944F387B018C01C601AB
:1003C000B50120E030E044E353E40E944F3820E0E0
:1003D00030E040E05FEB0E94143B9B01AC01C801A0
:1003E000B7010E9450387B018C01C201B1012CEC95
:1003F0003EE245E652E40E94143B9B01AC01C80179
:10040000B7010E9450387B018C01C401B301A601E1
:1004100095010E9434399B01AC01C801B7010E94CB
:10042000143B0E949C39882777FD8095982F0E9465
:10043000CF399B01AC01C401B3010E944F384BC0BE
:10044000EF2B09F04BC06C01CC0CDD1CCC0CDD1C7F
:10045000F601E95CF44F80809180A280B380CB01EB
:10046000BA012CEC3EE245E652E40E94143BF60150
:10047000ED5EF44F20813181428153810E945038DA
:100480007B018C01C501B40120E030E044E353E47A
:100490000E944F3820E030E040E05FE30E94143BD0
:1004A0009B01AC01C801B7010E9450387B018C014F
:1004B00087EB9BE0C80ED91EF601608171818281B5
:1004C0009381A50194010E9434399B01AC01C801BC
:1004D000B7010E94143B0E949C39CB011F910F91E0
:1004E000FF90EF90DF90CF90BF90AF909F908F9054
:1004F0007F906F905F904F903F902F900895DF9284
:10050000EF92FF920F931F93CF93DF937A018B01AA
:10051000FC01EE0FFF1FE350FF4E80819181019798
:1005200079F4C0E0D0E0CB01BA0120E030E040E057
:1005300050E00E942D391816A4F0C1E0D0E011C09F
:10054000DD24CB01BA0120E030E040E050E00E9421
:100550002D39181614F0DD24D39481E0D826CD2D42
:10056000D0E0C801B7010E949C399B0177FF03C00E
:10057000309521953F4FB901882777FD8095982FB9
:100580000E94CF3924E13EEA43E251E40E94143B49
:100590000E949C399B0144E0603074071CF02FEFEF
:1005A00033E005C01616170614F021E030E021975D
:1005B00011F420503C4FC901DF91CF911F910F9151
:1005C000FF90EF90DF900895CF93DF93CBEDDBE0CA
:1005D00020E030E080E090E0A0E0B0E0F901E45BF2
:1005E000FE4E80839183A283B383F901EF51FF4EC6
:1005F00080839183A283B383F901E950F54F80830F
:100600009183A283B383F901E056FE4E80839183E8
:10061000A283B383F901E55AF44F80839183A283C7
:10062000B383F901E958F44F80839183A283B383A4
:10063000F901E859FE4E80839183A283B3838883B6
:100640009983AA83BB838C839D83AE83BF83888772
:100650009987AA87BB878C879D87AE87BF872C5FCA
:100660003F4F60962C31310509F0B8CFDF91CF9123
:100670000895EF92FF920F931F937B018C0120E06E
:1006800030E040E050E00E942D39882324F417FB2D
:10069000109517F91095B701C8011F910F91FF90A0
:1006A000EF9008952F923F924F925F926F927F92B8
:1006B0008F929F92AF92BF92CF92DF92EF92FF9272
:1006C0000F931F93DF93CF93CDB7DEB7A0970FB6ED
:1006D000F894DEBF0FBECDBFA98ABA8ACB8ADC8A66
:1006E000ED8AFE8A0F8B188F298F3A8F4B8F5C8F84
:1006F0006D8F7E8F8F8F98A33E010894611C711CB3
:10070000230188249924E6E72E2E312C2C0E3D1E41
:1007100080E190E0280E391E26C0F60161917191AA
:10072000819191916F01F501219131914191519107
:100730005F010E94143B9B01AC01C801B7010E94FC
:1007400050387B018C01A214B30439F7F201619394
:100750007193819391932F010894811C911CF4E073
:100760008F169104E1F0640174E0CC0CDD1C7A95E5
:10077000E1F786E390E08C0F9D1FC80ED91E66E757
:10078000A62EB12CAC0EBD1E0F2EF0E0EF2EF0E029
:10079000FF2EF0E00F2FF0E01F2FF02DBECF51E124
:1007A000C52ED12CCC0EDD1E0F2EF0E0EF2EF0E08A
:1007B000FF2EF0E00F2FF0E01F2FF02D41E2A42ECE
:1007C000B12CAC0EBD1EF601619171918191919198
:1007D0006F01F30121913191419151913F010E94AB
:1007E000143B9B01AC01C801B7010E9450387B014A
:1007F0008C01CA14DB0439F7C801A0960FB6F8942F
:10080000DEBF0FBECDBFCF91DF911F910F91FF9043
:10081000EF90DF90CF90BF90AF909F908F907F90A0
:100820006F905F904F903F902F9008952F923F923E
:100830004F925F926F927F928F929F92AF92BF92F0
:10084000CF92DF92EF92FF920F931F93DF93CF939C
:10085000CDB7DEB762970FB6F894DEBF0FBECDBF3F
:10086000898B9A8B3E010894611C711C8824992401
:10087000B8E62B2E312C2C0E3D1EA0E14A2E512C19
:10088000420C531C26C0F6016191719181919191A6
:100890006F01F50121913191419151915F010E94C8
:1008A000143B9B01AC01C801B7010E9450387B0189
:1008B0008C01A414B50439F7F3016193719381930A
:1008C00091933F010894811C911CF4E08F169104D0
:1008D000C1F06401F4E0CC0CDD1CFA95E1F788E28C
:1008E00090E08C0F9D1FC80ED91E51010F2EF0E015
:1008F000EF2EF0E0FF2EF0E00F2FF0E01F2FF02D95
:10090000C2CF89899A899C01D901FE01319680E183
:1009100001900D928150E1F789899A8962960FB60C
:10092000F894DEBF0FBECDBFCF91DF911F910F9125
:10093000FF90EF90DF90CF90BF90AF909F908F90FF
:100940007F906F905F904F903F902F9008952F92DF
:100950003F924F925F926F927F928F929F92AF924F
:10096000BF92CF92DF92EF92FF920F931F93DF938C
:10097000CF93CDB7DEB7C655D0400FB6F894DEBFE3
:100980000FBECDBF66968FAF669767969FAF67978E
:10099000FE0171969E012F5F3F4F0F2EF0E0EF2E6C
:1009A000F0E0FF2EF0E00F2FF0E01F2FF02DAF0151
:1009B000D901ED92FD920D931D939D01E082F1828C
:1009C00002831383E482F58206831783E086F1862F
:1009D00002871387E486F586068717877096A41723
:1009E000B50731F7FE0175966396FFAFEEAF6397DB
:1009F0002224332486C06596AEADBFAD65976D9158
:100A00007D918D919D916596BFAFAEAF6597F601D3
:100A100020813181428153810E94143B9B01AC01B2
:100A2000C801B7010E9450387B018C010894A11CB9
:100A3000B11C80E190E0C80ED91E94E0A916B10463
:100A4000D1F6D201ED92FD920D931D932D010894E4
:100A5000811C911CB4E08B169104B9F0F201E08086
:100A6000F1800281138165967FAE6EAE6597640159
:100A7000CC0CDD1CCC0CDD1C8CEA90E08C0F9D1F97
:100A8000C80ED91EAA24BB24B6CFF10104E0EE0F94
:100A9000FF1F0A95E1F7A1E0B0E0AC0FBD1FEA0F20
:100AA000FB1F89819A81AB81BC81808B918BA28B4A
:100AB000B38B8D819E81AF81B8856396EEADFFAD1E
:100AC000639780839183A283B38389859A85AB855D
:100AD000BC8584839583A683B7838D859E85AF85EA
:100AE000B88980879187A287B3870894211C311C1D
:100AF00070966396FFAFEEAF6397F4E02F16310464
:100B000039F180E090E0A0E0B0E089839A83AB8384
:100B1000BC838D839E83AF83B88789879A87AB8791
:100B2000BC878D879E87AF87B88B2E010894411CA8
:100B3000511C88249924310114E0660C771C1A9505
:100B4000E1F7ACE6B0E0AC0FBD1F6A0E7B1E86CFAE
:100B500066968FAD669767969FAD67979C01D901A2
:100B6000FE01719680E401900D928150E1F7669646
:100B70008FAD669767969FAD6797CA5ADF4F0FB6DE
:100B8000F894DEBF0FBECDBFCF91DF911F910F91C3
:100B9000FF90EF90DF90CF90BF90AF909F908F909D
:100BA0007F906F905F904F903F902F900895EF92BD
:100BB000FF920F931F93CF93DF9300E010E060E06C
:100BC00070E020E030E040E050E0FB01EB53FF4EEE
:100BD0002083318342835383FB01E55BF34F208302
:100BE000318342835383FB01EC57FE4E20833183D4
:100BF00042835383FB01E755FF4E208331834283B9
:100C00005383FB01E05DFE4E208331834283538397
:100C1000E0E0F0E07801EE0CFF1CEE0CFF1C10C0D1
:100C200029933993499359932D933D934D935D9314
:100C3000019684309105A1F73196E430F10589F0F1
:100C4000CF018E0D9F1DA4E0880F991FAA95E1F793
:100C5000EC01C755D14FDC01A959B34F80E090E0BA
:100C6000DFCF0F5F1F4F6C5F7F4F0730110509F01B
:100C7000ACCFE7E6FEE029E630E167E27EE080E027
:100C800090E0A0E0B0E080839183A283B383E90188
:100C900088839983AA83BB83EB0188839983AA8382
:100CA000BB8384839583A683B783E9018C839D836B
:100CB000AE83BF83EB018C839D83AE83BF8380872C
:100CC0009187A287B387E90188879987AA87BB871D
:100CD000EB0188879987AA87BB8784879587A68732
:100CE000B787E9018C879D87AE87BF87EB018C872B
:100CF0009D87AE87BF877096205F3F4F605F7F4FB5
:100D00004EE0E73AF40709F0BECF80934B0C909386
:100D10004C0CA0934D0CB0934E0C8BE996EEADE9C4
:100D2000BEE38093530C9093540CA093550CB09356
:100D3000560C80ED93EBA9E5BEE380935B0C90939A
:100D40005C0CA0935D0CB0935E0C84EA90E7ADE37D
:100D5000BEE38093630C9093640CA093650CB093F6
:100D6000660C82E29DEFA6E7BDE38093C5109093E9
:100D7000C610A093C710B093C8108BED9FE0A9ECEC
:100D8000BFE38093841190938511A0938611B09353
:100D900087118093881190938911A0938A11B09341
:100DA0008B112BED3FE049EC5FEB20938C113093DE
:100DB0008D1140938E1150938F11809390119093C9
:100DC0009111A0939211B0939311209394113093A9
:100DD0009511409396115093971180939811909389
:100DE0009911A0939A11B0939B118093AD10909399
:100DF000AE10A093AF10B093B0102093B110309309
:100E0000B2104093B3105093B41080E090E0A0E88B
:100E1000BFE38093891090938A10A0938B10B093B6
:100E20008C1080936D1090936E10A0936F10B09300
:100E300070108093811090938210A0938310B093D0
:100E400084108093A5109093A610A093A710B09340
:100E5000A810DF91CF911F910F91FF90EF9008950F
:100E60002F923F924F925F926F927F928F929F92BA
:100E7000AF92BF92CF92DF92EF92FF920F931F93A8
:100E8000DF93CF93CDB7DEB7C654D0400FB6F894FA
:100E9000DEBF0FBECDBF26968FAF269727969FAF9A
:100EA0002797AE01445A5F4F6E010894C11CD11CB4
:100EB000FA019601BE0164567F4F80809180A28026
:100EC000B380D9018D929D92AD92BC92139784808C
:100ED0009580A680B78014968D929D92AD92BC921B
:100EE000179780849184A284B38418968D929D92E2
:100EF000AD92BC921B9784849584A684B7841C967B
:100F00008D929D92AD92BC921F977096205F3F4F3D
:100F1000E617F70791F6F6019E0128593F4FDA01CF
:100F20008D909D90AD90BC90139780829182A2820B
:100F3000B38250968D909D90AD90BC9053978482D3
:100F40009582A682B78290968D909D90AD90BC9030
:100F5000939780869186A286B3864C5F5F4F70968A
:100F600042175307E1F6AC968CAD9DADAEADBFAD6B
:100F7000AC9725968CAF9DAFAEAFBFAF2597EC96E3
:100F80004CAC5DAC6EAC7FACEC97C857DF4F888043
:100F90009980AA80BB80C858D04011E3212E312C03
:100FA0002C0E3D1E25966CAD7DAD8EAD9FAD25976B
:100FB000D6012D913D914D915C910E94143B20E012
:100FC00030E040E050E00E9450387B018C01C301CA
:100FD000B201F60124813581468157810E94143B7C
:100FE0009B01AC01C801B7010E9450387B018C0104
:100FF000C501B401D60118962D913D914D915C919A
:101000001B970E94143B9B01AC01C801B7010E94D1
:1010100050389058F601648775878687978780E1F6
:1010200090E0C80ED91EC214D30409F0BBCF269697
:101030008FAD269727969FAD27979C01D901FE017A
:10104000319680E401900D928150E1F726968FADA4
:10105000269727969FAD2797CA5BDF4F0FB6F89468
:10106000DEBF0FBECDBFCF91DF911F910F91FF90DB
:10107000EF90DF90CF90BF90AF909F908F907F9038
:101080006F905F904F903F902F9008952F923F92D6
:101090004F925F926F927F928F929F92AF92BF9288
:1010A000CF92DF92EF92FF920F931F931C014A01A0
:1010B0005B01C901B801A50194010E944F384B01A1
:1010C0005C01A70196010E9434392B013C01C50146
:1010D000B401A50194010E945038A70196010E9415
:1010E00034399B01AC01C301B2010E94503820E0A9
:1010F00030E040E05FE30E94143B4B015C01C7011C
:10110000B60120E030E040E450E40E9434399B0115
:10111000AC01F101C486D586E686F78660877187C3
:1011200082879387C501B4010E943439F101648339
:1011300075838683978380829182A282B382C10164
:101140001F910F91FF90EF90DF90CF90BF90AF90E5
:101150009F908F907F906F905F904F903F902F90D7
:1011600008951F920F920FB60F920BB60F92112493
:101170008F939F93AF93BF93EF93FF939091F60854
:10118000A92FB0E08091CE00FD01E459F74F808394
:101190008081813618F080818B37F0F0FD01E459B1
:1011A000F74F8081803318F080818A33A8F0FD01E9
:1011B000E459F74F80818D3279F08081803261F07F
:1011C0008081893049F080818E3231F08081813494
:1011D00050F080818B3538F4892F8F5F8093F6082B
:1011E00087FF17C014C0FD01E459F74F80818D308F
:1011F00019F080818A3069F4A459B74F1C92992361
:1012000041F081E090E09093EF088093EE08109217
:10121000F608FF91EF91BF91AF919F918F910F9041
:101220000BBE0F900FBE0F901F9018959C0181561A
:1012300090404A9738F040E050E0215430402A3145
:10124000310510F441E050E0CA0108958F929F9259
:10125000AF92BF92CF92DF92EF92FF920F931F93C4
:10126000DF93CF93CDB7DEB780930F11409310116A
:101270005093111160931211709313110093141174
:10128000109315112093161130931711C092181155
:10129000D0921911E0921A11F0921B1180921C1138
:1012A00090921D11A0921E11B0921F1188899989E8
:1012B000AA89BB898093201190932111A0932211B8
:1012C000B09323118C899D89AE89BF8980932411A5
:1012D00090932511A0932611B0932711888D998D95
:1012E000AA8DBB8D8093281190932911A0932A1168
:1012F000B0932B118C8D9D8DAE8DBF8D80932C1155
:1013000090932D11A0932E11B0932F11CF91DF91B7
:101310001F910F91FF90EF90DF90CF90BF90AF9013
:101320009F908F90089520E030E0C0970A9710F4C6
:1013300021E030E0C9010895AC0120E030E00CC0AC
:101340008091C80085FFFCCFFA01E20FF31F808176
:101350008093CE002F5F3F4F261737078CF30895F9
:101360009091EC088091ED08981719F420E030E096
:1013700017C09091EC088091ED08981738F480918F
:10138000ED089091EC08282F30E008C08091ED081E
:101390009091EC08282F30E020583F4F291B31094D
:1013A000C90108951F93182F0E94B0098F37910526
:1013B00091F0E091ED08F0E0E459F74F108380914F
:1013C000ED088F3719F41092ED0805C08091ED08F3
:1013D0008F5F8093ED081F9108959091EC088091A4
:1013E000ED08981711F4EFEF12C0E091EC08F0E06F
:1013F000E459F74FE0818091EC088F3719F410928F
:10140000EC0805C08091EC088F5F8093EC088E2F6C
:101410000895EF92FF920F931F93CF93DF937C0178
:10142000EB019091EC088091ED08981711F480E0A1
:1014300015C00E94B0098C01C817D9070CF48E01A1
:10144000C0E0D0E007C00E94ED09F701EC0FFD1FDE
:1014500080832196C017D107B4F3802FDF91CF91FD
:101460001F910F91FF90EF900895DF93CF930F920C
:101470000F92CDB7DEB7282FAE014F5F5F4F8A3096
:1014800039F48DE089832A83CA0162E070E004C0E8
:101490008983CA0161E070E00E949C0980E090E0CD
:1014A0000F900F90CF91DF9108950E94B009892B82
:1014B000E1F30E94ED098D3009F48AE090E008958F
:1014C0008091430890914408892B21F088B18F7353
:1014D00088B901C0469A8091450890914608892BA9
:1014E00021F088B18F7588B901C0459A809156085E
:1014F00090915708892B21F088B18F7688B901C067
:10150000449A8091F4089091F5088958934144F0E9
:1015100088B192E0892788B91092F5081092F408F2
:101520008091F4089091F50801969093F5088093C6
:10153000F408089584309105B9F08530910534F4AC
:101540008230910561F0039741F513C08630910513
:10155000D1F08630910594F00797F9F419C00F92F5
:101560000F9280E092E01DC00F920F9285E092E012
:1015700018C00F920F928AE092E013C00F920F9260
:101580008FE092E00EC00F920F9284E192E009C0CA
:101590000F920F9289E192E004C00F920F928EE1B8
:1015A00092E0EDB7FEB7928381830E94CE3E0F900A
:1015B0000F900895EF92FF921F93CF93DF93EC016A
:1015C0007B018881E82FF0E0E459F74F8081803279
:1015D00039F08081893009F04BC002C04F5F4883E9
:1015E0004881E42FF0E0E459F74F80818032B1F375
:1015F0008081893099F380818D3229F0808190E05B
:10160000C0970A97A8F54F5F4883415020E030E02B
:1016100009C0E459F74F80818E3211F42F5F3F4F9C
:101620005F5F58835881E52FF0E0DF01A459B74F81
:101630008C9190E0C0970A9760F323C02230310567
:10164000BCF41C911C92842F90E08459974F60E069
:1016500070E00E94D73BF70160837183828393839C
:10166000E881F0E0E459F74F108321E030E002C058
:1016700020E030E0C901DF91CF911F91FF90EF9002
:1016800008958C918E3229F2D9CF2F923F924F92AA
:101690005F926F927F928F929F92AF92BF92CF9202
:1016A000DF92EF92FF920F931F93DF93CF93CDB70B
:1016B000DEB7E1970FB6F894DEBF0FBECDBF8091C5
:1016C0006C088736C1F080916C088337A1F0809157
:1016D0006C08883681F080916C08893661F08091C1
:1016E0006C08833541F080916C08863721F0809139
:1016F0006C08833431F541E0E42FF0E0E459F74F12
:101700008081282F30E0C901815690404A9730F0FF
:10171000215430402A31310508F044C34F5FECCFEB
:1017200080916C0880930F1180E090E0A0E0B0E021
:101730008093101190931111A0931211B093131173
:1017400075C080E090E0A0E0B0E08A839B83AC832A
:10175000BD838E839F83A887B9878A879B87AC8741
:10176000BD878E879F87A88BB98B8A8B9B8BAC8B11
:10177000BD8B8E8B9F8BA88FB98F8A8F9B8FAC8FE1
:10178000BD8F8E8F9F8FA8A3B9A380916C088B36D5
:10179000E1F080916C088C34C1F080916C08823546
:1017A000A1F080916C08873481F080916C088437B7
:1017B00061F080916C088F3641F080916C0883361F
:1017C00021F080916C088934D1F541E0E42FF0E0FC
:1017D000E459F74F8081282F30E0C90181569040AD
:1017E0004A9730F0215430402A31310508F0DFC2E9
:1017F0004F5FECCFE981F0E0E459F74F8081882317
:1018000009F0B4C220916C088A819B81AC81BD81B2
:1018100020930F118093101190931111A093121126
:10182000B093131180E090E0A0E0B0E08093141139
:1018300090931511A0931611B09317114FC080917A
:101840006C08863629F080916C08843609F04FC008
:1018500041E0E42FF0E0E459F74F8081282F30E099
:10186000C901815690404A9730F0215430402A31C6
:10187000310508F0A8C24F5FECCFC801BE016A5F16
:101880007F4F0E94DA0A892B09F470C2E981F0E0E7
:10189000E459F74F8081882309F068C260916C0891
:1018A0008A819B81AC81BD812E813F81488559858C
:1018B00060930F118093101190931111A093121146
:1018C000B0931311209314113093151140931611F6
:1018D0005093171180E090E0A0E0B0E080931811E1
:1018E00090931911A0931A11B0931B1167C08091A6
:1018F0006C088E3609F083C041E0E42FF0E0E45933
:10190000F74F8081282F30E0C901815690404A97D7
:1019100030F0215430402A31310508F061C24F5F68
:10192000ECCFC801BE016A5F7F4F0E94DA0A892BA3
:1019300009F41CC2C801BE01665F7F4F0E94DA0A2B
:10194000892B41F480E090E0A0E0B0E08A879B879B
:10195000AC87BD87E981F0E0E459F74F80818823A7
:1019600009F004C260916C088A819B81AC81BD81C1
:101970002E813F8148855985EA84FB840C851D852D
:1019800060930F118093101190931111A093121175
:10199000B093131120931411309315114093161125
:1019A00050931711E0921811F092191100931A1127
:1019B00010931B1180E090E0A0E0B0E080931C1138
:1019C00090931D11A0931E11B0931F1180932011AD
:1019D00090932111A0932211B0932311809324118D
:1019E00090932511A0932611B0932711809328116D
:1019F00090932911A0932A11B0932B11CBC0809101
:101A00006C08883709F0D1C041E0E42FF0E0E459D8
:101A1000F74F8081282F30E0C901815690404A97C6
:101A200030F0215430402A31310508F0E7C14F5FD2
:101A3000ECCFC801BE016A5F7F4F0E94DA0A892B92
:101A400009F494C1C801BE01665F7F4F0E94DA0AA3
:101A5000892B09F48BC1C801BE01625F7F4F0E94D0
:101A6000DA0A892B09F482C1C801BE016E5E7F4F7C
:101A70000E94DA0A892B09F479C1C801BE016A5EA5
:101A80007F4F0E94DA0A892B09F470C1C801BE0198
:101A9000665E7F4F0E94DA0A892B41F480E090E075
:101AA000A0E0B0E08A8F9B8FAC8FBD8FE981F0E022
:101AB000E459F74F8081882309F058C160916C0880
:101AC0008A819B81AC81BD818EA79FA7A8ABB9AB52
:101AD0002E813F8148855985EA84FB840C851D85CC
:101AE000AE84BF84C888D9886A887B888C889D88A2
:101AF0002E883F88488C598C8A8D9B8DAC8DBD8DEE
:101B00008AA79BA7ACA7BDA760930F118EA59FA521
:101B1000A8A9B9A98093101190931111A093121143
:101B2000B093131120931411309315114093161193
:101B300050931711E0921811F092191100931A1195
:101B400010931B11A0921C11B0921D11C0921E1176
:101B5000D0921F1160922011709221118092221157
:101B60009092231120922411309225114092261137
:101B7000509227118AA59BA5ACA5BDA580932811DD
:101B800090932911A0932A11B0932B1180E090E03B
:101B9000A0E0B0E080932C1190932D11A0932E1112
:101BA000B0932F1121E030E0E3C080916C088037C2
:101BB00029F080916C08813709F0D8C041E0E42F0A
:101BC000F0E0E459F74F8081282F30E0C9018156B9
:101BD00090404A9730F0215430402A31310508F0C6
:101BE0001BC14F5FECCFC801BE016A5F7F4F0E94EF
:101BF000DA0A892B09F4BAC0C801BE01665F7F4FBB
:101C00000E94DA0A892B09F4B1C0C801BE01625FE3
:101C10007F4F0E94DA0A892B09F4A8C0C801BE01CF
:101C20006E5E7F4F0E94DA0A892B09F49FC0C801BB
:101C3000BE016A5E7F4F0E94DA0A892B09F496C0C2
:101C4000C801BE01665E7F4F0E94DA0A892B09F443
:101C50008DC0C801BE01625E7F4F0E94DA0A892BE7
:101C600041F480E090E0A0E0B0E08E8F9F8FA8A3C9
:101C7000B9A3E981F0E0E459F74F8081882309F0A6
:101C800075C060916C088A819B81AC81BD818EA7F3
:101C90009FA7A8ABB9AB2E813F8148855985EA84BF
:101CA000FB840C851D85AE84BF84C888D9886A886A
:101CB0007B888C889D882E883F88488C598C8A8D9B
:101CC0009B8DAC8DBD8D8AA39BA3ACA3BDA38E8D34
:101CD0009F8DA8A1B9A18EA39FA3A8A7B9A7609320
:101CE0000F118EA59FA5A8A9B9A980931011909353
:101CF0001111A0931211B09313112093141130936A
:101D000015114093161150931711E0921811F0928B
:101D1000191100931A1110931B11A0921C11B0926B
:101D20001D11C0921E11D0921F116092201170924D
:101D3000211180922211909223112092241130922D
:101D4000251140922611509227118AA19BA1ACA186
:101D5000BDA18093281190932911A0932A11B093CB
:101D60002B118EA19FA1A8A5B9A514CF20E030E02A
:101D7000C901E1960FB6F894DEBF0FBECDBFCF917B
:101D8000DF911F910F91FF90EF90DF90CF90BF9068
:101D9000AF909F908F907F906F905F904F903F900B
:101DA0002F90089580916D08882301F7B9CC49835D
:101DB000CE010196BE016E5F7F4F0E94DA0A892B29
:101DC00009F018CDD3CF49838E010F5F1F4FC80193
:101DD000BE016E5F7F4F0E94DA0A892B39F24DCD2A
:101DE00049838E010F5F1F4FC801BE016E5F7F4F99
:101DF0000E94DA0A892B09F4B9CF93CD49838E0169
:101E00000F5F1F4FC801BE016E5F7F4F0E94DA0A4D
:101E1000892B09F4ABCF0DCE49838E010F5F1F4F85
:101E2000C801BE016E5F7F4F0E94DA0A892B09F458
:101E30009DCFD9CEAF92BF92DF92EF92FF920F93D8
:101E40001F93CF93DF935C017A018B01FC01EE0FAE
:101E5000FF1FE350FF4E80819181019779F4C0E02C
:101E6000D0E0CB01BA0120E030E040E050E00E9439
:101E70002D391816A4F0C1E0D0E011C0DD24CB014B
:101E8000BA0120E030E040E050E00E942D39181601
:101E900014F0DD24D39481E0D826CD2DD0E0C80104
:101EA000B7010E949C399B0177FF03C030952195B3
:101EB0003F4FB901882777FD8095982F0E94CF3931
:101EC0007B018C01F501EE0FFF1FEE0FFF1FED569A
:101ED000F44F60E070EC8FE794E42081318142811F
:101EE00053810E9434399B01AC01C801B7010E94A3
:101EF000143B0E949C39AB0177FF02C040E050E0E8
:101F000084E04030580714F04FEF53E0219711F46C
:101F100040505C4FC50160E270E00E940132DF91E9
:101F2000CF911F910F91FF90EF90DF90BF90AF90F6
:101F30000895CF93DF93EC01CB01BA0124E13EEA8F
:101F400043E251E40E94143B0E949C39AB011616F7
:101F5000170614F041E050E084E04030580714F0D8
:101F60004FEF53E0CE0160E270E00E940132DF915A
:101F7000CF910895CF92DF92EF92FF920F931F932C
:101F8000CF93DF937B018C01C0E0D0E020E4C22E30
:101F90002CE9D22ECE01B801A7010E94990FC601EB
:101FA0000197F1F72196C730D105A1F7DF91CF91C5
:101FB0001F910F91FF90EF90DF90CF900895EF92D7
:101FC000FF920F931F93CF93DF937C018B01EC0162
:101FD000CC0FDD1FCB51D54F8881998140E050E077
:101FE00060E070E00E94990F0130110579F488815A
:101FF000998166E070E040E050E00E940132888103
:10200000998168E070E040E050E021C0012B09F5C3
:102010008881998166E070E041E050E00E940132E1
:1020200008811981EE0CFF1CEE0CFF1C87EB9BE076
:10203000E80EF91EF70160817181828193810E940F
:102040009C399B01AC01C80168E070E0A9010E94C5
:102050000132DF91CF911F910F91FF90EF90089582
:102060000F931F93CF93DF938C01C0E0D0E0CE019C
:10207000B8010E94DF0F2196C730D105C1F7DF916B
:10208000CF911F910F910895EF92FF920F931F939D
:102090007B018C0187E090E061E070E00E94DF0F3F
:1020A00087E090E0B801A7010E947F02AC0187E0C1
:1020B00090E060E270E00E9401328CE291E020E961
:1020C00031E0F9013197F1F70197D9F788E090E015
:1020D00061E070E00E94DF0F88E090E0B801A701A6
:1020E0000E947F02AC0181E190E060E270E00E941A
:1020F0000132E0926408F09265080093660810933C
:10210000670881E090E090936308809362081F91D4
:102110000F91FF90EF900895EF92FF920F931F930E
:102120007B018C0187E090E060E070E00E94DF0FAF
:1021300087E090E040E050E060E271E40E94990F97
:10214000C801B7012DEC3CEC4CE85FE30E94143B66
:1021500020E030E048EC52E40E9434399B01AC01AD
:10216000E62E132F042FF52E87E090E0DA01A90167
:10217000BD010E94A201AC0187E090E06EE170E039
:102180000E9401328CE291E020E931E0F9013197BF
:10219000F1F70197D9F788E090E060E070E00E94E5
:1021A000DF0F81E190E040E050E060E271E40E94E6
:1021B000990F88E090E02E2D312FE02FFF2DA901FF
:1021C000BF010E94A201AC0181E190E06EE170E0EC
:1021D0000E9401321F910F91FF90EF90089583E2CA
:1021E00092E00E94E03E8DE592E00E94E03E8AE6A9
:1021F00092E00E94E03E89EB92E00E94E03E89EF8F
:1022000092E00E94E03E8EE393E00E94E03E8FE782
:1022100093E00E94E03E89EC93E00E94E03E8EEF66
:1022200093E00E94E03E8FE794E00E94E03E84ED60
:1022300094E00E94E03E88E095E00E94E03E88E362
:1022400095E00E94E03E8AE595E00E94E03E89E943
:1022500095E00E94E03E8FED95E00E94E03E0895FB
:102260000E94CF399B01AC0160E074E284EF99E4F5
:102270000E9434390E94A1396150704022E42093B9
:10228000C80028E92093C90026E02093CA002FEF58
:102290002093CE001092EC081092ED08272F3327E0
:1022A00027FD3A952093CD006093CC007298739AE5
:1022B00085E39AE065E57AE00E94563E9093F8083F
:1022C0008093F70808952F923F924F925F926F92FA
:1022D0007F928F929F92AF92BF92CF92DF92EF92B6
:1022E000FF920F931F93DF93CF93CDB7DEB72C9759
:1022F0000FB6F894DEBF0FBECDBF5B016C0129871E
:102300003A874B875C872AA83BA84CA85DA88AA17E
:102310009BA1ACA1BDA18D839E83AF83B8878EA105
:102320009FA1A8A5B9A589839A83AB83BC83EAA49E
:10233000FBA40CA51DA56EA47FA488A899A8C20122
:10234000B101A80197010E942D391816DCF0C201D5
:10235000B101A20191010E94143B7B018C016981B2
:102360007A818B819C8120E030E040E05FE30E9435
:10237000143BA80197010E94143B9B01AC01C601CC
:10238000B50196C0C201B101A80197010E94093BA5
:1023900018160CF03FC0C401B301A80197010E94B8
:1023A0004F389B01AC01C201B1010E942D391816B2
:1023B0008CF169857A858B859C85A60195010E94A3
:1023C0004F387B018C016D817E818F819885A401BE
:1023D00093010E94143B9B01AC01C801B7010E940C
:1023E0004F3820E030E040E05FE30E94143B7B0187
:1023F0008C016D817E818F819885A20191010E945F
:10240000143B9B01AC01C801B7010E945038A601E2
:1024100095014EC0C401B301A40193010E94143B75
:102420007B018C01C201B101A20191010E94143B08
:102430005B016C0169817A818B819C81A801970184
:102440000E94143B20E030E040E05FEB0E94143B30
:102450009B01AC0169857A858B859C850E945038EB
:102460007B018C0169817A818B819C81A40193011C
:102470000E94143BA20191010E94143B9B01AC01FC
:10248000C801B7010E9450387B018C0169817A81B3
:102490008B819C8120E030E040E05FEB0E94143BA8
:1024A000A60195010E94143B9B01AC01C801B70134
:1024B0000E945038E62F2E2F372F482F592FB90161
:1024C000CA012C960FB6F894DEBF0FBECDBFCF91D8
:1024D000DF911F910F91FF90EF90DF90CF90BF9011
:1024E000AF909F908F907F906F905F904F903F90B4
:1024F0002F9008952F923F924F925F926F927F920A
:102500008F929F92AF92BF92CF92DF92EF92FF9203
:102510000F931F93DF93CF93CDB7DEB72A970FB6F4
:10252000F894DEBF0FBECDBF019721F5EE24FF2446
:102530008701005D1E4EF701E45BFE4ED701A755F3
:10254000BF4E60817181828193812D913D914D912A
:102550005C910E945038D8016D937D938D939C932C
:102560001397E4E0F0E0EE0EFF1EFCE1EF16F1043D
:10257000F9F623C0EE24FF248701005D1E4EF7010B
:10258000EF51FF4ED701A755BF4E60817181828107
:1025900093812D913D914D915C910E945038D801CD
:1025A0006D937D938D939C931397E4E0F0E0EE0E92
:1025B000FF1EFCE1EF16F104F9F689EA9EE09A8726
:1025C00089874C969A8389831C821B82EB81FC81CC
:1025D000E05DFE4EE080F18002811381C801B70109
:1025E0000E9431395B016C01A985BA856D937D9399
:1025F0008D939C931397C801B7010E94773B3B01D1
:102600004C01EB81FC81EC57FE4EE080F1800281B1
:102610001381C801B7010E9431391B012C01C4018B
:10262000B3019058A20191010E94143BE985FA85FB
:102630006483758386839783C801B7010E94773BC3
:102640007B018C01C401B301A80197010E94143BD6
:10265000A985BA8518966D937D938D939C931B974E
:102660002B813C812B533F4ED9018D919D910D9033
:10267000BC91A02D8D839E83AF83B887BC01CD0113
:10268000A60195010E94143BE985FA856487758748
:1026900086879787608A718A828A938AC601B50184
:1026A000A20191010E94143BE985FA85648B758B28
:1026B000868B978BD7FAD094D7F8D094C601B50102
:1026C000A80197010E94143BA985BA8558966D937D
:1026D0007D938D939C935B976D817E818F8198858F
:1026E000A40193010E94143BE981FA816083718304
:1026F00082839383E086F18602871387248635865A
:1027000046865786EB81FC81E55BF34F80819181A2
:10271000A281B381E981FA81808B918BA28BB38BEB
:1027200080E090E0A0E8BFE380A391A3A2A3B3A3BD
:102730008B819C8104969C838B83A985BA85A05C40
:10274000BF4FBA87A987E05CFF4FFA83E9834C97B4
:1027500009F03CCF2A960FB6F894DEBF0FBECDBF6E
:10276000CF91DF911F910F91FF90EF90DF90CF906D
:10277000BF90AF909F908F907F906F905F904F90A1
:102780003F902F9008952F923F924F925F926F92B9
:102790007F928F929F92AF92BF92CF92DF92EF92F1
:1027A000FF920F931F93DF93CF93CDB7DEB7689758
:1027B0000FB6F894DEBF0FBECDBF0E947A12E7E6D7
:1027C000FEE080E090E0A0E0B0E080839183A2830F
:1027D000B38384839583A683B78380879187A287F9
:1027E000B38784879587A687B78770962EE0E73AE8
:1027F000F20759F780E090E0A0E8BFE38093670E0E
:102800009093680EA093690EB0936A0E80937B0E2E
:1028100090937C0EA0937D0EB0937E0E80938F0ECE
:102820009093900EA093910EB093920E8093A30E6E
:102830009093A40EA093A50EB093A60E1E8A1D8A97
:10284000DCC0AB89BC896D917D918D919D91BC8BD4
:10285000AB8BF80120813181428153810E94143B6E
:102860009B01AC01C701B6010E9450386B017C018D
:102870000894A11CB11C005F1F4FF4E0AF16B10417
:1028800001F7D2016D937D938D939D932D01089453
:10289000811C911CB4E08B169104A1F0F201C08060
:1028A000D180E280F3807C8A6B8A0F89188D080DB5
:1028B000191D000F111F000F111F0755114FAA24DA
:1028C000BB24BFCFF101A4E0EE0FFF1FAA95E1F7F3
:1028D000E959F14F89819A81AB81BC8180839183D1
:1028E000A283B3838D819E81AF81B885E989FA89FE
:1028F00080839183A283B38389859A85AB85BC85C8
:1029000084839583A683B7838D859E85AF85B8899B
:1029100080879187A287B3870894211C311C709609
:10292000FA8BE98BF4E02F16310461F42D893E898E
:10293000E6E0220F331FEA95E1F72959334FE7E626
:10294000FEE025C080E090E0A0E0B0E089839A83BB
:10295000AB83BC838D839E83AF83B88789879A8737
:10296000AB87BC878D879E87AF87B88B2E01089475
:10297000411C511C88249924310174E0660C771C99
:102980007A95E1F7A7E6BEE06A0E7B1E87CF40810D
:10299000518162817381D9014D935D936D937C93D5
:1029A0001397448155816681778114964D935D9389
:1029B0006D937C9317974085518562857385189632
:1029C0004D935D936D937C931B97448555856685E8
:1029D00077851C964D935D936D937C931F977096AE
:1029E000205F3F4FBEE0E73AFB0789F6ED89FE899D
:1029F0003196FE8BED8B389781F08BE69EE09A8BBB
:102A0000898B22243324AD89BE8964E0AA0FBB1FC1
:102A10006A95E1F7B88FAF8B95CF68960FB6F894AB
:102A2000DEBF0FBECDBFCF91DF911F910F91FF9001
:102A3000EF90DF90CF90BF90AF909F908F907F905E
:102A40006F905F904F903F902F900895EF92FF927C
:102A50000F931F9380E090E00E94C3138091730E48
:102A60009091740EA091750EB091760E80935B0BD1
:102A700090935C0BA0935D0BB0935E0B8091830EE3
:102A80009091840EA091850EB091860E80935F0B7D
:102A90009093600BA093610BB093620B8091930EA7
:102AA0009091940EA091950EB091960E8093630B29
:102AB0009093640BA093650BB093660B6091770EB7
:102AC0007091780E8091790E90917A0E2091670E18
:102AD0003091680E4091690E50916A0E0E94DA386A
:102AE0006093670B7093680B8093690B90936A0BEC
:102AF000E090870EF090880E0091890E10918A0E5A
:102B0000C801B701A80197010E94143B9B01AC01C9
:102B100060E070E080E89FE30E944F380E94813BB4
:102B20009B01AC0117FB109517F91095C801B7016F
:102B30000E94DA3860936B0B70936C0B80936D0B73
:102B400090936E0B60918B0E70918C0E80918D0E18
:102B500090918E0E20918F0E3091900E4091910E9B
:102B60005091920E0E94DA3860936F0B7093700B45
:102B70008093710B9093720B2091E9103091EA10C1
:102B80004091EB105091EC102093730B3093740B29
:102B90004093750B5093760B80915808909159088B
:102BA000019709F069C08DB79EB74E970FB6F8949C
:102BB0009EBF0FBE8DBFEDB7FEB7319689E096E0A0
:102BC000ADB7BEB712969C938E93119780915B0B15
:102BD00090915C0BA0915D0BB0915E0B828393830F
:102BE000A483B58380915F0B9091600BA091610BE2
:102BF000B091620B86839783A087B1878091630B26
:102C00009091640BA091650BB091660B82879387BE
:102C1000A487B5878091670B9091680BA091690B91
:102C2000B0916A0B86879787A08BB18B80916B0BD5
:102C300090916C0BA0916D0BB0916E0B828B938B6E
:102C4000A48BB58B80916F0B9091700BA091710B41
:102C5000B091720B868B978BA08FB18F228F338FA1
:102C6000448F558F0E94CE3E8DB79EB74E960FB6BD
:102C7000F8949EBF0FBE8DBF1F910F91FF90EF90F4
:102C800008952F923F924F925F926F927F928F9210
:102C90009F92AF92BF92CF92DF92EF92FF920F93EB
:102CA0001F93DF93CF93CDB7DEB7C25ED1400FB68F
:102CB000F894DEBF0FBECDBFA0E0B0E060E070E0F2
:102CC00020E030E040E050E011E1212E312C2C0ECC
:102CD0003D1EF1E64F2E512C4C0E5D1EE1EA6E2E8C
:102CE000712C6C0E7D1E91EE892E912C8C0E9D1EEA
:102CF00081E2E82E81E0F82EEC0EFD1EE1E0F0E02E
:102D0000EC0FFD1FE60FF71F2083318342835383AF
:102D1000F101E60FF71F2083318342835383CD01F6
:102D200004E0880F991F0A95E1F75201A80EB91E19
:102D30006301C80ED91E8401080F191FF701E80F9F
:102D4000F91FCF51DE4FF983E883C15ED14080E0A7
:102D500090E0F50121933193419351935F01F60186
:102D600021933193419351936F01F8012193319352
:102D7000419351938F01CF51DE4FE881F981C15EBC
:102D8000D1402193319341935193CF51DE4FF98339
:102D9000E883C15ED140019684309105D1F6119649
:102DA0006C5F7F4FA430B10509F0A8CFE090AC1163
:102DB000F090AD110091AE111091AF11C801B701A3
:102DC0000E9431393B014C012090B0113090B1117B
:102DD0004090B2115090B311C201B1010E9431393B
:102DE000C353DE4F688379838A839B83CD5CD14054
:102DF000C401B301C353DE4F288139814A815B810D
:102E0000CD5CD1400E94143BA5966CAF7DAF8EAFD8
:102E10009FAFA597C801B7010E94773B5B016C018A
:102E2000E090B411F090B5110091B6111091B71166
:102E3000C801B7010E943139C753DE4F68837983D7
:102E40008A839B83C95CD140C201B1010E94773B58
:102E5000CB53DE4F688379838A839B83C55CD140E3
:102E6000C401B301CB53DE4F288139814A815B8194
:102E7000C55CD1400E94143BCF52DE4F68837983FA
:102E80008A839B83C15DD140C801B7010E94773B13
:102E90001B012C01C601B5019058C753DE4F288194
:102EA00039814A815B81C95CD1400E94143B7B011E
:102EB0008C01CF52DE4F688179818A819B81C15D0F
:102EC000D140A20191010E94143B9B01AC01C801B9
:102ED000B7010E945038A9966CAF7DAF8EAF9FAFFF
:102EE000A997C601B501A20191010E94143B7B0183
:102EF0008C01CF52DE4F688179818A819B81C15DCF
:102F0000D140C753DE4F288139814A815B81C95C3A
:102F1000D1400E94143B9B01AC01C801B7010E9443
:102F20005038AD966CAF7DAF8EAF9FAFAD97C601F9
:102F3000B501C353DE4F288139814A815B81CD5C65
:102F4000D1400E94143BE5966CAF7DAF8EAF9FAF32
:102F5000E597C601B501CB53DE4F288139814A81FF
:102F60005B81C55CD1400E94143B5B016C01C401D4
:102F7000B301C753DE4F288139814A815B81C95C27
:102F8000D1400E94143B7B018C01C601B501A20116
:102F900091010E94143B9B01AC01C801B7010E9442
:102FA0005038E9966CAF7DAF8EAF9FAFE99797FA37
:102FB000909497F89094C401B301A20191010E94EA
:102FC000143B7B018C01C601B501C753DE4F28813C
:102FD00039814A815B81C95CD1400E94143B9B01CD
:102FE000AC01C801B7010E945038ED966CAF7DAFBF
:102FF0008EAF9FAFED97CB53DE4F288139814A8149
:103000005B81C55CD1405058CF57DF4F288339834F
:103010004A835B83C158D040C353DE4F68817981B6
:103020008A819B81CD5CD140A20191010E94143B19
:10303000CB57DF4F688379838A839B83C558D04001
:10304000C353DE4F688179818A819B81CD5CD140F9
:10305000C753DE4F288139814A815B81C95CD140E9
:103060000E94143BC757DF4F688379838A839B8311
:10307000C958D04080E090E0A0E8BFE3C356DF4FDE
:1030800088839983AA83BB83CD59D0406090B811BF
:103090007090B9118090BA119090BB11C401B30126
:1030A0002BED3FE049E450E40E94093B181684F4FC
:1030B000C401B3012BED3FE049EC50E40E944F38CE
:1030C0006093B8117093B9118093BA119093BB11AA
:1030D0006090B8117090B9118090BA119090BB11A6
:1030E000C401B3012BED3FE049E450EC0E942D39BF
:1030F000882384F4C401B3012BED3FE049EC50E494
:103100000E9450386093B8117093B9118093BA112E
:103110009093BB118091630C9091640CA091650C0D
:10312000B091660C89839A83AB83BC8380E090E086
:10313000A0E8BFE38D879E87AF87B88BDE01AF59CC
:10314000BE4FFE01EF59FF4F80E401900D92815078
:10315000E1F7DE01AF5BBF4FFE01319680E10190E8
:103160000D928150E1F711E5412E512C4C0E5D1E60
:1031700000E010E0B1E4EB2EF12CEC0EFD1EA0E11E
:103180002A2E312C2E0C3F1C24C0D6016D917D912E
:103190008D919D916D01F501219131914191519157
:1031A0005F010E94143B9B01AC01C401B3010E946A
:1031B00050383B014C01A214B30439F7D2016D938E
:1031C0007D938D939D932D010F5F1F4F043011054B
:1031D000C1F06801F4E0CC0CDD1CFA95E1F7E1E602
:1031E000F1E0EC0FFD1FCE0EDF1E57010F2EF0E0B9
:1031F0006F2EF0E07F2EF0E08F2EF0E09F2EF02D6E
:10320000C4CFDE019196FE01EF5AFF4F80E101909D
:103210000D928150E1F7DE011196FE01B19680E139
:1032200001900D928150E1F76091A0117091A11170
:103230008091A2119091A31129813A814B815C81E7
:103240000E944F38CB52DE4F688379838A839B83F9
:10325000C55DD1406091A4117091A5118091A61116
:103260009091A7112D813E814F8158850E944F3842
:10327000C752DE4F688379838A839B83C95DD140BF
:103280006091A8117091A9118091AA119091AB1130
:1032900029853A854B855C850E944F38C352DE4FA5
:1032A0006883CD5DD140C252DE4F7883CE5DD14080
:1032B000C152DE4F8883CF5DD140C052DE4F98832C
:1032C000C05ED140962E872E782E692E862F982D9F
:1032D000A72DB62D8093A8119093A911A093AA11A0
:1032E000B093AB11C752DE4F688179818A819B818F
:1032F000C95DD140CB52DE4F288139814A815B8143
:10330000C55DD1400E94DA38CF53DE4F68837983A0
:103310008A839B83C15CD14060934C1170934D11A3
:1033200080934E1190934F110E9431392091C51016
:103330003091C6104091C7105091C8100E94143BA4
:103340009B01AC01CB52DE4F688179818A819B81E0
:10335000C55DD1400E944F385B016C016093A011A4
:103360007093A1118093A2119093A311CF53DE4FBC
:10337000688179818A819B81C15CD1400E94773BC1
:103380002091C5103091C6104091C7105091C810BF
:103390000E94143B9B01AC01C752DE4F68817981CA
:1033A0008A819B81C95DD1400E944F387B018C018D
:1033B0006093A4117093A5118093A6119093A71107
:1033C00080914B0C90914C0CA0914D0CB0914E0CF7
:1033D000C354DE4F88839983AA83BB83CD5BD140DE
:1033E000692D782D872D962DC354DE4F2881398184
:1033F0004A815B81CD5BD1400E944F381B012C017B
:10340000C601B501A60195010E94143B3B014C0188
:10341000C801B701A80197010E94143B5B016C0130
:10342000C401B301A60195010E9450387B018C01B3
:10343000C201B101A20191010E94143B9B01AC01A8
:10344000C801B7010E9450380E94813BC355DE4F2E
:10345000688379838A839B83CD5AD1408091530CB2
:103460009091540CA091550CB091560CC754DE4F5E
:1034700088839983AA83BB83C95BD14080915B0C0D
:1034800090915C0CA0915D0CB0915E0CCB54DE4F22
:1034900088839983AA83BB83C55BD140C754DE4F21
:1034A000688179818A819B81C95BD140CB54DE4F91
:1034B000288139814A815B81C55BD1400E945038A7
:1034C0009B01AC01C355DE4F688179818A819B8164
:1034D000CD5AD1400E94093B8823CCF040E050E017
:1034E0009A01245B3E4EFA01EF51FF4E808191819B
:1034F000A281B381F90180839183A283B3834C5F5E
:103500005F4F4C31510561F780E090E007C6B30191
:10351000C4019501A6010E9450380E94813B9B0185
:10352000AC01C201B1010E94DA382B013C01C75441
:10353000DE4F688179818A819B81C95BD140905837
:10354000C754DE4F288139814A815B81C95BD140F4
:103550000E94143B7B018C01CB54DE4F6881798142
:103560008A819B81C55BD1409B01AC010E94143BC9
:103570009B01AC01C801B7010E944F387B018C014F
:10358000C355DE4F688179818A819B81CD5AD140B4
:103590009B01AC010E94143B9B01AC01C801B70127
:1035A0000E9450387B018C01C754DE4F68817981BD
:1035B0008A819B81C95BD14020E030E040E050EC43
:1035C0000E94143BCB54DE4F288139814A815B81B4
:1035D000C55BD1400E94143B9B01AC01C801B701FF
:1035E0000E9434390E9441380E94773B9B01AC0114
:1035F000CB54DE4F688179818A819B81C55BD14044
:103600000E94143BC355DE4F288139814A815B817A
:10361000CD5AD1400E9434390E94B438C755DE4F8C
:10362000688379838A839B83C95AD1400E94773B00
:103630009B01AC0180E090E0A0E0B0E0898B9A8B28
:10364000AB8BBC8BC754DE4F688179818A819B81AB
:10365000C95BD1400E94143B7B018C0117FB109584
:1036600017F91095A090B811B090B911C090BA1187
:10367000D090BB11C601B5010E9431399B01AC014C
:10368000C801B7010E94143B6D8B7E8B8F8B988F86
:10369000C601B5010E94773B9B01AC01C801B7018F
:1036A0000E94143B698F7A8F8B8F9C8F80E090E013
:1036B000A0E8BFE38D8F9E8FAF8FB8A3CF53DE4FAF
:1036C000688179818A819B81C15CD1400E943139B6
:1036D000CB55DE4F688379838A839B83C55AD1405B
:1036E000C301B2010E9431394B015C01E1E2CE2EEF
:1036F000E1E0DE2ECC0EDD1ECB55DE4F68817981F8
:103700008A819B81C55AD140A50194010E94143B36
:10371000D6016D937D938D939C931397CF53DE4F7A
:10372000688179818A819B81C15CD1400E94773B0D
:10373000CF55DE4F688379838A839B83C15AD140FA
:10374000A50194010E94143BF601608B718B828B62
:10375000938BC301B2010E94773BCF54DE4F688345
:1037600079838A839B83C15BD140D60190966D9308
:103770007D938D939C939397CF55DE4F888199814C
:10378000AA81BB81C15AD140B058F6018483958388
:10379000A683B783CB55DE4F88819981AA81BB81EF
:1037A000C55AD140848B958BA68BB78B80E090E077
:1037B000A0E0B0E084A395A3A6A3B7A377FA709482
:1037C00077F87094C301B2010E94773B7B018C01B2
:1037D000CB55DE4F688179818A819B81C55AD14062
:1037E000A80197010E94143BD60118966D937D9312
:1037F0008D939C931B97CF55DE4F688179818A8189
:103800009B81C15AD140A80197010E94143BF60147
:10381000608F718F828F938FD60198968D929D9233
:10382000AD92BC929B97C755DE4F688179818A81A2
:103830009B81C95AD1400E9431399B01AC01C754C8
:10384000DE4F688179818A819B81C95BD1400E946A
:10385000143B2B013C01A50194010E94143B7B0108
:103860008C01CB55DE4F288139814A815B81C55A55
:10387000D1400E94143BF60164877587868797873D
:10388000C801B701CF55DE4F288139814A815B815C
:10389000C15AD1400E94143BD6015C966D937D9332
:1038A0008D939C935F97C301B201CF54DE4F288163
:1038B00039814A815B81C15BD1400E94143BC35472
:1038C000DE4F288139814A815B81CD5BD1400E94E6
:1038D0005038F60164A775A786A797A780E090E007
:1038E000A0E8BFE384AF95AFA6AFB7AFDE01AF5995
:1038F000BE4F80E401900D928150E1F7DE01AF5A96
:10390000BF4FFE01719680E101900D928150E1F769
:1039100071E4472E512C4C0E5D1E00E010E061E575
:10392000E62EF12CEC0EFD1E50E1252E312C2E0C36
:103930003F1C24C0D6016D917D918D919D916D01AB
:10394000F50121913191419151915F010E94143B08
:103950009B01AC01C401B3010E9450383B014C01F2
:10396000A214B30439F7D2016D937D938D939D9387
:103970002D010F5F1F4F04301105C1F0680144E0B5
:10398000CC0CDD1C4A95E1F7E1E6F1E0EC0FFD1F00
:10399000CE0EDF1E57010F2EF0E06F2EF0E07F2ECF
:1039A000F0E08F2EF0E09F2EF02DC4CFDE01D196F7
:1039B000FE01EF5BFF4F80E101900D928150E1F736
:1039C000DE015196FE01F19680E101900D92815049
:1039D000E1F76D887E888F88988CA090C510B09094
:1039E000C610C090C710D090C810E988FA880B891B
:1039F0001C89C601B501CF55DE4F288139814A8126
:103A00005B81C15AD1400E94143B9B01AC01C401AF
:103A1000B3010E9450381B012C01C601B501CB55E2
:103A2000DE4F288139814A815B81C55AD1400E948D
:103A3000143B9B01AC01C801B7010E9450389B01A7
:103A4000AC01C201B1010E94DA3860934C1170934D
:103A50004D1180934E1190934F11C801B701A801E9
:103A600097010E94143B7B018C01C401B301A401A6
:103A700093010E94143B9B01AC01C801B7010E9455
:103A800050380E94813B7B018C01698D7A8D8B8D32
:103A90009C8D20914B0C30914C0C40914D0C5091D1
:103AA0004E0C0E944F38A80197010E94DA386093AB
:103AB000501170935111809352119093531180E0E3
:103AC00090E0A0E0B0E08093541190935511A09342
:103AD0005611B09357118093581190935911A09398
:103AE0005A11B0935B1181E090E00E94C3138DB72F
:103AF0009EB7805490400FB6F8949EBF0FBE8DBF06
:103B0000ADB7BEB71196E7E2FDE080E401900D92FB
:103B10008150E1F7CE018F519F4F0E943007DE01A7
:103B2000AF59BE4FFE01EF51FF4F80E401900D925F
:103B30008150E1F780E090E0A0E8BFE38D879E87A9
:103B4000AF87B88BC352DE4F2881CD5DD140C252C2
:103B5000DE4F3881CE5DD140C152DE4F4881CF5D0E
:103B6000D140C052DE4F5881C05ED140C901DA0158
:103B700089879A87AB87BC87C752DE4F8881998136
:103B8000AA81BB81C95DD1408D839E83AF83B887F5
:103B9000CB52DE4F88819981AA81BB81C55DD1401E
:103BA00089839A83AB83BC83DE01AF5BBF4FFE0189
:103BB000319680E101900D928150E1F731E5432E7D
:103BC000512C4C0E5D1E00E010E0ADB7BEB7A05CFE
:103BD000BF4F0FB6F894BEBF0FBEADBF21E4E22EBB
:103BE000F12CEC0EFD1E90E1292E312C2E0C3F1CE9
:103BF00024C0F60161917191819191916F01D5017C
:103C00002D913D914D915D915D010E94143B9B0171
:103C1000AC01C401B3010E9450383B014C01A21415
:103C2000B30439F7F20161937193819391932F015A
:103C30000F5F1F4F04301105C1F0680184E0CC0C08
:103C4000DD1C8A95E1F781E691E08C0F9D1FC80E7F
:103C5000D91E57010F2EF0E06F2EF0E07F2EF0E01E
:103C60008F2EF0E09F2EF02DC4CFFE01EF5AFF4FB4
:103C70006084718482849384E080F1800281138166
:103C8000A480B580C680D780C601B501A801970180
:103C90000E94DA3860935411709355118093561135
:103CA00090935711C801B701A80197010E94143BD6
:103CB0007B018C01C601B501A60195010E94143B50
:103CC0009B01AC01C801B7010E9450380E94813BA2
:103CD0009B01AC01C401B3010E94DA389B01AC0125
:103CE0006BED7FE089EC9FE30E944F3860935811A1
:103CF0007093591180935A1190935B1181E090E079
:103D00000E94C313ADB7BEB7A054B0400FB6F8942D
:103D1000BEBF0FBEADBF1196E7E2FDE080E40190AB
:103D20000D928150E1F7CE018F519F4F0E943007D5
:103D3000EDB7FEB7E05CFF4F0FB6F894FEBF0FBEC5
:103D4000EDBF8DB79EB7805890400FB6F8949EBFD8
:103D50000FBE8DBF2DB73EB72F5F3F4FD901FE017C
:103D6000EF51FF4F80E401900D928150E1F7D901AE
:103D7000A05CBF4FFE01EF59FF4F80E401900D9210
:103D80008150E1F7CE018F559F4F0E94A7048E010D
:103D90000F551F4FD8018D909D90AD90BC90EDB701
:103DA000FEB7E058FF4F0FB6F894FEBF0FBEEDBF51
:103DB000C501B40127E137EB41ED58E30E942D39ED
:103DC000882364F5C501B40127E137EB41ED58EBD9
:103DD0000E94093B181614F580E090E0A0E0B0E0E6
:103DE00080935C1190935D11A0935E11B0935F116D
:103DF0008093601190936111A0936211B09363114D
:103E0000D80154966D917D918D919C9157975896BC
:103E10002D913D914D915C915B9743C011EAC12E6C
:103E2000D12CCC0EDD1EF601E0A0F1A002A113A161
:103E3000C801B701A80197010E94143B9B01AC0186
:103E400060E070E080E89FE30E944F380E94813B71
:103E5000A80197010E94DA38609360117093611194
:103E60008093621190936311D60150966D917D916C
:103E70008D919C915397A50194010E94DA3860932B
:103E80005C1170935D1180935E1190935F11F60148
:103E900060A571A582A593A524A135A146A157A12E
:103EA00050580E94DA3860936411709365118093C2
:103EB00066119093671160905C1170905D11809015
:103EC0005E1190905F11C401B3012AE939E949E11B
:103ED00050E40E94093B18160CF04CC0C401B30119
:103EE0002BED3FE049E450E40E944F3860935C11B1
:103EF00070935D1180935E1190935F1180916011BA
:103F000090916111A0916211B0916311B0588093AA
:103F1000601190936111A0936211B093631160904E
:103F20006411709065118090661190906711C401C2
:103F3000B30120E030E040E050E00E94093B181659
:103F40004CF4C401B3012BED3FE049E450E40E947E
:103F50004F3808C0C401B3012BED3FE049E450E401
:103F60000E945038609364117093651180936611BC
:103F70009093671160905C1170905D1180905E115C
:103F800090905F11C401B3012AE939E949E150EC8D
:103F90000E942D3988230CF04CC0C401B3012BEDD5
:103FA0003FE049E450E40E94503860935C11709304
:103FB0005D1180935E1190935F11809160119091DB
:103FC0006111A0916211B0916311B058809360119A
:103FD00090936111A0936211B0936311609064118A
:103FE000709065118090661190906711C401B301C3
:103FF00020E030E040E050E00E94093B18164CF40D
:10400000C401B3012BED3FE049E450E40E944F3876
:1040100008C0C401B3012BED3FE049E450E40E9425
:10402000503860936411709365118093661190937A
:10403000671181E090E00E94C3138DB79EB74E9741
:104040000FB6F8949EBF0FBE8DBFEDB7FEB7319689
:1040500084E296E0ADB7BEB712969C938E9311970B
:1040600080914C1190914D11A0914E11B0914F1132
:1040700082839383A483B5838091501190915111D1
:10408000A0915211B091531186839783A087B18775
:104090008091541190915511A0915611B0915711E2
:1040A00082879387A487B587809158119091591181
:1040B000A0915A11B0915B1186879787A08BB18B25
:1040C00080915C1190915D11A0915E11B0915F1192
:1040D000828B938BA48BB58B809160119091611131
:1040E000A0916211B0916311868B978BA08FB18FD5
:1040F0008091641190916511A0916611B091671142
:10410000828F938FA48FB58F0E94CE3EEDB7FEB7FE
:104110007E960FB6F894FEBF0FBEEDBFCE51DE4FB8
:104120000FB6F894DEBF0FBECDBFCF91DF911F91C8
:104130000F91FF90EF90DF90CF90BF90AF909F9046
:104140008F907F906F905F904F903F902F90089549
:104150000E9441168DB79EB74E970FB6F8949EBF3A
:104160000FBE8DBFEDB7FEB7319683E496E0ADB7D5
:10417000BEB712969C938E93119780914C1190919B
:104180004D11A0914E11B0914F1182839383A4835E
:10419000B5838091501190915111A0915211B0911D
:1041A000531186839783A087B18780915411909192
:1041B0005511A0915611B091571182879387A4870A
:1041C000B5878091581190915911A0915A11B091D1
:1041D0005B1186879787A08BB18B80915C11909142
:1041E0005D11A0915E11B0915F11828B938BA48BB6
:1041F000B58B8091601190916111A0916211B09185
:104200006311868B978BA08FB18F809164119091F1
:104210006511A0916611B0916711828F938FA48F61
:10422000B58F0E94CE3E8DB79EB74E960FB6F894CE
:104230009EBF0FBE8DBF089581E090E00E9499302F
:10424000019739F182E090E00E949930019709F1DD
:1042500084E090E00E9499300197D9F088E090E0E6
:104260000E9499300197A9F080E190E00E94993076
:10427000019779F080E290E00E949930019749F02F
:1042800080E490E00E949930019719F021E030E03D
:1042900006C088B190E1892788B920E030E0C901E3
:1042A0000895CF93DF930E946D3281E090E00E94E9
:1042B0009930019719F4C2E0D0E002C0C1E0D0E02B
:1042C00084E090E00E949930019729F4CE01880F94
:1042D000991FC80FD91F80E290E00E949930019782
:1042E00039F4CE01880F991F880F991FC80FD91F65
:1042F000CE01DF91CF9108952F923F924F925F921E
:104300006F927F928F929F92AF92BF92CF92DF92E5
:10431000EF92FF920F931F9380E090E00E94512153
:104320002C018AE090E00E9451211C0181E090E084
:104330000E9451213C0182E090E00E9451214C01F9
:1043400083E090E00E9451215C0184E090E00E94B3
:1043500051216C0185E090E00E9451217C0186E0B2
:1043600090E00E9451218C0187E090E00E94512151
:104370002DB73EB7245130400FB6F8943EBF0FBE64
:104380002DBFEDB7FEB731962EE536E0ADB7BEB71F
:1043900012963C932E9311975382428275826482C7
:1043A00097828682B186A086D386C286F586E48609
:1043B00017870687918B808B338A228A0E94CE3E94
:1043C0002DB73EB72C5E3F4F0FB6F8943EBF0FBEE1
:1043D0002DBF1F910F91FF90EF90DF90CF90BF9076
:1043E000AF909F908F907F906F905F904F903F9095
:1043F0002F9008950E946D320E9486309093A80EEF
:104400008093A70E019719F020E030E003C00E94CE
:104410001C219C01C90108956F927F928F929F92F7
:10442000AF92BF92CF92DF92EF92FF920F931F93C2
:1044300080E090E00E94FA213C0181E090E00E943F
:10444000FA214C0182E090E00E94FA215C0183E0B5
:1044500090E00E94FA216C0184E090E00E94FA2131
:104460007C0185E090E00E94FA218C0186E090E0DA
:104470000E94FA212DB73EB7205130400FB6F89474
:104480003EBF0FBE2DBFEDB7FEB731962EE736E02B
:10449000ADB7BEB712963C932E931197738262828A
:1044A00095828482B782A682D186C086F386E28610
:1044B00015870487978786870E94CE3E2DB73EB723
:1044C000205F3F4F0FB6F8943EBF0FBE2DBF1F9128
:1044D0000F91FF90EF90DF90CF90BF90AF909F90A3
:1044E0008F907F906F9008956AE270E00E94523240
:1044F000AA2797FDA095BA2FBC01CD010E94CF3904
:1045000020E030E040E251E40E94343908952F92D7
:104510003F924F925F926F927F928F929F92AF9253
:10452000BF92CF92DF92EF92FF920F931F9387E09B
:1045300090E00E9474221B012C0100D000D089E978
:1045400096E0EDB7FEB79283818323823482458261
:1045500056820E94CE3E24EF31E08DB79EB706967C
:104560000FB6F8949EBF0FBE8DBF40E951E0CA015F
:104570000197F1F721503040D1F780E090E00E94A0
:1045800074223B014C0100D000D089EA96E0EDB7DF
:10459000FEB79283818363827482858296820E94B1
:1045A000CE3E1092E60A1092E50A61E070E0709348
:1045B000E80A6093E70A82E090E09093EA0A809329
:1045C000E90A83E090E09093EC0A8093EB0A84E0A0
:1045D00090E09093EE0A8093ED0A85E090E090934E
:1045E000F00A8093EF0A86E090E09093F20A8093BD
:1045F000F10A87E090E09093F40A8093F30A81E156
:1046000090E09093F60A8093F50A80E090E0A2EAA9
:10461000B2E48093130B9093140BA093150BB093FB
:10462000160B80E090E0A0E0B0E08093170B909331
:10463000180BA093190BB0931A0B20E030E044EB59
:1046400052E420931B0B30931C0B40931D0B509393
:104650001E0B80E090E0A2EEB2E480931F0B9093DB
:10466000200BA093210BB093220B2093230B3093AC
:10467000240B4093250B5093260B2093270B30934C
:10468000280B4093290B50932A0B20932B0B30932C
:104690002C0B40932D0B50932E0B80E090E0A0EF5D
:1046A000B2E480932F0B9093300BA093310BB09317
:1046B000320B80E090E0AEE6B3E48093330B90934E
:1046C000340BA093350BB093360B7093FE106093B0
:1046D000FD10109200111092FF1010920211109212
:1046E000011170930411609303111092061110923E
:1046F0000511709308116093071110920A1110921E
:10470000091110920C1110920B1170930E116093FD
:104710000D1120E030EF4FE755E42093B70B3093B5
:10472000B80B4093B90B5093BA0B2093BB0B30934B
:10473000BC0B4093BD0B5093BE0B80E090ECAFE7F9
:10474000B4E48093BF0B9093C00BA093C10BB093C4
:10475000C20B2093C30B3093C40B4093C50B5093F3
:10476000C60B8093C70B9093C80BA093C90BB09353
:10477000CA0B8093CB0B9093CC0BA093CD0BB09333
:10478000CE0B8093CF0B9093D00BA093D10BB09313
:10479000D20B8093D30B9093D40BA093D50BB093F3
:1047A000D60B8093D70B9093D80BA093D90BB093D3
:1047B000DA0B25E83BEE4AE753E42093370B3093BE
:1047C000380B4093390B50933A0B20933B0B3093AB
:1047D0003C0B40933D0B50933E0B80E090E0A6E9EC
:1047E000B3E480933F0B9093400BA093410BB093A5
:1047F000420B2093430B3093440B4093450B509353
:10480000460B8093470B9093480BA093490BB093B2
:104810004A0B80934B0B90934C0BA0934D0BB09392
:104820004E0B80934F0B9093500BA093510BB09372
:10483000520B8093530B9093540BA093550BB09352
:10484000560B8093570B9093580BA093590BB09332
:104850005A0BC401B30120E335E44EEB50E40E944F
:10486000143B20E030E040E850E40E944F387B01E8
:104870008C01C401B30129E838E848E850E40E94FB
:10488000143B2DEC3CEC4CEC5EE30E9450385B0199
:104890006C01C401B30122E93BE149EB5FE30E94F3
:1048A000143B2AE333E24FE251E40E9450383B01CB
:1048B0004C01C201B10120E030E040EC5FE30E9416
:1048C000143B20E030E040EC5FE30E9450381B01D5
:1048D0002C01C701D8018093930B9093940BA09364
:1048E000950BB093960B8093970B9093980BA09396
:1048F000990BB0939A0BC301D40180939B0B9093B7
:104900009C0BA0939D0BB0939E0BC701D801809385
:104910009F0B9093A00BA093A10BB093A20BC5018A
:10492000D6018093A30B9093A40BA093A50BB093F7
:10493000A60B8093A70B9093A80BA093A90BB09301
:10494000AA0BC301D4018093AB0B9093AC0BA09343
:10495000AD0BB093AE0BC101D2018093AF0B90931E
:10496000B00BA093B10BB093B20B8093B30B9093A9
:10497000B40BA093B50BB093B60B89EB96E0EDB7F3
:10498000FEB792838183C701D80183839483A58373
:10499000B6830E94CE3E8CEC96E0EDB7FEB79283D4
:1049A0008183C501D60183839483A583B6830E9446
:1049B000CE3E8EED96E0EDB7FEB792838183C301C4
:1049C000D40183839483A583B6830E94CE3E80EF77
:1049D00096E0EDB7FEB792838183C101D201838354
:1049E0009483A583B6830E94CE3E8DB79EB706966C
:1049F0000FB6F8949EBF0FBE8DBF1F910F91FF9011
:104A0000EF90DF90CF90BF90AF909F908F907F906E
:104A10006F905F904F903F902F900895CF92DF92CC
:104A2000EF92FF920F931F93CF93DF93182F092FCD
:104A30008EEF90E00E948B3083E890E00E948E30F1
:104A400080E090E060E270E00E94913081E090E0D0
:104A500062E070E00E949130212F302FC9016C017B
:104A6000EE24FF24C2E0D0E0CE01B7010E949130D5
:104A7000F60141915191619171916F01C7010E94BD
:104A80007F028C010894E11CF11C0E94B330BC0130
:104A9000CE0101960E949130C8010E94B730BC013E
:104AA000CE0102960E9491302396F7E0EF16F104B2
:104AB000D9F689E190E00E9496300E94F031809111
:104AC000540890915508019771F40E948630909394
:104AD000A80E8093A70E8130910519F40E941C2125
:104AE00002C00E949A0ADF91CF911F910F91FF900F
:104AF000EF90DF90CF900895CF92DF92EF92FF92E8
:104B00000F931F93CF93DF93182F092F8EEF90E011
:104B10000E948B3083E890E00E948E3080E090E02D
:104B20006EE170E00E94913081E090E062E070E020
:104B30000E949130212F302FC9016C01EE24FF24F7
:104B4000C2E0D0E0CE01B7010E949130F601419160
:104B50005191619171916F01C7010E94A2018C0175
:104B60000894E11CF11C0E94B330BC01CE010196F7
:104B70000E949130C8010E94B730BC01CE0102965C
:104B80000E9491302396F7E0EF16F104D9F689E1FF
:104B900090E00E9496300E94F0310E9486309093FF
:104BA000A80E8093A70E8130910519F40E941C2154
:104BB00002C00E949A0ADF91CF911F910F91FF903E
:104BC000EF90DF90CF9008956F927F928F929F9297
:104BD000AF92BF92CF92DF92EF92FF920F931F930B
:104BE000FC015B014A01390180E090E068E170E07E
:104BF000AF010E943B3281E090E068E170E0A501E6
:104C00000E943B3282E090E068E170E0A4010E94E3
:104C10003B3283E090E068E170E0A3010E943B3208
:104C200084E090E068E170E0A8010E943B3285E0FA
:104C300090E068E170E0A7010E943B3286E090E0DE
:104C400068E170E0A6010E943B3281E090E01F9194
:104C50000F91FF90EF90DF90CF90BF90AF909F901B
:104C60008F907F906F9008950F931F93CF93DF9352
:104C70008C01C0E0D0E0CE0168E170E0A8010E94A4
:104C80003B322196C730D105B1F7DF91CF911F910B
:104C90000F910895AB0168E170E00E943B320895E6
:104CA000CF92DF92EF92FF920F931F93CF93DF93F8
:104CB000EC0168E270E00E941C326C0192FD03C0BE
:104CC00021E030E002C02FEF3FEFCC0FDD1FC350DB
:104CD000DF4E88819981019719F4309521953F4FD6
:104CE000B901882777FD8095982F0E94CF397B01E5
:104CF0008C018FEF93E0C822D922B601882777FD77
:104D00008095982F0E94CF3920E030E048EC52E4A3
:104D10000E94143B20E030EC4FE754E40E94343909
:104D20009B01AC01C801B7010E94143BDF91CF91F8
:104D30001F910F91FF90EF90DF90CF9008956F92A9
:104D40007F928F929F92AF92BF92CF92DF92EF921B
:104D5000FF920F931F938C015C01AA0CBB1CF50101
:104D6000EB51F54F8081918164E270E00E941C322A
:104D7000000F111F000F111FF801E95CF44FC080F4
:104D8000D180E280F380AA2797FDA095BA2FBC01BD
:104D9000CD010E94CF39A70196010E94143BF80172
:104DA000E954F44F20813181428153810E9434398A
:104DB0003B014C010D5E144FC701B60120E030E00D
:104DC00044E353E40E944F3820E030E040E05FE3EA
:104DD0000E94143BF80120813181428153810E945D
:104DE00050389B01AC018DEF90E1A80EB91EF50182
:104DF00080819181019719F0C401B30104C0CA01F7
:104E0000B901A40193010E944F3825E33AEF4EE81F
:104E10005CE30E94143B1F910F91FF90EF90DF9095
:104E2000CF90BF90AF909F908F907F906F9008959C
:104E3000AF92BF92CF92DF92EF92FF920F931F93A8
:104E400087E090E00E949F265B016C0120E030E04B
:104E500040E050E00E942D39882324F4D7FAD09402
:104E6000D7F8D09480E49CE90197F1F788E090E0CE
:104E70000E949F267B018C0120E030E040E050E062
:104E80000E942D39882324F417FB109517F91095EB
:104E9000C601B5012DEC3CEC4CEC5DE30E944F38B3
:104EA0002AE939E949E15EE30E942D3987FD03C013
:104EB00021E030E011C0DD24C801B7012AE939E959
:104EC00049E15EE30E942D39882314F4DD24D39454
:104ED00081E0D8262D2D30E0C9011F910F91FF9060
:104EE000EF90DF90CF90BF90AF90089580916A08C7
:104EF00090916B08019690936B0880936A088436B2
:104F00009105D4F010926308109262080E9418274D
:104F1000909369088093680800D00F9222E037E0F0
:104F2000EDB7FEB732832183948383830E94CE3E04
:104F30000F900F900F900F9008950F931F93CF93A2
:104F4000DF9301EE10E1C0E0D0E0CE010E949F2689
:104F5000F80161937193819391938F012196C730EA
:104F6000D10599F7DF91CF911F910F9108952F925D
:104F70003F924F925F926F927F928F929F92AF92E9
:104F8000BF92CF92DF92EF92FF920F931F93DF9326
:104F9000CF93CDB7DEB762970FB6F894DEBF0FBEE2
:104FA000CDBF3B014C0119012A0160E070E080EAAD
:104FB00091E40E94BA0F0E949D276CA97DA98EA939
:104FC0009FA920E030E040E05FE30E942D39882374
:104FD0000CF4EAC1809160089091610881309105DC
:104FE00009F049C06092A0117092A1118092A211A3
:104FF0009092A3112092A4113092A5114092A61173
:105000005092A711E092A811F092A9110093AA1151
:105010001093AB11A092AC11B092AD11C092AE1131
:10502000D092AF1188A599A5AAA5BBA58093B01170
:105030009093B111A093B211B093B3118CA59DA51B
:10504000AEA5BFA58093B4119093B511A093B611EE
:10505000B093B71188A999A9AAA9BBA98093B8113F
:105060009093B911A093BA11B093BB110E9441164D
:105070009A8B898B4DC0029719F01A8A198A48C0F9
:1050800060924C1170924D1180924E1190924F117E
:10509000209250113092511140925211509253115E
:1050A000E0925411F092551100935611109357113C
:1050B000A0925811B0925911C0925A11D0925B111E
:1050C00088A599A5AAA5BBA580935C1190935D11B5
:1050D000A0935E11B0935F118CA59DA5AEA5BFA551
:1050E0008093601190936111A0936211B09363114A
:1050F00088A999A9AAA9BBA9809364119093651165
:10510000A0936611B0936711A1E0B0E0BA8BA98BB0
:1051100010925F0810925E088CA99DA9AEA9BFA944
:1051200080935A0890935B08A0935C08B0935D0845
:10513000ADB7BEB75E970FB6F894BEBF0FBEADBF9A
:10514000EDB7FEB731968AE097E012969C938E9366
:1051500011978091E1109091E210A091E310B0912D
:10516000E41082839383A483B5838091E5109091AA
:10517000E610A091E710B091E81086839783A0878E
:10518000B1878091E9109091EA10A091EB10B09155
:10519000EC1082879387A487B5878091ED1090915A
:1051A000EE10A091EF10B091F01086879787A08B3A
:1051B000B18B8091F1109091F210A091F310B09109
:1051C000F410828B938BA48BB58B8091F51090910A
:1051D000F610A091F710B091F810868B978BA08FE6
:1051E000B18F8091F9109091FA10A091FB10B091BD
:1051F000FC10828F938FA48FB58F0E94CE3EEDB7A7
:10520000FEB731968BE397E0ADB7BEB712969C938D
:105210008E93119780914C1190914D11A0914E1148
:10522000B0914F1182839383A483B58380915011F1
:1052300090915111A0915211B0915311868397838F
:10524000A087B1878091541190915511A09156116A
:10525000B091571182879387A487B58780915811A1
:1052600090915911A0915A11B0915B11868797873F
:10527000A08BB18B80915C1190915D11A0915E111A
:10528000B0915F11828B938BA48BB58B8091601151
:1052900090916111A0916211B0916311868B978BEF
:1052A000A08FB18F8091641190916511A0916611CA
:1052B000B0916711828F938FA48FB58F0E94CE3EDD
:1052C000EE24FF2400E010E08DB79EB74E960FB697
:1052D000F8949EBF0FBE8DBFC7010E949F26F801A4
:1052E000EF51FF4E6083718382839383F801E9500D
:1052F000F54F60837183828393830894E11CF11CD2
:105300000C5F1F4F97E0E916F10431F720905A081F
:1053100030905B0840905C0850905D0866247724CC
:1053200088249924530174E0AA0CBB1C7A95E1F7F8
:10533000ABEDBBE0AA0EBB1EF401E950F54F408176
:10534000518162817381F401E45BFE4E0081118121
:1053500022813381CE010196720161010E944608CB
:10536000D501FE01319680E101900D928150E1F767
:105370000894611C711C84E090E0880E991E97E0EF
:105380006916710479F6A989BA89AB2B49F081E0D5
:1053900090E0909357088093560821E030E006C0D3
:1053A000109257081092560820E030E0C90162962A
:1053B0000FB6F894DEBF0FBECDBFCF91DF911F9126
:1053C0000F91FF90EF90DF90CF90BF90AF909F90A4
:1053D0008F907F906F905F904F903F902F900895A7
:1053E0002F923F924F925F926F927F928F929F92F5
:1053F000AF92BF92CF92DF92EF92FF920F931F93E3
:10540000DF93CF93CDB7DEB72C970FB6F894DEBFFE
:105410000FBECDBF8091EE089091EF08892B09F463
:10542000EBC31092EF081092EE080E94450B892BF7
:1054300009F4E2C380910F1190E0FC01E354F040C5
:10544000E733F10508F0D8C3EA59FF4FEE0FFF1F0D
:105450000590F491E02D199410926B0810926A084F
:10546000609110117091111180911211909113118E
:105470000E944410C4C30E94182790936908809327
:10548000680800D00F922CE637E0ADB7BEB7129691
:105490003C932E93119714969C938E93139721C14E
:1054A000EDB7FEB738970FB6F894FEBF0FBEEDBF4D
:1054B0000DB71EB70F5F1F4F82E797E0928381837E
:1054C0008091101190911111A0911211B0911311AE
:1054D000F80182839383A483B58360911411709142
:1054E000151180911611909117110E949C39D801C5
:1054F00017967C936E9316970E94CE3EEDB7FEB73B
:1055000038960FB6F894FEBF0FBEEDBF6091101134
:105510007091111180911211909113110E949C3978
:105520007B018C01609114117091151180911611FD
:10553000909117110E949C399B01AC01C7016EE14B
:1055400070E0A9010E9401325AC36091101170915C
:10555000111180911211909113110E949C39DC015C
:10556000CB01409114115091151160911611709159
:1055700017110E941A0F43C3809145089091460865
:10558000019709F079C080914308909144080197F0
:1055900009F072C00E949D272DB73EB72E513040B2
:1055A0000FB6F8943EBF0FBE2DBFEDB7FEB73196D4
:1055B0008FE797E0ADB7BEB712969C938E93119785
:1055C0008091E1109091E210A091E310B091E4106D
:1055D00082839383A483B5838091E5109091E61034
:1055E000A091E710B091E81086839783A087B187D8
:1055F0008091E9109091EA10A091EB10B091EC101D
:1056000082879387A487B5878091ED109091EE10E3
:10561000A091EF10B091F01086879787A08BB18B87
:105620008091F1109091F210A091F310B091F410CC
:10563000828B938BA48BB58B8091F5109091F61093
:10564000A091F710B091F810868B978BA08FB18F37
:105650008091F9109091FA10A091FB10B091FC107C
:10566000828F938FA48FB58F0E94CE3E21E030E0D1
:10567000EDB7FEB77E9677C00F920F928AE997E05A
:10568000C6C1E0901011F09011110091121110910B
:105690001311C801B70120E030E040E85FE30E9449
:1056A0002D39882339F481E090E090935908809354
:1056B0005808A5C2C801B7010E949C3970935908C7
:1056C0006093580800D00F92EDB7FEB731962FE9DE
:1056D00037E0ADB7BEB712963C932E931197738304
:1056E00062830E94CE3E21E030E00F900F900F9039
:1056F0000F9087C20E94EF1082C2609110117091CA
:10570000111180911211909113110E949C39DC01AA
:10571000CB010E949F26EDB7FEB73A970FB6F894DB
:10572000FEBF0FBEEDBF319625EA37E0ADB7BEB77D
:1057300012963C932E9311972091101130911111D4
:105740004091121150911311228333834483558366
:1057500066837783808791870E94CE3E21E030E088
:10576000EDB7FEB73A960FB6F894FEBF0FBEEDBF89
:1057700048C2609110117091111180911211909195
:10578000131120E030E040E85FE30E942D398823C8
:1057900059F481E090E090934408809343080F927D
:1057A0000F928FEA97E033C1109244081092430899
:1057B0000F920F9284EB97E014C2609110117091D8
:1057C000111180911211909113110E948C100F925F
:1057D0000F9289EB97E01BC181E090E09093610804
:1057E00080936008EDB7FEB770970FB6F894FEBFD0
:1057F0000FBEEDBF31966091101170911111809123
:1058000012119091131120911411309115114091A2
:10581000161150911711E0901811F0901911009184
:105820001A1110911B11A0901C11B0901D11C09065
:105830001E11D0901F116090201170902111809046
:10584000221190902311ADB7BEB711966D927D9243
:105850008D929C92149760902411709025118090E5
:1058600026119090271164827582868297826090BB
:1058700028117090291180902A1190902B11608628
:1058800071868286938660902C1170902D11809085
:105890002E1190902F1164867586868697860E94B9
:1058A000B727EDB7FEB770960FB6F894FEBF0FBEE0
:1058B000EDBF892B09F0A3C10F920F928EEB97E0F9
:1058C00074C082E090E09093610880936008EDB727
:1058D000FEB770970FB6F894FEBF0FBEEDBF3196BE
:1058E000609110117091111180911211909113110A
:1058F00020911411309115114091161150911711EA
:10590000E0901811F090191100911A1110911B11CB
:10591000A0901C11B0901D11C0901E11D0901F11AD
:10592000609020117090211180902211909023118D
:10593000ADB7BEB711966D927D928D929C921497E1
:10594000609024117090251180902611909027115D
:1059500064827582868297826090281170902911E6
:1059600080902A1190902B11608671868286938692
:1059700060902C1170902D1180902E1190902F110D
:1059800064867586868697860E94B727EDB7FEB730
:1059900070960FB6F894FEBF0FBEEDBF892B09F0CD
:1059A0002EC10F920F9284EC97E0ADB7BEB712965E
:1059B0009C938E9311970E94CE3E10926108109294
:1059C000600815C160911011709111118091121130
:1059D0009091131120E030E040E85FE30E942D3900
:1059E000882339F481E090E090934608809345083D
:1059F00015C08091560890915708892B79F4109220
:105A00004608109245080F920F928FEC97E0ADB7C1
:105A1000BEB712969C938E931197E7C00F920F9288
:105A20008AEC97E0DEC060911011709111118091A5
:105A30001211909113110E949C39DC01CB0140910D
:105A400014115091151160911611709117110E9447
:105A5000990FD5C00E947C21D2C060911011709125
:105A60001111809112119091131120E030E040E863
:105A70005FE30E942D3904ED17E0882369F481E08B
:105A800090E00E9434260F920F92ADB7BEB71296E7
:105A90001C930E931197A9C080E090E00E943426D9
:105AA0000F920F92EDB7FEB7128301839EC080E084
:105AB00090E00E9474226093F0087093F108809344
:105AC000F2089093F30800D000D029ED37E0ADB78D
:105AD000BEB712963C932E931197EDB7FEB7638332
