S014000041726D734669726D776172652E7372656340
S113000065C0000082C0000080C000007EC0000007
S11300107CC000007AC0000078C0000076C00000F8
S113002074C0000072C0000070C000006EC0000008
S11300306CC000006AC0000068C0000066C0000018
S113004064C0000062C0000060C000005EC0000028
S11300505CC000005AC0000058C0000056C0000038
S113006054C0000052C0000050C000004EC0000048
S11300704CC000004AC0000048C0000046C0000058
S113008044C0000042C0000040C000003EC0000068
S11300905CC000003AC0000038C0000036C0000058
S11300A034C0000032C0000030C000002EC0000088
S11300B02CC000002AC0000028C0000026C0000098
S11300C024C0000022C0000020C0000011241FBE74
S11300D0CFEFD1E2DEBFCDBF00E00CBF12E0A0E065
S11300E0B2E0EAE4F2E000E00BBF02C007900D9238
S11300F0A030B107D9F712E0A0E0B2E001C01D9230
S1130100A338B107E1F702D09CC07ACF80E090E039
S11301100895982F81568A3118F421E030E008C000
S113012020E030E0892F81548A3110F421E030E05E
S1130130822F932F089520E030E080538A3010F40A
S113014021E030E0822F932F08951F920F920FB673
S11301500F920BB60F9211241F932F933F934F933B
S11301605F936F937F938F939F93AF93BF93CF933B
S1130170DF93EF93FF9310918202C12FD0E080911F
S1130180CE00FE01E050FE4F80838081C2DF892BC8
S1130190F9F4FE01E050FE4F8081CDDF892BC1F4DC
S11301A0FE01E050FE4F80818D3291F0FE01E0505F
S11301B0FE4F8081803261F0FE01E050FE4F80816D
S11301C0893031F0FE01E050FE4F80818E3249F4D7
S11301D0812F8F5F809382028823ECF41092820235
S11301E01AC0FE01E050FE4F80818D3031F0FE01D7
S11301F0E050FE4F80818A3071F4FE01E050FE4FE2
S11302001082112331F081E090E090938102809379
S1130210800210928202FF91EF91DF91CF91BF9102
S1130220AF919F918F917F916F915F914F913F918A
S11302302F911F910F900BBE0F900FBE0F901F9028
S10D02401895F89400C0F894FFCF5D
S9030000FC
