:100000000C947F010C94A0010C94A0010C94A0010D
:100010000C94A0010C94A0010C94A0010C94A001DC
:100020000C94A0010C94A0010C94A0010C94A001CC
:100030000C94A0010C94A0010C94A0010C94A001BC
:100040000C94A0010C94A0010C94A0010C94A001AC
:100050000C94A0010C94A0010C94A0010C94A0019C
:100060000C94A0010C9495340C94A0010C94A00164
:100070000C94A0010C94A0010C94A0010C94A0017C
:100080000C94A0010C94A0010C94A0010C94A0016C
:100090000C94B1080C94A0010C94A0010C94A00144
:1000A0000C94A0010C94A0010C94A0010C94A0014C
:1000B0000C94A0010C94A0010C94A0010C94A0013C
:1000C0000C94A0010C94A0010C94A0016F2C303072
:1000D00030303030752D3030303030303030ED2D24
:1000E00030303030303030303030162F5E2F3030FE
:1000F0003030303030303030303030303030303000
:10010000303030303030303030303030602C842C73
:100110003030D92CF02CAE2D30303030B12D303085
:1001200030303030112E202E952E3030472F612F59
:1001300030308B2F30303030B42F036EDB363D9AA9
:100140009999993DABAAAA2A3E000000803F084A2F
:10015000D73B3BCE016E84BCBFFDC12F3D6C7431DB
:100160009ABD56833DDA3D00C77F11BED9E4BB4C32
:100170003E916BAAAABE000000803F072C7AA5BA68
:100180006CC590DA3B9365FC8BBC53F810FD3C5674
:1001900092834DBD879D3AB63DCBC9BF5BBE73DA36
:1001A0000FC93F05A84CCDB2D44EB93836A9020CC0
:1001B00050B9918688083CA6AAAA2ABE00000080F1
:1001C0003F6E616E00696E6600494E46494E495465
:1001D000594E414ECDCCCC3D0AD7233C17B7D13830
:1001E00077CC2B329595E6241FB14F0A00002041B1
:1001F0000000C84200401C4620BCBE4CCA1B0E5A20
:10020000AEC59D7400407A10F35A00A0724E1809D2
:100210000010A5D4E80000E87648170000E40B546D
:10022000020000CA9A3B000000E1F505000080963C
:100230009800000040420F000000A086010000006E
:10024000102700000000E803000000006400000028
:1002500000000A00000000000100000000002C76F1
:10026000D888DC674F0823DFC1DFAE59E1B1B7960C
:10027000E5E3E453C63AE651997696E8E6C2842669
:10028000EB898C9B62ED407C6FFCEFBC9C9F40F245
:10029000BAA56FA5F490055A2AF75C936B6CF967C1
:1002A0006DC11BFCE0E40D47FEF520E6B500D0ED86
:1002B000902E0300943577050080841E08000020EE
:1002C0004E0A000000C80C333333330F986E12838C
:1002D0001141EF8D2114893BE65516CFFEE6DB1860
:1002E000D1844B381BF77C1D901DA4BBE424203225
:1002F00084725E228100C9F124ECA1E53D2711241E
:100300001FBECFEFD1E2DEBFCDBF00E00CBF18E0D3
:10031000A0E0B2E0ECE9F1E800E00BBF02C007901A
:100320000D92A835B107D9F711E1A8E5B8E001C0F1
:100330001D92A63DB107E1F70E944F300C94733D2A
:100340000C9400002F923F924F925F926F927F9297
:100350008F929F92AF92BF92CF92DF92EF92FF92D5
:100360000F931F931A012B01FC01EE0FFF1FEF5F8C
:10037000FE4E0190F081E02DE130F10509F060C002
:10038000DC01AA0FBB1FAA0FBB1FFD01E55CF44FE8
:10039000A080B180C280D380FD01E554F44F60801D
:1003A000718082809380A95EB44FC601B5012D9102
:1003B0003D914D915C910E947D387B018C01C6017D
:1003C000B50120E030E044E353E40E947D3820E0B2
:1003D00030E040E05FEB0E94423B9B01AC01C80172
:1003E000B7010E947E387B018C01C201B1012CEC67
:1003F0003EE245E652E40E94423B9B01AC01C8014B
:10040000B7010E947E387B018C01C401B301A601B3
:1004100095010E9462399B01AC01C801B7010E949D
:10042000423B0E94CA39882777FD8095982F0E9409
:10043000FD399B01AC01C401B3010E947D384BC062
:10044000EF2B09F04BC06C01CC0CDD1CCC0CDD1C7F
:10045000F601E55CF44F80809180A280B380CB01EF
:10046000BA012CEC3EE245E652E40E94423BF60122
:10047000E95EF44F20813181428153810E947E38B0
:100480007B018C01C501B40120E030E044E353E47A
:100490000E947D3820E030E040E05FE30E94423B74
:1004A0009B01AC01C801B7010E947E387B018C0121
:1004B0008BEB9BE0C80ED91EF601608171818281B1
:1004C0009381A50194010E9462399B01AC01C8018E
:1004D000B7010E94423B0E94CA39CB011F910F9184
:1004E000FF90EF90DF90CF90BF90AF909F908F9054
:1004F0007F906F905F904F903F902F900895DF9284
:10050000EF92FF920F931F93CF93DF937A018B01AA
:10051000FC01EE0FFF1FEF5FFE4E8081918101977E
:1005200079F4C0E0D0E0CB01BA0120E030E040E057
:1005300050E00E945B391816A4F0C1E0D0E011C071
:10054000DD24CB01BA0120E030E040E050E00E9421
:100550005B39181614F0DD24D39481E0D826CD2D14
:10056000D0E0C801B7010E94CA399B0177FF03C0E0
:10057000309521953F4FB901882777FD8095982FB9
:100580000E94FD3924E13EEA43E251E40E94423BED
:100590000E94CA399B0144E0603074071CF02FEFC1
:1005A00033E005C01616170614F021E030E021975D
:1005B00011F420503C4FC901DF91CF911F910F9151
:1005C000FF90EF90DF900895CF93DF93CFEDDBE0C6
:1005D00020E030E080E090E0A0E0B0E0F901E05BF6
:1005E000FE4E80839183A283B383F901EB51FF4ECA
:1005F00080839183A283B383F901E550F54F808313
:100600009183A283B383F901EC55FE4E80839183DD
:10061000A283B383F901E15AF44F80839183A283CB
:10062000B383F901E558F44F80839183A283B383A8
:10063000F901E459FE4E80839183A283B3838883BA
:100640009983AA83BB838C839D83AE83BF83888772
:100650009987AA87BB878C879D87AE87BF872C5FCA
:100660003F4F60962C31310509F0B8CFDF91CF9123
:100670000895EF92FF920F931F937B018C0120E06E
:1006800030E040E050E00E945B39882324F417FBFF
:10069000109517F91095B701C8011F910F91FF90A0
:1006A000EF9008952F923F924F925F926F927F92B8
:1006B0008F929F92AF92BF92CF92DF92EF92FF9272
:1006C0000F931F93DF93CF93CDB7DEB7A0970FB6ED
:1006D000F894DEBF0FBECDBFA98ABA8ACB8ADC8A66
:1006E000ED8AFE8A0F8B188F298F3A8F4B8F5C8F84
:1006F0006D8F7E8F8F8F98A33E010894611C711CB3
:10070000230188249924E6E72E2E312C2C0E3D1E41
:1007100080E190E0280E391E26C0F60161917191AA
:10072000819191916F01F501219131914191519107
:100730005F010E94423B9B01AC01C801B7010E94CE
:100740007E387B018C01A214B30439F7F201619366
:100750007193819391932F010894811C911CF4E073
:100760008F169104E1F0640174E0CC0CDD1C7A95E5
:10077000E1F786E390E08C0F9D1FC80ED91E66E757
:10078000A62EB12CAC0EBD1E0F2EF0E0EF2EF0E029
:10079000FF2EF0E00F2FF0E01F2FF02DBECF51E124
:1007A000C52ED12CCC0EDD1E0F2EF0E0EF2EF0E08A
:1007B000FF2EF0E00F2FF0E01F2FF02D41E2A42ECE
:1007C000B12CAC0EBD1EF601619171918191919198
:1007D0006F01F30121913191419151913F010E94AB
:1007E000423B9B01AC01C801B7010E947E387B01EE
:1007F0008C01CA14DB0439F7C801A0960FB6F8942F
:10080000DEBF0FBECDBFCF91DF911F910F91FF9043
:10081000EF90DF90CF90BF90AF909F908F907F90A0
:100820006F905F904F903F902F9008952F923F923E
:100830004F925F926F927F928F929F92AF92BF92F0
:10084000CF92DF92EF92FF920F931F93DF93CF939C
:10085000CDB7DEB762970FB6F894DEBF0FBECDBF3F
:10086000898B9A8B3E010894611C711C8824992401
:10087000B8E62B2E312C2C0E3D1EA0E14A2E512C19
:10088000420C531C26C0F6016191719181919191A6
:100890006F01F50121913191419151915F010E94C8
:1008A000423B9B01AC01C801B7010E947E387B012D
:1008B0008C01A414B50439F7F3016193719381930A
:1008C00091933F010894811C911CF4E08F169104D0
:1008D000C1F06401F4E0CC0CDD1CFA95E1F788E28C
:1008E00090E08C0F9D1FC80ED91E51010F2EF0E015
:1008F000EF2EF0E0FF2EF0E00F2FF0E01F2FF02D95
:10090000C2CF89899A899C01D901FE01319680E183
:1009100001900D928150E1F789899A8962960FB60C
:10092000F894DEBF0FBECDBFCF91DF911F910F9125
:10093000FF90EF90DF90CF90BF90AF909F908F90FF
:100940007F906F905F904F903F902F9008952F92DF
:100950003F924F925F926F927F928F929F92AF924F
:10096000BF92CF92DF92EF92FF920F931F93DF938C
:10097000CF93CDB7DEB7C655D0400FB6F894DEBFE3
:100980000FBECDBF66968FAF669767969FAF67978E
:10099000FE0171969E012F5F3F4F0F2EF0E0EF2E6C
:1009A000F0E0FF2EF0E00F2FF0E01F2FF02DAF0151
:1009B000D901ED92FD920D931D939D01E082F1828C
:1009C00002831383E482F58206831783E086F1862F
:1009D00002871387E486F586068717877096A41723
:1009E000B50731F7FE0175966396FFAFEEAF6397DB
:1009F0002224332486C06596AEADBFAD65976D9158
:100A00007D918D919D916596BFAFAEAF6597F601D3
:100A100020813181428153810E94423B9B01AC0184
:100A2000C801B7010E947E387B018C010894A11C8B
:100A3000B11C80E190E0C80ED91E94E0A916B10463
:100A4000D1F6D201ED92FD920D931D932D010894E4
:100A5000811C911CB4E08B169104B9F0F201E08086
:100A6000F1800281138165967FAE6EAE6597640159
:100A7000CC0CDD1CCC0CDD1C8CEA90E08C0F9D1F97
:100A8000C80ED91EAA24BB24B6CFF10104E0EE0F94
:100A9000FF1F0A95E1F7A1E0B0E0AC0FBD1FEA0F20
:100AA000FB1F89819A81AB81BC81808B918BA28B4A
:100AB000B38B8D819E81AF81B8856396EEADFFAD1E
:100AC000639780839183A283B38389859A85AB855D
:100AD000BC8584839583A683B7838D859E85AF85EA
:100AE000B88980879187A287B3870894211C311C1D
:100AF00070966396FFAFEEAF6397F4E02F16310464
:100B000039F180E090E0A0E0B0E089839A83AB8384
:100B1000BC838D839E83AF83B88789879A87AB8791
:100B2000BC878D879E87AF87B88B2E010894411CA8
:100B3000511C88249924310114E0660C771C1A9505
:100B4000E1F7ACE6B0E0AC0FBD1F6A0E7B1E86CFAE
:100B500066968FAD669767969FAD67979C01D901A2
:100B6000FE01719680E401900D928150E1F7669646
:100B70008FAD669767969FAD6797CA5ADF4F0FB6DE
:100B8000F894DEBF0FBECDBFCF91DF911F910F91C3
:100B9000FF90EF90DF90CF90BF90AF909F908F909D
:100BA0007F906F905F904F903F902F900895EF92BD
:100BB000FF920F931F93CF93DF9300E010E060E06C
:100BC00070E020E030E040E050E0FB01E753FF4EF2
:100BD0002083318342835383FB01E15BF34F208306
:100BE000318342835383FB01E857FE4E20833183D8
:100BF00042835383FB01E355FF4E208331834283BD
:100C00005383FB01EC5CFE4E20833183428353838C
:100C1000E0E0F0E07801EE0CFF1CEE0CFF1C10C0D1
:100C200029933993499359932D933D934D935D9314
:100C3000019684309105A1F73196E430F10589F0F1
:100C4000CF018E0D9F1DA4E0880F991FAA95E1F793
:100C5000EC01C355D14FDC01A559B34F80E090E0C2
:100C6000DFCF0F5F1F4F6C5F7F4F0730110509F01B
:100C7000ACCFEBE6FEE02DE630E16BE27EE080E01B
:100C800090E0A0E0B0E080839183A283B383E90188
:100C900088839983AA83BB83EB0188839983AA8382
:100CA000BB8384839583A683B783E9018C839D836B
:100CB000AE83BF83EB018C839D83AE83BF8380872C
:100CC0009187A287B387E90188879987AA87BB871D
:100CD000EB0188879987AA87BB8784879587A68732
:100CE000B787E9018C879D87AE87BF87EB018C872B
:100CF0009D87AE87BF877096205F3F4F605F7F4FB5
:100D00004EE0EB3AF40709F0BECF80934F0C90937E
:100D1000500CA093510CB093520C8BE996EEADE9B8
:100D2000BEE38093570C9093580CA093590CB0934A
:100D30005A0C80ED93EBA9E5BEE380935F0C909392
:100D4000600CA093610CB093620C84EA90E7ADE371
:100D5000BEE38093670C9093680CA093690CB093EA
:100D60006A0C82E29DEFA6E7BDE38093C9109093E1
:100D7000CA10A093CB10B093CC108BED9FE0A9ECE0
:100D8000BFE38093881190938911A0938A11B09347
:100D90008B1180938C1190938D11A0938E11B09331
:100DA0008F112BED3FE049EC5FEB209390113093D6
:100DB00091114093921150939311809394119093B9
:100DC0009511A0939611B093971120939811309399
:100DD000991140939A1150939B1180939C11909379
:100DE0009D11A0939E11B0939F118093B110909389
:100DF000B210A093B310B093B4102093B5103093F9
:100E0000B6104093B7105093B81080E090E0A0E87F
:100E1000BFE380938D1090938E10A0938F10B093AA
:100E200090108093711090937210A0937310B093F0
:100E300074108093851090938610A0938710B093C0
:100E400088108093A9109093AA10A093AB10B09330
:100E5000AC10DF91CF911F910F91FF90EF9008950B
:100E60002F923F924F925F926F927F928F929F92BA
:100E7000AF92BF92CF92DF92EF92FF920F931F93A8
:100E8000DF93CF93CDB7DEB7C654D0400FB6F894FA
:100E9000DEBF0FBECDBF26968FAF269727969FAF9A
:100EA0002797AE01445A5F4F6E010894C11CD11CB4
:100EB000FA019601BE0164567F4F80809180A28026
:100EC000B380D9018D929D92AD92BC92139784808C
:100ED0009580A680B78014968D929D92AD92BC921B
:100EE000179780849184A284B38418968D929D92E2
:100EF000AD92BC921B9784849584A684B7841C967B
:100F00008D929D92AD92BC921F977096205F3F4F3D
:100F1000E617F70791F6F6019E0128593F4FDA01CF
:100F20008D909D90AD90BC90139780829182A2820B
:100F3000B38250968D909D90AD90BC9053978482D3
:100F40009582A682B78290968D909D90AD90BC9030
:100F5000939780869186A286B3864C5F5F4F70968A
:100F600042175307E1F6AC968CAD9DADAEADBFAD6B
:100F7000AC9725968CAF9DAFAEAFBFAF2597EC96E3
:100F80004CAC5DAC6EAC7FACEC97C857DF4F888043
:100F90009980AA80BB80C858D04011E3212E312C03
:100FA0002C0E3D1E25966CAD7DAD8EAD9FAD25976B
:100FB000D6012D913D914D915C910E94423B20E0E4
:100FC00030E040E050E00E947E387B018C01C3019C
:100FD000B201F60124813581468157810E94423B4E
:100FE0009B01AC01C801B7010E947E387B018C01D6
:100FF000C501B401D60118962D913D914D915C919A
:101000001B970E94423B9B01AC01C801B7010E94A3
:101010007E389058F601648775878687978780E1C8
:1010200090E0C80ED91EC214D30409F0BBCF269697
:101030008FAD269727969FAD27979C01D901FE017A
:10104000319680E401900D928150E1F726968FADA4
:10105000269727969FAD2797CA5BDF4F0FB6F89468
:10106000DEBF0FBECDBFCF91DF911F910F91FF90DB
:10107000EF90DF90CF90BF90AF909F908F907F9038
:101080006F905F904F903F902F9008952F923F92D6
:101090004F925F926F927F928F929F92AF92BF9288
:1010A000CF92DF92EF92FF920F931F931C014A01A0
:1010B0005B01C901B801A50194010E947D384B0173
:1010C0005C01A70196010E9462392B013C01C50118
:1010D000B401A50194010E947E38A70196010E94E7
:1010E00062399B01AC01C301B2010E947E3820E04D
:1010F00030E040E05FE30E94423B4B015C01C701EE
:10110000B60120E030E040E450E40E9462399B01E7
:10111000AC01F101C486D586E686F78660877187C3
:1011200082879387C501B4010E946239F10164830B
:1011300075838683978380829182A282B382C10164
:101140001F910F91FF90EF90DF90CF90BF90AF90E5
:101150009F908F907F906F905F904F903F902F90D7
:1011600008951F920F920FB60F920BB60F92112493
:101170008F939F93AF93BF93EF93FF939091FA0850
:10118000A92FB0E08091CE00FD01E059F74F808398
:101190008081813618F080818B37F0F0FD01E059B5
:1011A000F74F8081803318F080818A33A8F0FD01E9
:1011B000E059F74F80818D3279F08081803261F083
:1011C0008081893049F080818E3231F08081813494
:1011D00050F080818B3538F4892F8F5F8093FA0827
:1011E00087FF17C014C0FD01E059F74F80818D3093
:1011F00019F080818A3069F4A059B74F1C92992365
:1012000041F081E090E09093F3088093F20810920F
:10121000FA08FF91EF91BF91AF919F918F910F903D
:101220000BBE0F900FBE0F901F9018959C0181561A
:1012300090404A9738F040E050E0215430402A3145
:10124000310510F441E050E0CA0108958F929F9259
:10125000AF92BF92CF92DF92EF92FF920F931F93C4
:10126000DF93CF93CDB7DEB7809313114093141162
:101270005093151160931611709317110093181164
:101280001093191120931A1130931B11C0921C1145
:10129000D0921D11E0921E11F0921F118092201128
:1012A00090922111A0922211B092231188899989DC
:1012B000AA89BB898093241190932511A0932611AC
:1012C000B09327118C899D89AE89BF89809328119D
:1012D00090932911A0932A11B0932B11888D998D89
:1012E000AA8DBB8D80932C1190932D11A0932E115C
:1012F000B0932F118C8D9D8DAE8DBF8D809330114D
:1013000090933111A0933211B0933311CF91DF91AB
:101310001F910F91FF90EF90DF90CF90BF90AF9013
:101320009F908F90089520E030E0C0970A9710F4C6
:1013300021E030E0C9010895AC0120E030E00CC0AC
:101340008091C80085FFFCCFFA01E20FF31F808176
:101350008093CE002F5F3F4F261737078CF30895F9
:101360009091F0088091F108981719F420E030E08E
:1013700017C09091F0088091F108981738F4809187
:10138000F1089091F008282F30E008C08091F10812
:101390009091F008282F30E020583F4F291B310949
:1013A000C90108951F93182F0E94B0098F37910526
:1013B00091F0E091F108F0E0E059F74F108380914F
:1013C000F1088F3719F41092F10805C08091F108E7
:1013D0008F5F8093F1081F9108959091F00880919C
:1013E000F108981711F4EFEF12C0E091F008F0E067
:1013F000E059F74FE0818091F0088F3719F410928F
:10140000F00805C08091F0088F5F8093F0088E2F60
:101410000895EF92FF920F931F93CF93DF937C0178
:10142000EB019091F0088091F108981711F480E099
:1014300015C00E94B0098C01C817D9070CF48E01A1
:10144000C0E0D0E007C00E94ED09F701EC0FFD1FDE
:1014500080832196C017D107B4F3802FDF91CF91FD
:101460001F910F91FF90EF900895DF93CF930F920C
:101470000F92CDB7DEB7282FAE014F5F5F4F8A3096
:1014800039F48DE089832A83CA0162E070E004C0E8
:101490008983CA0161E070E00E949C0980E090E0CD
:1014A0000F900F90CF91DF9108950E94B009892B82
:1014B000E1F30E94ED098D3009F48AE090E008958F
:1014C0008091470890914808892B21F088B18F734B
:1014D00088B901C0469A8091490890914A08892BA1
:1014E00021F088B18F7588B901C0459A80915A085A
:1014F00090915B08892B21F088B18F7688B901C063
:10150000449A8091F8089091F9088958934144F0E1
:1015100088B192E0892788B91092F9081092F808EA
:101520008091F8089091F90801969093F9088093BA
:10153000F808089584309105B9F08530910534F4A8
:101540008230910561F0039741F513C08630910513
:10155000D1F08630910594F00797F9F419C00F92F5
:101560000F9280E092E01DC00F920F9285E092E012
:1015700018C00F920F928AE092E013C00F920F9260
:101580008FE092E00EC00F920F9284E192E009C0CA
:101590000F920F9289E192E004C00F920F928EE1B8
:1015A00092E0EDB7FEB7928381830E94FC3E0F90DC
:1015B0000F900895EF92FF921F93CF93DF93EC016A
:1015C0007B018881E82FF0E0E059F74F808180327D
:1015D00039F08081893009F04BC002C04F5F4883E9
:1015E0004881E42FF0E0E059F74F80818032B1F379
:1015F0008081893099F380818D3229F0808190E05B
:10160000C0970A97A8F54F5F4883415020E030E02B
:1016100009C0E059F74F80818E3211F42F5F3F4FA0
:101620005F5F58835881E52FF0E0DF01A059B74F85
:101630008C9190E0C0970A9760F323C02230310567
:10164000BCF41C911C92842F90E08059974F60E06D
:1016500070E00E94053CF70160837183828393836D
:10166000E881F0E0E059F74F108321E030E002C05C
:1016700020E030E0C901DF91CF911F91FF90EF9002
:1016800008958C918E3229F2D9CF2F923F924F92AA
:101690005F926F927F928F929F92AF92BF92CF9202
:1016A000DF92EF92FF920F931F93DF93CF93CDB70B
:1016B000DEB7E1970FB6F894DEBF0FBECDBF8091C5
:1016C00070088736C1F0809170088337A1F080914F
:1016D0007008883681F080917008893661F08091B9
:1016E0007008833541F080917008863721F0809131
:1016F0007008833431F541E0E42FF0E0E059F74F12
:101700008081282F30E0C901815690404A9730F0FF
:10171000215430402A31310508F044C34F5FECCFEB
:10172000809170088093131180E090E0A0E0B0E019
:101730008093141190931511A0931611B093171163
:1017400075C080E090E0A0E0B0E08A839B83AC832A
:10175000BD838E839F83A887B9878A879B87AC8741
:10176000BD878E879F87A88BB98B8A8B9B8BAC8B11
:10177000BD8B8E8B9F8BA88FB98F8A8F9B8FAC8FE1
:10178000BD8F8E8F9F8FA8A3B9A3809170088B36D1
:10179000E1F0809170088C34C1F08091700882353E
:1017A000A1F080917008873481F0809170088437AF
:1017B00061F0809170088F3641F080917008833617
:1017C00021F0809170088934D1F541E0E42FF0E0F8
:1017D000E059F74F8081282F30E0C90181569040B1
:1017E0004A9730F0215430402A31310508F0DFC2E9
:1017F0004F5FECCFE981F0E0E059F74F808188231B
:1018000009F0B4C2209170088A819B81AC81BD81AE
:10181000209313118093141190931511A093161116
:10182000B093171180E090E0A0E0B0E08093181131
:1018300090931911A0931A11B0931B114FC080916E
:101840007008863629F080917008843609F04FC000
:1018500041E0E42FF0E0E059F74F8081282F30E09D
:10186000C901815690404A9730F0215430402A31C6
:10187000310508F0A8C24F5FECCFC801BE016A5F16
:101880007F4F0E94DA0A892B09F470C2E981F0E0E7
:10189000E059F74F8081882309F068C26091700891
:1018A0008A819B81AC81BD812E813F81488559858C
:1018B000609313118093141190931511A093161136
:1018C000B0931711209318113093191140931A11E6
:1018D00050931B1180E090E0A0E0B0E080931C11D9
:1018E00090931D11A0931E11B0931F1167C080919A
:1018F00070088E3609F083C041E0E42FF0E0E05933
:10190000F74F8081282F30E0C901815690404A97D7
:1019100030F0215430402A31310508F061C24F5F68
:10192000ECCFC801BE016A5F7F4F0E94DA0A892BA3
:1019300009F41CC2C801BE01665F7F4F0E94DA0A2B
:10194000892B41F480E090E0A0E0B0E08A879B879B
:10195000AC87BD87E981F0E0E059F74F80818823AB
:1019600009F004C2609170088A819B81AC81BD81BD
:101970002E813F8148855985EA84FB840C851D852D
:10198000609313118093141190931511A093161165
:10199000B0931711209318113093191140931A1115
:1019A00050931B11E0921C11F0921D1100931E1117
:1019B00010931F1180E090E0A0E0B0E08093201130
:1019C00090932111A0932211B0932311809324119D
:1019D00090932511A0932611B0932711809328117D
:1019E00090932911A0932A11B0932B1180932C115D
:1019F00090932D11A0932E11B0932F11CBC08091F5
:101A00007008883709F0D1C041E0E42FF0E0E059D8
:101A1000F74F8081282F30E0C901815690404A97C6
:101A200030F0215430402A31310508F0E7C14F5FD2
:101A3000ECCFC801BE016A5F7F4F0E94DA0A892B92
:101A400009F494C1C801BE01665F7F4F0E94DA0AA3
:101A5000892B09F48BC1C801BE01625F7F4F0E94D0
:101A6000DA0A892B09F482C1C801BE016E5E7F4F7C
:101A70000E94DA0A892B09F479C1C801BE016A5EA5
:101A80007F4F0E94DA0A892B09F470C1C801BE0198
:101A9000665E7F4F0E94DA0A892B41F480E090E075
:101AA000A0E0B0E08A8F9B8FAC8FBD8FE981F0E022
:101AB000E059F74F8081882309F058C16091700880
:101AC0008A819B81AC81BD818EA79FA7A8ABB9AB52
:101AD0002E813F8148855985EA84FB840C851D85CC
:101AE000AE84BF84C888D9886A887B888C889D88A2
:101AF0002E883F88488C598C8A8D9B8DAC8DBD8DEE
:101B00008AA79BA7ACA7BDA7609313118EA59FA51D
:101B1000A8A9B9A98093141190931511A093161137
:101B2000B0931711209318113093191140931A1183
:101B300050931B11E0921C11F0921D1100931E1185
:101B400010931F11A0922011B0922111C092221166
:101B5000D092231160922411709225118092261147
:101B600090922711209228113092291140922A1127
:101B700050922B118AA59BA5ACA5BDA580932C11D5
:101B800090932D11A0932E11B0932F1180E090E02F
:101B9000A0E0B0E08093301190933111A093321106
:101BA000B093331121E030E0E3C0809170088037BA
:101BB00029F080917008813709F0D8C041E0E42F06
:101BC000F0E0E059F74F8081282F30E0C9018156BD
:101BD00090404A9730F0215430402A31310508F0C6
:101BE0001BC14F5FECCFC801BE016A5F7F4F0E94EF
:101BF000DA0A892B09F4BAC0C801BE01665F7F4FBB
:101C00000E94DA0A892B09F4B1C0C801BE01625FE3
:101C10007F4F0E94DA0A892B09F4A8C0C801BE01CF
:101C20006E5E7F4F0E94DA0A892B09F49FC0C801BB
:101C3000BE016A5E7F4F0E94DA0A892B09F496C0C2
:101C4000C801BE01665E7F4F0E94DA0A892B09F443
:101C50008DC0C801BE01625E7F4F0E94DA0A892BE7
:101C600041F480E090E0A0E0B0E08E8F9F8FA8A3C9
:101C7000B9A3E981F0E0E059F74F8081882309F0AA
:101C800075C0609170088A819B81AC81BD818EA7EF
:101C90009FA7A8ABB9AB2E813F8148855985EA84BF
:101CA000FB840C851D85AE84BF84C888D9886A886A
:101CB0007B888C889D882E883F88488C598C8A8D9B
:101CC0009B8DAC8DBD8D8AA39BA3ACA3BDA38E8D34
:101CD0009F8DA8A1B9A18EA39FA3A8A7B9A7609320
:101CE00013118EA59FA5A8A9B9A98093141190934B
:101CF0001511A0931611B09317112093181130935A
:101D0000191140931A1150931B11E0921C11F0927B
:101D10001D1100931E1110931F11A0922011B0925B
:101D20002111C0922211D09223116092241170923D
:101D3000251180922611909227112092281130921D
:101D4000291140922A1150922B118AA19BA1ACA17A
:101D5000BDA180932C1190932D11A0932E11B093BF
:101D60002F118EA19FA1A8A5B9A514CF20E030E026
:101D7000C901E1960FB6F894DEBF0FBECDBFCF917B
:101D8000DF911F910F91FF90EF90DF90CF90BF9068
:101D9000AF909F908F907F906F905F904F903F900B
:101DA0002F90089580917108882301F7B9CC498359
:101DB000CE010196BE016E5F7F4F0E94DA0A892B29
:101DC00009F018CDD3CF49838E010F5F1F4FC80193
:101DD000BE016E5F7F4F0E94DA0A892B39F24DCD2A
:101DE00049838E010F5F1F4FC801BE016E5F7F4F99
:101DF0000E94DA0A892B09F4B9CF93CD49838E0169
:101E00000F5F1F4FC801BE016E5F7F4F0E94DA0A4D
:101E1000892B09F4ABCF0DCE49838E010F5F1F4F85
:101E2000C801BE016E5F7F4F0E94DA0A892B09F458
:101E30009DCFD9CEAF92BF92DF92EF92FF920F93D8
:101E40001F93CF93DF935C017A018B01FC01EE0FAE
:101E5000FF1FEF5FFE4E80819181019779F4C0E012
:101E6000D0E0CB01BA0120E030E040E050E00E9439
:101E70005B391816A4F0C1E0D0E011C0DD24CB011D
:101E8000BA0120E030E040E050E00E945B391816D3
:101E900014F0DD24D39481E0D826CD2DD0E0C80104
:101EA000B7010E94CA399B0177FF03C03095219585
:101EB0003F4FB901882777FD8095982F0E94FD3903
:101EC0007B018C01F501EE0FFF1FEE0FFF1FE9569E
:101ED000F44F60E070EC8FE794E42081318142811F
:101EE00053810E9462399B01AC01C801B7010E9475
:101EF000423B0E94CA39AB0177FF02C040E050E08C
:101F000084E04030580714F04FEF53E0219711F46C
:101F100040505C4FC50160E270E00E942F32DF91BB
:101F2000CF911F910F91FF90EF90DF90BF90AF90F6
:101F30000895CF93DF93EC01CB01BA0124E13EEA8F
:101F400043E251E40E94423B0E94CA39AB0116169B
:101F5000170614F041E050E084E04030580714F0D8
:101F60004FEF53E0CE0160E270E00E942F32DF912C
:101F7000CF910895CF92DF92EF92FF920F931F932C
:101F8000CF93DF937B018C01C0E0D0E020E4C22E30
:101F90002CE9D22ECE01B801A7010E94990FC601EB
:101FA0000197F1F72196C730D105A1F7DF91CF91C5
:101FB0001F910F91FF90EF90DF90CF900895EF92D7
:101FC000FF920F931F93CF93DF937C018B01EC0162
:101FD000CC0FDD1FC751D54F8881998140E050E07B
:101FE00060E070E00E94990F0130110579F488815A
:101FF000998166E070E040E050E00E942F328881D5
:10200000998168E070E040E050E021C0012B09F5C3
:102010008881998166E070E041E050E00E942F32B3
:1020200008811981EE0CFF1CEE0CFF1C8BEB9BE072
:10203000E80EF91EF70160817181828193810E940F
:10204000CA399B01AC01C80168E070E0A9010E9497
:102050002F32DF91CF911F910F91FF90EF90089554
:102060000F931F93CF93DF938C01C0E0D0E0CE019C
:10207000B8010E94DF0F2196C730D105C1F7DF916B
:10208000CF911F910F910895EF92FF920F931F939D
:102090007B018C0187E090E061E070E00E94DF0F3F
:1020A00087E090E0B801A7010E947F02AC0187E0C1
:1020B00090E060E270E00E942F328CE291E020E933
:1020C00031E0F9013197F1F70197D9F788E090E015
:1020D00061E070E00E94DF0F88E090E0B801A701A6
:1020E0000E947F02AC0181E190E060E270E00E941A
:1020F0002F32E0926808F092690800936A08109302
:102100006B0881E090E090936708809366081F91C8
:102110000F91FF90EF900895EF92FF920F931F930E
:102120007B018C0187E090E060E070E00E94DF0FAF
:1021300087E090E040E050E060E271E40E94990F97
:10214000C801B7012DEC3CEC4CE85FE30E94423B38
:1021500020E030E048EC52E40E9462399B01AC017F
:10216000E62E132F042FF52E87E090E0DA01A90167
:10217000BD010E94A201AC0187E090E06EE170E039
:102180000E942F328CE291E020E931E0F901319791
:10219000F1F70197D9F788E090E060E070E00E94E5
:1021A000DF0F81E190E040E050E060E271E40E94E6
:1021B000990F88E090E02E2D312FE02FFF2DA901FF
:1021C000BF010E94A201AC0181E190E06EE170E0EC
:1021D0000E942F321F910F91FF90EF900895CF92A0
:1021E000DF92EF92FF920F931F93CF93DF93EC0157
:1021F00068E270E00E944A326C0192FD03C021E067
:1022000030E002C02FEF3FEFCC0FDD1FCF5FDE4E7F
:1022100088819981019719F4309521953F4FB90133
:10222000882777FD8095982F0E94FD397B018C01CE
:102230008FEF93E0C822D922B601882777FD8095D9
:10224000982F0E94FD3920E030E048EC52E40E94D3
:10225000423B20E030EC4FE754E40E9462399B019E
:10226000AC01C801B7010E94423BDF91CF911F91A1
:102270000F91FF90EF90DF90CF9008956F927F9233
:102280008F929F92AF92BF92CF92DF92EF92FF9286
:102290000F931F93CF93DF937C018C01000F111FCD
:1022A000F801E751F54F8081918164E270E00E946E
:1022B0004A320F5F1E4EF80120813181E701CC0FB9
:1022C000DD1FCC0FDD1F3C01882477FC8094982C07
:1022D00021303105A9F5FE01E55CF44FE080F18085
:1022E0000281138167E1C62E6BE0D62ECC0EDD1E77
:1022F000C801B70120E030E044E353E40E947D3898
:1023000020E030E040E05FE30E94423BF6012081A4
:102310003181428153810E947E385B016C01C4018E
:10232000B3010E94FD39A80197010E94423BC554A8
:10233000D44F288139814A815B810E94623930C043
:10234000FE01E55CF44FE080F18002811381C4015D
:10235000B3010E94FD39A80197010E94423BFE0192
:10236000E554F44F20813181428153810E946239CA
:102370005B016C01C95ED44FC801B70120E030E0B9
:1023800044E353E40E947D3820E030E040E05FE326
:102390000E94423B288139814A815B810E947E38BC
:1023A0009B01AC01C601B5010E947D3825E33AEFDF
:1023B0004EE85CE30E94423BDF91CF911F910F9169
:1023C000FF90EF90DF90CF90BF90AF909F908F9055
:1023D0007F906F900895AF92BF92CF92DF92EF926D
:1023E000FF920F931F9387E090E00E943E115B01E4
:1023F0006C0120E030E040E050E00E945B3988232F
:1024000024F4D7FAD094D7F8D09480E49CE90197CB
:10241000F1F788E090E00E943E117B018C0120E002
:1024200030E040E050E00E945B39882324F417FB41
:10243000109517F91095C601B5012AE939E949E166
:102440005EE30E945B3987FD03C021E030E011C0EC
:10245000DD24C801B7012AE939E949E15EE30E94B8
:102460005B39882314F4DD24D39481E0D8262D2D04
:1024700030E0C9011F910F91FF90EF90DF90CF9056
:10248000BF90AF90089580916E0890916F0801966B
:1024900090936F0880936E0884369105D4F0109263
:1024A0006708109266080E94EB1190936D08809364
:1024B0006C0800D00F9223E232E0EDB7FEB7328312
:1024C0002183948383830E94FC3E0F900F900F9092
:1024D0000F9008950F931F93CF93DF9305EE10E1B4
:1024E000C0E0D0E0CE010E943E11F80161937193EB
:1024F000819391938F012196C730D10599F7DF9190
:10250000CF911F910F910895EF92FF920F931F9318
:10251000DF93CF93CDB7DEB76C970FB6F894DEBFDD
:102520000FBECDBF7E010894E11CF11C00E010E05D
:10253000C8010E943E11F7016193719381939193B9
:102540007F010F5F1F4F0730110591F7CE010196F4
:102550006C960FB6F894DEBF0FBECDBFCF91DF9162
:102560001F910F91FF90EF90089564E270E00E9438
:102570004A3208958BE292E00E940E3F85E692E097
:102580000E940E3F82E792E00E940E3F81EC92E0B3
:102590000E940E3F81E093E00E940E3F86E493E0AC
:1025A0000E940E3F87E893E00E940E3F81ED93E08A
:1025B0000E940E3F86E094E00E940E3F87E894E080
:1025C0000E940E3F8CED94E00E940E3F80E195E06A
:1025D0000E940E3F80E495E00E940E3F82E695E067
:1025E0000E940E3F81EA95E00E940E3F87EE95E043
:1025F0000E940E3F08950E94FD399B01AC0160E0EE
:1026000074E284EF99E40E9462390E94CF396150EC
:10261000704022E42093C80028E92093C90026E0F6
:102620002093CA002FEF2093CE001092F008109252
:10263000F108272F332727FD3A952093CD0060938B
:10264000CC007298739A85E39AE065E57AE00E947F
:10265000843E9093FC088093FB0808952F923F924C
:102660004F925F926F927F928F929F92AF92BF92A2
:10267000CF92DF92EF92FF920F931F93DF93CF934E
:10268000CDB7DEB72C970FB6F894DEBF0FBECDBF27
:102690005B016C0129873A874B875C872AA83BA896
:1026A0004CA85DA88AA19BA1ACA1BDA18D839E83EE
:1026B000AF83B8878EA19FA1A8A5B9A589839A8366
:1026C000AB83BC83EAA4FBA40CA51DA56EA47FA4C8
:1026D00088A899A8C201B101A80197010E945B399D
:1026E0001816DCF0C201B101A20191010E94423B27
:1026F0007B018C0169817A818B819C8120E030E0B3
:1027000040E05FE30E94423BA80197010E94423BE8
:102710009B01AC01C601B50196C0C201B101A8017F
:1027200097010E94373B18160CF03FC0C401B3015B
:10273000A80197010E947D389B01AC01C201B10143
:102740000E945B3918168CF169857A858B859C858A
:10275000A60195010E947D387B018C016D817E81EF
:102760008F819885A40193010E94423B9B01AC019B
:10277000C801B7010E947D3820E030E040E05FE30F
:102780000E94423B7B018C016D817E818F81988507
:10279000A20191010E94423B9B01AC01C801B7011B
:1027A0000E947E38A60195014EC0C401B301A40168
:1027B00093010E94423B7B018C01C201B101A20145
:1027C00091010E94423B5B016C0169817A818B819E
:1027D0009C81A80197010E94423B20E030E040E04C
:1027E0005FEB0E94423B9B01AC0169857A858B853A
:1027F0009C850E947E387B018C0169817A818B8166
:102800009C81A40193010E94423BA20191010E947C
:10281000423B9B01AC01C801B7010E947E387B019D
:102820008C0169817A818B819C8120E030E040E0DD
:102830005FEB0E94423BA60195010E94423B9B0137
:10284000AC01C801B7010E947E38E62F2E2F372F2A
:10285000482F592FB901CA012C960FB6F894DEBF44
:102860000FBECDBFCF91DF911F910F91FF90EF90E1
:10287000DF90CF90BF90AF909F908F907F906F90A0
:102880005F904F903F902F9008952F923F924F92DC
:102890005F926F927F928F929F92AF92BF92CF92F0
:1028A000DF92EF92FF920F931F93DF93CF93CDB7F9
:1028B000DEB72A970FB6F894DEBF0FBECDBF0197E3
:1028C00021F5EE24FF2487010C5C1E4EF701E05B2E
:1028D000FE4ED701A355BF4E6081718182819381E5
:1028E0002D913D914D915C910E947E38D8016D9360
:1028F0007D938D939C931397E4E0F0E0EE0EFF1E22
:10290000FCE1EF16F104F9F623C0EE24FF24870161
:102910000C5C1E4EF701EB51FF4ED701A355BF4E85
:1029200060817181828193812D913D914D915C9166
:102930000E947E38D8016D937D938D939C9313975D
:10294000E4E0F0E0EE0EFF1EFCE1EF16F104F9F614
:102950008DEA9EE09A8789874C969A8389831C82A8
:102960001B82EB81FC81EC5CFE4EE080F1800281F9
:102970001381C801B7010E945F395B016C01A98511
:10298000BA856D937D938D939C931397C801B7017E
:102990000E94A53B3B014C01EB81FC81E857FE4EB8
:1029A000E080F18002811381C801B7010E945F3984
:1029B0001B012C01C401B3019058A20191010E9496
:1029C000423BE985FA856483758386839783C801D2
:1029D000B7010E94A53B7B018C01C401B301A80192
:1029E00097010E94423BA985BA8518966D937D9305
:1029F0008D939C931B972B813C8127533F4ED9018C
:102A00008D919D910D90BC91A02D8D839E83AF8360
:102A1000B887BC01CD01A60195010E94423BE98522
:102A2000FA856487758786879787608A718A828A24
:102A3000938AC601B501A20191010E94423BE9853A
:102A4000FA85648B758B868B978BD7FAD094D7F8E1
:102A5000D094C601B501A80197010E94423BA98507
:102A6000BA8558966D937D938D939C935B976D81FA
:102A70007E818F819885A40193010E94423BE98168
:102A8000FA816083718382839383E086F186028773
:102A900013872486358646865786EB81FC81E15B69
:102AA000F34F80819181A281B381E981FA81808B8A
:102AB000918BA28BB38B80E090E0A0E8BFE380A372
:102AC00091A3A2A3B3A38B819C8104969C838B8347
:102AD000A985BA85A05CBF4FBA87A987E05CFF4F84
:102AE000FA83E9834C9709F03CCF2A960FB6F89405
:102AF000DEBF0FBECDBFCF91DF911F910F91FF9031
:102B0000EF90DF90CF90BF90AF909F908F907F908D
:102B10006F905F904F903F902F9008952F923F922B
:102B20004F925F926F927F928F929F92AF92BF92DD
:102B3000CF92DF92EF92FF920F931F93DF93CF9389
:102B4000CDB7DEB768970FB6F894DEBF0FBECDBF26
:102B50000E944514EBE6FEE080E090E0A0E0B0E0EB
:102B600080839183A283B38384839583A683B78371
:102B700080879187A287B38784879587A687B78741
:102B800070962EE0EB3AF20759F780E090E0A0E86B
:102B9000BFE380936B0E90936C0EA0936D0EB09379
:102BA0006E0E80937F0E9093800EA093810EB09353
:102BB000820E8093930E9093940EA093950EB093F3
:102BC000960E8093A70E9093A80EA093A90EB09393
:102BD000AA0E1E8A1D8ADCC0AB89BC896D917D91CD
:102BE0008D919D91BC8BAB8BF8012081318142810D
:102BF00053810E94423B9B01AC01C701B6010E9478
:102C00007E386B017C010894A11CB11C005F1F4F32
:102C1000F4E0AF16B10401F7D2016D937D938D936B
:102C20009D932D010894811C911CB4E08B16910496
:102C3000A1F0F201C080D180E280F3807C8A6B8AAF
:102C40000F89188D080D191D000F111F000F111F7E
:102C50000355114FAA24BB24BFCFF10194E0EE0F1E
:102C6000FF1F9A95E1F7E559F14F89819A81AB8170
:102C7000BC8180839183A283B3838D819E81AF8148
:102C8000B885E989FA8980839183A283B383898592
:102C90009A85AB85BC8584839583A683B7838D8510
:102CA0009E85AF85B88980879187A287B38708946E
:102CB000211C311C7096FA8BE98BF4E02F1631043D
:102CC00061F42D893E8986E0220F331F8A95E1F752
:102CD0002559334FEBE6FEE025C080E090E0A0E010
:102CE000B0E089839A83AB83BC838D839E83AF835B
:102CF000B88789879A87AB87BC878D879E87AF8780
:102D0000B88B2E010894411C511C88249924310150
:102D100004E0660C771C0A95E1F7ABE6BEE06A0EAC
:102D20007B1E87CF4081518162817381D9014D9390
:102D30005D936D937C931397448155816681778170
:102D400014964D935D936D937C93179740855185B1
:102D50006285738518964D935D936D937C931B9755
:102D600044855585668577851C964D935D936D9357
:102D70007C931F977096205F3F4FBEE0EB3AFB07B6
:102D800089F6ED89FE893196FE8BED8B389781F0BF
:102D90008FE69EE09A8B898B22243324AD89BE89ED
:102DA00014E0AA0FBB1F1A95E1F7B88FAF8B95CF30
:102DB00068960FB6F894DEBF0FBECDBFCF91DF91FE
:102DC0001F910F91FF90EF90DF90CF90BF90AF9049
:102DD0009F908F907F906F905F904F903F902F903B
:102DE0000895EF92FF920F931F9380E090E00E946E
:102DF0008E158091770E9091780EA091790EB091FA
:102E00007A0E80935F0B9093600BA093610BB0934D
:102E1000620B8091870E9091880EA091890EB091DF
:102E20008A0E8093630B9093640BA093650BB09311
:102E3000660B8091970E9091980EA091990EB0918B
:102E40009A0E8093670B9093680BA093690BB093D5
:102E50006A0B60917B0E70917C0E80917D0E90913B
:102E60007E0E20916B0E30916C0E40916D0E509144
:102E70006E0E0E94083960936B0B70936C0B8093FD
:102E80006D0B90936E0BE0908B0EF0908C0E00917A
:102E90008D0E10918E0EC801B701A80197010E94F6
:102EA000423B9B01AC0160E070E080E89FE30E9440
:102EB0007D380E94AF3B9B01AC0117FB109517F9C1
:102EC0001095C801B7010E94083960936F0B709389
:102ED000700B8093710B9093720B60918F0E7091B9
:102EE000900E8091910E9091920E2091930E3091C0
:102EF000940E4091950E5091960E0E940839609361
:102F0000730B7093740B8093750B9093760B2091D9
:102F1000ED103091EE104091EF105091F010209391
:102F2000770B3093780B4093790B50937A0B809109
:102F30005C0890915D08019709F069C08DB79EB754
:102F40004E970FB6F8949EBF0FBE8DBFEDB7FEB77C
:102F5000319681E196E0ADB7BEB712969C938E9301
:102F6000119780915F0B9091600BA091610BB091D4
:102F7000620B82839383A483B5838091630B9091CA
:102F8000640BA091650BB091660B86839783A08735
:102F9000B1878091670B9091680BA091690BB091FC
:102FA0006A0B82879387A487B58780916B0B90917A
:102FB0006C0BA0916D0BB0916E0B86879787A08BE1
:102FC000B18B80916F0B9091700BA091710BB091B0
:102FD000720B828B938BA48BB58B8091730B90912A
:102FE000740BA091750BB091760B868B978BA08F8D
:102FF000B18F228F338F448F558F0E94FC3E8DB747
:103000009EB74E960FB6F8949EBF0FBE8DBF1F9110
:103010000F91FF90EF9008952F923F924F925F9201
:103020006F927F928F929F92AF92BF92CF92DF92D8
:10303000EF92FF920F931F93DF93CF93CDB7DEB73D
:10304000C25ED1400FB6F894DEBF0FBECDBFA0E088
:10305000B0E060E070E020E030E040E050E091E17E
:10306000292E312C2C0E3D1E81E6482E512C4C0E63
:103070005D1E01EA602E712C6C0E7D1E11EE812EFC
:10308000912C8C0E9D1EF1E2EF2EF1E0FF2EEC0E46
:10309000FD1EE1E0F0E0EC0FFD1FE60FF71F2083BF
:1030A000318342835383F101E60FF71F208331837D
:1030B00042835383CD01E4E0880F991FEA95E1F73D
:1030C0005201A80EB91E6301C80ED91E8401080F53
:1030D000191FF701E80FF91FCF51DE4FF983E8837D
:1030E000C15ED14080E090E0F5012193319341939E
:1030F00051935F01F60121933193419351936F01F5
:10310000F80121933193419351938F01CF51DE4FB9
:10311000E881F981C15ED14021933193419351936C
:10312000CF51DE4FF983E883C15ED14001968430F0
:103130009105D1F611966C5F7F4FA430B10509F06F
:10314000A8CFE090B011F090B1110091B2111091A0
:10315000B311C801B7010E945F393B014C012090B7
:10316000B4113090B5114090B6115090B711C20112
:10317000B1010E945F39C353DE4F688379838A832C
:103180009B83CD5CD140C401B301C353DE4F288182
:1031900039814A815B81CD5CD1400E94423BA5963A
:1031A0006CAF7DAF8EAF9FAFA597C801B7010E94EE
:1031B000A53B5B016C01E090B811F090B911009152
:1031C000BA111091BB11C801B7010E945F39C753F2
:1031D000DE4F688379838A839B83C95CD140C201B7
:1031E000B1010E94A53BCB53DE4F688379838A836C
:1031F0009B83C55CD140C401B301CB53DE4F288112
:1032000039814A815B81C55CD1400E94423BCF52EB
:10321000DE4F688379838A839B83C15DD140C80177
:10322000B7010E94A53B1B012C01C601B5019058B6
:10323000C753DE4F288139814A815B81C95CD14007
:103240000E94423B7B018C01CF52DE4F6881798125
:103250008A819B81C15DD140A20191010E94423BC4
:103260009B01AC01C801B7010E947E38A9966CAFE2
:103270007DAF8EAF9FAFA997C601B501A2019101A5
:103280000E94423B7B018C01CF52DE4F68817981E5
:103290008A819B81C15DD140C753DE4F288139812E
:1032A0004A815B81C95CD1400E94423B9B01AC01D9
:1032B000C801B7010E947E38AD966CAF7DAF8EAF6E
:1032C0009FAFAD97C601B501C353DE4F2881398149
:1032D0004A815B81CD5CD1400E94423BE5966CAF58
:1032E0007DAF8EAF9FAFE597C601B501CB53DE4FE3
:1032F000288139814A815B81C55CD1400E94423B73
:103300005B016C01C401B301C753DE4F28813981D1
:103310004A815B81C95CD1400E94423B7B018C01A8
:10332000C601B501A20191010E94423B9B01AC0183
:10333000C801B7010E947E38E9966CAF7DAF8EAFB1
:103340009FAFE99797FA909497F89094C401B301CE
:10335000A20191010E94423B7B018C01C601B50193
:10336000C753DE4F288139814A815B81C95CD140D6
:103370000E94423B9B01AC01C801B7010E947E380C
:10338000ED966CAF7DAF8EAF9FAFED97CB53DE4F19
:10339000288139814A815B81C55CD1405058CF5723
:1033A000DF4F288339834A835B83C158D040C3539E
:1033B000DE4F688179818A819B81CD5CD140A201F9
:1033C00091010E94423BCB57DF4F688379838A8308
:1033D0009B83C558D040C353DE4F688179818A8171
:1033E0009B81CD5CD140C753DE4F288139814A8112
:1033F0005B81C95CD1400E94423BC757DF4F688365
:1034000079838A839B83C958D04080E090E0A0E80C
:10341000BFE3C356DF4F88839983AA83BB83CD590B
:10342000D0406090BC117090BD118090BE11909002
:10343000BF11C401B3012BED3FE049E450E40E9409
:10344000373B181684F4C401B3012BED3FE049EC7F
:1034500050E40E947D386093BC117093BD1180933D
:10346000BE119093BF116090BC117090BD118090FF
:10347000BE119090BF11C401B3012BED3FE049E4B0
:1034800050EC0E945B39882384F4C401B3012BED16
:103490003FE049EC50E40E947E386093BC11709389
:1034A000BD118093BE119093BF118091670C9091D4
:1034B000680CA091690CB0916A0C89839A83AB83E4
:1034C000BC8380E090E0A0E8BFE38D879E87AF8754
:1034D000B88BDE01AF59BE4FFE01EF59FF4F80E4BC
:1034E00001900D928150E1F7DE01AF5BBF4FFE010D
:1034F000319680E101900D928150E1F731E5432E44
:10350000512C4C0E5D1E00E010E021E4E22EF12C67
:10351000EC0EFD1E90E1292E312C2E0C3F1C24C0F8
:10352000D6016D917D918D919D916D01F501219156
:103530003191419151915F010E94423B9B01AC014D
:10354000C401B3010E947E383B014C01A214B304B4
:1035500039F7D2016D937D938D939D932D010F5F6C
:103560001F4F04301105C1F0680184E0CC0CDD1C54
:103570008A95E1F7E1E6F1E0EC0FFD1FCE0EDF1ECC
:1035800057010F2EF0E06F2EF0E07F2EF0E08F2E2F
:10359000F0E09F2EF02DC4CFDE019196FE01EF5A90
:1035A000FF4F80E101900D928150E1F7DE0111960D
:1035B000FE01B19680E101900D928150E1F760919A
:1035C000A4117091A5118091A6119091A711298144
:1035D0003A814B815C810E947D38CB52DE4F6883FB
:1035E00079838A839B83C55DD1406091A8117091D6
:1035F000A9118091AA119091AB112D813E814F812B
:1036000058850E947D38C752DE4F688379838A834C
:103610009B83C95DD1406091AC117091AD118091D7
:10362000AE119091AF1129853A854B855C850E943A
:103630007D38C352DE4F6883CD5DD140C252DE4F2C
:103640007883CE5DD140C152DE4F8883CF5DD140BB
:10365000C052DE4F9883C05ED140962E872E782EC2
:10366000692E862F982DA72DB62D8093AC1190939F
:10367000AD11A093AE11B093AF11C752DE4F688168
:1036800079818A819B81C95DD140CB52DE4F2881EF
:1036900039814A815B81C55DD1400E940839CF5391
:1036A000DE4F688379838A839B83C15CD1406093BA
:1036B00050117093511180935211909353110E94A5
:1036C0005F392091C9103091CA104091CB105091B0
:1036D000CC100E94423B9B01AC01CB52DE4F688173
:1036E00079818A819B81C55DD1400E947D385B01D3
:1036F0006C016093A4117093A5118093A61190930F
:10370000A711CF53DE4F688179818A819B81C15C8B
:10371000D1400E94A53B2091C9103091CA10409120
:10372000CB105091CC100E94423B9B01AC01C75280
:10373000DE4F688179818A819B81C95DD1400E9479
:103740007D387B018C016093A8117093A91180933F
:10375000AA119093AB1180914F0C9091500CA091B5
:10376000510CB091520CC354DE4F88839983AA83C5
:10377000BB83CD5BD140692D782D872D962DC35409
:10378000DE4F288139814A815B81CD5BD1400E9427
:103790007D381B012C01C601B501A60195010E94CF
:1037A000423B3B014C01C801B701A80197010E94AF
:1037B000423B5B016C01C401B301A60195010E946B
:1037C0007E387B018C01C201B101A20191010E94EE
:1037D000423B9B01AC01C801B7010E947E380E94A8
:1037E000AF3BC355DE4F688379838A839B83CD5A71
:1037F000D1408091570C9091580CA091590CB091E8
:103800005A0CC754DE4F88839983AA83BB83C95B54
:10381000D14080915F0C9091600CA091610CB091AF
:10382000620CCB54DE4F88839983AA83BB83C55B2C
:10383000D140C754DE4F688179818A819B81C95B01
:10384000D140CB54DE4F288139814A815B81C55BF1
:10385000D1400E947E389B01AC01C355DE4F688188
:1038600079818A819B81CD5AD1400E94373B882340
:10387000CCF040E050E09A01205B3E4EFA01EB5163
:10388000FF4E80819181A281B381F9018083918370
:10389000A283B3834C5F5F4F4C31510561F780E0E9
:1038A00090E007C6B301C4019501A6010E947E38CD
:1038B0000E94AF3B9B01AC01C201B1010E940839DB
:1038C0002B013C01C754DE4F688179818A819B813D
:1038D000C95BD1409058C754DE4F288139814A8155
:1038E0005B81C95BD1400E94423B7B018C01CB5480
:1038F000DE4F688179818A819B81C55BD1409B01C4
:10390000AC010E94423B9B01AC01C801B7010E947F
:103910007D387B018C01C355DE4F688179818A81B6
:103920009B81CD5AD1409B01AC010E94423B9B013F
:10393000AC01C801B7010E947E387B018C01C754DD
:10394000DE4F688179818A819B81C95BD14020E00B
:1039500030E040E050EC0E94423BCB54DE4F2881E7
:1039600039814A815B81C55BD1400E94423B9B010A
:10397000AC01C801B7010E9462390E946F380E94F1
:10398000A53B9B01AC01CB54DE4F688179818A81D4
:103990009B81C55BD1400E94423BC355DE4F2881CD
:1039A00039814A815B81CD5AD1400E9462390E949F
:1039B000E238C755DE4F688379838A839B83C95A6F
:1039C000D1400E94A53B9B01AC0180E090E0A0E0CB
:1039D000B0E0898B9A8BAB8BBC8BC754DE4F688170
:1039E00079818A819B81C95BD1400E94423B7B01E6
:1039F0008C0117FB109517F91095A090BC11B09091
:103A0000BD11C090BE11D090BF11C601B5010E947A
:103A10005F399B01AC01C801B7010E94423B6D8B2D
:103A20007E8B8F8B988FC601B5010E94A53B9B01B1
:103A3000AC01C801B7010E94423B698F7A8F8B8F1E
:103A40009C8F80E090E0A0E8BFE38D8F9E8FAF8FCA
:103A5000B8A3CF53DE4F688179818A819B81C15C95
:103A6000D1400E945F39CB55DE4F688379838A83CA
:103A70009B83C55AD140C301B2010E945F394B01FB
:103A80005C0111E2C12E11E0D12ECC0EDD1ECB5512
:103A9000DE4F688179818A819B81C55AD140A50119
:103AA00094010E94423BD6016D937D938D939C932C
:103AB0001397CF53DE4F688179818A819B81C15CE6
:103AC000D1400E94A53BCF55DE4F688379838A831E
:103AD0009B83C15AD140A50194010E94423BF6014B
:103AE000608B718B828B938BC301B2010E94A53BCB
:103AF000CF54DE4F688379838A839B83C15BD14037
:103B0000D60190966D937D938D939C939397CF550B
:103B1000DE4F88819981AA81BB81C15AD140B058BA
:103B2000F60184839583A683B783CB55DE4F8881C6
:103B30009981AA81BB81C55AD140848B958BA68B74
:103B4000B78B80E090E0A0E0B0E084A395A3A6A3AB
:103B5000B7A377FA709477F87094C301B2010E940A
:103B6000A53B7B018C01CB55DE4F688179818A8131
:103B70009B81C55AD140A80197010E94423BD601C2
:103B800018966D937D938D939C931B97CF55DE4F25
:103B9000688179818A819B81C15AD140A8019701AE
:103BA0000E94423BF601608F718F828F938FD60106
:103BB00098968D929D92AD92BC929B97C755DE4F81
:103BC000688179818A819B81C95AD1400E945F397D
:103BD0009B01AC01C754DE4F688179818A819B814A
:103BE000C95BD1400E94423B2B013C01A5019401DD
:103BF0000E94423B7B018C01CB55DE4F28813981ED
:103C00004A815B81C55AD1400E94423BF6016487DC
:103C1000758786879787C801B701CF55DE4F288102
:103C200039814A815B81C15AD1400E94423BD60111
:103C30005C966D937D938D939C935F97C301B201C6
:103C4000CF54DE4F288139814A815B81C15BD140ED
:103C50000E94423BC354DE4F288139814A815B81F7
:103C6000CD5BD1400E947E38F60164A775A786A778
:103C700097A780E090E0A0E8BFE384AF95AFA6AF40
:103C8000B7AFDE01AF59BE4F80E401900D92815075
:103C9000E1F7DE01AF5ABF4FFE01719680E101905E
:103CA0000D928150E1F7B1E44B2E512C4C0E5D1E6C
:103CB00000E010E0A1E5EA2EF12CEC0EFD1EF0E193
:103CC0002F2E312C2E0C3F1C24C0D6016D917D91DE
:103CD0008D919D916D01F50121913191419151910C
:103CE0005F010E94423B9B01AC01C401B3010E94F1
:103CF0007E383B014C01A214B30439F7D2016D9315
:103D00007D938D939D932D010F5F1F4F04301105FF
:103D1000C1F06801E4E0CC0CDD1CEA95E1F7E1E6D6
:103D2000F1E0EC0FFD1FCE0EDF1E57010F2EF0E06D
:103D30006F2EF0E07F2EF0E08F2EF0E09F2EF02D22
:103D4000C4CFDE01D196FE01EF5BFF4F80E1019011
:103D50000D928150E1F7DE015196FE01F19680E16E
:103D600001900D928150E1F76D887E888F88988C44
:103D7000A090C910B090CA10C090CB10D090CC10B9
:103D8000E988FA880B891C89C601B501CF55DE4F39
:103D9000288139814A815B81C15AD1400E94423BCE
:103DA0009B01AC01C401B3010E947E381B012C01B0
:103DB000C601B501CB55DE4F288139814A815B812F
:103DC000C55AD1400E94423B9B01AC01C801B701DA
:103DD0000E947E389B01AC01C201B1010E940839EA
:103DE000609350117093511180935211909353111D
:103DF000C801B701A80197010E94423B7B018C01D9
:103E0000C401B301A40193010E94423B9B01AC0198
:103E1000C801B7010E947E380E94AF3B7B018C0134
:103E2000698D7A8D8B8D9C8D20914F0C3091500C2B
:103E30004091510C5091520C0E947D38A80197017D
:103E40000E94083960935411709355118093561154
:103E50009093571180E090E0A0E0B0E0809358117B
:103E600090935911A0935A11B0935B1180935C11F8
:103E700090935D11A0935E11B0935F1181E090E08B
:103E80000E948E158DB79EB7805490400FB6F8945F
:103E90009EBF0FBE8DBFADB7BEB71196EBE2FDE082
:103EA00080E401900D928150E1F7CE018F519F4F38
:103EB0000E943007DE01AF59BE4FFE01EF51FF4FA8
:103EC00080E401900D928150E1F780E090E0A0E85D
:103ED000BFE38D879E87AF87B88BC352DE4F2881A3
:103EE000CD5DD140C252DE4F3881CE5DD140C1524E
:103EF000DE4F4881CF5DD140C052DE4F5881C05E59
:103F0000D140C901DA0189879A87AB87BC87C7523C
:103F1000DE4F88819981AA81BB81C95DD1408D83A3
:103F20009E83AF83B887CB52DE4F88819981AA8167
:103F3000BB81C55DD14089839A83AB83BC83DE019D
:103F4000AF5BBF4FFE01319680E101900D92815031
:103F5000E1F771E5472E512C4C0E5D1E00E010E09C
:103F6000ADB7BEB7A05CBF4F0FB6F894BEBF0FBED3
:103F7000ADBF61E4E62EF12CEC0EFD1E50E1252EC6
:103F8000312C2E0C3F1C24C0F6016191719181915E
:103F900091916F01D5012D913D914D915D915D0103
:103FA0000E94423B9B01AC01C401B3010E947E38D8
:103FB0003B014C01A214B30439F7F20161937193F0
:103FC000819391932F010F5F1F4F04301105C1F0B2
:103FD000680144E0CC0CDD1C4A95E1F781E691E0F4
:103FE0008C0F9D1FC80ED91E57010F2EF0E06F2EAB
:103FF000F0E07F2EF0E08F2EF0E09F2EF02DC4CF6A
:10400000FE01EF5AFF4F6084718482849384E080C4
:10401000F18002811381A480B580C680D780C6015B
:10402000B501A80197010E94083960935811709357
:10403000591180935A1190935B11C801B701A801DF
:1040400097010E94423B7B018C01C601B501A6018C
:1040500095010E94423B9B01AC01C801B7010E943F
:104060007E380E94AF3B9B01AC01C401B3010E94AA
:1040700008399B01AC016BED7FE089EC9FE30E9466
:104080007D3860935C1170935D1180935E11909305
:104090005F1181E090E00E948E15ADB7BEB7A054CD
:1040A000B0400FB6F894BEBF0FBEADBF1196EBE2A5
:1040B000FDE080E401900D928150E1F7CE018F5137
:1040C0009F4F0E943007EDB7FEB7E05CFF4F0FB681
:1040D000F894FEBF0FBEEDBF8DB79EB780589040DD
:1040E0000FB6F8949EBF0FBE8DBF2DB73EB72F5FA2
:1040F0003F4FD901FE01EF51FF4F80E401900D9237
:104100008150E1F7D901A05CBF4FFE01EF59FF4F8D
:1041100080E401900D928150E1F7CE018F559F4FC1
:104120000E94A7048E010F551F4FD8018D909D90BE
:10413000AD90BC90EDB7FEB7E058FF4F0FB6F894C6
:10414000FEBF0FBEEDBFC501B40127E137EB41ED66
:1041500058E30E945B39882364F5C501B40127E167
:1041600037EB41ED58EB0E94373B181614F580E011
:1041700090E0A0E0B0E08093601190936111A09373
:104180006211B09363118093641190936511A093B1
:104190006611B0936711D80154966D917D918D9100
:1041A0009C91579758962D913D914D915C915B97BD
:1041B00043C031EAC32ED12CCC0EDD1EF601E0A0A7
:1041C000F1A002A113A1C801B701A80197010E94A3
:1041D000423B9B01AC0160E070E080E89FE30E94FD
:1041E0007D380E94AF3BA80197010E940839609377
:1041F0006411709365118093661190936711D601D5
:1042000050966D917D918D919C915397A50194014C
:104210000E9408396093601170936111809362115C
:1042200090936311F60160A571A582A593A524A1C1
:1042300035A146A157A150580E94083960936811D2
:104240007093691180936A1190936B116090601163
:10425000709061118090621190906311C401B3015C
:104260002AE939E949E150E40E94373B18160CF07D
:104270004CC0C401B3012BED3FE049E450E40E947F
:104280007D386093601170936111809362119093F7
:1042900063118091641190916511A0916611B091A4
:1042A0006711B0588093641190936511A0936611C3
:1042B000B0936711609068117090691180906A11D5
:1042C00090906B11C401B30120E030E040E050E079
:1042D0000E94373B18164CF4C401B3012BED3FE0AC
:1042E00049E450E40E947D3808C0C401B3012BEDBD
:1042F0003FE049E450E40E947E3860936811709377
:10430000691180936A1190936B11609060117090A5
:1043100061118090621190906311C401B3012AE988
:1043200039E949E150EC0E945B3988230CF04CC01C
:10433000C401B3012BED3FE049E450E40E947E3814
:104340006093601170936111809362119093631177
:104350008091641190916511A0916611B0916711DF
:10436000B0588093641190936511A0936611B09337
:104370006711609068117090691180906A11909037
:104380006B11C401B30120E030E040E050E00E9436
:10439000373B18164CF4C401B3012BED3FE049E460
:1043A00050E40E947D3808C0C401B3012BED3FE00A
:1043B00049E450E40E947E3860936811709369115B
:1043C00080936A1190936B1181E090E00E948E15AA
:1043D0008DB79EB74E970FB6F8949EBF0FBE8DBF98
:1043E000EDB7FEB731968CE296E0ADB7BEB7129648
:1043F0009C938E9311978091501190915111A0919F
:104400005211B091531182839383A483B583809119
:10441000541190915511A0915611B0915711868366
:104420009783A087B1878091581190915911A091DD
:104430005A11B0915B1182879387A487B5878091C9
:104440005C1190915D11A0915E11B0915F11868712
:104450009787A08BB18B8091601190916111A09191
:104460006211B0916311828B938BA48BB58B809179
:10447000641190916511A0916611B0916711868BBE
:10448000978BA08FB18F8091681190916911A09145
:104490006A11B0916B11828F938FA48FB58F0E9498
:1044A000FC3EEDB7FEB77E960FB6F894FEBF0FBE8A
:1044B000EDBFCE51DE4F0FB6F894DEBF0FBECDBFBD
:1044C000CF91DF911F910F91FF90EF90DF90CF90F0
:1044D000BF90AF909F908F907F906F905F904F9024
:1044E0003F902F9008950E940C188DB79EB74E975D
:1044F0000FB6F8949EBF0FBE8DBFEDB7FEB73196D5
:104500008BE496E0ADB7BEB712969C938E9311974D
:104510008091501190915111A0915211B09153116D
:1045200082839383A483B583809154119091551114
:10453000A0915611B091571186839783A087B187B8
:104540008091581190915911A0915A11B0915B111D
:1045500082879387A487B58780915C1190915D11C4
:10456000A0915E11B0915F1186879787A08BB18B68
:104570008091601190916111A0916211B0916311CD
:10458000828B938BA48BB58B809164119091651174
:10459000A0916611B0916711868B978BA08FB18F18
:1045A0008091681190916911A0916A11B0916B117D
:1045B000828F938FA48FB58F0E94FC3E8DB79EB7DC
:1045C0004E960FB6F8949EBF0FBE8DBF08952F92E2
:1045D0003F924F925F926F927F928F929F92AF9293
:1045E000BF92CF92DF92EF92FF920F931F93DF93D0
:1045F000CF93CDB7DEB762970FB6F894DEBF0FBE8C
:10460000CDBF3B014C0119012A0160E070E080EA56
:1046100091E40E94BA0F0E946A126CA97DA98EA92A
:104620009FA920E030E040E05FE30E945B398823EF
:104630000CF4EAC18091640890916508813091057D
:1046400009F049C06092A4117092A5118092A61140
:104650009092A7112092A8113092A9114092AA110C
:104660005092AB11E092AC11F092AD110093AE11EB
:104670001093AF11A092B011B092B111C092B211CB
:10468000D092B31188A599A5AAA5BBA58093B41112
:104690009093B511A093B611B093B7118CA59DA5B9
:1046A000AEA5BFA58093B8119093B911A093BA118C
:1046B000B093BB1188A999A9AAA9BBA98093BC11E1
:1046C0009093BD11A093BE11B093BF110E940C181E
:1046D0009A8B898B4DC0029719F01A8A198A48C0A3
:1046E0006092501170925111809252119092531118
:1046F00020925411309255114092561150925711F8
:10470000E0925811F092591100935A1110935B11D5
:10471000A0925C11B0925D11C0925E11D0925F11B7
:1047200088A599A5AAA5BBA5809360119093611156
:10473000A0936211B09363118CA59DA5AEA5BFA5F2
:104740008093641190936511A0936611B0936711E3
:1047500088A999A9AAA9BBA9809368119093691106
:10476000A0936A11B0936B11A1E0B0E0BA8BA98B52
:1047700010926308109262088CA99DA9AEA9BFA9E6
:1047800080935E0890935F08A0936008B0936108DF
:10479000ADB7BEB75E970FB6F894BEBF0FBEADBF44
:1047A000EDB7FEB7319686E696E012969C938E930F
:1047B00011978091E5109091E610A091E710B091CB
:1047C000E81082839383A483B5838091E91090914C
:1047D000EA10A091EB10B091EC1086839783A0872C
:1047E000B1878091ED109091EE10A091EF10B091F3
:1047F000F01082879387A487B5878091F1109091FC
:10480000F210A091F310B091F41086879787A08BD7
:10481000B18B8091F5109091F610A091F710B091A6
:10482000F810828B938BA48BB58B8091F9109091AB
:10483000FA10A091FB10B091FC10868B978BA08F83
:10484000B18F8091FD109091FE10A091FF10B0915A
:104850000011828F938FA48FB58F0E94FC3EEDB71D
:10486000FEB7319687E996E0ADB7BEB712969C9336
:104870008E9311978091501190915111A0915211E6
:10488000B091531182839383A483B5838091541193
:1048900090915511A0915611B0915711868397832D
:1048A000A087B1878091581190915911A0915A1108
:1048B000B0915B1182879387A487B58780915C1143
:1048C00090915D11A0915E11B0915F1186879787DD
:1048D000A08BB18B8091601190916111A0916211B8
:1048E000B0916311828B938BA48BB58B80916411F3
:1048F00090916511A0916611B0916711868B978B8D
:10490000A08FB18F8091681190916911A0916A1167
:10491000B0916B11828F938FA48FB58F0E94FC3E54
:10492000EE24FF2400E010E08DB79EB74E960FB640
:10493000F8949EBF0FBE8DBFC7010E943E11F801C3
:10494000EB51FF4E6083718382839383F801E550BE
:10495000F54F60837183828393830894E11CF11C7B
:104960000C5F1F4F97E0E916F10431F720905E08C5
:1049700030905F084090600850906108662477246A
:1049800088249924530124E0AA0CBB1C2A95E1F742
:10499000AFEDBBE0AA0EBB1EF401E550F54F408120
:1049A000518162817381F401E05BFE4E00811181CF
:1049B00022813381CE010196720161010E94460875
:1049C000D501FE01319680E101900D928150E1F711
:1049D0000894611C711C84E090E0880E991E97E099
:1049E0006916710479F6A989BA89AB2B49F081E07F
:1049F00090E090935B0880935A0821E030E006C075
:104A000010925B0810925A0820E030E0C9016296CB
:104A10000FB6F894DEBF0FBECDBFCF91DF911F91CF
:104A20000F91FF90EF90DF90CF90BF90AF909F904D
:104A30008F907F906F905F904F903F902F90089550
:104A400081E090E00E94C730019739F182E090E068
:104A50000E94C730019709F184E090E00E94C730BE
:104A60000197D9F088E090E00E94C7300197A9F043
:104A700080E190E00E94C730019779F080E290E0F9
:104A80000E94C730019749F080E490E00E94C7304F
:104A9000019719F021E030E006C088B190E1892744
:104AA00088B920E030E0C9010895CF93DF930E94D8
:104AB0009B3281E090E00E94C730019719F4C2E078
:104AC000D0E002C0C1E0D0E084E090E00E94C730B6
:104AD000019729F4CE01880F991FC80FD91F80E2D2
:104AE00090E00E94C730019739F4CE01880F991FDA
:104AF000880F991FC80FD91FCE01DF91CF9108955C
:104B00002F923F924F925F926F927F928F929F92DD
:104B1000AF92BF92CF92DF92EF92FF920F931F93CB
:104B200080E090E00E9455252C018AE090E00E94F0
:104B300055251C0181E090E00E9455253C0182E052
:104B400090E00E9455254C0183E090E00E9455259D
:104B50005C0184E090E00E9455256C0185E090E0C6
:104B60000E9455257C0186E090E00E9455258C012D
:104B700087E090E00E9455252DB73EB72451304084
:104B80000FB6F8943EBF0FBE2DBFEDB7FEB73196FE
:104B900028EC36E0ADB7BEB712963C932E93119732
:104BA000538242827582648297828682B186A08611
:104BB000D386C286F586E48617870687918B808B1D
:104BC000338A228A0E94FC3E2DB73EB72C5E3F4FAF
:104BD0000FB6F8943EBF0FBE2DBF1F910F91FF90EF
:104BE000EF90DF90CF90BF90AF909F908F907F908D
:104BF0006F905F904F903F902F9008950E949B324E
:104C00000E94B4309093AC0E8093AB0E019719F0D4
:104C100020E030E003C00E9420259C01C9010895D6
:104C20006F927F928F929F92AF92BF92CF92DF92BC
:104C3000EF92FF920F931F9380E090E00E94FE2579
:104C40003C0181E090E00E94FE254C0182E090E072
:104C50000E94FE255C0183E090E00E94FE256C012D
:104C600084E090E00E94FE257C0185E090E00E94B7
:104C7000FE258C0186E090E00E94FE252DB73EB710
:104C8000205130400FB6F8943EBF0FBE2DBFEDB798
:104C9000FEB7319628EE36E0ADB7BEB712963C931C
:104CA0002E9311977382628295828482B782A68244
:104CB000D186C086F386E286158704879787868724
:104CC0000E94FC3E2DB73EB7205F3F4F0FB6F894D1
:104CD0003EBF0FBE2DBF1F910F91FF90EF90DF9051
:104CE000CF90BF90AF909F908F907F906F900895DE
:104CF0006AE270E00E948032AA2797FDA095BA2F41
:104D0000BC01CD010E94FD3920E030E040E251E4D9
:104D10000E94623908952F923F924F925F926F9254
:104D20007F928F929F92AF92BF92CF92DF92EF923B
:104D3000FF920F931F9387E090E00E9478261B015B
:104D40002C0100D000D083E097E0EDB7FEB792834E
:104D5000818323823482458256820E94FC3E24EF66
:104D600031E08DB79EB706960FB6F8949EBF0FBE82
:104D70008DBF40E951E0CA010197F1F72150304061
:104D8000D1F780E090E00E9478263B014C0100D0F2
:104D900000D083E197E0EDB7FEB792838183638211
:104DA0007482858296820E94FC3E1092EA0A1092DA
:104DB000E90A21E030E03093EC0A2093EB0A82E02C
:104DC00090E09093EE0A8093ED0A83E090E0909358
:104DD000F00A8093EF0A84E090E09093F20A8093C7
:104DE000F10A85E090E09093F40A8093F30A86E05C
:104DF00090E09093F60A8093F50A87E090E0909314
:104E0000F80A8093F70A81E190E09093FA0A809380
:104E1000F90A80E090E0A2EAB2E48093170B909345
:104E2000180BA093190BB0931A0B80E090E0A0E050
:104E3000B0E080931B0B90931C0BA0931D0BB093C1
:104E40001E0B80E090E0A4EBB2E480931F0B9093E4
:104E5000200BA093210BB093220B8093230B9093F4
:104E6000240BA093250BB093260B8093270B9093D4
:104E7000280BA093290BB0932A0B80932B0B9093B4
:104E80002C0BA0932D0BB0932E0B80932F0B909394
:104E9000300BA093310BB093320B80E090E0A0EF89
:104EA000B2E48093330B9093340BA093350BB09303
:104EB000360B80E090E0AEE6B3E48093370B90933E
:104EC000380BA093390BB0933A0B30930211209317
:104ED00001111092041110920311109206111092F8
:104EE0000511309308112093071110920A111092A6
:104EF000091130930C1120930B1110920E11109286
:104F00000D111092101110920F1130931211209365
:104F1000111120E030EF4FE755E42093BB0B3093A5
:104F2000BC0B4093BD0B5093BE0B2093BF0B309333
:104F3000C00B4093C10B5093C20B80E090ECAFE7E5
:104F4000B4E48093C30B9093C40BA093C50BB093B0
:104F5000C60B2093C70B3093C80B4093C90B5093DB
:104F6000CA0B8093CB0B9093CC0BA093CD0BB0933B
:104F7000CE0B8093CF0B9093D00BA093D10BB0931B
:104F8000D20B8093D30B9093D40BA093D50BB093FB
:104F9000D60B8093D70B9093D80BA093D90BB093DB
:104FA000DA0B8093DB0B9093DC0BA093DD0BB093BB
:104FB000DE0B85E89BEEAAE7B3E480933B0B90936E
:104FC0003C0BA0933D0BB0933E0B80933F0B909313
:104FD000400BA093410BB093420B20E030E046E938
:104FE00053E42093430B3093440B4093450B509371
:104FF000460B8FED9FEFA3EBB3E48093470B9093A9
:10500000480BA093490BB0934A0B20934B0B309362
:105010004C0B40934D0B50934E0B20934F0B309302
:10502000500B4093510B5093520B2093530B3093E2
:10503000540B4093550B5093560B2093570B3093C2
:10504000580B4093590B50935A0B20935B0B3093A2
:105050005C0B40935D0B50935E0BC401B30120E3E6
:1050600035E44EEB50E40E94423B20E030E040E863
:1050700050E40E947D387B018C01C401B30129E812
:1050800038E848E850E40E94423B2DEC3CEC4CEC04
:105090005EE30E947E385B016C01C401B30122E92A
:1050A0003BE149EB5FE30E94423B2AE333E24FE2FC
:1050B00051E40E947E383B014C01C201B10120E065
:1050C00030E040EC5FE30E94423B20E030E040EC07
:1050D0005FE30E947E381B012C01C701D801809339
:1050E000970B9093980BA093990BB0939A0B809386
:1050F0009B0B90939C0BA0939D0BB0939E0BC301B5
:10510000D40180939F0B9093A00BA093A10BB0931D
:10511000A20BC701D8018093A30B9093A40BA0937B
:10512000A50BB093A60BC501D6018093A70B909356
:10513000A80BA093A90BB093AA0B8093AB0B9093F1
:10514000AC0BA093AD0BB093AE0BC301D401809315
:10515000AF0B9093B00BA093B10BB093B20BC10106
:10516000D2018093B30B9093B40BA093B50BB09383
:10517000B60B8093B70B9093B80BA093B90BB09379
:10518000BA0B83E297E0EDB7FEB792838183C70144
:10519000D80183839483A583B6830E94FC3E86E373
:1051A00097E0EDB7FEB792838183C501D601838373
:1051B0009483A583B6830E94FC3E88E497E0EDB714
:1051C000FEB792838183C301D40183839483A58333
:1051D000B6830E94FC3E8AE597E0EDB7FEB7928366
:1051E0008183C101D20183839483A583B6830E9406
:1051F000FC3E8DB79EB706960FB6F8949EBF0FBEC5
:105200008DBF1F910F91FF90EF90DF90CF90BF90D7
:10521000AF909F908F907F906F905F904F903F9056
:105220002F900895CF92DF92EF92FF920F931F93EA
:10523000CF93DF93182F092F8EEF90E00E94B930A3
:1052400083E890E00E94BC3080E090E060E270E093
:105250000E94BF3081E090E062E070E00E94BF30C9
:10526000212F302FC9016C01EE24FF24C2E0D0E0D1
:10527000CE01B7010E94BF30F60141915191619179
:1052800071916F01C7010E947F028C010894E11C9B
:10529000F11C0E94E130BC01CE0101960E94BF309A
:1052A000C8010E94E530BC01CE0102960E94BF30C9
:1052B0002396F7E0EF16F104D9F689E190E00E9419
:1052C000C4300E941E32809158089091590801976D
:1052D00071F40E94B4309093AC0E8093AB0E813089
:1052E000910519F40E94202502C00E949A0ADF91BC
:1052F000CF911F910F91FF90EF90DF90CF90089585
:10530000CF92DF92EF92FF920F931F93CF93DF9391
:10531000182F092F8EEF90E00E94B93083E890E0BB
:105320000E94BC3080E090E06EE170E00E94BF30EF
:1053300081E090E062E070E00E94BF30212F302FCA
:10534000C9016C01EE24FF24C2E0D0E0CE01B70118
:105350000E94BF30F60141915191619171916F01AD
:10536000C7010E94A2018C010894E11CF11C0E945B
:10537000E130BC01CE0101960E94BF30C8010E94FD
:10538000E530BC01CE0102960E94BF302396F7E0C3
:10539000EF16F104D9F689E190E00E94C4300E9432
:1053A0001E320E94B4309093AC0E8093AB0E8130CD
:1053B000910519F40E94202502C00E949A0ADF91EB
:1053C000CF911F910F91FF90EF90DF90CF900895B4
:1053D0004F925F926F927F928F929F92AF92BF9205
:1053E000CF92DF92EF92FF920F931F93DF93CF93B1
:1053F000CDB7DEB76C970FB6F894DEBF0FBECDBF4A
:105400008091490890914A08019709F003C1809161
:105410005A0890915B08892B09F0FCC00E946A121F
:105420000E94F1168091640890916508019709F037
:1054300075C08DB79EB74E970FB6F8949EBF0FBE3E
:105440008DBFEDB7FEB731968CE697E0ADB7BEB72E
:1054500012969C938E93119780915F0B9091600BA5
:10546000A091610BB091620B82839383A483B58377
:105470008091630B9091640BA091650BB091660BCA
:1054800086839783A087B1878091670B9091680B83
:10549000A091690BB0916A0B82879387A487B58727
:1054A00080916B0B90916C0BA0916D0BB0916E0B7A
:1054B00086879787A08BB18B80916F0B9091700B33
:1054C000A091710BB091720B828B938BA48BB58BD7
:1054D0008091730B9091740BA091750BB091760B2A
:1054E000868B978BA08FB18F8091770B9091780BE3
:1054F000A091790BB0917A0B828F938FA48FB58F87
:105500000E94FC3E1092650810926408EDB7FEB749
:105510007E960FB6F894FEBF0FBEEDBF8091640873
:1055200090916508029709F075C08DB79EB74E97A8
:105530000FB6F8949EBF0FBE8DBFEDB7FEB7319684
:1055400087E897E0ADB7BEB712969C938E931197FC
:105550008091E5109091E610A091E710B091E810CD
:1055600082839383A483B5838091E9109091EA109C
:10557000A091EB10B091EC1086839783A087B18740
:105580008091ED109091EE10A091EF10B091F0107D
:1055900082879387A487B5878091F1109091F2104C
:1055A000A091F310B091F41086879787A08BB18BF0
:1055B0008091F5109091F610A091F710B091F8102D
:1055C000828B938BA48BB58B8091F9109091FA10FC
:1055D000A091FB10B091FC10868B978BA08FB18FA0
:1055E0008091FD109091FE10A091FF10B0910011DC
:1055F000828F938FA48FB58F0E94FC3E1092650816
:1056000010926408EDB7FEB77E960FB6F894FEBF11
:105610000FBEEDBF80915A0890915B08892B09F469
:1056200096C06091620870916308882777FD809525
:10563000982F0E94FD3920914B0830914C084091E1
:105640004D0850914E080E94423B3B014C01EE2414
:10565000FF2400E010E02E010894411C511C8DB77E
:105660009EB744970FB6F8949EBF0FBE8DBF6DB71F
:105670007EB76F5F7F4FF801E550F54FA080B18096
:10568000C280D380F801E05BFE4E208131814281EF
:105690005381D701E4E0AA0FBB1FEA95E1F7FB01B4
:1056A000A152B44F80E10D9001928150E1F7DB01EE
:1056B00050966D927D928D929C925397C601B50142
:1056C0000E942E13F201E00FF11F60837183828329
:1056D0009383EDB7FEB774960FB6F894FEBF0FBE76
:1056E000EDBFC7010E943E11F801EB51FF4E6083F0
:1056F0007183828393830894E11CF11C0C5F1F4F1C
:10570000F7E0EF16F10409F0AACFC2010E94802948
:1057100080E29EE40197F1F780916208909163081E
:1057200001969093630880936208C401B3012091AD
:105730005E0830915F0840916008509161080E94B6
:10574000373B882324F010925B0810925A086C961D
:105750000FB6F894DEBF0FBECDBFCF91DF911F9182
:105760000F91FF90EF90DF90CF90BF90AF909F9000
:105770008F907F906F905F904F9008956F927F927F
:105780008F929F92AF92BF92CF92DF92EF92FF9251
:105790000F931F93FC015B014A01390180E090E007
:1057A00068E170E0AF010E94693281E090E068E159
:1057B00070E0A5010E94693282E090E068E170E04B
:1057C000A4010E94693283E090E068E170E0A301E7
:1057D0000E94693284E090E068E170E0A8010E94D4
:1057E000693285E090E068E170E0A7010E946932CB
:1057F00086E090E068E170E0A6010E94693281E0F5
:1058000090E01F910F91FF90EF90DF90CF90BF90AD
:10581000AF909F908F907F906F9008950F931F93FC
:10582000CF93DF938C01C0E0D0E0CE0168E170E05F
:10583000A8010E9469322196C730D105B1F7DF91E6
:10584000CF911F910F9108952F923F924F925F92A7
:105850006F927F928F929F92AF92BF92CF92DF9280
:10586000EF92FF920F931F93DF93CF93CDB7DEB7E5
:105870002C970FB6F894DEBF0FBECDBF8091F20813
:105880009091F308892B09F4EBC31092F30810925E
:10589000F2080E94450B892B09F4E2C38091131191
:1058A00090E0FC01E354F040E733F10508F0D8C381
:1058B000EA59FF4FEE0FFF1F0590F491E02D199468
:1058C00010926F0810926E0860911411709115116A
:1058D00080911611909117110E944410C4C30E9428
:1058E000EB1190936D0880936C0800D00F9222EA20
:1058F00037E0ADB7BEB712963C932E93119714962E
:105900009C938E93139721C1EDB7FEB738970FB6CE
:10591000F894FEBF0FBEEDBF0DB71EB70F5F1F4F50
:1059200088EA97E0928381838091141190911511F8
:10593000A0911611B0911711F80182839383A4836B
:10594000B583609118117091191180911A1190917D
:105950001B110E94CA39D80117967C936E93169733
:105960000E94FC3EEDB7FEB738960FB6F894FEBF26
:105970000FBEEDBF60911411709115118091161139
:10598000909117110E94CA397B018C016091181106
:105990007091191180911A1190911B110E94CA39AE
:1059A0009B01AC01C7016EE170E0A9010E942F329A
:1059B0005AC3609114117091151180911611909134
:1059C00017110E94CA39DC01CB0140911811509186
:1059D000191160911A1170911B110E941A0F43C383
:1059E0008091490890914A08019709F079C0809107
:1059F000470890914808019709F072C00E946A1206
:105A00002DB73EB72E5130400FB6F8943EBF0FBEB3
:105A10002DBFEDB7FEB7319685EB97E0ADB7BEB7BA
:105A200012969C938E9311978091E5109091E610B9
:105A3000A091E710B091E81082839383A483B5838B
:105A40008091E9109091EA10A091EB10B091EC10C8
:105A500086839783A087B1878091ED109091EE1097
:105A6000A091EF10B091F01082879387A487B5873B
:105A70008091F1109091F210A091F310B091F41078
:105A800086879787A08BB18B8091F5109091F61047
:105A9000A091F710B091F810828B938BA48BB58BEB
:105AA0008091F9109091FA10A091FB10B091FC1028
:105AB000868B978BA08FB18F8091FD109091FE10F7
:105AC000A091FF10B0910011828F938FA48FB58F9A
:105AD0000E94FC3E21E030E0EDB7FEB77E9677C035
