:100000000C94C0010C94E1010C94E1010C94E10109
:100010000C94E1010C94E1010C94E1010C94E101D8
:100020000C94E1010C94E1010C94E1010C94E101C8
:100030000C94E1010C94E1010C94E1010C94E101B8
:100040000C94E1010C94E1010C94E1010C94E101A8
:100050000C94E1010C94E1010C94E1010C94E10198
:100060000C94E1010C94CB350C94E1010C94E1016A
:100070000C94E1010C94E1010C94E1010C94E10178
:100080000C94E1010C94E1010C94E1010C94E10168
:100090000C94F2080C94E1010C94E1010C94E10140
:1000A0000C94E1010C94E1010C94E1010C94E10148
:1000B0000C94E1010C94E1010C94E1010C94E10138
:1000C0000C94E1010C94E1010C94E101922B602F5E
:1000D000602F602F982C602F602F602F602F102DC5
:1000E000602F602F602F602F602F392E812E602FA0
:1000F000602FBB2E602F602F602F602F602F602F2E
:10010000602F602F602F602F602F602F832BA72B15
:10011000602FFC2B132CD12C602F602FD42C602F40
:10012000602F602F342D432DB82D602F6A2E842E22
:10013000602FAE2E602F602FE42E036EDB363D9ACB
:100140009999993DABAAAA2A3E000000803F084A2F
:10015000D73B3BCE016E84BCBFFDC12F3D6C7431DB
:100160009ABD56833DDA3D00C77F11BED9E4BB4C32
:100170003E916BAAAABE000000803F072C7AA5BA68
:100180006CC590DA3B9365FC8BBC53F810FD3C5674
:1001900092834DBD879D3AB63DCBC9BF5BBE73DA36
:1001A0000FC93F05A84CCDB2D44EB93836A9020CC0
:1001B00050B9918688083CA6AAAA2ABE00000080F1
:1001C0003F07634236B79BD8A71A39685618AEBAAC
:1001D000AB558C1D3CB7CC5763BD6DEDFD753EF640
:1001E000177231BF000000803F08000000BE92245B
:1001F00049123EABAAAA2ABECDCCCC4C3E00000090
:1002000080BEABAAAAAA3E00000000BF000000808A
:100210003F0000000000084178D3BB4387D1133D65
:10022000190E3CC3BD4282AD2B3E68EC8276BED92E
:100230008FE1A93E4C80EFFFBE01C4FF7F3F00006D
:100240000000006E616E00696E6600494E46494EC0
:100250004954594E414ECDCCCC3D0AD7233C17B71B
:10026000D13877CC2B329595E6241FB14F0A000088
:1002700020410000C84200401C4620BCBE4CCA1BA6
:100280000E5AAEC59D7400407A10F35A00A0724E0B
:1002900018090010A5D4E80000E87648170000E42B
:1002A0000B54020000CA9A3B000000E1F505000073
:1002B00080969800000040420F000000A0860100D8
:1002C0000000102700000000E803000000006400A8
:1002D000000000000A000000000001000000000013
:1002E0002C76D888DC674F0823DFC1DFAE59E1B137
:1002F000B796E5E3E453C63AE651997696E8E6C246
:100300008426EB898C9B62ED407C6FFCEFBC9C9F4C
:1003100040F2BAA56FA5F490055A2AF75C936B6C6E
:10032000F9676DC11BFCE0E40D47FEF520E6B50062
:10033000D0ED902E0300943577050080841E0800D0
:1003400000204E0A000000C80C333333330F986E80
:1003500012831141EF8D2114893BE65516CFFEE63D
:10036000DB18D1844B381BF77C1D901DA4BBE42403
:10037000203284725E228100C9F124ECA1E53D2780
:1003800011241FBECFEFD1E2DEBFCDBF00E00CBF16
:1003900018E0A0E0B2E0EEE5F6E800E00BBF02C036
:1003A00007900D92A637B107D9F712E1A6E7B8E09A
:1003B00001C01D92A836B107E1F70E9455310C9497
:1003C000D43F0C9400002F923F924F925F926F9215
:1003D0007F928F929F92AF92BF92CF92DF92EF92D5
:1003E000FF920F931F931A012B01FC01EE0FFF1FC9
:1003F000ED56FE4E0190F081E02DE130F10509F05F
:1004000060C0DC01AA0FBB1FAA0FBB1FFD01E35395
:10041000F44FA080B180C280D380FD01E35BF34F35
:100420006080718082809380A755B44FC601B5016A
:100430002D913D914D915C910E94B3397B018C01CE
:10044000C601B50120E030E044E353E40E94B33933
:1004500020E030E040E05FEB0E94783C9B01AC0183
:10046000C801B7010E94B4397B018C01C201B101FE
:100470002CEC3EE245E652E40E94783C9B01AC0144
:10048000C801B7010E94B4397B018C01C401B301DA
:10049000A60195010E94983A9B01AC01C801B701E1
:1004A0000E94783C0E94003B882777FD8095982F1A
:1004B0000E94333B9B01AC01C401B3010E94B339DC
:1004C0004BC0EF2B09F04BC06C01CC0CDD1CCC0CED
:1004D000DD1CF601E353F44F80809180A280B3804D
:1004E000CB01BA012CEC3EE245E652E40E94783C96
:1004F000F601E755F44F20813181428153810E94FA
:10050000B4397B018C01C501B40120E030E044E343
:1005100053E40E94B33920E030E040E05FE30E9402
:10052000783C9B01AC01C801B7010E94B4397B0142
:100530008C018DE49CE0C80ED91EF60160817181AA
:1005400082819381A50194010E94983A9B01AC019C
:10055000C801B7010E94783C0E94003BCB011F916B
:100560000F91FF90EF90DF90CF90BF90AF909F9052
:100570008F907F906F905F904F903F902F90089555
:10058000DF92EF92FF920F931F93CF93DF937A0145
:100590008B01FC01EE0FFF1FED56FE4E8081918115
:1005A000019779F4C0E0D0E0CB01BA0120E030E05F
:1005B00040E050E00E94913A1816A4F0C1E0D0E06B
:1005C00011C0DD24CB01BA0120E030E040E050E072
:1005D0000E94913A181614F0DD24D39481E0D826B5
:1005E000CD2DD0E0C801B7010E94003B9B0177FFF1
:1005F00003C0309521953F4FB901882777FD80953D
:10060000982F0E94333B24E13EEA43E251E40E94EA
:10061000783C0E94003B9B0144E0603074071CF072
:100620002FEF33E005C01616170614F021E030E076
:10063000219711F420503C4FC901DF91CF911F91B8
:100640000F91FF90EF90DF900895CF93DF93C9E370
:10065000DBE020E030E080E090E0A0E0B0E0F901F5
:10066000EE51FE4E80839183A283B383F901E95852
:10067000FE4E80839183A283B383F901E35EF44F3E
:1006800080839183A283B383F901EA5CFD4E80836A
:100690009183A283B383F901EF50F44F8083918358
:1006A000A283B383F901E35FF34F80839183A28335
:1006B000B383F901E250FE4E80839183A283B3831A
:1006C00088839983AA83BB838C839D83AE83BF83F6
:1006D00088879987AA87BB878C879D87AE87BF87C6
:1006E0002C5F3F4F60962C31310509F0B8CFDF9178
:1006F000CF910895EF92FF920F931F937B018C018E
:1007000020E030E040E050E00E94913A882324F459
:1007100017FB109517F91095B701C8011F910F919C
:10072000FF90EF9008952F923F924F925F926F92B9
:100730007F928F929F92AF92BF92CF92DF92EF9271
:10074000FF920F931F93DF93CF93CDB7DEB7A097A0
:100750000FB6F894DEBF0FBECDBFA98ABA8ACB8A86
:10076000DC8AED8AFE8A0F8B188F298F3A8F4B8F88
:100770005C8F6D8F7E8F8F8F98A33E010894611CD4
:10078000711C230188249924E6E72E2E312C2C0E8F
:100790003D1E80E190E0280E391E26C0F6016191D1
:1007A0007191819191916F01F50121913191419167
:1007B00051915F010E94783C9B01AC01C801B701D7
:1007C0000E94B4397B018C01A214B30439F7F20101
:1007D00061937193819391932F010894811C911CD3
:1007E000F4E08F169104E1F0640174E0CC0CDD1CA0
:1007F0007A95E1F786E390E08C0F9D1FC80ED91E15
:1008000066E7A62EB12CAC0EBD1E0F2EF0E0EF2E2B
:10081000F0E0FF2EF0E00F2FF0E01F2FF02DBECF05
:1008200051E1C52ED12CCC0EDD1E0F2EF0E0EF2EA7
:10083000F0E0FF2EF0E00F2FF0E01F2FF02D41E24F
:10084000A42EB12CAC0EBD1EF60161917191819167
:1008500091916F01F30121913191419151913F01AA
:100860000E94783C9B01AC01C801B7010E94B439D9
:100870007B018C01CA14DB0439F7C801A0960FB6BE
:10088000F894DEBF0FBECDBFCF91DF911F910F91C6
:10089000FF90EF90DF90CF90BF90AF909F908F90A0
:1008A0007F906F905F904F903F902F9008952F9280
:1008B0003F924F925F926F927F928F929F92AF92F0
:1008C000BF92CF92DF92EF92FF920F931F93DF932D
:1008D000CF93CDB7DEB762970FB6F894DEBF0FBEE9
:1008E000CDBF898B9A8B3E010894611C711C8824B2
:1008F0009924B8E62B2E312C2C0E3D1EA0E14A2E59
:10090000512C420C531C26C0F601619171918191CA
:1009100091916F01F50121913191419151915F01C7
:100920000E94783C9B01AC01C801B7010E94B43918
:100930007B018C01A414B50439F7F3016193719321
:10094000819391933F010894811C911CF4E08F16D0
:100950009104C1F06401F4E0CC0CDD1CFA95E1F7E0
:1009600088E290E08C0F9D1FC80ED91E51010F2EFA
:10097000F0E0EF2EF0E0FF2EF0E00F2FF0E01F2F61
:10098000F02DC2CF89899A899C01D901FE01319647
:1009900080E101900D928150E1F789899A896296F0
:1009A0000FB6F894DEBF0FBECDBFCF91DF911F9180
:1009B0000F91FF90EF90DF90CF90BF90AF909F90FE
:1009C0008F907F906F905F904F903F902F90089501
:1009D0002F923F924F925F926F927F928F929F924F
:1009E000AF92BF92CF92DF92EF92FF920F931F933D
:1009F000DF93CF93CDB7DEB7C655D0400FB6F8948E
:100A0000DEBF0FBECDBF66968FAF669767969FAF6E
:100A10006797FE0171969E012F5F3F4F0F2EF0E00A
:100A2000EF2EF0E0FF2EF0E00F2FF0E01F2FF02D63
:100A3000AF01D901ED92FD920D931D939D01E082CE
:100A4000F18202831383E482F58206831783E086B2
:100A5000F18602871387E486F586068717877096E6
:100A6000A417B50731F7FE0175966396FFAFEEAF99
:100A700063972224332486C06596AEADBFAD6597DB
:100A80006D917D918D919D916596BFAFAEAF65974C
:100A9000F60120813181428153810E94783C9B0183
:100AA000AC01C801B7010E94B4397B018C010894E4
:100AB000A11CB11C80E190E0C80ED91E94E0A916DB
:100AC000B104D1F6D201ED92FD920D931D932D014B
:100AD0000894811C911CB4E08B169104B9F0F201CA
:100AE000E080F1800281138165967FAE6EAE6597DE
:100AF0006401CC0CDD1CCC0CDD1C8CEA90E08C0F6E
:100B00009D1FC80ED91EAA24BB24B6CFF10104E054
:100B1000EE0FFF1F0A95E1F7A1E0B0E0AC0FBD1F9B
:100B2000EA0FFB1F89819A81AB81BC81808B918BFD
:100B3000A28BB38B8D819E81AF81B8856396EEAD1C
:100B4000FFAD639780839183A283B38389859A8560
:100B5000AB85BC8584839583A683B7838D859E856D
:100B6000AF85B88980879187A287B3870894211CB5
:100B7000311C70966396FFAFEEAF6397F4E02F16CB
:100B8000310439F180E090E0A0E0B0E089839A83FD
:100B9000AB83BC838D839E83AF83B88789879A8715
:100BA000AB87BC878D879E87AF87B88B2E01089453
:100BB000411C511C88249924310114E0660C771CD7
:100BC0001A95E1F7ACE6B0E0AC0FBD1F6A0E7B1ED4
:100BD00086CF66968FAD669767969FAD67979C01A7
:100BE000D901FE01719680E401900D928150E1F7E8
:100BF00066968FAD669767969FAD6797CA5ADF4F27
:100C00000FB6F894DEBF0FBECDBFCF91DF911F911D
:100C10000F91FF90EF90DF90CF90BF90AF909F909B
:100C20008F907F906F905F904F903F902F9008959E
:100C3000EF92FF920F931F93CF93DF9300E010E0AA
:100C400060E070E020E030E040E050E0FB01E55A79
:100C5000FE4E2083318342835383FB01EF51F34FD8
:100C60002083318342835383FB01E65EFD4E208364
:100C7000318342835383FB01E15CFE4E2083318349
:100C800042835383FB01EA53FE4E20833183428328
:100C90005383E0E0F0E07801EE0CFF1CEE0CFF1C4B
:100CA00010C029933993499359932D933D934D93B4
:100CB0005D93019684309105A1F73196E430F105FA
:100CC00089F0CF018E0D9F1DA4E0880F991FAA9572
:100CD000E1F7EC01C15CD04FDC01A350B34F80E0E1
:100CE00090E0DFCF0F5F1F4F6C5F7F4F0730110524
:100CF00009F0ACCFEDEFFEE02FEF30E16DEB7EE0E1
:100D000080E090E0A0E0B0E080839183A283B38391
:100D1000E90188839983AA83BB83EB018883998344
:100D2000AA83BB8384839583A683B783E9018C83DD
:100D30009D83AE83BF83EB018C839D83AE83BF8392
:100D400080879187A287B387E90188879987AA87D7
:100D5000BB87EB0188879987AA87BB87848795879C
:100D6000A687B787E9018C879D87AE87BF87EB0190
:100D70008C879D87AE87BF877096205F3F4F605FEF
:100D80007F4F4FE0ED33F40709F0BECF8093E10CC5
:100D90009093E20CA093E30CB093E40C8BE996EEF5
:100DA000ADE9BEE38093E90C9093EA0CA093EB0CC1
:100DB000B093EC0C80ED93EBA9E5BEE38093F10CCE
:100DC0009093F20CA093F30CB093F40C84EA90E7A8
:100DD000ADE3BEE38093F90C9093FA0CA093FB0C67
:100DE000B093FC0C82E29DEFA6E7BDE380935B111C
:100DF00090935C11A0935D11B0935E118BED9FE019
:100E0000A9ECBFE380931A1290931B12A0931C12BB
:100E1000B0931D1280931E1290931F12A093201264
:100E2000B09321122BED3FE049EC5FEB20932212AF
:100E3000309323124093241250932512809326124C
:100E400090932712A0932812B093291220932A126C
:100E500030932B1240932C1250932D1280932E120C
:100E600090932F12A0933012B093311280934311BC
:100E700090934411A0934511B093461120934711CC
:100E8000309348114093491150934A1180E090E00B
:100E9000A0E8BFE380931F1190932011A09321112C
:100EA000B09322118093031190930411A093051124
:100EB000B09306118093171190931811A0931911F4
:100EC000B0931A1180933B1190933C11A0933D1164
:100ED000B0933E11DF91CF911F910F91FF90EF9052
:100EE00008952F923F924F925F926F927F928F92CE
:100EF0009F92AF92BF92CF92DF92EF92FF920F93A9
:100F00001F93DF93CF93CDB7DEB7C654D0400FB653
:100F1000F894DEBF0FBECDBF26968FAF26972796DB
:100F20009FAF2797AE01445A5F4F6E010894C11CD2
:100F3000D11CFA019601BE0164567F4F80809180DA
:100F4000A280B380D9018D929D92AD92BC921397ED
:100F500084809580A680B78014968D929D92AD92E4
:100F6000BC92179780849184A284B38418968D9242
:100F70009D92AD92BC921B9784849584A684B7847D
:100F80001C968D929D92AD92BC921F977096205F99
:100F90003F4FE617F70791F6F6019E0128593F4F9C
:100FA000DA018D909D90AD90BC90139780829182D4
:100FB000A282B38250968D909D90AD90BC90539735
:100FC00084829582A682B78290968D909D90AD90F6
:100FD000BC90939780869186A286B3864C5F5F4FC4
:100FE000709642175307E1F6AC968CAD9DADAEAD51
:100FF000BFADAC9725968CAF9DAFAEAFBFAF259779
:10100000EC964CAC5DAC6EAC7FACEC97C857DF4F48
:1010100088809980AA80BB80C858D04011E3212ED7
:10102000312C2C0E3D1E25966CAD7DAD8EAD9FAD49
:101030002597D6012D913D914D915C910E94783C70
:1010400020E030E040E050E00E94B4397B018C01A8
:10105000C301B201F60124813581468157810E9486
:10106000783C9B01AC01C801B7010E94B4397B01F7
:101070008C01C501B401D60118962D913D914D9179
:101080005C911B970E94783C9B01AC01C801B701A1
:101090000E94B4399058F6016487758786879787D0
:1010A00080E190E0C80ED91EC214D30409F0BBCF72
:1010B00026968FAD269727969FAD27979C01D9013D
:1010C000FE01319680E401900D928150E1F7269661
:1010D0008FAD269727969FAD2797CA5BDF4F0FB638
:1010E000F894DEBF0FBECDBFCF91DF911F910F915E
:1010F000FF90EF90DF90CF90BF90AF909F908F9038
:101100007F906F905F904F903F902F9008952F9217
:101110003F924F925F926F927F928F929F92AF9287
:10112000BF92CF92DF92EF92FF920F931F931C0119
:101130004A015B01C901B801A50194010E94B339BC
:101140004B015C01A70196010E94983A2B013C01DA
:10115000C501B401A50194010E94B439A70196010B
:101160000E94983A9B01AC01C301B2010E94B439BC
:1011700020E030E040E05FE30E94783C4B015C01FE
:10118000C701B60120E030E040E450E40E94983A04
:101190009B01AC01F101C486D586E686F78660879F
:1011A000718782879387C501B4010E94983AF10143
:1011B000648375838683978380829182A282B382BF
:1011C000C1011F910F91FF90EF90DF90CF90BF90E2
:1011D000AF909F908F907F906F905F904F903F90D7
:1011E0002F9008951F920F920FB60F920BB60F9289
:1011F00011248F939F93AF93BF93EF93FF9390919D
:101200001C09A92FB0E08091CE00FD01E257F74FF5
:1012100080838081813618F080818B37F0F0FD016A
:10122000E257F74F8081803318F080818A33A8F02D
:10123000FD01E257F74F80818D3279F08081803255
:1012400061F08081893049F080818E3231F0808177
:10125000813450F080818B3538F4892F8F5F8093F3
:101260001C0987FF17C014C0FD01E257F74F8081AA
:101270008D3019F080818A3069F4A257B74F1C92E3
:10128000992341F081E090E0909311098093100937
:1012900010921C09FF91EF91BF91AF919F918F9197
:1012A0000F900BBE0F900FBE0F901F9018959C01D2
:1012B000815690404A9738F040E050E02154304049
:1012C0002A31310510F441E050E0CA0108958F92AF
:1012D0009F92AF92BF92CF92DF92EF92FF920F93C5
:1012E0001F93DF93CF93CDB7DEB78093A5114093C3
:1012F000A6115093A7116093A8117093A9110093A0
:10130000AA111093AB112093AC113093AD11C09280
:10131000AE11D092AF11E092B011F092B111809263
:10132000B2119092B311A092B411B092B511888904
:101330009989AA89BB898093B6119093B711A0931C
:10134000B811B093B9118C899D89AE89BF898093FA
:10135000BA119093BB11A093BC11B093BD11888DAD
:10136000998DAA8DBB8D8093BE119093BF11A093D0
:10137000C011B093C1118C8D9D8DAE8DBF8D8093AA
:10138000C2119093C311A093C411B093C511CF9112
:10139000DF911F910F91FF90EF90DF90CF90BF9062
:1013A000AF909F908F90089520E030E0C0970A970B
:1013B00010F421E030E0C9010895AC0120E030E0F4
:1013C0000CC08091C80085FFFCCFFA01E20FF31F2B
:1013D00080818093CE002F5F3F4F261737078CF315
:1013E000089590910E0980910F09981719F420E043
:1013F00030E017C090910E0980910F09981738F4CA
:1014000080910F0990910E09282F30E008C080913B
:101410000F0990910E09282F30E020583F4F291BCB
:101420003109C90108951F93182F0E94F1098F37C0
:10143000910591F0E0910F09F0E0E257F74F10832A
:1014400080910F098F3719F410920F0905C0809110
:101450000F098F5F80930F091F91089590910E09D6
:1014600080910F09981711F4EFEF12C0E0910E0967
:10147000F0E0E257F74FE08180910E098F3719F4C1
:1014800010920E0905C080910E098F5F80930E099E
:101490008E2F0895EF92FF920F931F93CF93DF93B8
:1014A0007C01EB0190910E0980910F09981711F4BE
:1014B00080E015C00E94F1098C01C817D9070CF40F
:1014C0008E01C0E0D0E007C00E942E0AF701EC0FA9
:1014D000FD1F80832196C017D107B4F3802FDF91C1
:1014E000CF911F910F91FF90EF900895DF93CF93CD
:1014F0000F920F92CDB7DEB7282FAE014F5F5F4F2F
:101500008A3039F48DE089832A83CA0162E070E071
:1015100004C08983CA0161E070E00E94DD0980E0B7
:1015200090E00F900F90CF91DF9108950E94F10904
:10153000892BE1F30E942E0A8D3009F48AE090E0B5
:1015400008958091650890916608892B21F088B1F3
:101550008F7388B901C0469A809167089091680896
:10156000892B21F088B18F7588B901C0459A809187
:10157000780890917908892B21F088B18F7688B905
:1015800001C0449A80911A0990911B09895893418E
:1015900044F088B192E0892788B910921B09109213
:1015A0001A0980911A0990911B09019690931B09C1
:1015B00080931A09089584309105B9F0853091051A
:1015C00034F48230910561F0039741F513C0863001
:1015D0009105D1F08630910594F00797F9F419C080
:1015E0000F920F9280E092E01DC00F920F9285E063
:1015F00092E018C00F920F928AE092E013C00F920F
:101600000F928FE092E00EC00F920F9284E192E071
:1016100009C00F920F9289E192E004C00F920F92DD
:101620008EE192E0EDB7FEB7928381830E945D4127
:101630000F900F900895EF92FF921F93CF93DF9337
:10164000EC017B018881E82FF0E0E257F74F8081C1
:10165000803239F08081893009F04BC002C04F5F81
:1016600048834881E42FF0E0E257F74F80818032D1
:10167000B1F38081893099F380818D3229F08081A6
:1016800090E0C0970A97A8F54F5F4883415020E04B
:1016900030E009C0E257F74F80818E3211F42F5F9E
:1016A0003F4F5F5F58835881E52FF0E0DF01A2577D
:1016B000B74F8C9190E0C0970A9760F323C0223017
:1016C0003105BCF41C911C92842F90E08257974FF7
:1016D00060E070E00E94663EF70160837183828360
:1016E0009383E881F0E0E257F74F108321E030E088
:1016F00002C020E030E0C901DF91CF911F91FF903F
:10170000EF9008958C918E3229F2D9CF2F923F928B
:101710004F925F926F927F928F929F92AF92BF9201
:10172000CF92DF92EF92FF920F931F93DF93CF93AD
:10173000CDB7DEB7E1970FB6F894DEBF0FBECDBFD1
:1017400080918E088736C1F080918E088337A1F092
:1017500080918E08883681F080918E08833561F003
:1017600080918E08863741F080918E08833421F075
:1017700080918E08863531F541E0E42FF0E0E257A4
:10178000F74F8081282F30E0C901815690404A9759
:1017900030F0215430402A31310508F044C34F5F06
:1017A000ECCF80918E088093A51180E090E0A0E0BE
:1017B000B0E08093A6119093A711A093A811B093C5
:1017C000A91175C080E090E0A0E0B0E08A839B831F
:1017D000AC83BD838E839F83A887B9878A879B87C5
:1017E000AC87BD878E879F87A88BB98B8A8B9B8B95
:1017F000AC8BBD8B8E8B9F8BA88FB98F8A8F9B8F65
:10180000AC8FBD8F8E8F9F8FA8A3B9A380918E08B8
:101810008B36E1F080918E088C34C1F080918E0877
:101820008235A1F080918E08873481F080918E08F6
:10183000843761F080918E088F3641F080918E0858
:10184000833621F080918E088934D1F541E0E42F70
:10185000F0E0E257F74F8081282F30E0C901815630
:1018600090404A9730F0215430402A31310508F039
:10187000DFC24F5FECCFE981F0E0E257F74F8081A4
:10188000882309F0B4C220918E088A819B81AC81A3
:10189000BD812093A5118093A6119093A711A093C9
:1018A000A811B093A91180E090E0A0E0B0E080938F
:1018B000AA119093AB11A093AC11B093AD114FC08E
:1018C00080918E08863629F080918E08843609F042
:1018D0004FC041E0E42FF0E0E257F74F8081282F1E
:1018E00030E0C901815690404A9730F02154304091
:1018F0002A31310508F0A8C24F5FECCFC801BE0104
:101900006A5F7F4F0E941B0B892B09F470C2E9812B
:10191000F0E0E257F74F8081882309F068C26091B8
:101920008E088A819B81AC81BD812E813F81488553
:1019300059856093A5118093A6119093A711A09348
:10194000A811B093A9112093AA113093AB11409321
:10195000AC115093AD1180E090E0A0E0B0E0809336
:10196000AE119093AF11A093B011B093B11167C0B5
:1019700080918E088E3609F083C041E0E42FF0E0BC
:10198000E257F74F8081282F30E0C90181569040FF
:101990004A9730F0215430402A31310508F061C2B5
:1019A0004F5FECCFC801BE016A5F7F4F0E941B0BE7
:1019B000892B09F41CC2C801BE01665F7F4F0E94DB
:1019C0001B0B892B41F480E090E0A0E0B0E08A8717
:1019D0009B87AC87BD87E981F0E0E257F74F8081B4
:1019E000882309F004C260918E088A819B81AC81B2
:1019F000BD812E813F8148855985EA84FB840C8511
:101A00001D856093A5118093A6119093A711A093B3
:101A1000A811B093A9112093AA113093AB11409350
:101A2000AC115093AD11E092AE11F092AF11009352
:101A3000B0111093B11180E090E0A0E0B0E080938D
:101A4000B2119093B311A093B411B093B5118093D8
:101A5000B6119093B711A093B811B093B9118093B8
:101A6000BA119093BB11A093BC11B093BD11809398
:101A7000BE119093BF11A093C011B093C111CBC000
:101A800080918E08883709F0D1C041E0E42FF0E062
:101A9000E257F74F8081282F30E0C90181569040EE
:101AA0004A9730F0215430402A31310508F0E7C11F
:101AB0004F5FECCFC801BE016A5F7F4F0E941B0BD6
:101AC000892B09F494C1C801BE01665F7F4F0E9453
:101AD0001B0B892B09F48BC1C801BE01625F7F4FCC
:101AE0000E941B0B892B09F482C1C801BE016E5EE6
:101AF0007F4F0E941B0B892B09F479C1C801BE01DD
:101B00006A5E7F4F0E941B0B892B09F470C1C801CC
:101B1000BE01665E7F4F0E941B0B892B41F480E063
:101B200090E0A0E0B0E08A8F9B8FAC8FBD8FE98101
:101B3000F0E0E257F74F8081882309F058C16091A7
:101B40008E088A819B81AC81BD818EA79FA7A8AB9F
:101B5000B9AB2E813F8148855985EA84FB840C8589
:101B60001D85AE84BF84C888D9886A887B888C88A4
:101B70009D882E883F88488C598C8A8D9B8DAC8D92
:101B8000BD8D8AA79BA7ACA7BDA76093A5118EA505
:101B90009FA5A8A9B9A98093A6119093A711A09376
:101BA000A811B093A9112093AA113093AB114093BF
:101BB000AC115093AD11E092AE11F092AF110093C1
:101BC000B0111093B111A092B211B092B311C092A2
:101BD000B411D092B5116092B6117092B711809283
:101BE000B8119092B9112092BA113092BB11409263
:101BF000BC115092BD118AA59BA5ACA5BDA5809333
:101C0000BE119093BF11A093C011B093C11180E099
:101C100090E0A0E0B0E08093C2119093C311A09334
:101C2000C411B093C51121E030E0E3C080918E086B
:101C3000803729F080918E08813709F0D8C041E0C3
:101C4000E42FF0E0E257F74F8081282F30E0C90100
:101C5000815690404A9730F0215430402A31310566
:101C600008F01BC14F5FECCFC801BE016A5F7F4F18
:101C70000E941B0B892B09F4BAC0C801BE01665F24
:101C80007F4F0E941B0B892B09F4B1C0C801BE0114
:101C9000625F7F4F0E941B0B892B09F4A8C0C8010B
:101CA000BE016E5E7F4F0E941B0B892B09F49FC003
:101CB000C801BE016A5E7F4F0E941B0B892B09F48D
:101CC00096C0C801BE01665E7F4F0E941B0B892B28
:101CD00009F48DC0C801BE01625E7F4F0E941B0BDC
:101CE000892B41F480E090E0A0E0B0E08E8F9F8FE0
:101CF000A8A3B9A3E981F0E0E257F74F80818823D8
:101D000009F075C060918E088A819B81AC81BD818C
:101D10008EA79FA7A8ABB9AB2E813F814885598577
:101D2000EA84FB840C851D85AE84BF84C888D9886D
:101D30006A887B888C889D882E883F88488C598C3F
:101D40008A8D9B8DAC8DBD8D8AA39BA3ACA3BDA3B7
:101D50008E8D9F8DA8A1B9A18EA39FA3A8A7B9A777
:101D60006093A5118EA59FA5A8A9B9A98093A611D6
:101D70009093A711A093A811B093A9112093AA1131
:101D80003093AB114093AC115093AD11E092AE1172
:101D9000F092AF110093B0111093B111A092B21153
:101DA000B092B311C092B411D092B5116092B61135
:101DB0007092B7118092B8119092B9112092BA1115
:101DC0003092BB114092BC115092BD118AA19BA1CF
:101DD000ACA1BDA18093BE119093BF11A093C0117F
:101DE000B093C1118EA19FA1A8A5B9A514CF20E0E1
:101DF00030E0C901E1960FB6F894DEBF0FBECDBF4B
:101E0000CF91DF911F910F91FF90EF90DF90CF90D6
:101E1000BF90AF909F908F907F906F905F904F900A
:101E20003F902F90089580918F08882301F7B9CCB7
:101E30004983CE010196BE016E5F7F4F0E941B0B4E
:101E4000892B09F018CDD3CF49838E010F5F1F4F27
:101E5000C801BE016E5F7F4F0E941B0B892B39F2B8
:101E60004DCD49838E010F5F1F4FC801BE016E5FCC
:101E70007F4F0E941B0B892B09F4B9CF93CD498367
:101E80008E010F5F1F4FC801BE016E5F7F4F0E9422
:101E90001B0B892B09F4ABCF0DCE49838E010F5F4D
:101EA0001F4FC801BE016E5F7F4F0E941B0B892B25
:101EB00009F49DCFD9CEAF92BF92DF92EF92FF92FD
:101EC0000F931F93CF93DF935C017A018B01FC0189
:101ED000EE0FFF1FED56FE4E80819181019779F440
:101EE000C0E0D0E0CB01BA0120E030E040E050E0BB
:101EF0000E94913A1816A4F0C1E0D0E011C0DD2490
:101F0000CB01BA0120E030E040E050E00E94913A7D
:101F1000181614F0DD24D39481E0D826CD2DD0E01E
:101F2000C801B7010E94003B9B0177FF03C03095B9
:101F300021953F4FB901882777FD8095982F0E9402
:101F4000333B7B018C01F501EE0FFF1FEE0FFF1FEE
:101F5000E75DF34F60E070EC8FE794E4208131811E
:101F6000428153810E94983A9B01AC01C801B7019C
:101F70000E94783C0E94003BAB0177FF02C040E02A
:101F800050E084E04030580714F04FEF53E02197C1
:101F900011F440505C4FC50160E270E00E9465336F
:101FA000DF91CF911F910F91FF90EF90DF90BF9045
:101FB000AF900895CF93DF93EC01CB01BA0124E1F8
:101FC0003EEA43E251E40E94783C0E94003BAB01B0
:101FD0001616170614F041E050E084E04030580730
:101FE00014F04FEF53E0CE0160E270E00E946533E1
:101FF000DF91CF910895CF92DF92EF92FF920F93EE
:102000001F93CF93DF937B018C01C0E0D0E020E4ED
:10201000C22E2CE9D22ECE01B801A7010E94DA0F00
:10202000C6010197F1F72196C730D105A1F7DF91DD
:10203000CF911F910F91FF90EF90DF90CF90089577
:10204000EF92FF920F931F93CF93DF937C018B014D
:10205000EC01CC0FDD1FC55FD44F8881998140E032
:1020600050E060E070E00E94DA0F0130110579F471
:102070008881998166E070E040E050E00E9465331D
:102080008881998168E070E040E050E021C0012B38
:1020900009F58881998166E070E041E050E00E9496
:1020A000653308811981EE0CFF1CEE0CFF1C8DE4DA
:1020B0009CE0E80EF91EF7016081718182819381B5
:1020C0000E94003B9B01AC01C80168E070E0A901DF
:1020D0000E946533DF91CF911F910F91FF90EF9098
:1020E00008950F931F93CF93DF938C01C0E0D0E04E
:1020F000CE01B8010E9420102196C730D105C1F74A
:10210000DF91CF911F910F910895EF92FF920F935E
:102110001F937B018C0187E090E061E070E00E94FA
:10212000201087E090E0B801A7010E94C002AC0136
:1021300087E090E060E270E00E9465338CE291E01D
:1021400020E931E0F9013197F1F70197D9F788E0FB
:1021500090E061E070E00E94201088E090E0B8011B
:10216000A7010E94C002AC0181E190E060E270E052
:102170000E946533E0928608F092870800938808F1
:102180001093890881E090E09093850880938408FB
:102190001F910F91FF90EF900895EF92FF920F9390
:1021A0001F937B018C0187E090E060E070E00E946B
:1021B000201087E090E040E050E060E271E40E948F
:1021C000DA0FC801B7012DEC3CEC4CE85FE30E944C
:1021D000783C20E030E048EC52E40E94983A9B01C1
:1021E000AC01E62E132F042FF52E87E090E0DA01E4
:1021F000A901BD010E94E301AC0187E090E06EE11E
:1022000070E00E9465338CE291E020E931E0F90151
:102210003197F1F70197D9F788E090E060E070E03E
:102220000E94201081E190E040E050E060E271E423
:102230000E94DA0F88E090E02E2D312FE02FFF2D45
:10224000A901BF010E94E301AC0181E190E06EE1D0
:1022500070E00E9465331F910F91FF90EF900895F9
:1022600083E292E00E946F418DE592E00E946F410F
:102270008AE692E00E946F4189EB92E00E946F41F2
:1022800089EF92E00E946F418EE393E00E946F41DC
:102290008FE793E00E946F4189EC93E00E946F41C9
:1022A0008EEF93E00E946F418FE794E00E946F41B0
:1022B00084ED94E00E946F4188E095E00E946F41B8
:1022C00088E395E00E946F418AE595E00E946F41A6
:1022D0008CE795E00E946F418BEB95E00E946F4187
:1022E00081E096E00E946F4108950E94333B9B017C
:1022F000AC0160E074E284EF99E40E94983A0E9495
:10230000053B6150704022E42093C80028E92093E7
:10231000C90026E02093CA002FEF2093CE00109230
:102320000E0910920F09272F332727FD3A95209386
:10233000CD006093CC007298739A86E79AE066E9C4
:102340007AE00E94E54090931E0980931D0908954C
:102350006F927F928F929F92AF92BF92CF92DF92B5
:10236000EF92FF920F931F93DF93CF93CDB7DEB71A
:10237000EAA0FBA00CA11DA1C801B70120E030E03C
:1023800040E450E40E94DB3C3B014C01C801B70132
:1023900020E030E040E850E40E94DB3C5B016C014F
:1023A000C801B70120E030E040EA50E40E94DB3C85
:1023B0007B018C01C401B3012E893F89488D598D61
:1023C0000E94783C2A893B894C895D890E94B439F6
:1023D0003B014C01C601B5012A8D3B8D4C8D5D8DB5
:1023E0000E94783C9B01AC01C401B3010E94B43946
:1023F0005B016C01C801B7012E8D3F8D48A159A129
:102400000E94783C9B01AC01C601B5010E94B43921
:10241000CF91DF911F910F91FF90EF90DF90CF90C0
:10242000BF90AF909F908F907F906F9008952F9264
:102430003F924F925F926F927F928F929F92AF9254
:10244000BF92CF92DF92EF92FF920F931F93DF9391
:10245000CF93CDB7DEB728970FB6F894DEBF0FBE87
:10246000CDBF1C0149835A836B837C83C901B801AA
:1024700029813A814B815C810E94B3396D837E83CF
:102480008F839887C701B60120E030E040E450E434
:102490000E94DB3C2B013C01C701B60120E030E08B
:1024A00040E850E40E94DB3C4B015C01C701B601EF
:1024B00020E030E040EA50E40E94DB3C7B018C01EC
:1024C0006D817E818F81988520E030E040EC50E482
:1024D0000E94783CA80197010E94983AD1011C966D
:1024E0006D937D938D939C931F976D817E818F81DA
:1024F000988520E030E040E751EC0E94783CA5014F
:1025000094010E94983AF1016087718782879387CE
:102510006D817E818F81988520E030E040E251E43A
:102520000E94783CA30192010E94983AD10114962E
:102530006D937D938D939C93179789819A81AB813D
:10254000BC81F10180839183A283B383C10128966A
:102550000FB6F894DEBF0FBECDBFCF91DF911F91B4
:102560000F91FF90EF90DF90CF90BF90AF909F9032
:102570008F907F906F905F904F903F902F90089535
:102580002F923F924F925F926F927F928F929F9283
:10259000AF92BF92CF92DF92EF92FF920F931F9371
:1025A000DF93CF93CDB7DEB72C970FB6F894DEBF8D
:1025B0000FBECDBF5B016C0129873A874B875C87D3
:1025C0002AA83BA84CA85DA88AA19BA1ACA1BDA14B
:1025D0008D839E83AF83B8878EA19FA1A8A5B9A53F
:1025E00089839A83AB83BC83EAA4FBA40CA51DA5B5
:1025F0006EA47FA488A899A8C201B101A80197017F
:102600000E94913A1816DCF0C201B101A2019101B9
:102610000E94783C7B018C0169817A818B819C814D
:1026200020E030E040E05FE30E94783CA8019701A1
:102630000E94783C9B01AC01C601B50196C0C20165
:10264000B101A80197010E946D3C18160CF03FC023
:10265000C401B301A80197010E94B3399B01AC01E9
:10266000C201B1010E94913A18168CF169857A85F0
:102670008B859C85A60195010E94B3397B018C0155
:102680006D817E818F819885A40193010E94783CA1
:102690009B01AC01C801B7010E94B33920E030E0D2
:1026A00040E05FE30E94783C7B018C016D817E817C
:1026B0008F819885A20191010E94783C9B01AC0119
:1026C000C801B7010E94B439A60195014EC0C401EA
:1026D000B301A40193010E94783C7B018C01C201EB
:1026E000B101A20191010E94783C5B016C016981FA
:1026F0007A818B819C81A80197010E94783C20E01F
:1027000030E040E05FEB0E94783C9B01AC016985C2
:102710007A858B859C850E94B4397B018C01698107
:102720007A818B819C81A40193010E94783CA20153
:1027300091010E94783C9B01AC01C801B7010E9445
:10274000B4397B018C0169817A818B819C8120E085
:1027500030E040E05FEB0E94783CA60195010E94CA
:10276000783C9B01AC01C801B7010E94B439E62F47
:102770002E2F372F482F592FB901CA012C960FB68B
:10278000F894DEBF0FBECDBFCF91DF911F910F91A7
:10279000FF90EF90DF90CF90BF90AF909F908F9081
:1027A0007F906F905F904F903F902F9008952F9261
:1027B0003F924F925F926F927F928F929F92AF92D1
:1027C000BF92CF92DF92EF92FF920F931F93DF930E
:1027D000CF93CDB7DEB72A970FB6F894DEBF0FBE02
:1027E000CDBF019721F5EE24FF2487010A531E4E29
:1027F000F701EE51FE4ED701A15CBE4E60817181A2
:10280000828193812D913D914D915C910E94B439CB
:10281000D8016D937D938D939C931397E4E0F0E042
:10282000EE0EFF1EFCE1EF16F104F9F623C0EE24D4
:10283000FF2487010A531E4EF701E958FE4ED701C7
:10284000A15CBE4E60817181828193812D913D9109
:102850004D915C910E94B439D8016D937D938D9315
:102860009C931397E4E0F0E0EE0EFF1EFCE1EF1600
:10287000F104F9F68FE39FE09A8789874C969A8353
:1028800089831C821B82EB81FC81EA53FE4EE0802F
:10289000F18002811381C801B7010E94953A5B0162
:1028A0006C01A985BA856D937D938D939C93139745
:1028B000C801B7010E94273D3B014C01EB81FC811F
:1028C000E65EFD4EE080F18002811381C801B70110
:1028D0000E94953A1B012C01C401B3019058A2013A
:1028E00091010E94783CE985FA856483758386832B
:1028F0009783C801B7010E94273D7B018C01C40169
:10290000B301A80197010E94783CA985BA85189661
:102910006D937D938D939C931B972B813C81255ABE
:102920003E4ED9018D919D910D90BC91A02D8D832E
:102930009E83AF83B887BC01CD01A60195010E949B
:10294000783CE985FA856487758786879787608AEA
:10295000718A828A938AC601B501A20191010E94FF
:10296000783CE985FA85648B758B868B978BD7FAD3
:10297000D094D7F8D094C601B501A80197010E9460
:10298000783CA985BA8558966D937D938D939C93D9
:102990005B976D817E818F819885A40193010E9450
:1029A000783CE981FA816083718382839383E08636
:1029B000F186028713872486358646865786EB8103
:1029C000FC81EF51F34F80819181A281B381E98134
:1029D000FA81808B918BA28BB38B80E090E0A0E892
:1029E000BFE380A391A3A2A3B3A38B819C81049690
:1029F0009C838B83A985BA85A05CBF4FBA87A987C2
:102A0000E05CFF4FFA83E9834C9709F03CCF2A96AC
:102A10000FB6F894DEBF0FBECDBFCF91DF911F91EF
:102A20000F91FF90EF90DF90CF90BF90AF909F906D
:102A30008F907F906F905F904F903F902F90089570
:102A40002F923F924F925F926F927F928F929F92BE
:102A5000AF92BF92CF92DF92EF92FF920F931F93AC
:102A6000DF93CF93CDB7DEB768970FB6F894DEBF8C
:102A70000FBECDBF0E94D713EDEFFEE080E090E0E7
:102A8000A0E0B0E080839183A283B38384839583A5
:102A9000A683B78380879187A287B387848795872A
:102AA000A687B78770962FE0ED33F20759F780E0DD
:102AB00090E0A0E8BFE38093FD0E9093FE0EA093FC
:102AC000FF0EB093000F8093110F9093120FA093FD
:102AD000130FB093140F8093250F9093260FA0939C
:102AE000270FB093280F8093390F90933A0FA0933C
:102AF0003B0FB0933C0F1E8A1D8ADCC0AB89BC899A
:102B00006D917D918D919D91BC8BAB8BF801208156
:102B10003181428153810E94783C9B01AC01C70105
:102B2000B6010E94B4396B017C010894A11CB11C50
:102B3000005F1F4FF4E0AF16B10401F7D2016D93AF
:102B40007D938D939D932D010894811C911CB4E07D
:102B50008B169104A1F0F201C080D180E280F38055
:102B60007C8A6B8A0F89188D080D191D000F111FA3
:102B7000000F111F015C104FAA24BB24BFCFF1012D
:102B8000A4E0EE0FFF1FAA95E1F7E350F14F898112
:102B90009A81AB81BC8180839183A283B3838D8131
:102BA0009E81AF81B885E989FA8980839183A28368
:102BB000B38389859A85AB85BC8584839583A683F9
:102BC000B7838D859E85AF85B88980879187A287D9
:102BD000B3870894211C311C7096FA8BE98BF4E0C2
:102BE0002F16310461F42D893E89E6E0220F331F50
:102BF000EA95E1F72350334FEDEFFEE025C080E08A
:102C000090E0A0E0B0E089839A83AB83BC838D839E
:102C10009E83AF83B88789879A87AB87BC878D8768
:102C20009E87AF87B88B2E010894411C511C8824C5
:102C30009924310174E0660C771C7A95E1F7ADEFC9
:102C4000BEE06A0E7B1E87CF408151816281738115
:102C5000D9014D935D936D937C9313974481558176
:102C60006681778114964D935D936D937C9317974E
:102C7000408551856285738518964D935D936D935C
:102C80007C931B9744855585668577851C964D9367
:102C90005D936D937C931F977096205F3F4FBFE0CD
:102CA000ED33FB0789F6ED89FE893196FE8BED8BBE
:102CB000389781F081E09FE09A8B898B222433241E
:102CC000AD89BE8964E0AA0FBB1F6A95E1F7B88F92
:102CD000AF8B95CF68960FB6F894DEBF0FBECDBF11
:102CE000CF91DF911F910F91FF90EF90DF90CF90E8
:102CF000BF90AF909F908F907F906F905F904F901C
:102D00003F902F900895EF92FF920F931F9380E0D2
:102D100090E00E9420158091090F90910A0FA091D8
:102D20000B0FB0910C0F8093F10B9093F20BA093CB
:102D3000F30BB093F40B8091190F90911A0FA0919F
:102D40001B0FB0911C0F8093F50B9093F60BA09383
:102D5000F70BB093F80B8091290F90912A0FA09157
:102D60002B0FB0912C0F8093F90B9093FA0BA0933B
:102D7000FB0BB093FC0B60910D0F70910E0F8091C7
:102D80000F0F9091100F2091FD0E3091FE0E40918B
:102D9000FF0E5091000F0E943E3A6093FD0B70931E
:102DA000FE0B8093FF0B9093000CE0901D0FF090B2
:102DB0001E0F00911F0F1091200FC801B701A8012D
:102DC00097010E94783C9B01AC0160E070E080E8D4
:102DD0009FE30E94B3390E94313D9B01AC0117FB78
:102DE000109517F91095C801B7010E943E3A6093FB
:102DF000010C7093020C8093030C9093040C60916F
:102E0000210F7091220F8091230F9091240F209118
:102E1000250F3091260F4091270F5091280F0E94C7
:102E20003E3A6093050C7093060C8093070C9093C8
:102E3000080C20917F1130918011409181115091A7
:102E400082112093090C30930A0C40930B0C509381
:102E50000C0C80917A0890917B08019709F069C069
:102E60008DB79EB74E970FB6F8949EBF0FBE8DBF1D
:102E7000EDB7FEB731968BE296E0ADB7BEB71296CE
:102E80009C938E9311978091F10B9091F20BA091EE
:102E9000F30BB091F40B82839383A483B583809169
:102EA000F50B9091F60BA091F70BB091F80B868380
:102EB0009783A087B1878091F90B9091FA0BA0912D
:102EC000FB0BB091FC0B82879387A487B587809119
:102ED000FD0B9091FE0BA091FF0BB091000C86872B
:102EE0009787A08BB18B8091010C9091020CA091DF
:102EF000030CB091040C828B938BA48BB58B8091C7
:102F0000050C9091060CA091070CB091080C868BD3
:102F1000978BA08FB18F228F338F448F558F0E9454
:102F20005D418DB79EB74E960FB6F8949EBF0FBE0B
:102F30008DBF1F910F91FF90EF9008952F923F92B8
:102F40004F925F926F927F928F929F92AF92BF92B9
:102F5000CF92DF92EF92FF920F931F93DF93CF9365
:102F6000CDB7DEB7C25ED1400FB6F894DEBF0FBE5C
:102F7000CDBFA0E0B0E060E070E020E030E040E0F5
:102F800050E011E1212E312C2C0E3D1EF1E64F2E8A
:102F9000512C4C0E5D1EE1EA6E2E712C6C0E7D1EC6
:102FA00091EE892E912C8C0E9D1E81E2E82E81E0FF
:102FB000F82EEC0EFD1EE1E0F0E0EC0FFD1FE60F39
:102FC000F71F2083318342835383F101E60FF71FFC
:102FD0002083318342835383CD0104E0880F991FFE
:102FE0000A95E1F75201A80EB91E6301C80ED91E59
:102FF0008401080F191FF701E80FF91FCF51DE4FA9
:10300000F983E883C15ED14080E090E0F50121932F
:103010003193419351935F01F60121933193419391
:1030200051936F01F80121933193419351938F0193
:10303000CF51DE4FE881F981C15ED14021933193B8
:1030400041935193CF51DE4FF983E883C15ED14064
:10305000019684309105D1F611966C5F7F4FA430B4
:10306000B10509F0A8CFE0904212F0904312009110
:10307000441210914512C801B7010E94953A3B01D4
:103080004C012090461230904712409048125090C8
:103090004912C201B1010E94953AC353DE4F6883C1
:1030A00079838A839B83CD5CD140C401B301C35330
:1030B000DE4F288139814A815B81CD5CD1400E94FD
:1030C000783CA5966CAF7DAF8EAF9FAFA597C8013A
:1030D000B7010E94273D5B016C01E0904A12F0901D
:1030E0004B1200914C1210914D12C801B7010E9471
:1030F000953AC753DE4F688379838A839B83C95C83
:10310000D140C201B1010E94273DCB53DE4F6883FD
:1031100079838A839B83C55CD140C401B301CB53BF
:10312000DE4F288139814A815B81C55CD1400E9494
:10313000783CCF52DE4F688379838A839B83C15D5D
:10314000D140C801B7010E94273D1B012C01C601D7
:10315000B5019058C753DE4F288139814A815B8180
:10316000C95CD1400E94783C7B018C01CF52DE4F7C
:10317000688179818A819B81C15DD140A2019101E1
:103180000E94783C9B01AC01C801B7010E94B43990
:10319000A9966CAF7DAF8EAF9FAFA997C601B50161
:1031A000A20191010E94783C7B018C01CF52DE4F3D
:1031B000688179818A819B81C15DD140C753DE4F8F
:1031C000288139814A815B81C95CD1400E94783C69
:1031D0009B01AC01C801B7010E94B439AD966CAF38
:1031E0007DAF8EAF9FAFAD97C601B501C353DE4F24
:1031F000288139814A815B81CD5CD1400E94783C35
:10320000E5966CAF7DAF8EAF9FAFE597C601B50178
:10321000CB53DE4F288139814A815B81C55CD14027
:103220000E94783C5B016C01C401B301C753DE4FBF
:10323000288139814A815B81C95CD1400E94783CF8
:103240007B018C01C601B501A20191010E94783C6D
:103250009B01AC01C801B7010E94B439E9966CAF7B
:103260007DAF8EAF9FAFE99797FA909497F89094BF
:10327000C401B301A20191010E94783C7B018C0141
:10328000C601B501C753DE4F288139814A815B8170
:10329000C95CD1400E94783C9B01AC01C801B701D8
:1032A0000E94B439ED966CAF7DAF8EAF9FAFED97B6
:1032B000CB53DE4F288139814A815B81C55CD14087
:1032C0005058CF57DF4F288339834A835B83C158D7
:1032D000D040C353DE4F688179818A819B81CD5C68
:1032E000D140A20191010E94783CCB57DF4F688307
:1032F00079838A839B83C558D040C353DE4F68814E
:1033000079818A819B81CD5CD140C753DE4F288172
:1033100039814A815B81C95CD1400E94783CC757A2
:10332000DF4F688379838A839B83C958D04080E0CC
:1033300090E0A0E8BFE3C356DF4F88839983AA8358
:10334000BB83CD59D04060904E1270904F12809048
:10335000501290905112C401B3012BED3FE049E4AB
:1033600050E40E946D3C181684F4C401B3012BEDA7
:103370003FE049EC50E40E94B33960934E127093E1
:103380004F12809350129093511260904E12709091
:103390004F128090501290905112C401B3012BED46
:1033A0003FE049E450EC0E94913A882384F4C40140
:1033B000B3012BED3FE049EC50E40E94B439609337
:1033C0004E1270934F12809350129093511280912D
:1033D000F90C9091FA0CA091FB0CB091FC0C898334
:1033E0009A83AB83BC8380E090E0A0E8BFE38D8745
:1033F0009E87AF87B88BDE01AF59BE4FFE01EF59F4
:10340000FF4F80E401900D928150E1F7DE01AF5B48
:10341000BF4FFE01319680E101900D928150E1F79E
:1034200011E5412E512C4C0E5D1E00E010E0B1E480
:10343000EB2EF12CEC0EFD1EA0E12A2E312C2E0CD1
:103440003F1C24C0D6016D917D918D919D916D01A0
:10345000F50121913191419151915F010E94783C98
:103460009B01AC01C401B3010E94B4393B014C0182
:10347000A214B30439F7D2016D937D938D939D937C
:103480002D010F5F1F4F04301105C1F06801F4E0FA
:10349000CC0CDD1CFA95E1F7E1E6F1E0EC0FFD1F45
:1034A000CE0EDF1E57010F2EF0E06F2EF0E07F2EC4
:1034B000F0E08F2EF0E09F2EF02DC4CFDE0191962C
:1034C000FE01EF5AFF4F80E101900D928150E1F72C
:1034D000DE011196FE01B19680E101900D928150BE
:1034E000E1F7609136127091371280913812909105
:1034F000391229813A814B815C810E94B339CB52C8
:10350000DE4F688379838A839B83C55DD140609158
:103510003A1270913B1280913C1290913D122D8194
:103520003E814F8158850E94B339C752DE4F688370
:1035300079838A839B83C95DD14060913E127091EB
:103540003F12809140129091411229853A854B8516
:103550005C850E94B339C352DE4F6883CD5DD14094
:10356000C252DE4F7883CE5DD140C152DE4F888398
:10357000CF5DD140C052DE4F9883C05ED140962EC1
:10358000872E782E692E862F982DA72DB62D809305
:103590003E1290933F12A0934012B0934112C75233
:1035A000DE4F688179818A819B81C95DD140CB5290
:1035B000DE4F288139814A815B81C55DD1400E94FF
:1035C0003E3ACF53DE4F688379838A839B83C15C05
:1035D000D1406093E2117093E3118093E4119093D2
:1035E000E5110E94953A20915B1130915C11409158
:1035F0005D1150915E110E94783C9B01AC01CB5251
:10360000DE4F688179818A819B81C55DD1400E94AE
:10361000B3395B016C01609336127093371280935B
:10362000381290933912CF53DE4F688179818A81A5
:103630009B81C15CD1400E94273D20915B1130915C
:103640005C1140915D1150915E110E94783C9B018C
:10365000AC01C752DE4F688179818A819B81C95D47
:10366000D1400E94B3397B018C0160933A12709370
:103670003B1280933C1290933D128091E10C90910B
:10368000E20CA091E30CB091E40CC354DE4F8883AC
:103690009983AA83BB83CD5BD140692D782D872D7B
:1036A000962DC354DE4F288139814A815B81CD5BE1
:1036B000D1400E94B3391B012C01C601B501A601FE
:1036C00095010E94783C3B014C01C801B701A8015B
:1036D00097010E94783C5B016C01C401B301A60113
:1036E00095010E94B4397B018C01C201B101A20194
:1036F00091010E94783C9B01AC01C801B7010E9476
:10370000B4390E94313DC355DE4F688379838A8383
:103710009B83CD5AD1408091E90C9091EA0CA09105
:10372000EB0CB091EC0CC754DE4F88839983AA83CD
:10373000BB83C95BD1408091F10C9091F20CA091B8
:10374000F30CB091F40CCB54DE4F88839983AA8399
:10375000BB83C55BD140C754DE4F688179818A81C4
:103760009B81C95BD140CB54DE4F288139814A818E
:103770005B81C55BD1400E94B4399B01AC01C3554C
:10378000DE4F688179818A819B81CD5AD1400E9428
:103790006D3C8823CCF040E050E09A012E513E4E23
:1037A000FA01E958FE4E80819181A281B381F9012D
:1037B00080839183A283B3834C5F5F4F4C3151056B
:1037C00061F780E090E007C6B301C4019501A6014E
:1037D0000E94B4390E94313D9B01AC01C201B1018C
:1037E0000E943E3A2B013C01C754DE4F688179812B
:1037F0008A819B81C95BD1409058C754DE4F288194
:1038000039814A815B81C95BD1400E94783C7B0150
:103810008C01CB54DE4F688179818A819B81C55BA5
:10382000D1409B01AC010E94783C9B01AC01C801D6
:10383000B7010E94B3397B018C01C355DE4F68810B
:1038400079818A819B81CD5AD1409B01AC010E9434
:10385000783C9B01AC01C801B7010E94B4397B01DF
:103860008C01C754DE4F688179818A819B81C95B55
:10387000D14020E030E040E050EC0E94783CCB5456
:10388000DE4F288139814A815B81C55BD1400E942E
:10389000783C9B01AC01C801B7010E94983A0E9494
:1038A000A5390E94273D9B01AC01CB54DE4F6881B6
:1038B00079818A819B81C55BD1400E94783CC35548
:1038C000DE4F288139814A815B81CD5AD1400E94E7
:1038D000983A0E94183AC755DE4F688379838A83E5
:1038E0009B83C95AD1400E94273D9B01AC0180E0D7
:1038F00090E0A0E0B0E0898B9A8BAB8BBC8BC75477
:10390000DE4F688179818A819B81C95BD1400E94A9
:10391000783C7B018C0117FB109517F91095A0904E
:103920004E12B0904F12C0905012D0905112C6015A
:10393000B5010E94953A9B01AC01C801B7010E94F4
:10394000783C6D8B7E8B8F8B988FC601B5010E9462
:10395000273D9B01AC01C801B7010E94783C698FEB
:103960007A8F8B8F9C8F80E090E0A0E8BFE38D8FF3
:103970009E8FAF8FB8A3CF53DE4F688179818A8144
:103980009B81C15CD1400E94953ACB55DE4F688344
:1039900079838A839B83C55AD140C301B2010E94B7
:1039A000953A4B015C01E1E2CE2EE1E0DE2ECC0E39
:1039B000DD1ECB55DE4F688179818A819B81C55A96
:1039C000D140A50194010E94783CD6016D937D936E
:1039D0008D939C931397CF53DE4F688179818A81B1
:1039E0009B81C15CD1400E94273DCF55DE4F68834B
:1039F00079838A839B83C15AD140A50194010E9497
:103A0000783CF601608B718B828B938BC301B20182
:103A10000E94273DCF54DE4F688379838A839B833E
:103A2000C15BD140D60190966D937D938D939C930D
:103A30009397CF55DE4F88819981AA81BB81C15A66
:103A4000D140B058F60184839583A683B783CB55C4
:103A5000DE4F88819981AA81BB81C55AD140848B70
:103A6000958BA68BB78B80E090E0A0E0B0E084A3BC
:103A700095A3A6A3B7A377FA709477F87094C301BF
:103A8000B2010E94273D7B018C01CB55DE4F68813E
:103A900079818A819B81C55AD140A80197010E94F2
:103AA000783CD60118966D937D938D939C931B97CC
:103AB000CF55DE4F688179818A819B81C15AD1407F
:103AC000A80197010E94783CF601608F718F828F68
:103AD000938FD60198968D929D92AD92BC929B97B2
:103AE000C755DE4F688179818A819B81C95AD1404F
:103AF0000E94953A9B01AC01C754DE4F68817981E1
:103B00008A819B81C95BD1400E94783C2B013C019A
:103B1000A50194010E94783C7B018C01CB55DE4FBE
:103B2000288139814A815B81C55AD1400E94783C05
:103B3000F6016487758786879787C801B701CF55D7
:103B4000DE4F288139814A815B81C15AD1400E9470
:103B5000783CD6015C966D937D938D939C935F9793
:103B6000C301B201CF54DE4F288139814A815B8184
:103B7000C15BD1400E94783CC354DE4F288139811B
:103B80004A815B81CD5BD1400E94B439F60164A7C4
:103B900075A786A797A780E090E0A0E8BFE384AF71
:103BA00095AFA6AFB7AFDE01AF59BE4F80E401902D
:103BB0000D928150E1F7DE01AF5ABF4FFE017196C1
:103BC00080E101900D928150E1F771E4472E512C74
:103BD0004C0E5D1E00E010E061E5E62EF12CEC0ECF
:103BE000FD1E50E1252E312C2E0C3F1C24C0D60189
:103BF0006D917D918D919D916D01F5012191319195
:103C0000419151915F010E94783C9B01AC01C4013C
:103C1000B3010E94B4393B014C01A214B30439F73B
:103C2000D2016D937D938D939D932D010F5F1F4F57
:103C300004301105C1F0680144E0CC0CDD1C4A954C
:103C4000E1F7E1E6F1E0EC0FFD1FCE0EDF1E5701BC
:103C50000F2EF0E06F2EF0E07F2EF0E08F2EF0E0E0
:103C60009F2EF02DC4CFDE01D196FE01EF5BFF4FFA
:103C700080E101900D928150E1F7DE015196FE0145
:103C8000F19680E101900D928150E1F76D887E8878
:103C90008F88988CA0905B11B0905C11C0905D11E2
:103CA000D0905E11E988FA880B891C89C601B5019C
:103CB000CF55DE4F288139814A815B81C15AD1407D
:103CC0000E94783C9B01AC01C401B3010E94B4394D
:103CD0001B012C01C601B501CB55DE4F288139816E
:103CE0004A815B81C55AD1400E94783C9B01AC015E
:103CF000C801B7010E94B4399B01AC01C201B101F6
:103D00000E943E3A6093E2117093E3118093E411B4
:103D10009093E511C801B701A80197010E94783C72
:103D20007B018C01C401B301A40193010E94783C82
:103D30009B01AC01C801B7010E94B4390E94313D1A
:103D40007B018C01698D7A8D8B8D9C8D2091E10C8E
:103D50003091E20C4091E30C5091E40C0E94B33995
:103D6000A80197010E943E3A6093E6117093E71113
:103D70008093E8119093E91180E090E0A0E0B0E03A
:103D80008093EA119093EB11A093EC11B093ED1195
:103D90008093EE119093EF11A093F011B093F11175
:103DA00081E090E00E9420158DB79EB7805490402E
:103DB0000FB6F8949EBF0FBE8DBFADB7BEB71196BC
:103DC000EDEBFDE080E401900D928150E1F7CE0132
:103DD0008F519F4F0E947107DE01AF59BE4FFE0108
:103DE000EF51FF4F80E401900D928150E1F780E0A8
:103DF00090E0A0E8BFE38D879E87AF87B88BC35262
:103E0000DE4F2881CD5DD140C252DE4F3881CE5D7C
:103E1000D140C152DE4F4881CF5DD140C052DE4F0C
:103E20005881C05ED140C901DA0189879A87AB8782
:103E3000BC87C752DE4F88819981AA81BB81C95D49
:103E4000D1408D839E83AF83B887CB52DE4F88816C
:103E50009981AA81BB81C55DD14089839A83AB8357
:103E6000BC83DE01AF5BBF4FFE01319680E1019064
:103E70000D928150E1F731E5432E512C4C0E5D1E21
:103E800000E010E0ADB7BEB7A05CBF4F0FB6F8942E
:103E9000BEBF0FBEADBF21E4E22EF12CEC0EFD1E25
:103EA00090E1292E312C2E0C3F1C24C0F60161918B
:103EB0007191819191916F01D5012D913D914D911C
:103EC0005D915D010E94783C9B01AC01C401B3018E
:103ED0000E94B4393B014C01A214B30439F7F2013A
:103EE00061937193819391932F010F5F1F4F043062
:103EF0001105C1F0680184E0CC0CDD1C8A95E1F766
:103F000081E691E08C0F9D1FC80ED91E57010F2E20
:103F1000F0E06F2EF0E07F2EF0E08F2EF0E09F2E8D
:103F2000F02DC4CFFE01EF5AFF4F6084718482846C
:103F30009384E080F18002811381A480B580C680E3
:103F4000D780C601B501A80197010E943E3A60934F
:103F5000EA117093EB118093EC119093ED11C8016D
:103F6000B701A80197010E94783C7B018C01C60132
:103F7000B501A60195010E94783C9B01AC01C801E6
:103F8000B7010E94B4390E94313D9B01AC01C401CC
:103F9000B3010E943E3A9B01AC016BED7FE089ECDE
:103FA0009FE30E94B3396093EE117093EF118093F9
:103FB000F0119093F11181E090E00E942015ADB7CF
:103FC000BEB7A054B0400FB6F894BEBF0FBEADBF91
:103FD0001196EDEBFDE080E401900D928150E1F748
:103FE000CE018F519F4F0E947107EDB7FEB7E05C85
:103FF000FF4F0FB6F894FEBF0FBEEDBF8DB79EB753
:10400000805890400FB6F8949EBF0FBE8DBF2DB75D
:104010003EB72F5F3F4FD901FE01EF51FF4F80E4C4
:1040200001900D928150E1F7D901A05CBF4FFE01D4
:10403000EF59FF4F80E401900D928150E1F7CE01DE
:104040008F559F4F0E94E8048E010F551F4FD801D6
:104050008D909D90AD90BC90EDB7FEB7E058FF4FAE
:104060000FB6F894FEBF0FBEEDBFC501B40127E146
:1040700037EB41ED58E30E94913A882364F5C5017E
:10408000B40127E137EB41ED58EB0E946D3C181667
:1040900014F580E090E0A0E0B0E08093F2119093FE
:1040A000F311A093F411B093F5118093F61190934E
:1040B000F711A093F811B093F911D80154966D91AE
:1040C0007D918D919C91579758962D913D914D9151
:1040D0005C915B9743C011EAC12ED12CCC0EDD1E42
:1040E000F601E0A0F1A002A113A1C801B701A80147
:1040F00097010E94783C9B01AC0160E070E080E891
:104100009FE30E94B3390E94313DA80197010E94AC
:104110003E3A6093F6117093F7118093F8119093E3
:10412000F911D60150966D917D918D919C91539787
:10413000A50194010E943E3A6093F2117093F3112D
:104140008093F4119093F511F60160A571A582A5F5
:1041500093A524A135A146A157A150580E943E3AEB
:104160006093FA117093FB118093FC119093FD11F1
:104170006090F2117090F3118090F4119090F5110D
:10418000C401B3012AE939E949E150E40E946D3CD8
:1041900018160CF04CC0C401B3012BED3FE049E40C
:1041A00050E40E94B3396093F2117093F31180933D
:1041B000F4119093F5118091F6119091F711A0915F
:1041C000F811B091F911B0588093F6119093F7114E
:1041D000A093F811B093F9116090FA117090FB114F
:1041E0008090FC119090FD11C401B30120E030E0FB
:1041F00040E050E00E946D3C18164CF4C401B3013D
:104200002BED3FE049E450E40E94B33908C0C401FB
:10421000B3012BED3FE049E450E40E94B4396093D0
:10422000FA117093FB118093FC119093FD11609033
:10423000F2117090F3118090F4119090F511C40177
:10424000B3012AE939E949E150EC0E94913A882307
:104250000CF04CC0C401B3012BED3FE049E450E445
:104260000E94B4396093F2117093F3118093F411AA
:104270009093F5118091F6119091F711A091F8119A
:10428000B091F911B0588093F6119093F711A09363
:10429000F811B093F9116090FA117090FB118090B1
:1042A000FC119090FD11C401B30120E030E040E02A
:1042B00050E00E946D3C18164CF4C401B3012BED84
:1042C0003FE049E450E40E94B33908C0C401B3019F
:1042D0002BED3FE049E450E40E94B4396093FA11B9
:1042E0007093FB118093FC119093FD1181E090E09D
:1042F0000E9420158DB79EB74E970FB6F8949EBFBB
:104300000FBE8DBFEDB7FEB7319686E496E0ADB730
:10431000BEB712969C938E9311978091E211909163
:10432000E311A091E411B091E51182839383A483FA
:10433000B5838091E6119091E711A091E811B091B9
:10434000E91186839783A087B1878091EA119091C4
:10435000EB11A091EC11B091ED1182879387A487A6
:10436000B5878091EE119091EF11A091F011B0916D
:10437000F11186879787A08BB18B8091F211909174
:10438000F311A091F411B091F511828B938BA48B52
:10439000B58B8091F6119091F711A091F811B09121
:1043A000F911868B978BA08FB18F8091FA11909124
:1043B000FB11A091FC11B091FD11828F938FA48FFE
:1043C000B58F0E945D41EDB7FEB77E960FB6F894AB
:1043D000FEBF0FBEEDBFCE51DE4F0FB6F894DEBF6D
:1043E0000FBECDBFCF91DF911F910F91FF90EF9046
:1043F000DF90CF90BF90AF909F908F907F906F9005
:104400005F904F903F902F9008950E949E178DB718
:104410009EB74E970FB6F8949EBF0FBE8DBFEDB7F7
:10442000FEB7319685E696E0ADB7BEB712969C937F
:104430008E9311978091E2119091E311A091E41174
:10444000B091E51182839383A483B5838091E611B3
:104450009091E711A091E811B091E91186839783BB
:10446000A087B1878091EA119091EB11A091EC1196
:10447000B091ED1182879387A487B5878091EE1163
:104480009091EF11A091F011B091F111868797876B
:10449000A08BB18B8091F2119091F311A091F41146
:1044A000B091F511828B938BA48BB58B8091F61113
:1044B0009091F711A091F811B091F911868B978B1B
:1044C000A08FB18F8091FA119091FB11A091FC11F6
:1044D000B091FD11828F938FA48FB58F0E945D41A3
:1044E0008DB79EB74E960FB6F8949EBF0FBE8DBF88
:1044F000089581E090E00E94FD31019739F182E05A
:1045000090E00E94FD31019709F184E090E00E9463
:10451000FD310197D9F088E090E00E94FD310197CC
:10452000A9F080E190E00E94FD31019779F080E2EE
:1045300090E00E94FD31019749F080E490E00E94F4
:10454000FD31019719F021E030E006C088B190E11B
:10455000892788B920E030E0C9010895CF93DF931F
:104560000E94D13381E090E00E94FD31019719F45F
:10457000C2E0D0E002C0C1E0D0E084E090E00E9460
:10458000FD31019729F4CE01880F991FC80FD91F5B
:1045900080E290E00E94FD31019739F4CE01880F4E
:1045A000991F880F991FC80FD91FCE01DF91CF9196
:1045B00008952F923F924F925F926F927F928F92C7
:1045C0009F92AF92BF92CF92DF92EF92FF920F93A2
:1045D0001F9380E090E00E94AE222C018AE090E0E0
:1045E0000E94AE221C0181E090E00E94AE223C01BC
:1045F00082E090E00E94AE224C0183E090E00E94B5
:10460000AE225C0184E090E00E94AE226C0185E065
:1046100090E00E94AE227C0186E090E00E94AE22F3
:104620008C0187E090E00E94AE222DB73EB7245166
:1046300030400FB6F8943EBF0FBE2DBFEDB7FEB7AA
:10464000319620E836E0ADB7BEB712963C932E9374
:104650001197538242827582648297828682B186E4
:10466000A086D386C286F586E48617870687918B57
:10467000808B338A228A0E945D412DB73EB72C5E23
:104680003F4F0FB6F8943EBF0FBE2DBF1F910F9145
:10469000FF90EF90DF90CF90BF90AF909F908F9062
:1046A0007F906F905F904F903F902F9008950E9461
:1046B000D1330E94EA3190933E0F80933D0F0197D2
:1046C00019F020E030E003C00E9479229C01C9016A
:1046D00008956F927F928F929F92AF92BF92CF92E6
:1046E000DF92EF92FF920F931F9380E090E00E9481
:1046F00057233C0181E090E00E9457234C0182E067
:1047000090E00E9457235C0183E090E00E945723D1
:104710006C0184E090E00E9457237C0185E090E0EA
:104720000E9457238C0186E090E00E9457232DB70A
:104730003EB7205130400FB6F8943EBF0FBE2DBF9C
:10474000EDB7FEB7319620EA36E0ADB7BEB71296A8
:104750003C932E9311977382628295828482B782F2
:10476000A682D186C086F386E2861587048797875E
:1047700086870E945D412DB73EB7205F3F4F0FB641
:10478000F8943EBF0FBE2DBF1F910F91FF90EF9089
:10479000DF90CF90BF90AF909F908F907F906F9061
:1047A00008956AE270E00E94B633AA2797FDA095AB
:1047B000BA2FBC01CD010E94333B20E030E040E243
:1047C00051E40E94983A08952F923F924F925F923F
:1047D0006F927F928F929F92AF92BF92CF92DF9211
:1047E000EF92FF920F931F9387E090E00E94D123F6
:1047F0001B012C0100D000D08BEB96E0EDB7FEB78B
:104800009283818323823482458256820E945D4155
:1048100024EF31E08DB79EB706960FB6F8949EBF91
:104820000FBE8DBF40E951E0CA010197F1F7215059
:104830003040D1F780E090E00E94D1233B014C0151
:1048400000D000D08BEC96E0EDB7FEB79283818369
:1048500063827482858296820E945D4110920C0B65
:1048600010920B0B61E070E070930E0B60930D0BD8
:1048700082E090E09093100B80930F0B83E090E028
:104880009093120B8093110B84E090E09093140BA3
:104890008093130B85E090E09093160B8093150B9B
:1048A00086E090E09093180B8093170B87E090E0E0
:1048B00090931A0B8093190B81E190E090931C0B5D
:1048C00080931B0B80E090E0A2EAB2E48093A90BF6
:1048D0009093AA0BA093AB0BB093AC0B80E090E04D
:1048E000A0E0B0E08093AD0B9093AE0BA093AF0B24
:1048F000B093B00B20E030E044EB52E42093B10BD6
:104900003093B20B4093B30B5093B40B80E090E024
:10491000A2EEB2E48093B50B9093B60BA093B70BC5
:10492000B093B80B2093B90B3093BA0B4093BB0BE9
:104930005093BC0B2093BD0B3093BE0B4093BF0B29
:104940005093C00B2093C10B3093C20B4093C30B09
:104950005093C40B80E090E0A0EFB2E48093C50BCD
:104960009093C60BA093C70BB093C80B80E090E068
:10497000AEE6B3E48093C90B9093CA0BA093CB0B24
:10498000B093CC0B70939411609393111092961185
:1049900010929511109298111092971170939A118C
:1049A0006093991110929C1110929B1170939E111B
:1049B00060939D111092A01110929F111092A2115C
:1049C0001092A1117093A4116093A31120E030EF15
:1049D0004FE755E420934D0C30934E0C40934F0C11
:1049E0005093500C2093510C3093520C4093530C25
:1049F0005093540C80E090ECAFE7B4E48093550CF6
:104A00009093560CA093570CB093580C2093590CCC
:104A100030935A0C40935B0C50935C0C80935D0C6C
:104A200090935E0CA0935F0CB093600C8093610C2C
:104A30009093620CA093630CB093640C8093650C0C
:104A40009093660CA093670CB093680C8093690CEC
:104A500090936A0CA0936B0CB0936C0C80936D0CCC
:104A600090936E0CA0936F0CB093700C85E89BEE46
:104A7000AAE7B3E48093CD0B9093CE0BA093CF0B1A
:104A8000B093D00B8093D10B9093D20BA093D30B08
:104A9000B093D40B20E030E046E953E42093D50BEB
:104AA0003093D60B4093D70B5093D80B83E393EFFF
:104AB000A3EBB3E48093D90B9093DA0BA093DB0BB9
:104AC000B093DC0B2093DD0B3093DE0B4093DF0BB8
:104AD0005093E00B2093E10B3093E20B4093E30BF8
:104AE0005093E40B2093E50B3093E60B4093E70BD8
:104AF0005093E80B2093E90B3093EA0B4093EB0BB8
:104B00005093EC0B2093ED0B3093EE0B4093EF0B97
:104B10005093F00BC401B30120E335E44EEB50E4B5
:104B20000E94783C20E030E040E850E40E94B33935
:104B30007B018C01C401B30129E838E848E850E45E
:104B40000E94783C2DEC3CEC4CEC5EE30E94B439C6
:104B50005B016C01C401B30122E93BE149EB5FE376
:104B60000E94783C2AE333E24FE251E40E94B439D8
:104B70003B014C01C201B10120E030E040EC5FE3B9
:104B80000E94783C20E030E040EC5FE30E94B439C2
:104B90001B012C01C701D8018093290C90932A0C8A
:104BA000A0932B0CB0932C0C80932D0C90932E0C77
:104BB000A0932F0CB093300CC301D4018093310C1F
:104BC0009093320CA093330CB093340CC701D801EE
:104BD0008093350C9093360CA093370CB093380C1F
:104BE000C501D6018093390C90933A0CA0933B0CED
:104BF000B0933C0C80933D0C90933E0CA0933F0CE3
:104C0000B093400CC301D4018093410C9093420CAB
:104C1000A093430CB093440CC101D2018093450C86
:104C20009093460CA093470CB093480C8093490C8A
:104C300090934A0CA0934B0CB0934C0C8BED96E0E8
:104C4000EDB7FEB792838183C701D8018383948334
:104C5000A583B6830E945D418EEE96E0EDB7FEB768
:104C600092838183C501D60183839483A583B68310
:104C70000E945D4180E097E0EDB7FEB792838183AB
:104C8000C301D40183839483A583B6830E945D41CD
:104C900082E197E0EDB7FEB792838183C101D20133
:104CA00083839483A583B6830E945D418DB79EB7AD
:104CB00006960FB6F8949EBF0FBE8DBF1F910F9141
:104CC000FF90EF90DF90CF90BF90AF909F908F902C
:104CD0007F906F905F904F903F902F900895CF926C
:104CE000DF92EF92FF920F931F93CF93DF93182FD2
:104CF000092F8EEF90E00E94EF3183E890E00E9450
:104D0000F23180E090E060E270E00E94F53181E0F5
:104D100090E062E070E00E94F531212F302FC90150
:104D20006C01EE24FF24C2E0D0E0CE01B7010E9466
:104D3000F531F60141915191619171916F01C70176
:104D40000E94C0028C010894E11CF11C0E941732E1
:104D5000BC01CE0101960E94F531C8010E941B32B0
:104D6000BC01CE0102960E94F5312396F7E0EF16C2
:104D7000F104D9F689E190E00E94FA310E9454339F
:104D80008091760890917708019771F40E94EA313A
:104D900090933E0F80933D0F8130910519F40E944E
:104DA000792202C00E94DB0ADF91CF911F910F91FF
:104DB000FF90EF90DF90CF900895CF92DF92EF9227
:104DC000FF920F931F93CF93DF93182F092F8EEF2E
:104DD00090E00E94EF3183E890E00E94F23180E0A1
:104DE00090E06EE170E00E94F53181E090E062E0D9
:104DF00070E00E94F531212F302FC9016C01EE24A3
:104E0000FF24C2E0D0E0CE01B7010E94F531F601E7
:104E100041915191619171916F01C7010E94E3012C
:104E20008C010894E11CF11C0E941732BC01CE01D8
:104E300001960E94F531C8010E941B32BC01CE01CF
:104E400002960E94F5312396F7E0EF16F104D9F6A9
:104E500089E190E00E94FA310E9454330E94EA31C5
:104E600090933E0F80933D0F8130910519F40E947D
:104E7000792202C00E94DB0ADF91CF911F910F912E
:104E8000FF90EF90DF90CF9008956F927F928F9276
:104E90009F92AF92BF92CF92DF92EF92FF920F93C9
:104EA0001F93FC015B014A01390180E090E068E159
:104EB00070E0AF010E949F3381E090E068E170E014
:104EC000A5010E949F3382E090E068E170E0A401B8
:104ED0000E949F3383E090E068E170E0A3010E94AC
:104EE0009F3384E090E068E170E0A8010E949F3366
:104EF00085E090E068E170E0A7010E949F3386E0C2
:104F000090E068E170E0A6010E949F3381E090E0AC
:104F10001F910F91FF90EF90DF90CF90BF90AF90D7
:104F20009F908F907F906F9008950F931F93CF93D2
:104F3000DF938C01C0E0D0E0CE0168E170E0A80111
:104F40000E949F332196C730D105B1F7DF91CF91F1
:104F50001F910F910895AB0168E170E00E949F33AB
:104F60000895CF92DF92EF92FF920F931F93CF930A
:104F7000DF93EC0168E270E00E9480336C0192FDE7
:104F800003C021E030E002C02FEF3FEFCC0FDD1F68
:104F9000CD56DE4E88819981019719F4309521957F
:104FA0003F4FB901882777FD8095982F0E94333BAA
:104FB0007B018C018FEF93E0C822D922B6018827AC
:104FC00077FD8095982F0E94333B20E030E048EC3D
:104FD00052E40E94783C20E030EC4FE754E40E9419
:104FE000983A9B01AC01C801B7010E94783CDF915F
:104FF000CF911F910F91FF90EF90DF90CF90089588
:105000006F927F928F929F92AF92BF92CF92DF92D8
:10501000EF92FF920F931F938C015C01AA0CBB1CB3
:10502000F501E55FF44F8081918164E270E00E94B8
:105030008033000F111F000F111FF801E353F44FCD
:10504000C080D180E280F380AA2797FDA095BA2F77
:10505000BC01CD010E94333BA70196010E94783C20
:10506000F801E35BF34F20813181428153810E943B
:10507000983A3B014C010755144FC701B60120E097
:1050800030E044E353E40E94B33920E030E040E0F4
:105090005FE30E94783CF801208131814281538195
:1050A0000E94B4399B01AC0183E991E1A80EB91EBD
:1050B000F50180819181019719F0C401B30104C009
:1050C000CA01B901A40193010E94B33925E33AEF63
:1050D0004EE85CE30E94783C1F910F91FF90EF90A7
:1050E000DF90CF90BF90AF909F908F907F906F9008
:1050F0000895AF92BF92CF92DF92EF92FF920F93FB
:105100001F9387E090E00E9400285B016C0120E083
:1051100030E040E050E00E94913A882324F4D7FA2E
:10512000D094D7F8D09480E49CE90197F1F788E017
:1051300090E00E9400287B018C0120E030E040E0FC
:1051400050E00E94913A882324F417FB109517F938
:105150001095C601B5012AE939E949E15EE30E94EB
:10516000913A87FD03C021E030E011C0DD24C80181
:10517000B7012AE939E949E15EE30E94913A8823BF
:1051800014F4DD24D39481E0D8262D2D30E0C9011C
:105190001F910F91FF90EF90DF90CF90BF90AF9055
:1051A000089580918C0890918D08019690938D08B8
:1051B00080938C0884369105D4F010928508109263
:1051C00084080E94792890938B0880938A0800D0E5
:1051D0000F9224E237E0EDB7FEB732832183948348
:1051E00083830E945D410F900F900F900F90089560
:1051F0000F931F93CF93DF9307E711E1C0E0D0E057
:10520000CE010E940028F8016193719381939193DC
:105210008F012196C730D10599F7DF91CF911F916A
:105220000F9108952F923F924F925F926F927F92CB
:105230008F929F92AF92BF92CF92DF92EF92FF92A6
:105240000F931F93DF93CF93CDB7DEB760970FB661
:10525000F894DEBF0FBECDBF3B014C0119012A01FE
:1052600060E070E080EA91E40E94FB0F0E94F82861
:105270006AA97BA98CA99DA920E030E040E05FE30A
:105280000E94913A88230CF4E6C1809182089091A3
:1052900083088130910509F048C0609236127092FF
:1052A0003712809238129092391220923A1230922C
:1052B0003B1240923C1250923D12E0923E12F0920C
:1052C0003F120093401210934112A0924212B092EA
:1052D0004312C0924412D09245128EA19FA1A8A55C
:1052E000B9A58093461290934712A0934812B093A9
:1052F00049128AA59BA5ACA5BDA580934A1290939F
:105300004B12A0934C12B0934D128EA59FA5A8A945
:10531000B9A980934E1290934F12A0935012B0935C
:1053200051120E949E172C014CC0029719F0442480
:10533000552447C06092E2117092E3118092E4110B
:105340009092E5112092E6113092E7114092E81117
:105350005092E911E092EA11F092EB110093EC11F6
:105360001093ED11A092EE11B092EF11C092F011D6
:10537000D092F1118EA19FA1A8A5B9A58093F21199
:105380009093F311A093F411B093F5118AA59BA506
:10539000ACA5BDA58093F6119093F711A093F811D9
:1053A000B093F9118EA59FA5A8A9B9A98093FA1168
:1053B0009093FB11A093FC11B093FD11E1E04E2EF0
:1053C000512C10928108109280088AA99BA9ACA93F
:1053D000BDA980937C0890937D08A0937E08B0932C
:1053E0007F08ADB7BEB75E970FB6F894BEBF0FBECD
:1053F000ADBFEDB7FEB731968CE297E012969C9365
:105400008E9311978091771190917811A0917911D5
:10541000B0917A1182839383A483B58380917B11A9
:1054200090917C11A0917D11B0917E11868397831C
:10543000A087B18780917F1190918011A0918111F7
:10544000B091821182879387A487B5878091831159
:1054500090918411A0918511B091861186879787CC
:10546000A08BB18B8091871190918811A0918911A7
:10547000B0918A11828B938BA48BB58B80918B1109
:1054800090918C11A0918D11B0918E11868B978B7C
:10549000A08FB18F80918F1190919011A091911157
:1054A000B0919211828F938FA48FB58F0E945D412E
:1054B000EDB7FEB731968DE597E0ADB7BEB7129662
:1054C0009C938E9311978091E2119091E311A0919A
:1054D000E411B091E51182839383A483B583809115
:1054E000E6119091E711A091E811B091E91186833E
:1054F0009783A087B1878091EA119091EB11A091D9
:10550000EC11B091ED1182879387A487B5878091C4
:10551000EE119091EF11A091F011B091F1118687E9
:105520009787A08BB18B8091F2119091F311A0918C
:10553000F411B091F511828B938BA48BB58B809174
:10554000F6119091F711A091F811B091F911868B95
:10555000978BA08FB18F8091FA119091FB11A09140
:10556000FC11B091FD11828F938FA48FB58F0E9493
:105570005D41EE24FF2400E010E08DB79EB74E960B
:105580000FB6F8949EBF0FBE8DBFC7010E940028C2
:10559000F801E958FE4E6083718382839383F8019A
:1055A000E35EF44F60837183828393830894E11CEC
:1055B000F11C0C5F1F4F97E0E916F10431F76624E8
:1055C0007724882499241E010894211C311C53013E
:1055D00074E0AA0CBB1C7A95E1F7A9E3BBE0AA0E24
:1055E000BB1EF401E35EF44F4081518162817381FF
:1055F000F401EE51FE4E0081118122813381C09071
:105600007C08D0907D08E0907E08F0907F08C10172
:105610000E941712D501F10180E101900D92815095
:10562000E1F70894611C711C84E090E0880E991EDB
:1056300097E06916710459F6452849F081E090E039
:10564000909379088093780821E030E006C01092AA
:1056500079081092780820E030E0C90160960FB612
:10566000F894DEBF0FBECDBFCF91DF911F910F9198
:10567000FF90EF90DF90CF90BF90AF909F908F9072
:105680007F906F905F904F903F902F9008952F9252
:105690003F924F925F926F927F928F929F92AF92C2
:1056A000BF92CF92DF92EF92FF920F931F93DF93FF
:1056B000CF93CDB7DEB72C970FB6F894DEBF0FBEF1
:1056C000CDBF8091100990911109892B09F4F8C37D
:1056D00010921109109210090E94860B892B09F46F
:1056E000EFC38091A51190E0FC01E354F040E73353
:1056F000F10508F0E5C3EA59FF4FEE0FFF1F0590D3
:10570000F491E02D199410928D0810928C086091FC
:10571000A6117091A7118091A8119091A9110E94D2
:105720008510D1C30E94792890938B0880938A08B2
:1057300000D00F922EE837E0ADB7BEB712963C937B
:105740002E93119714969C938E93139721C1EDB7C6
:10575000FEB738970FB6F894FEBF0FBEEDBF0DB77A
:105760001EB70F5F1F4F84E997E09283818380917A
:10577000A6119091A711A091A811B091A911F801BB
:1057800082839383A483B5836091AA117091AB1136
:105790008091AC119091AD110E94003BD8011796F9
:1057A0007C936E9316970E945D41EDB7FEB73896D5
:1057B0000FB6F894FEBF0FBEEDBF6091A6117091B9
:1057C000A7118091A8119091A9110E94003B7B0123
:1057D0008C016091AA117091AB118091AC119091E4
:1057E000AD110E94003B9B01AC01C7016EE170E06E
:1057F000A9010E94653367C36091A6117091A7113A
:105800008091A8119091A9110E94003BDC01CB016D
:105810004091AA115091AB116091AC117091AD11F2
:105820000E945B0F50C380916708909168080197B0
:1058300009F079C08091650890916608019709F098
:1058400072C00E94F8282DB73EB72E5130400FB6D7
:10585000F8943EBF0FBE2DBFEDB7FEB7319681EA7B
:1058600097E0ADB7BEB712969C938E931197809137
:10587000771190917811A0917911B0917A1182836A
:105880009383A483B58380917B1190917C11A09127
:105890007D11B0917E1186839783A087B187809117
:1058A0007F1190918011A0918111B0918211828716
:1058B0009387A487B5878091831190918411A091DB
:1058C0008511B091861186879787A08BB18B8091C7
:1058D000871190918811A0918911B0918A11828BC2
:1058E000938BA48BB58B80918B1190918C11A0918F
:1058F0008D11B0918E11868B978BA08FB18F809177
:105900008F1190919011A0919111B0919211828F6D
:10591000938FA48FB58F0E945D4121E030E0EDB7F9
:10592000FEB77E9677C00F920F928CEB97E0C6C1C0
:10593000E090A611F090A7110091A8111091A91163
:10594000C801B70120E030E040E85FE30E94913AEF
:10595000882339F481E090E090937B0880937A0863
:10596000B2C2C801B7010E94003B70937B086093EC
:105970007A0800D00F92EDB7FEB7319621EC37E0F0
:10598000ADB7BEB712963C932E9311977383628383
:105990000E945D4121E030E00F900F900F900F903A
:1059A00094C20E9430118FC26091A6117091A7110C
:1059B0008091A8119091A9110E94003BDC01CB01BC
:1059C0000E940028EDB7FEB73A970FB6F894FEBFD5
:1059D0000FBEEDBF319627EC37E0ADB7BEB71296DC
:1059E0003C932E9311972091A6113091A7114091CD
:1059F000A8115091A9112283338344835583668370
:105A00007783808791870E945D4121E030E0EDB788
:105A1000FEB73A960FB6F894FEBF0FBEEDBF55C263
:105A20006091A6117091A7118091A8119091A91170
:105A300020E030E040E85FE30E94913A882359F487
:105A400081E090E090936608809365080F920F9232
:105A500081ED97E033C110926608109265080F92AD
:105A60000F9286ED97E021C26091A6117091A71167
:105A70008091A8119091A9110E94CD100F920F92C0
:105A80008BED97E01BC181E090E0909383088093B9
:105A90008208EDB7FEB770970FB6F894FEBF0FBE41
:105AA000EDBF31966091A6117091A7118091A81158
:105AB0009091A9112091AA113091AB114091AC1194
:105AC0005091AD11E090AE11F090AF110091B01176
:105AD0001091B111A090B211B090B311C090B41157
