:100000000C947F010C94A0010C94A0010C94A0010D
:100010000C94A0010C94A0010C94A0010C94A001DC
:100020000C94A0010C94A0010C94A0010C94A001CC
:100030000C94A0010C94A0010C94A0010C94A001BC
:100040000C94A0010C94A0010C94A0010C94A001AC
:100050000C94A0010C94A0010C94A0010C94A0019C
:100060000C94A0010C9469340C94A0010C94A00190
:100070000C94A0010C94A0010C94A0010C94A0017C
:100080000C94A0010C94A0010C94A0010C94A0016C
:100090000C94BE080C94A0010C94A0010C94A00137
:1000A0000C94A0010C94A0010C94A0010C94A0014C
:1000B0000C94A0010C94A0010C94A0010C94A0013C
:1000C0000C94A0010C94A0010C94A001632C0730A7
:1000D000073007307D2D0730B92D073007302E2E21
:1000E00007300730073007300730E72E292F073059
:1000F0000730073007300730073007300730073048
:10010000073007300730073007300730782C872C4E
:100110000730DC2CF32CB62DE72D0730EA2D073005
:1001200007300730522E612E662E0730122F2C2FEB
:100130000730562F0730F72F7F2F036EDB363D9A9F
:100140009999993DABAAAA2A3E000000803F084A2F
:10015000D73B3BCE016E84BCBFFDC12F3D6C7431DB
:100160009ABD56833DDA3D00C77F11BED9E4BB4C32
:100170003E916BAAAABE000000803F072C7AA5BA68
:100180006CC590DA3B9365FC8BBC53F810FD3C5674
:1001900092834DBD879D3AB63DCBC9BF5BBE73DA36
:1001A0000FC93F05A84CCDB2D44EB93836A9020CC0
:1001B00050B9918688083CA6AAAA2ABE00000080F1
:1001C0003F6E616E00696E6600494E46494E495465
:1001D000594E414ECDCCCC3D0AD7233C17B7D13830
:1001E00077CC2B329595E6241FB14F0A00002041B1
:1001F0000000C84200401C4620BCBE4CCA1B0E5A20
:10020000AEC59D7400407A10F35A00A0724E1809D2
:100210000010A5D4E80000E87648170000E40B546D
:10022000020000CA9A3B000000E1F505000080963C
:100230009800000040420F000000A086010000006E
:10024000102700000000E803000000006400000028
:1002500000000A00000000000100000000002C76F1
:10026000D888DC674F0823DFC1DFAE59E1B1B7960C
:10027000E5E3E453C63AE651997696E8E6C2842669
:10028000EB898C9B62ED407C6FFCEFBC9C9F40F245
:10029000BAA56FA5F490055A2AF75C936B6CF967C1
:1002A0006DC11BFCE0E40D47FEF520E6B500D0ED86
:1002B000902E0300943577050080841E08000020EE
:1002C0004E0A000000C80C333333330F986E12838C
:1002D0001141EF8D2114893BE65516CFFEE6DB1860
:1002E000D1844B381BF77C1D901DA4BBE424203225
:1002F00084725E228100C9F124ECA1E53D2711241E
:100300001FBECFEFD1E2DEBFCDBF00E00CBF18E0D3
:10031000A0E0B2E0E4E4F1E800E00BBF02C0079027
:100320000D92A237B107D9F711E1A2E7B8E001C0F9
:100330001D92A03FB107E1F70E9423300C94473D86
:100340000C9400002F923F924F925F926F927F9297
:100350008F929F92AF92BF92CF92DF92EF92FF92D5
:100360000F931F931A012B01FC01EE0FFF1FE55E97
:10037000FE4E0190F081E02DE130F10509F060C002
:10038000DC01AA0FBB1FAA0FBB1FFD01EB5AF44FE4
:10039000A080B180C280D380FD01EB52F44F608019
:1003A000718082809380AF5CB44FC601B5012D91FE
:1003B0003D914D915C910E9451387B018C01C601A9
:1003C000B50120E030E044E353E40E94513820E0DE
:1003D00030E040E05FEB0E94163B9B01AC01C8019E
:1003E000B7010E9452387B018C01C201B1012CEC93
:1003F0003EE245E652E40E94163B9B01AC01C80177
:10040000B7010E9452387B018C01C401B301A601DF
:1004100095010E9436399B01AC01C801B7010E94C9
:10042000163B0E949E39882777FD8095982F0E9461
:10043000D1399B01AC01C401B3010E9451384BC0BA
:10044000EF2B09F04BC06C01CC0CDD1CCC0CDD1C7F
:10045000F601EB5AF44F80809180A280B380CB01EB
:10046000BA012CEC3EE245E652E40E94163BF6014E
:10047000EF5CF44F20813181428153810E945238D8
:100480007B018C01C501B40120E030E044E353E47A
:100490000E94513820E030E040E05FE30E94163BCC
:1004A0009B01AC01C801B7010E9452387B018C014D
:1004B00085ED9BE0C80ED91EF601608171818281B5
:1004C0009381A50194010E9436399B01AC01C801BA
:1004D000B7010E94163B0E949E39CB011F910F91DC
:1004E000FF90EF90DF90CF90BF90AF909F908F9054
:1004F0007F906F905F904F903F902F90089580E491
:100500009CE9FC013197F1F7FC013197F1F7FC010F
:100510003197F1F70197F1F70895DF92EF92FF928B
:100520000F931F93CF93DF937A018B01FC01EE0FA2
:10053000FF1FE55EFE4E80819181019779F4C0E056
:10054000D0E0CB01BA0120E030E040E050E00E9472
:100550002F391816A4F0C1E0D0E011C0DD24CB0182
:10056000BA0120E030E040E050E00E942F39181638
:1005700014F0DD24D39481E0D826CD2DD0E0C8013D
:10058000B7010E949E399B0177FF03C030952195EA
:100590003F4FB901882777FD8095982F0E94D13968
:1005A00024E13EEA43E251E40E94163B0E949E3958
:1005B000CB0177FF02C080E090E09C0184E0203016
:1005C000380714F02FEF33E0219711F420503C4FFF
:1005D000C901DF91CF911F910F91FF90EF90DF90B4
:1005E0000895CF93DF93C9EFDBE020E030E080E0B7
:1005F00090E0A0E0B0E0F901E659FE4E80839183DF
:10060000A283B383F901E150FF4E80839183A283DB
:10061000B383F901EB5EF44F80839183A283B383AC
:10062000F901E254FE4E80839183A283B383F901E2
:10063000E758F44F80839183A283B383F901EB568B
:10064000F44F80839183A283B383F901EA57FE4E6E
:1006500080839183A283B38388839983AA83BB8396
:100660008C839D83AE83BF8388879987AA87BB8746
:100670008C879D87AE87BF872C5F3F4F60962C315C
:10068000310509F0B8CFDF91CF910895EF92FF9235
:100690000F931F937B018C0120E030E040E050E09D
:1006A0000E942F39882324F417FB109517F9109511
:1006B000B701C8011F910F91FF90EF9008952F92FD
:1006C0003F924F925F926F927F928F929F92AF92E2
:1006D000BF92CF92DF92EF92FF920F931F93DF931F
:1006E000CF93CDB7DEB7A0970FB6F894DEBF0FBE9D
:1006F000CDBFA98ABA8ACB8ADC8AED8AFE8A0F8BA3
:10070000188F298F3A8F4B8F5C8F6D8F7E8F8F8FD5
:1007100098A33E010894611C711C2301882499242C
:10072000E6E72E2E312C2C0E3D1E80E190E0280EA7
:10073000391E26C0F60161917191819191916F01ED
:10074000F50121913191419151915F010E94163B38
:100750009B01AC01C801B7010E9452387B018C019A
:10076000A214B30439F7F2016193719381939193C9
:100770002F010894811C911CF4E08F169104E1F084
:10078000640174E0CC0CDD1C7A95E1F786E390E01F
:100790008C0F9D1FC80ED91E66E7A62EB12CAC0E7D
:1007A000BD1E0F2EF0E0EF2EF0E0FF2EF0E00F2F39
:1007B000F0E01F2FF02DBECF51E1C52ED12CCC0E75
:1007C000DD1E0F2EF0E0EF2EF0E0FF2EF0E00F2FF9
:1007D000F0E01F2FF02D41E2A42EB12CAC0EBD1E77
:1007E000F60161917191819191916F01F3012191D4
:1007F0003191419151913F010E94163B9B01AC0107
:10080000C801B7010E9452387B018C01CA14DB0475
:1008100039F7C801A0960FB6F894DEBF0FBECDBF62
:10082000CF91DF911F910F91FF90EF90DF90CF90CC
:10083000BF90AF909F908F907F906F905F904F9000
:100840003F902F9008952F923F924F925F926F9218
:100850007F928F929F92AF92BF92CF92DF92EF9250
:10086000FF920F931F93DF93CF93CDB7DEB76297BD
:100870000FB6F894DEBF0FBECDBF898B9A8B3E01B9
:100880000894611C711C88249924B8E62B2E312C05
:100890002C0E3D1EA0E14A2E512C420C531C26C0AA
:1008A000F60161917191819191916F01F501219111
:1008B0003191419151915F010E94163B9B01AC0126
:1008C000C801B7010E9452387B018C01A414B50401
:1008D00039F7F30161937193819391933F010894E8
:1008E000811C911CF4E08F169104C1F06401F4E0C6
:1008F000CC0CDD1CFA95E1F788E290E08C0F9D1F8F
:10090000C80ED91E51010F2EF0E0EF2EF0E0FF2EA1
:10091000F0E00F2FF0E01F2FF02DC2CF89899A89C8
:100920009C01D901FE01319680E101900D92815028
:10093000E1F789899A8962960FB6F894DEBF0FBEF7
:10094000CDBFCF91DF911F910F91FF90EF90DF907E
:10095000CF90BF90AF909F908F907F906F905F905F
:100960004F903F902F9008952F923F924F925F9219
:100970006F927F928F929F92AF92BF92CF92DF92AF
:10098000EF92FF920F931F93DF93CF93CDB7DEB714
:10099000C655D0400FB6F894DEBF0FBECDBF6696E9
:1009A0008FAF669767969FAF6797FE0171969E011E
:1009B0002F5F3F4F0F2EF0E0EF2EF0E0FF2EF0E024
:1009C0000F2FF0E01F2FF02DAF01D901ED92FD9216
:1009D0000D931D939D01E082F18202831383E482D3
:1009E000F58206831783E086F18602871387E48603
:1009F000F586068717877096A417B50731F7FE01AD
:100A000075966396FFAFEEAF63972224332486C0BA
:100A10006596AEADBFAD65976D917D918D919D91C0
:100A20006596BFAFAEAF6597F601208131814281F7
:100A300053810E94163B9B01AC01C801B7010E9483
:100A400052387B018C010894A11CB11C80E190E01C
:100A5000C80ED91E94E0A916B104D1F6D201ED92C8
:100A6000FD920D931D932D010894811C911CB4E0FF
:100A70008B169104B9F0F201E080F18002811381BC
:100A800065967FAE6EAE65976401CC0CDD1CCC0C18
:100A9000DD1C8CEA90E08C0F9D1FC80ED91EAA2485
:100AA000BB24B6CFF10104E0EE0FFF1F0A95E1F77A
:100AB000A1E0B0E0AC0FBD1FEA0FFB1F89819A8156
:100AC000AB81BC81808B918BA28BB38B8D819E81FE
:100AD000AF81B8856396EEADFFAD63978083918358
:100AE000A283B38389859A85AB85BC8584839583EE
:100AF000A683B7838D859E85AF85B88980879187CA
:100B0000A287B3870894211C311C70966396FFAFAF
:100B1000EEAF6397F4E02F16310439F180E090E0F6
:100B2000A0E0B0E089839A83AB83BC838D839E83EE
:100B3000AF83B88789879A87AB87BC878D879E8765
:100B4000AF87B88B2E010894411C511C882499242E
:100B5000310114E0660C771C1A95E1F7ACE6B0E0C1
:100B6000AC0FBD1F6A0E7B1E86CF66968FAD669753
:100B700067969FAD67979C01D901FE01719680E44D
:100B800001900D928150E1F766968FAD669767965A
:100B90009FAD6797CA5ADF4F0FB6F894DEBF0FBEFE
:100BA000CDBFCF91DF911F910F91FF90EF90DF901C
:100BB000CF90BF90AF909F908F907F906F905F90FD
:100BC0004F903F902F900895EF92FF920F931F93B5
:100BD000CF93DF9300E010E060E070E020E030E0D1
:100BE00040E050E0FB01ED51FF4E20833183428312
:100BF0005383FB01E759F34F2083318342835383AF
:100C0000FB01EE55FE4E2083318342835383FB016B
:100C1000E953FF4E2083318342835383FB01E25B20
:100C2000FE4E2083318342835383E0E0F0E078017D
:100C3000EE0CFF1CEE0CFF1C10C029933993499356
:100C400059932D933D934D935D9301968430910577
:100C5000A1F73196E430F10589F0CF018E0D9F1D8B
:100C6000A4E0880F991FAA95E1F7EC01C953D14F71
:100C7000DC01AB57B34F80E090E0DFCF0F5F1F4F39
:100C80006C5F7F4F0730110509F0ACCFE5E8FEE05F
:100C900027E830E165E47EE080E090E0A0E0B0E0AD
:100CA00080839183A283B383E90188839983AA8394
:100CB000BB83EB0188839983AA83BB838483958359
:100CC000A683B783E9018C839D83AE83BF83EB0149
:100CD0008C839D83AE83BF8380879187A287B387F0
:100CE000E90188879987AA87BB87EB01888799875D
:100CF000AA87BB8784879587A687B787E9018C87F2
:100D00009D87AE87BF87EB018C879D87AE87BF87A6
:100D10007096205F3F4F605F7F4F4EE0E53CF407E9
:100D200009F0BECF8093690C90936A0CA0936B0C72
:100D3000B0936C0C8BE996EEADE9BEE38093710C39
:100D40009093720CA093730CB093740C80ED93EBA2
:100D5000A9E5BEE38093790C90937A0CA0937B0C69
:100D6000B0937C0C84EA90E7ADE3BEE38093810C02
:100D70009093820CA093830CB093840C82E29DEF3D
:100D8000A6E7BDE38093E3109093E410A093E510F1
:100D9000B093E6108BED9FE0A9ECBFE38093A21126
:100DA0009093A311A093A411B093A5118093A611C1
:100DB0009093A711A093A811B093A9112BED3FE038
:100DC00049EC5FEB2093AA113093AB114093AC1127
:100DD0005093AD118093AE119093AF11A093B011C9
:100DE000B093B1112093B2113093B3114093B41169
:100DF0005093B5118093B6119093B711A093B81189
:100E0000B093B9118093CB109093CC10A093CD10D8
:100E1000B093CE102093CF103093D0104093D110C8
:100E20005093D21080E090E0A0E8BFE38093A71039
:100E30009093A810A093A910B093AA1080938B1040
:100E400090938C10A0938D10B0938E1080939F1070
:100E50009093A010A093A110B093A2108093C31000
:100E60009093C410A093C510B093C610DF91CF919A
:100E70001F910F91FF90EF9008952F923F924F9204
:100E80005F926F927F928F929F92AF92BF92CF921A
:100E9000DF92EF92FF920F931F93DF93CF93CDB723
:100EA000DEB7C654D0400FB6F894DEBF0FBECDBF3C
:100EB00026968FAF269727969FAF2797AE01445A65
:100EC0005F4F6E010894C11CD11CFA019601BE014E
:100ED00064567F4F80809180A280B380D9018D922B
:100EE0009D92AD92BC92139784809580A680B78026
:100EF00014968D929D92AD92BC92179780849184A6
:100F0000A284B38418968D929D92AD92BC921B9749
:100F100084849584A684B7841C968D929D92AD920C
:100F2000BC921F977096205F3F4FE617F70791F628
:100F3000F6019E0128593F4FDA018D909D90AD90AA
:100F4000BC90139780829182A282B38250968D903A
:100F50009D90AD90BC90539784829582A682B78273
:100F600090968D909D90AD90BC9093978086918641
:100F7000A286B3864C5F5F4F709642175307E1F627
:100F8000AC968CAD9DADAEADBFADAC9725968CAF9C
:100F90009DAFAEAFBFAF2597EC964CAC5DAC6EACE1
:100FA0007FACEC97C857DF4F88809980AA80BB80C0
:100FB000C858D04011E3212E312C2C0E3D1E259611
:100FC0006CAD7DAD8EAD9FAD2597D6012D913D9138
:100FD0004D915C910E94163B20E030E040E050E0F3
:100FE0000E9452387B018C01C301B201F6012481B9
:100FF0003581468157810E94163B9B01AC01C80197
:10100000B7010E9452387B018C01C501B401D601A1
:1010100018962D913D914D915C911B970E94163B26
:101020009B01AC01C801B7010E9452389058F601EB
:10103000648775878687978780E190E0C80ED91E00
:10104000C214D30409F0BBCF26968FAD26972796FE
:101050009FAD27979C01D901FE01319680E4019054
:101060000D928150E1F726968FAD269727969FAD7A
:101070002797CA5BDF4F0FB6F894DEBF0FBECDBF18
:10108000CF91DF911F910F91FF90EF90DF90CF9064
:10109000BF90AF909F908F907F906F905F904F9098
:1010A0003F902F9008952F923F924F925F926F92B0
:1010B0007F928F929F92AF92BF92CF92DF92EF92E8
:1010C000FF920F931F931C014A015B01C901B801F4
:1010D000A50194010E9451384B015C01A7019601C2
:1010E0000E9436392B013C01C501B401A5019401D0
:1010F0000E945238A70196010E9436399B01AC012B
:10110000C301B2010E94523820E030E040E05FE3CA
:101110000E94163B4B015C01C701B60120E030E0A4
:1011200040E450E40E9436399B01AC01F101C486D1
:10113000D586E686F7866087718782879387C501A3
:10114000B4010E943639F1016483758386839783E5
:1011500080829182A282B382C1011F910F91FF9080
:10116000EF90DF90CF90BF90AF909F908F907F9047
:101170006F905F904F903F902F9008951F920F9225
:101180000FB60F920BB60F9211248F939F93AF93CC
:10119000BF93EF93FF9390911409A92FB0E0809132
:1011A000CE00FD01E657F74F80838081813618F02D
:1011B00080818B37F0F0FD01E657F74F8081803357
:1011C00018F080818A33A8F0FD01E657F74F80813F
:1011D0008D3279F08081803261F08081893049F0F0
:1011E00080818E3231F08081813450F080818B3566
:1011F00038F4892F8F5F8093140987FF17C014C0BC
:10120000FD01E657F74F80818D3019F080818A30DB
:1012100069F4A657B74F1C92992341F081E090E002
:1012200090930D0980930C0910921409FF91EF918E
:10123000BF91AF919F918F910F900BBE0F900FBEFA
:101240000F901F9018959C01815690404A9738F056
:1012500040E050E0215430402A31310510F441E0A3
:1012600050E0CA0108958F929F92AF92BF92CF92A1
:10127000DF92EF92FF920F931F93DF93CF93CDB73F
:10128000DEB780932D1140932E1150932F11609350
:101290003011709331110093321110933311209358
:1012A000341130933511C0923611D0923711E0923B
:1012B0003811F092391180923A1190923B11A0921C
:1012C0003C11B0923D1188899989AA89BB89809384
:1012D0003E1190933F11A0934011B09341118C891E
:1012E0009D89AE89BF898093421190934311A09349
:1012F0004411B0934511888D998DAA8DBB8D809333
:10130000461190934711A0934811B09349118C8DC9
:101310009D8DAE8DBF8D80934A1190934B11A093FC
:101320004C11B0934D11CF91DF911F910F91FF9010
:10133000EF90DF90CF90BF90AF909F908F900895E7
:1013400020E030E0C0970A9710F421E030E0C901B6
:101350000895AC0120E030E00CC08091C80085FF0A
:10136000FCCFFA01E20FF31F80818093CE002F5F44
:101370003F4F261737078CF3089590910A09809103
:101380000B09981719F420E030E017C090910A0972
:1013900080910B09981738F480910B0990910A09F4
:1013A000282F30E008C080910B0990910A09282F5E
:1013B00030E020583F4F291B3109C90108951F9380
:1013C000182F0E94BD098F37910591F0E0910B090C
:1013D000F0E0E657F74F108380910B098F3719F42F
:1013E00010920B0905C080910B098F5F80930B0948
:1013F0001F91089590910A0980910B09981711F493
:10140000EFEF12C0E0910A09F0E0E657F74FE081F4
:1014100080910A098F3719F410920A0905C080914A
:101420000A098F5F80930A098E2F0895EF92FF9229
:101430000F931F93CF93DF937C01EB0190910A09E7
:1014400080910B09981711F480E015C00E94BD0926
:101450008C01C817D9070CF48E01C0E0D0E007C09A
:101460000E94FA09F701EC0FFD1F80832196C01737
:10147000D107B4F3802FDF91CF911F910F91FF908F
:10148000EF900895DF93CF930F920F92CDB7DEB711
:10149000282FAE014F5F5F4F8A3039F48DE089838A
:1014A0002A83CA0162E070E004C08983CA0161E056
:1014B00070E00E94A90980E090E00F900F90CF911A
:1014C000DF9108950E94BD09892BE1F30E94FA097A
:1014D0008D3009F48AE090E008958091620890913F
:1014E0006308892B21F088B18F7388B901C0469AAF
:1014F0008091640890916508892B21F088B18F75DF
:1015000088B901C0459A8091760890917708892B17
:1015100021F088B18F7688B901C0449A8091120970
:10152000909113098958934144F088B192E089273A
:1015300088B91092130910921209809112099091A2
:10154000130901969093130980931209089584302A
:101550009105B9F08530910534F48230910561F040
:10156000039741F513C086309105D1F0863091057F
:1015700094F00797F9F419C00F920F9280E092E06F
:101580001DC00F920F9285E092E018C00F920F924B
:101590008AE092E013C00F920F928FE092E00EC0AB
:1015A0000F920F9284E192E009C00F920F9289E1AD
:1015B00092E004C00F920F928EE192E0EDB7FEB779
:1015C000928381830E94D03E0F900F900895EF92F6
:1015D000FF921F93CF93DF93EC017B018881E82F6B
:1015E000F0E0E657F74F8081803239F08081893012
:1015F00009F04BC002C04F5F48834881E42FF0E000
:10160000E657F74F80818032B1F38081893099F3BA
:1016100080818D3229F0808190E0C0970A97A8F5EB
:101620004F5F4883415020E030E009C0E657F74F54
:1016300080818E3211F42F5F3F4F5F5F5883588156
:10164000E52FF0E0DF01A657B74F8C9190E0C097EF
:101650000A9760F323C022303105BCF41C911C9220
:10166000842F90E08657974F60E070E00E94D93B4E
:10167000F7016083718382839383E881F0E0E6570A
:10168000F74F108321E030E002C020E030E0C901D4
:10169000DF91CF911F91FF90EF9008958C918E3242
:1016A00029F2D9CF2F923F924F925F926F927F9201
:1016B0008F929F92AF92BF92CF92DF92EF92FF9262
:1016C0000F931F93DF93CF93CDB7DEB7E1970FB69C
:1016D000F894DEBF0FBECDBF80918A088837C1F075
:1016E00080918A088736A1F080918A08833781F03B
:1016F00080918A08883661F080918A08893641F0A5
:1017000080918A08833521F080918A08863731F5E7
:1017100041E0E42FF0E0E657F74F8081282F30E0DA
:10172000C901815690404A9730F0215430402A3107
:10173000310508F048C34F5FECCF80918A08809351
:101740002D1180E090E0A0E0B0E080932E11909306
:101750002F11A0933011B093311179C080E090E047
:10176000A0E0B0E08A839B83AC83BD838E839F839C
:10177000A887B9878A879B87AC87BD878E879F8715
:10178000A88BB98B8A8B9B8BAC8BBD8B8E8B9F8BE5
:10179000A88FB98F8A8F9B8FAC8FBD8F8E8F9F8FB5
:1017A000A8A3B9A380918A088B3601F180918A0899
:1017B0008334E1F080918A088C34C1F080918A08EA
:1017C0008235A1F080918A08873481F080918A085F
:1017D000843761F080918A088F3641F080918A08C1
:1017E000833621F080918A088934D1F541E0E42FD5
:1017F000F0E0E657F74F8081282F30E0C90181568D
:1018000090404A9730F0215430402A31310508F099
:10181000DFC24F5FECCFE981F0E0E657F74F808100
:10182000882309F0B4C220918A088A819B81AC8107
:10183000BD8120932D1180932E1190932F11A09391
:101840003011B093311180E090E0A0E0B0E08093DF
:10185000321190933311A0933411B09335114FC0CE
:1018600080918A08863629F080918A08843609F0AA
:101870004FC041E0E42FF0E0E657F74F8081282F7A
:1018800030E0C901815690404A9730F021543040F1
:101890002A31310508F0A8C24F5FECCFC801BE0164
:1018A0006A5F7F4F0E94E70A892B09F470C2E981C1
:1018B000F0E0E657F74F8081882309F068C2609115
:1018C0008A088A819B81AC81BD812E813F814885B8
:1018D000598560932D1180932E1190932F11A09311
:1018E0003011B09331112093321130933311409362
:1018F00034115093351180E090E0A0E0B0E0809387
:10190000361190933711A0933811B093391167C0F5
:1019100080918A088E3609F083C041E0E42FF0E020
:10192000E657F74F8081282F30E0C901815690405B
:101930004A9730F0215430402A31310508F061C215
:101940004F5FECCFC801BE016A5F7F4F0E94E70A7C
:10195000892B09F41CC2C801BE01665F7F4F0E943B
:10196000E70A892B41F480E090E0A0E0B0E08A87AC
:101970009B87AC87BD87E981F0E0E657F74F808110
:10198000882309F004C260918A088A819B81AC8116
:10199000BD812E813F8148855985EA84FB840C8571
:1019A0001D8560932D1180932E1190932F11A0937C
:1019B0003011B09331112093321130933311409391
:1019C000341150933511E0923611F0923711009393
:1019D00038111093391180E090E0A0E0B0E08093DE
:1019E0003A1190933B11A0933C11B0933D11809319
:1019F0003E1190933F11A0934011B09341118093F9
:101A0000421190934311A0934411B09345118093D8
:101A1000461190934711A0934811B0934911CBC040
:101A200080918A08883709F0D1C041E0E42FF0E0C6
:101A3000E657F74F8081282F30E0C901815690404A
:101A40004A9730F0215430402A31310508F0E7C17F
:101A50004F5FECCFC801BE016A5F7F4F0E94E70A6B
:101A6000892B09F494C1C801BE01665F7F4F0E94B3
:101A7000E70A892B09F48BC1C801BE01625F7F4F61
:101A80000E94E70A892B09F482C1C801BE016E5E7B
:101A90007F4F0E94E70A892B09F479C1C801BE0172
:101AA0006A5E7F4F0E94E70A892B09F470C1C80162
:101AB000BE01665E7F4F0E94E70A892B41F480E0F9
:101AC00090E0A0E0B0E08A8F9B8FAC8FBD8FE98162
:101AD000F0E0E657F74F8081882309F058C1609104
:101AE0008A088A819B81AC81BD818EA79FA7A8AB04
:101AF000B9AB2E813F8148855985EA84FB840C85EA
:101B00001D85AE84BF84C888D9886A887B888C8804
:101B10009D882E883F88488C598C8A8D9B8DAC8DF2
:101B2000BD8D8AA79BA7ACA7BDA760932D118EA5DD
:101B30009FA5A8A9B9A980932E1190932F11A093C6
:101B40003011B093311120933211309333114093FF
:101B5000341150933511E0923611F0923711009301
:101B6000381110933911A0923A11B0923B11C092E2
:101B70003C11D0923D1160923E1170923F118092C3
:101B800040119092411120924211309243114092A3
:101B90004411509245118AA59BA5ACA5BDA5809383
:101BA000461190934711A0934811B093491180E0DA
:101BB00090E0A0E0B0E080934A1190934B11A09385
:101BC0004C11B0934D1121E030E0E3C080918A08C0
:101BD000803729F080918A08813709F0D8C041E028
:101BE000E42FF0E0E657F74F8081282F30E0C9015D
:101BF000815690404A9730F0215430402A313105C7
:101C000008F01BC14F5FECCFC801BE016A5F7F4F78
:101C10000E94E70A892B09F4BAC0C801BE01665FB9
:101C20007F4F0E94E70A892B09F4B1C0C801BE01A9
:101C3000625F7F4F0E94E70A892B09F4A8C0C801A0
:101C4000BE016E5E7F4F0E94E70A892B09F49FC098
:101C5000C801BE016A5E7F4F0E94E70A892B09F422
:101C600096C0C801BE01665E7F4F0E94E70A892BBD
:101C700009F48DC0C801BE01625E7F4F0E94E70A71
:101C8000892B41F480E090E0A0E0B0E08E8F9F8F40
:101C9000A8A3B9A3E981F0E0E657F74F8081882334
:101CA00009F075C060918A088A819B81AC81BD81F1
:101CB0008EA79FA7A8ABB9AB2E813F8148855985D8
:101CC000EA84FB840C851D85AE84BF84C888D988CE
:101CD0006A887B888C889D882E883F88488C598CA0
:101CE0008A8D9B8DAC8DBD8D8AA39BA3ACA3BDA318
:101CF0008E8D9F8DA8A1B9A18EA39FA3A8A7B9A7D8
:101D000060932D118EA59FA5A8A9B9A980932E1126
:101D100090932F11A0933011B09331112093321171
:101D2000309333114093341150933511E0923611B2
:101D3000F09237110093381110933911A0923A1193
:101D4000B0923B11C0923C11D0923D1160923E1175
:101D500070923F1180924011909241112092421155
:101D60003092431140924411509245118AA19BA197
:101D7000ACA1BDA18093461190934711A093481147
:101D8000B09349118EA19FA1A8A5B9A514CF20E0B9
:101D900030E0C901E1960FB6F894DEBF0FBECDBFAB
:101DA000CF91DF911F910F91FF90EF90DF90CF9037
:101DB000BF90AF909F908F907F906F905F904F906B
:101DC0003F902F90089580918B08882301F7B5CC20
:101DD0004983CE010196BE016E5F7F4F0E94E70AE4
:101DE000892B09F018CDD3CF49838E010F5F1F4F88
:101DF000C801BE016E5F7F4F0E94E70A892B39F24E
:101E00004DCD49838E010F5F1F4FC801BE016E5F2C
:101E10007F4F0E94E70A892B09F4B9CF93CD4983FC
:101E20008E010F5F1F4FC801BE016E5F7F4F0E9482
:101E3000E70A892B09F4ABCF0DCE49838E010F5FE2
:101E40001F4FC801BE016E5F7F4F0E94E70A892BBA
:101E500009F49DCFD9CEAF92BF92DF92EF92FF925D
:101E60000F931F93CF93DF935C017A018B01FC01E9
:101E7000EE0FFF1FE55EFE4E80819181019779F4A0
:101E8000C0E0D0E0CB01BA0120E030E040E050E01B
:101E90000E942F391816A4F0C1E0D0E011C0DD2453
:101EA000CB01BA0120E030E040E050E00E942F3941
:101EB000181614F0DD24D39481E0D826CD2DD0E07F
:101EC000C801B7010E949E399B0177FF03C030957E
:101ED00021953F4FB901882777FD8095982F0E9463
:101EE000D1397B018C01F501EE0FFF1FEE0FFF1FB3
:101EF000EF54F44F60E070EC8FE794E4208131817F
:101F0000428153810E9436399B01AC01C801B7015F
:101F10000E94163B0E949E39AB0177FF02C040E051
:101F200050E084E04030580714F04FEF53E0219721
:101F300011F440505C4FC50160E270E00E94033232
:101F4000DF91CF911F910F91FF90EF90DF90BF90A5
:101F5000AF900895CF93DF93EC01CB01BA0124E158
:101F60003EEA43E251E40E94163B0E949E39AB01D7
:101F70001616170614F041E050E084E04030580790
:101F800014F04FEF53E0CE0160E270E00E940332A4
:101F9000DF91CF910895CF92DF92EF92FF920F934E
:101FA0001F93CF93DF937B018C01C0E0D0E020E44E
:101FB000C22E2CE9D22ECE01B801A7010E94AA0F91
:101FC000C6010197F1F72196C730D105A1F7DF913E
:101FD000CF911F910F91FF90EF90DF90CF900895D8
:101FE000EF92FF920F931F93CF93DF937C018B01AE
:101FF000EC01CC0FDD1FCD5FD44F8881998140E08B
:1020000050E060E070E00E94AA0F0130110579F401
:102010008881998166E070E040E050E00E940332E0
:102020008881998168E070E040E050E021C0012B98
:1020300009F58881998166E070E041E050E00E94F6
:10204000033208811981EE0CFF1CEE0CFF1C85ED9C
:102050009BE0E80EF91EF701608171818281938116
:102060000E949E399B01AC01C80168E070E0A901A3
:102070000E940332DF91CF911F910F91FF90EF905B
:1020800008950F931F93CF93DF938C01C0E0D0E0AE
:10209000CE01B8010E94F00F2196C730D105C1F7DB
:1020A000DF91CF911F910F910895EF92FF920F93BF
:1020B0001F937B018C0187E090E061E070E00E945B
:1020C000F00F87E090E0B801A7010E948D02AC01FB
:1020D00087E090E060E270E00E94033280E49CE9D7
:1020E0000197F1F788E090E061E070E00E94F00F66
:1020F00088E090E0B801A7010E948D02AC0181E167
:1021000090E060E270E00E940332E0928408F09276
:102110008508009386081093870881E090E09093EB
:102120008308809382081F910F91FF90EF9008958C
:10213000EF92FF920F931F937B018C0187E090E059
:1021400060E070E00E94F00F87E090E040E050E037
:1021500060EA71E40E94AA0FC801B7012DEC3CECC3
:102160004CE85FE30E94163B20E030E048EC52E48C
:102170000E9436397B018C0187E090E0A701B8010D
:102180000E94A201AC0187E090E06EE170E00E9445
:10219000033280E49CE90197F1F788E090E060E089
:1021A00070E00E94F00F81E190E040E050E060EAD2
:1021B00071E40E94AA0F88E090E0A701B8010E9494
:1021C000A201AC0181E190E06EE170E00E94033277
:1021D0001F910F91FF90EF900895CF92DF92EF92B1
:1021E000FF920F931F93CF93DF93EC0168E270E0AF
:1021F0000E941E326C0192FD03C021E030E002C05B
:102200002FEF3FEFCC0FDD1FC55EDE4E8881998139
:10221000019719F4309521953F4FB901882777FD33
:102220008095982F0E94D1397B018C018FEF93E02C
:10223000C822D922B601882777FD8095982F0E9461
:10224000D13920E030E048EC52E40E94163B20E017
:1022500030EC4FE754E40E9436399B01AC01C801D1
:10226000B7010E94163BDF91CF911F910F91FF9014
:10227000EF90DF90CF9008956F927F928F929F9210
:10228000AF92BF92CF92DF92EF92FF920F931F9384
:10229000CF93DF937C018C01000F111FF801ED5FDC
:1022A000F44F8081918164E270E00E941E32055EED
:1022B0001E4EF80120813181E701CC0FDD1FCC0FCC
:1022C000DD1F3C01882477FC8094982C2130310557
:1022D000A9F5FE01EB5AF44FE080F18002811381F1
:1022E00061E3C62E6BE0D62ECC0EDD1EC801B70111
:1022F00020E030E044E353E40E94513820E030E035
:1023000040E05FE30E94163BF6012081318142816B
:1023100053810E9452385B016C01C401B3010E94D9
:10232000D139A80197010E94163BCB52D44F288186
:1023300039814A815B810E94363930C0FE01EB5AF7
:10234000F44FE080F18002811381C401B3010E9447
:10235000D139A80197010E94163BFE01EB52F44FC0
:1023600020813181428153810E9436395B016C01A9
:10237000CF5CD44FC801B70120E030E044E353E420
:102380000E94513820E030E040E05FE30E94163BBD
:10239000288139814A815B810E9452389B01AC01BE
:1023A000C601B5010E94513825E33AEF4EE85CE3DF
:1023B0000E94163BDF91CF911F910F91FF90EF90FC
:1023C000DF90CF90BF90AF909F908F907F906F9055
:1023D0000895AF92BF92CF92DF92EF92FF920F9348
:1023E0001F9387E090E00E943C115B016C0120E0AC
:1023F00030E040E050E00E942F39882324F4D7FADF
:10240000D094D7F8D09480E49CE90197F1F788E064
:1024100090E00E943C117B018C0120E030E040E024
:1024200050E00E942F39882324F417FB109517F9E8
:102430001095C601B5012DEC3CEC4CEC5DE30E941F
:1024400051382AE939E949E15EE30E942F3987FDD5
:1024500003C021E030E011C0DD24C801B7012AE942
:1024600039E949E15EE30E942F39882314F4DD2421
:10247000D39481E0D8262D2D30E0C9011F910F9112
:10248000FF90EF90DF90CF90BF90AF900895809134
:10249000880890918908019690938908809388080C
:1024A00084369105D4F010928308109282080E941D
:1024B000E911909375088093740800D00F9223E27D
:1024C00032E0EDB7FEB732832183948383830E9489
:1024D000D03E0F900F900F900F9008950F931F9381
:1024E000CF93DF930FEF10E1C0E0D0E0CE010E9468
:1024F0003C11F80161937193819391938F0121961F
:10250000C730D10599F7DF91CF911F910F910895B1
:10251000EF92FF920F931F93DF93CF93CDB7DEB768
:102520006C970FB6F894DEBF0FBECDBF7E01089446
:10253000E11CF11C00E010E0C8010E943C11F70111
:1025400061937193819391937F010F5F1F4F0730C8
:10255000110591F7CE0101966C960FB6F894DEBF87
:102560000FBECDBFCF91DF911F910F91FF90EF90E4
:1025700008958BE292E00E94E23E85E692E00E949E
:10258000E23E82E792E00E94E23E81EC92E00E940D
:10259000E23E81E093E00E94E23E86E493E00E9406
:1025A000E23E87E893E00E94E23E81ED93E00E94E4
:1025B000E23E86E094E00E94E23E87E894E00E94DA
:1025C000E23E8CED94E00E94E23E80E195E00E94C4
:1025D000E23E80E495E00E94E23E8DE595E00E94B7
:1025E000E23E8CE995E00E94E23E82EE95E00E9498
:1025F000E23E08950E94D1399B01AC0160E074E293
:1026000084EF99E40E9436390E94A33961507040EA
:1026100022E42093C80028E92093C90026E02093F3
:10262000CA002FEF2093CE0010920A0910920B09D6
:10263000272F332727FD3A952093CD006093CC00B8
:102640007298739A82E49AE062E67AE00E94583EB9
:10265000909316098093150908952F923F924F92F7
:102660005F926F927F928F929F92AF92BF92CF9222
:10267000DF92EF92FF920F931F93DF93CF93CDB72B
:10268000DEB72C970FB6F894DEBF0FBECDBF5B014F
:102690006C0129873A874B875C872AA83BA84CA8FE
:1026A0005DA88AA19BA1ACA1BDA18D839E83AF83B0
:1026B000B8878EA19FA1A8A5B9A589839A83AB836A
:1026C000BC83EAA4FBA40CA51DA56EA47FA488A8C6
:1026D00099A8C201B101A80197010E942F391816CB
:1026E000DCF0C201B101A20191010E94163B7B0105
:1026F0008C0169817A818B819C8120E030E040E00F
:102700005FE30E94163BA80197010E94163B9B01C4
:10271000AC01C601B50196C0C201B101A801970183
:102720000E940B3B18160CF03FC0C401B301A80176
:1027300097010E9451389B01AC01C201B1010E9476
:102740002F3918168CF169857A858B859C85A601B1
:1027500095010E9451387B018C016D817E818F81B2
:102760009885A40193010E94163B9B01AC01C8010E
:10277000B7010E94513820E030E040E05FE30E9462
:10278000163B7B018C016D817E818F819885A20132
:1027900091010E94163B9B01AC01C801B7010E9448
:1027A0005238A60195014EC0C401B301A4019301A2
:1027B0000E94163B7B018C01C201B101A201910173
:1027C0000E94163B5B016C0169817A818B819C813F
:1027D000A80197010E94163B20E030E040E05FEB4B
:1027E0000E94163B9B01AC0169857A858B859C858F
:1027F0000E9452387B018C0169817A818B819C8196
:10280000A40193010E94163BA20191010E94163B74
:102810009B01AC01C801B7010E9452387B018C01B9
:1028200069817A818B819C8120E030E040E05FEB20
:102830000E94163BA60195010E94163B9B01AC012C
:10284000C801B7010E945238E62F2E2F372F482F8C
:10285000592FB901CA012C960FB6F894DEBF0FBEEE
:10286000CDBFCF91DF911F910F91FF90EF90DF903F
:10287000CF90BF90AF909F908F907F906F905F9020
:102880004F903F902F9008952F923F924F925F92DA
:102890006F927F928F929F92AF92BF92CF92DF9270
:1028A000EF92FF920F931F93DF93CF93CDB7DEB7D5
:1028B0002A970FB6F894DEBF0FBECDBF019721F562
:1028C000EE24FF248701025B1E4EF701E659FE4EFF
:1028D000D701A953BF4E60817181828193812D916F
:1028E0003D914D915C910E945238D8016D937D933A
:1028F0008D939C931397E4E0F0E0EE0EFF1EFCE155
:10290000EF16F104F9F623C0EE24FF248701025BE1
:102910001E4EF701E150FF4ED701A953BF4E608113
:102920007181828193812D913D914D915C910E94A5
:102930005238D8016D937D938D939C931397E4E067
:10294000F0E0EE0EFF1EFCE1EF16F104F9F687EC65
:102950009EE09A8789874C969A8389831C821B8282
:10296000EB81FC81E25BFE4EE080F180028113810D
:10297000C801B7010E9433395B016C01A985BA8592
:102980006D937D938D939C931397C801B7010E941B
:10299000793B3B014C01EB81FC81EE55FE4EE08022
:1029A000F18002811381C801B7010E9433391B01F4
:1029B0002C01C401B3019058A20191010E94163B61
:1029C000E985FA856483758386839783C801B70197
:1029D0000E94793B7B018C01C401B301A8019701DE
:1029E0000E94163BA985BA8518966D937D938D93A9
:1029F0009C931B972B813C812D513F4ED9018D918A
:102A00009D910D90BC91A02D8D839E83AF83B8873F
:102A1000BC01CD01A60195010E94163BE985FA850E
:102A20006487758786879787608A718A828A938A86
:102A3000C601B501A20191010E94163BE985FA8504
:102A4000648B758B868B978BD7FAD094D7F8D094FC
:102A5000C601B501A80197010E94163BA985BA8558
:102A600058966D937D938D939C935B976D817E813A
:102A70008F819885A40193010E94163BE981FA8118
:102A80006083718382839383E086F1860287138754
:102A90002486358646865786EB81FC81E759F34FBD
:102AA00080819181A281B381E981FA81808B918BB0
:102AB000A28BB38B80E090E0A0E8BFE380A391A35A
:102AC000A2A3B3A38B819C8104969C838B83A9854D
:102AD000BA85A05CBF4FBA87A987E05CFF4FFA8335
:102AE000E9834C9709F03CCF2A960FB6F894DEBFE5
:102AF0000FBECDBFCF91DF911F910F91FF90EF904F
:102B0000DF90CF90BF90AF909F908F907F906F900D
:102B10005F904F903F902F9008952F923F924F9249
:102B20005F926F927F928F929F92AF92BF92CF925D
:102B3000DF92EF92FF920F931F93DF93CF93CDB766
:102B4000DEB768970FB6F894DEBF0FBECDBF0E9408
:102B50004414E5E8FEE080E090E0A0E0B0E080838F
:102B60009183A283B38384839583A683B78380876D
:102B70009187A287B38784879587A687B787709642
:102B80002EE0E53CF20759F780E090E0A0E8BFE3D3
:102B90008093850E9093860EA093870EB093880E37
:102BA0008093990E90939A0EA0939B0EB0939C0ED7
:102BB0008093AD0E9093AE0EA093AF0EB093B00E77
:102BC0008093C10E9093C20EA093C30EB093C40E17
:102BD0001E8A1D8ADCC0AB89BC896D917D918D9167
:102BE0009D91BC8BAB8BF801208131814281538157
:102BF0000E94163B9B01AC01C701B6010E945238EE
:102C00006B017C010894A11CB11C005F1F4FF4E014
:102C1000AF16B10401F7D2016D937D938D939D930F
:102C20002D010894811C911CB4E08B169104A1F035
:102C3000F201C080D180E280F3807C8A6B8A0F89A8
:102C4000188D080D191D000F111F000F111F0953BA
:102C5000114FAA24BB24BFCFF10194E0EE0FFF1F58
:102C60009A95E1F7EB57F14F89819A81AB81BC814D
:102C700080839183A283B3838D819E81AF81B88548
:102C8000E989FA8980839183A283B38389859A85B0
:102C9000AB85BC8584839583A683B7838D859E850C
:102CA000AF85B88980879187A287B3870894211C54
:102CB000311C7096FA8BE98BF4E02F16310461F425
:102CC0002D893E8986E0220F331F8A95E1F72B5725
:102CD000334FE5E8FEE025C080E090E0A0E0B0E002
:102CE00089839A83AB83BC838D839E83AF83B887AC
:102CF00089879A87AB87BC878D879E87AF87B88B7C
:102D00002E010894411C511C88249924310104E0AF
:102D1000660C771C0A95E1F7A5E8BEE06A0E7B1EFB
:102D200087CF4081518162817381D9014D935D9339
:102D30006D937C93139744815581668177811496B6
:102D40004D935D936D937C93179740855185628574
:102D5000738518964D935D936D937C931B97448573
:102D60005585668577851C964D935D936D937C9311
:102D70001F977096205F3F4FBEE0E53CFB0789F64A
:102D8000ED89FE893196FE8BED8B389781F089E8CD
:102D90009EE09A8B898B22243324AD89BE8914E06E
:102DA000AA0FBB1F1A95E1F7B88FAF8B95CF689626
:102DB0000FB6F894DEBF0FBECDBFCF91DF911F914C
:102DC0000F91FF90EF90DF90CF90BF90AF909F90CA
:102DD0008F907F906F905F904F903F902F900895CD
:102DE000EF92FF920F931F9380E090E00E948D1569
:102DF0008091910E9091920EA091930EB091940EAD
:102E00008093790B90937A0BA0937B0BB0937C0B00
:102E10008091A10E9091A20EA091A30EB091A40E4C
:102E200080937D0B90937E0BA0937F0BB093800BD0
:102E30008091B10E9091B20EA091B30EB091B40EEC
:102E40008093810B9093820BA093830BB093840BA0
:102E50006091950E7091960E8091970E9091980EBC
:102E60002091850E3091860E4091870E5091880EEC
:102E70000E94DC386093850B7093860B8093870BE0
:102E80009093880BE090A50EF090A60E0091A70EEF
:102E90001091A80EC801B701A80197010E94163B26
:102EA0009B01AC0160E070E080E89FE30E94513834
:102EB0000E94833B9B01AC0117FB109517F91095FD
:102EC000C801B7010E94DC386093890B70938A0BAC
:102ED00080938B0B90938C0B6091A90E7091AA0E2E
:102EE0008091AB0E9091AC0E2091AD0E3091AE0E54
:102EF0004091AF0E5091B00E0E94DC3860938D0B64
:102F000070938E0B80938F0B9093900B20910711F1
:102F1000309108114091091150910A112093910BA1
:102F20003093920B4093930B5093940B80917808BD
:102F300090917908019709F069C08DB79EB74E97B7
:102F40000FB6F8949EBF0FBE8DBFEDB7FEB731969A
:102F50008CE096E0ADB7BEB712969C938E93119716
:102F60008091790B90917A0BA0917B0BB0917C0BA7
:102F700082839383A483B58380917D0B90917E0B94
:102F8000A0917F0BB091800B86839783A087B18738
:102F90008091810B9091820BA091830BB091840B57
:102FA00082879387A487B5878091850B9091860B44
:102FB000A091870BB091880B86879787A08BB18BE8
:102FC0008091890B90918A0BA0918B0BB0918C0B07
:102FD000828B938BA48BB58B80918D0B90918E0BF4
:102FE000A0918F0BB091900B868B978BA08FB18F98
:102FF000228F338F448F558F0E94D03E8DB79EB75E
:103000004E960FB6F8949EBF0FBE8DBF1F910F91C5
:10301000FF90EF9008952F923F924F925F926F92A0
:103020007F928F929F92AF92BF92CF92DF92EF9258
:10303000FF920F931F93DF93CF93CDB7DEB7C25E9E
:10304000D1400FB6F894DEBF0FBECDBFA0E0B0E018
:1030500060E070E020E030E040E050E091E1292EB7
:10306000312C2C0E3D1E81E6482E512C4C0E5D1E3F
:1030700001EA602E712C6C0E7D1E11EE812E912CBA
:103080008C0E9D1EF1E2EF2EF1E0FF2EEC0EFD1EE8
:10309000E1E0F0E0EC0FFD1FE60FF71F2083318326
:1030A00042835383F101E60FF71F2083318342836C
:1030B0005383CD01E4E0880F991FEA95E1F75201AF
:1030C000A80EB91E6301C80ED91E8401080F191F6E
:1030D000F701E80FF91FCF51DE4FF983E883C15E96
:1030E000D14080E090E0F5012193319341935193D9
:1030F0005F01F60121933193419351936F01F801E0
:1031000021933193419351938F01CF51DE4FE88149
:10311000F981C15ED1402193319341935193CF51B5
:10312000DE4FF983E883C15ED1400196843091057A
:10313000D1F611966C5F7F4FA430B10509F0A8CF8E
:10314000E090CA11F090CB110091CC111091CD11EB
:10315000C801B7010E9433393B014C012090CE11C8
:103160003090CF114090D0115090D111C201B101D7
:103170000E943339C353DE4F688379838A839B83EC
:10318000CD5CD140C401B301C353DE4F28813981E6
:103190004A815B81CD5CD1400E94163BA5966CAF05
:1031A0007DAF8EAF9FAFA597C801B7010E94793B55
:1031B0005B016C01E090D211F090D3110091D41119
:1031C0001091D511C801B7010E943339C753DE4FA2
:1031D000688379838A839B83C95CD140C201B10132
:1031E0000E94793BCB53DE4F688379838A839B832C
:1031F000C55CD140C401B301CB53DE4F2881398176
:103200004A815B81C55CD1400E94163BCF52DE4FA4
:10321000688379838A839B83C15DD140C801B701EC
:103220000E94793B1B012C01C601B5019058C75380
:10323000DE4F288139814A815B81C95CD1400E947F
:10324000163B7B018C01CF52DE4F688179818A81E8
:103250009B81C15DD140A20191010E94163B9B015F
:10326000AC01C801B7010E945238A9966CAF7DAF7E
:103270008EAF9FAFA997C601B501A20191010E942F
:10328000163B7B018C01CF52DE4F688179818A81A8
:103290009B81C15DD140C753DE4F288139814A816E
:1032A0005B81C95CD1400E94163B9B01AC01C80107
:1032B000B7010E945238AD966CAF7DAF8EAF9FAF15
:1032C000AD97C601B501C353DE4F288139814A81CC
:1032D0005B81CD5CD1400E94163BE5966CAF7DAF23
:1032E0008EAF9FAFE597C601B501CB53DE4F288166
:1032F00039814A815B81C55CD1400E94163B5B01EC
:103300006C01C401B301C753DE4F288139814A8162
:103310005B81C95CD1400E94163B7B018C01C601D8
:10332000B501A20191010E94163B9B01AC01C801AD
:10333000B7010E945238E9966CAF7DAF8EAF9FAF58
:10334000E99797FA909497F89094C401B301A20179
:1033500091010E94163B7B018C01C601B501C75348
:10336000DE4F288139814A815B81C95CD1400E944E
:10337000163B9B01AC01C801B7010E945238ED9683
:103380006CAF7DAF8EAF9FAFED97CB53DE4F2881F3
:1033900039814A815B81C55CD1405058CF57DF4F9E
:1033A000288339834A835B83C158D040C353DE4F9F
:1033B000688179818A819B81CD5CD140A201910194
:1033C0000E94163BCB57DF4F688379838A839B83A8
:1033D000C558D040C353DE4F688179818A819B8173
:1033E000CD5CD140C753DE4F288139814A815B8152
:1033F000C95CD1400E94163BC757DF4F6883798371
:103400008A839B83C958D04080E090E0A0E8BFE366
:10341000C356DF4F88839983AA83BB83CD59D0409D
:103420006090D6117090D7118090D8119090D911DA
:10343000C401B3012BED3FE049E450E40E940B3B93
:10344000181684F4C401B3012BED3FE049EC50E4BD
:103450000E9451386093D6117093D7118093D81180
:103460009093D9116090D6117090D7118090D81197
:103470009090D911C401B3012BED3FE049E450EC29
:103480000E942F39882384F4C401B3012BED3FE05F
:1034900049EC50E40E9452386093D6117093D711D2
:1034A0008093D8119093D9118091810C9091820CC6
:1034B000A091830CB091840C89839A83AB83BC83E5
:1034C00080E090E0A0E8BFE38D879E87AF87B88B50
:1034D000DE01AF59BE4FFE01EF59FF4F80E401906E
:1034E0000D928150E1F7DE01AF5BBF4FFE013196D7
:1034F00080E101900D928150E1F731E5432E512C8E
:103500004C0E5D1E00E010E021E4E22EF12CEC0EEA
:10351000FD1E90E1292E312C2E0C3F1C24C0D6011B
:103520006D917D918D919D916D01F501219131916B
:10353000419151915F010E94163B9B01AC01C40176
:10354000B3010E9452383B014C01A214B30439F775
:10355000D2016D937D938D939D932D010F5F1F4F2E
:1035600004301105C1F0680184E0CC0CDD1C8A95A3
:10357000E1F7E1E6F1E0EC0FFD1FCE0EDF1E570193
:103580000F2EF0E06F2EF0E07F2EF0E08F2EF0E0B7
:103590009F2EF02DC4CFDE019196FE01EF5AFF4F12
:1035A00080E101900D928150E1F7DE011196FE015C
:1035B000B19680E101900D928150E1F76091BE11CA
:1035C0007091BF118091C0119091C11129813A81F0
:1035D0004B815C810E945138CB52DE4F68837983E6
:1035E0008A839B83C55DD1406091C2117091C311E4
:1035F0008091C4119091C5112D813E814F815885D4
:103600000E945138C752DE4F688379838A839B8337
:10361000C95DD1406091C6117091C7118091C811E8
:103620009091C91129853A854B855C850E94513856
:10363000C352DE4F6883CD5DD140C252DE4F7883E6
:10364000CE5DD140C152DE4F8883CF5DD140C052A4
:10365000DE4F9883C05ED140962E872E782E692E3D
:10366000862F982DA72DB62D8093C6119093C71144
:10367000A093C811B093C911C752DE4F68817981F8
:103680008A819B81C95DD140CB52DE4F288139812F
:103690004A815B81C55DD1400E94DC38CF53DE4F4B
:1036A000688379838A839B83C15CD14060936A116C
:1036B00070936B1180936C1190936D110E9433394C
:1036C0002091E3103091E4104091E5105091E61004
:1036D0000E94163B9B01AC01CB52DE4F6881798181
:1036E0008A819B81C55DD1400E9451385B016C018C
:1036F0006093BE117093BF118093C0119093C1115C
:10370000CF53DE4F688179818A819B81C15CD14032
:103710000E94793B2091E3103091E4104091E51034
:103720005091E6100E94163B9B01AC01C752DE4F40
:10373000688179818A819B81C95DD1400E9451381D
:103740007B018C016093C2117093C3118093C411EB
:103750009093C5118091690C90916A0CA0916B0CAB
:10376000B0916C0CC354DE4F88839983AA83BB83CA
:10377000CD5BD140692D782D872D962DC354DE4F1A
:10378000288139814A815B81CD5BD1400E945138CB
:103790001B012C01C601B501A60195010E94163B33
:1037A0003B014C01C801B701A80197010E94163BDB
:1037B0005B016C01C401B301A60195010E9452385E
:1037C0007B018C01C201B101A20191010E94163B53
:1037D0009B01AC01C801B7010E9452380E94833B93
:1037E000C355DE4F688379838A839B83CD5AD1404A
:1037F0008091710C9091720CA091730CB091740C2B
:10380000C754DE4F88839983AA83BB83C95BD140A9
:103810008091790C90917A0CA0917B0CB0917C0CEA
:10382000CB54DE4F88839983AA83BB83C55BD14089
:10383000C754DE4F688179818A819B81C95BD14001
:10384000CB54DE4F288139814A815B81C55BD140F1
:103850000E9452389B01AC01C355DE4F68817981CB
:103860008A819B81CD5AD1400E940B3B8823CCF0AA
:1038700040E050E09A0126593E4EFA01E150FF4ED9
:1038800080819181A281B381F90180839183A28398
:10389000B3834C5F5F4F4C31510561F780E090E09E
:1038A00007C6B301C4019501A6010E9452380E94C7
:1038B000833B9B01AC01C201B1010E94DC382B01AA
:1038C0003C01C754DE4F688179818A819B81C95B45
:1038D000D1409058C754DE4F288139814A815B819D
:1038E000C95BD1400E94163B7B018C01CB54DE4F5B
:1038F000688179818A819B81C55BD1409B01AC0144
:103900000E94163B9B01AC01C801B7010E945138CF
:103910007B018C01C355DE4F688179818A819B814F
:10392000CD5AD1409B01AC010E94163B9B01AC01DA
:10393000C801B7010E9452387B018C01C754DE4F89
:10394000688179818A819B81C95BD14020E030E028
:1039500040E050EC0E94163BCB54DE4F2881398169
:103960004A815B81C55BD1400E94163B9B01AC0143
:10397000C801B7010E9436390E9443380E94793B42
:103980009B01AC01CB54DE4F688179818A819B8198
:10399000C55BD1400E94163BC355DE4F288139815B
:1039A0004A815B81CD5AD1400E9436390E94B63897
:1039B000C755DE4F688379838A839B83C95AD14078
:1039C0000E94793B9B01AC0180E090E0A0E0B0E078
:1039D000898B9A8BAB8BBC8BC754DE4F6881798106
:1039E0008A819B81C95BD1400E94163B7B018C017F
:1039F00017FB109517F91095A090D611B090D7111C
:103A0000C090D811D090D911C601B5010E943339A8
:103A10009B01AC01C801B7010E94163B6D8B7E8BE8
:103A20008F8B988FC601B5010E94793B9B01AC0139
:103A3000C801B7010E94163B698F7A8F8B8F9C8FCC
:103A400080E090E0A0E8BFE38D8F9E8FAF8FB8A39A
:103A5000CF53DE4F688179818A819B81C15CD140DF
:103A60000E943339CB55DE4F688379838A839B83E9
:103A7000C55AD140C301B2010E9433394B015C01E8
:103A800011E2C12E11E0D12ECC0EDD1ECB55DE4F42
:103A9000688179818A819B81C55AD140A5019401B1
:103AA0000E94163BD6016D937D938D939C93139743
:103AB000CF53DE4F688179818A819B81C15CD1407F
:103AC0000E94793BCF55DE4F688379838A839B833D
:103AD000C15AD140A50194010E94163BF601608BAA
:103AE000718B828B938BC301B2010E94793BCF54BF
:103AF000DE4F688379838A839B83C15BD140D60183
:103B000090966D937D938D939C939397CF55DE4FB5
:103B100088819981AA81BB81C15AD140B058F601F0
:103B200084839583A683B783CB55DE4F88819981A3
:103B3000AA81BB81C55AD140848B958BA68BB78B4C
:103B400080E090E0A0E0B0E084A395A3A6A3B7A393
:103B500077FA709477F87094C301B2010E94793BB0
:103B60007B018C01CB55DE4F688179818A819B81F5
:103B7000C55AD140A80197010E94163BD60118965C
:103B80006D937D938D939C931B97CF55DE4F6881EA
:103B900079818A819B81C15AD140A80197010E94F5
:103BA000163BF601608F718F828F938FD6019896A6
:103BB0008D929D92AD92BC929B97C755DE4F6881C6
:103BC00079818A819B81C95AD1400E9433399B01F6
:103BD000AC01C754DE4F688179818A819B81C95BC2
:103BE000D1400E94163B2B013C01A50194010E948B
:103BF000163B7B018C01CB55DE4F288139814A81F0
:103C00005B81C55AD1400E94163BF60164877587D7
:103C100086879787C801B701CF55DE4F2881398144
:103C20004A815B81C15AD1400E94163BD6015C9605
:103C30006D937D938D939C935F97C301B201CF5495
:103C4000DE4F288139814A815B81C15BD1400E946E
:103C5000163BC354DE4F288139814A815B81CD5B9D
:103C6000D1400E945238F60164A775A786A797A78E
:103C700080E090E0A0E8BFE384AF95AFA6AFB7AF18
:103C8000DE01AF59BE4F80E401900D928150E1F703
:103C9000DE01AF5ABF4FFE01719680E101900D9297
:103CA0008150E1F7B1E44B2E512C4C0E5D1E00E02B
:103CB00010E0A1E5EA2EF12CEC0EFD1EF0E12F2E16
:103CC000312C2E0C3F1C24C0D6016D917D918D911D
:103CD0009D916D01F50121913191419151915F01CA
:103CE0000E94163B9B01AC01C401B3010E945238F3
:103CF0003B014C01A214B30439F7D2016D937D93BB
:103D00008D939D932D010F5F1F4F04301105C1F05E
:103D10006801E4E0CC0CDD1CEA95E1F7E1E6F1E0B6
:103D2000EC0FFD1FCE0EDF1E57010F2EF0E06F2EA1
:103D3000F0E07F2EF0E08F2EF0E09F2EF02DC4CF2C
:103D4000DE01D196FE01EF5BFF4F80E101900D9205
:103D50008150E1F7DE015196FE01F19680E101907C
:103D60000D928150E1F76D887E888F88988CA090A5
:103D7000E310B090E410C090E510D090E610E98810
:103D8000FA880B891C89C601B501CF55DE4F288101
:103D900039814A815B81C15AD1400E94163B9B0107
:103DA000AC01C401B3010E9452381B012C01C601B1
:103DB000B501CB55DE4F288139814A815B81C55AD7
:103DC000D1400E94163B9B01AC01C801B7010E9483
:103DD00052389B01AC01C201B1010E94DC386093F2
:103DE0006A1170936B1180936C1190936D11C801DF
:103DF000B701A80197010E94163B7B018C01C40109
:103E0000B301A40193010E94163B9B01AC01C801C0
:103E1000B7010E9452380E94833B7B018C01698D5F
:103E20007A8D8B8D9C8D2091690C30916A0C40911C
:103E30006B0C50916C0C0E945138A80197010E94A4
:103E4000DC3860936E1170936F11809370119093B2
:103E5000711180E090E0A0E0B0E080937211909347
:103E60007311A0937411B093751180937611909390
:103E70007711A0937811B093791181E090E00E94BE
:103E80008D158DB79EB7805490400FB6F8949EBFA5
:103E90000FBE8DBFADB7BEB71196E5E4FDE080E47F
:103EA00001900D928150E1F7CE018F519F4F0E94FA
:103EB0003D07DE01AF59BE4FFE01EF51FF4F80E4D9
:103EC00001900D928150E1F780E090E0A0E8BFE31F
:103ED0008D879E87AF87B88BC352DE4F2881CD5D1B
:103EE000D140C252DE4F3881CE5DD140C152DE4F4B
:103EF0004881CF5DD140C052DE4F5881C05ED14075
:103F0000C901DA0189879A87AB87BC87C752DE4F20
:103F100088819981AA81BB81C95DD1408D839E83AF
:103F2000AF83B887CB52DE4F88819981AA81BB814C
:103F3000C55DD14089839A83AB83BC83DE01AF5BCF
:103F4000BF4FFE01319680E101900D928150E1F763
:103F500071E5472E512C4C0E5D1E00E010E0ADB710
:103F6000BEB7A05CBF4F0FB6F894BEBF0FBEADBFCB
:103F700061E4E62EF12CEC0EFD1E50E1252E312CD5
:103F80002E0C3F1C24C0F601619171918191919199
:103F90006F01D5012D913D914D915D915D010E9483
:103FA000163B9B01AC01C401B3010E9452383B0196
:103FB0004C01A214B30439F7F20161937193819318
:103FC00091932F010F5F1F4F04301105C1F068015D
:103FD00044E0CC0CDD1C4A95E1F781E691E08C0FC2
:103FE0009D1FC80ED91E57010F2EF0E06F2EF0E076
:103FF0007F2EF0E08F2EF0E09F2EF02DC4CFFE013B
:10400000EF5AFF4F6084718482849384E080F18052
:1040100002811381A480B580C680D780C601B50116
:10402000A80197010E94DC3860937211709373119C
:104030008093741190937511C801B701A80197017D
:104040000E94163B7B018C01C601B501A6019501BA
:104050000E94163B9B01AC01C801B7010E94523877
:104060000E94833B9B01AC01C401B3010E94DC3878
:104070009B01AC016BED7FE089EC9FE30E9451381E
:1040800060937611709377118093781190937911E2
:1040900081E090E00E948D15ADB7BEB7A054B0404E
:1040A0000FB6F894BEBF0FBEADBF1196E5E4FDE0BC
:1040B00080E401900D928150E1F7CE018F519F4F26
:1040C0000E943D07EDB7FEB7E05CFF4F0FB6F894D6
:1040D000FEBF0FBEEDBF8DB79EB7805890400FB6A4
:1040E000F8949EBF0FBE8DBF2DB73EB72F5F3F4FD9
:1040F000D901FE01EF51FF4F80E401900D928150F4
:10410000E1F7D901A05CBF4FFE01EF59FF4F80E4FA
:1041100001900D928150E1F7CE018F559F4F0E9483
:10412000B4048E010F551F4FD8018D909D90AD9016
:10413000BC90EDB7FEB7E058FF4F0FB6F894FEBF46
:104140000FBEEDBFC501B40127E137EB41ED58E3E8
:104150000E942F39882364F5C501B40127E137EBAC
:1041600041ED58EB0E940B3B181614F580E090E0EF
:10417000A0E0B0E080937A1190937B11A0937C1122
:10418000B0937D1180937E1190937F11A093801145
:10419000B0938111D80154966D917D918D919C9130
:1041A000579758962D913D914D915C915B9743C0E7
:1041B00031EAC32ED12CCC0EDD1EF601E0A0F1A019
:1041C00002A113A1C801B701A80197010E94163BE3
:1041D0009B01AC0160E070E080E89FE30E945138F1
:1041E0000E94833BA80197010E94DC3860937E11F6
:1041F00070937F118093801190938111D601509616
:104200006D917D918D919C915397A50194010E9490
:10421000DC3860937A1170937B1180937C119093BA
:104220007D11F60160A571A582A593A524A135A1F4
:1042300046A157A150580E94DC38609382117093B8
:104240008311809384119093851160907A117090FE
:104250007B1180907C1190907D11C401B3012AE9FB
:1042600039E949E150E40E940B3B18160CF04CC0B0
:10427000C401B3012BED3FE049E450E40E94513802
:1042800060937A1170937B1180937C1190937D11D0
:1042900080917E1190917F11A0918011B091811138
:1042A000B05880937E1190937F11A0938011B093AA
:1042B0008111609082117090831180908411909090
:1042C0008511C401B30120E030E040E050E00E94DD
:1042D0000B3B18164CF4C401B3012BED3FE049E44D
:1042E00050E40E94513808C0C401B3012BED3FE0F7
:1042F00049E450E40E945238609382117093831114
:10430000809384119093851160907A1170907B1145
:1043100080907C1190907D11C401B3012AE939E9A4
:1043200049E150EC0E942F3988230CF04CC0C401A5
:10433000B3012BED3FE049E450E40E945238609312
:104340007A1170937B1180937C1190937D118091F1
:104350007E1190917F11A0918011B0918111B05880
:1043600080937E1190937F11A0938011B09381115F
:1043700060908211709083118090841190908511CB
:10438000C401B30120E030E040E050E00E940B3B6C
:1043900018164CF4C401B3012BED3FE049E450E49E
:1043A0000E94513808C0C401B3012BED3FE049E43D
:1043B00050E40E945238609382117093831180936D
:1043C00084119093851181E090E00E948D158DB746
:1043D0009EB74E970FB6F8949EBF0FBE8DBFEDB738
:1043E000FEB7319687E296E0ADB7BEB712969C93C2
:1043F0008E93119780916A1190916B11A0916C111D
:10440000B0916D1182839383A483B58380916E11E3
:1044100090916F11A0917011B09171118683978363
:10442000A087B1878091721190917311A09174113E
:10443000B091751182879387A487B5878091761193
:1044400090917711A0917811B09179118687978713
:10445000A08BB18B80917A1190917B11A0917C11EE
:10446000B0917D11828B938BA48BB58B80917E1143
:1044700090917F11A0918011B0918111868B978BC3
:10448000A08FB18F8091821190918311A09184119E
:10449000B0918511828F938FA48FB58F0E94D03EEB
:1044A000EDB7FEB77E960FB6F894FEBF0FBEEDBF18
:1044B000CE51DE4F0FB6F894DEBF0FBECDBFCF9109
:1044C000DF911F910F91FF90EF90DF90CF90BF9001
:1044D000AF909F908F907F906F905F904F903F90A4
:1044E0002F9008950E940B188DB79EB74E970FB668
:1044F000F8949EBF0FBE8DBFEDB7FEB7319687E42F
:1045000096E0ADB7BEB712969C938E9311978091AB
:104510006A1190916B11A0916C11B0916D11828311
:104520009383A483B58380916E1190916F11A091B4
:104530007011B091711186839783A087B1878091A4
:10454000721190917311A0917411B09175118287BD
:104550009387A487B5878091761190917711A09168
:104560007811B091791186879787A08BB18B809154
:104570007A1190917B11A0917C11B0917D11828B69
:10458000938BA48BB58B80917E1190917F11A0911C
:104590008011B0918111868B978BA08FB18F809104
:1045A000821190918311A0918411B0918511828F15
:1045B000938FA48FB58F0E94D03E8DB79EB74E9635
:1045C0000FB6F8949EBF0FBE8DBF08952F923F92F5
:1045D0004F925F926F927F928F929F92AF92BF9213
:1045E000CF92DF92EF92FF920F931F93DF93CF93BF
:1045F000CDB7DEB762970FB6F894DEBF0FBECDBF62
:104600003B014C0119012A0160E070E080EA91E46D
:104610000E94CB0F0E946E126CA97DA98EA99FA942
:1046200020E030E040E05FE30E942F3988230CF463
:10463000EAC180918008909181088130910509F04C
:1046400049C06092BE117092BF118092C0119092C9
:10465000C1112092C2113092C3114092C4115092E4
:10466000C511E092C611F092C7110093C8111093C2
:10467000C911A092CA11B092CB11C092CC11D092A4
:10468000CD1188A599A5AAA5BBA58093CE1190931D
:10469000CF11A093D011B093D1118CA59DA5AEA53B
:1046A000BFA58093D2119093D311A093D411B0934E
:1046B000D51188A999A9AAA9BBA98093D6119093CD
:1046C000D711A093D811B093D9110E940B189A8BCF
:1046D000898B4DC0029719F01A8A198A48C06092D6
:1046E0006A1170926B1180926C1190926D112092F0
:1046F0006E1130926F114092701150927111E092D0
:104700007211F09273110093741110937511A092AD
:104710007611B0927711C0927811D092791188A554
:1047200099A5AAA5BBA580937A1190937B11A0931C
:104730007C11B0937D118CA59DA5AEA5BFA58093DE
:104740007E1190937F11A0938011B093811188A95D
:1047500099A9AAA9BBA98093821190938311A093D0
:104760008411B0938511A1E0B0E0BA8BA98B1092AF
:104770007F0810927E088CA99DA9AEA9BFA980933D
:104780007A0890937B08A0937C08B0937D08ADB71E
:10479000BEB75E970FB6F894BEBF0FBEADBFEDB704
:1047A000FEB7319683E696E012969C938E9311970E
:1047B0008091FF1090910011A0910111B091021110
:1047C00082839383A483B583809103119091041114
:1047D000A0910511B091061186839783A087B187B8
:1047E0008091071190910811A0910911B0910A11BF
:1047F00082879387A487B58780910B1190910C11C4
:10480000A0910D11B0910E1186879787A08BB18B67
:1048100080910F1190911011A0911111B09112116E
:10482000828B938BA48BB58B809113119091141173
:10483000A0911511B0911611868B978BA08FB18F17
:104840008091171190911811A0911911B0911A111E
:10485000828F938FA48FB58F0E94D03EEDB7FEB7A5
:10486000319684E996E0ADB7BEB712969C938E93CD
:10487000119780916A1190916B11A0916C11B09178
:104880006D1182839383A483B58380916E1190917F
:104890006F11A0917011B091711186839783A087D9
:1048A000B1878091721190917311A0917411B091A0
:1048B000751182879387A487B5878091761190912F
:1048C0007711A0917811B091791186879787A08B85
:1048D000B18B80917A1190917B11A0917C11B09154
:1048E0007D11828B938BA48BB58B80917E119091DF
:1048F0007F11A0918011B0918111868B978BA08F31
:10490000B18F8091821190918311A0918411B09107
:104910008511828F938FA48FB58F0E94D03EEE2495
:10492000FF2400E010E08DB79EB74E960FB6F894C6
:104930009EBF0FBE8DBFC7010E943C11F801E15020
:10494000FF4E6083718382839383F801EB5EF44FA3
:1049500060837183828393830894E11CF11C0C5F54
:104960001F4F97E0E916F10431F720907A08309054
:104970007B0840907C0850907D086624772488242A
:104980009924530124E0AA0CBB1C2A95E1F7A9EF56
:10499000BBE0AA0EBB1EF401EB5EF44F40815181D7
:1049A00062817381F401E659FE4E008111812281FA
:1049B0003381CE010196720161010E945308D50135
:1049C000FE01319680E101900D928150E1F708944B
:1049D000611C711C84E090E0880E991E97E06916B6
:1049E000710479F6A989BA89AB2B49F081E090E08E
:1049F000909377088093760821E030E006C010920B
:104A000077081092760820E030E0C90162960FB670
:104A1000F894DEBF0FBECDBFCF91DF911F910F91F4
:104A2000FF90EF90DF90CF90BF90AF909F908F90CE
:104A30007F906F905F904F903F902F90089581E00E
:104A400090E00E949B30019739F182E090E00E9453
:104A50009B30019709F184E090E00E949B30019720
:104A6000D9F088E090E00E949B300197A9F080E1A6
:104A700090E00E949B30019779F080E290E00E94E4
:104A80009B30019749F080E490E00E949B300197B1
:104A900019F021E030E006C088B190E1892788B99B
:104AA00020E030E0C9010895CF93DF930E946F3278
:104AB00081E090E00E949B30019719F4C2E0D0E0C1
:104AC00002C0C1E0D0E084E090E00E949B300197FA
:104AD00029F4CE01880F991FC80FD91F80E290E0FA
:104AE0000E949B30019739F4CE01880F991F880FDF
:104AF000991FC80FD91FCE01DF91CF9108952F9232
:104B00003F924F925F926F927F928F929F92AF925D
:104B1000BF92CF92DF92EF92FF920F931F9380E0AC
:104B200090E00E9454252C018AE090E00E945425D8
:104B30001C0181E090E00E9454253C0182E090E05D
:104B40000E9454254C0183E090E00E9454255C01B2
:104B500084E090E00E9454256C0185E090E00E9482
:104B600054257C0186E090E00E9454258C0187E06A
:104B700090E00E9454252DB73EB7245130400FB627
:104B8000F8943EBF0FBE2DBFEDB7FEB7319625ECB2
:104B900036E0ADB7BEB712963C932E931197538271
:104BA00042827582648297828682B186A086D3868D
:104BB000C286F586E48617870687918B808B338AB9
:104BC000228A0E94D03E2DB73EB72C5E3F4F0FB6D3
:104BD000F8943EBF0FBE2DBF1F910F91FF90EF9035
:104BE000DF90CF90BF90AF909F908F907F906F900D
:104BF0005F904F903F902F9008950E946F320E94D7
:104C000088309093C60E8093C50E019719F020E06E
:104C100030E003C00E941F259C01C90108956F92D6
:104C20007F928F929F92AF92BF92CF92DF92EF923C
:104C3000FF920F931F9380E090E00E94FD253C01BE
:104C400081E090E00E94FD254C0182E090E00E940E
:104C5000FD255C0183E090E00E94FD256C0184E06D
:104C600090E00E94FD257C0185E090E00E94FD25FA
:104C70008C0186E090E00E94FD252DB73EB72051C3
:104C800030400FB6F8943EBF0FBE2DBFEDB7FEB754
:104C9000319625EE36E0ADB7BEB712963C932E9313
:104CA00011977382628295828482B782A682D186AE
:104CB000C086F386E28615870487978786870E94D9
:104CC000D03E2DB73EB7205F3F4F0FB6F8943EBFA2
:104CD0000FBE2DBF1F910F91FF90EF90DF90CF90EF
:104CE000BF90AF909F908F907F906F9008956AE2F1
:104CF00070E00E945432AA2797FDA095BA2FBC01FC
:104D0000CD010E94D13920E030E040E251E40E9420
:104D1000363908952F923F924F925F926F927F9211
:104D20008F929F92AF92BF92CF92DF92EF92FF92BB
:104D30000F931F9387E090E00E9477261B012C01C0
:104D400000D000D08FEF96E0EDB7FEB7928381835D
:104D500023823482458256820E94D03E24EF31E085
:104D60008DB79EB706960FB6F8949EBF0FBE8DBF47
:104D700040E951E0CA010197F1F721503040D1F7E5
:104D800080E090E00E9477263B014C0100D000D0EB
:104D90008FE097E0EDB7FEB79283818363827482E0
:104DA000858296820E94D03E1092040B1092030BD3
:104DB00061E070E07093060B6093050B82E090E079
:104DC0009093080B8093070B83E090E090930A0B7D
:104DD0008093090B84E090E090930C0B80930B0B75
:104DE00085E090E090930E0B80930D0B86E090E0B1
:104DF0009093100B80930F0B87E090E09093120B31
:104E00008093110B81E190E09093140B8093130B2E
:104E100080E090E0A8E7B2E48093310B9093320BEE
:104E2000A093330BB093340B80E090E0A0E0B0E0AF
:104E30008093350B9093360BA093370BB093380BC0
:104E400020E030E044EB52E42093390B30933A0BEE
:104E500040933B0B50933C0B80E090E0ACEDB2E410
:104E600080933D0B90933E0BA0933F0BB093400B70
:104E700080E090E0A2EEB2E48093410B9093420B6D
:104E8000A093430BB093440B2093450B3093460BF8
:104E90004093470B5093480B2093490B30934A0B98
:104EA00040934B0B50934C0B80E090E0A8EDB1E4A5
:104EB00080934D0B90934E0BA0934F0BB093500BE0
:104EC00080E090E0A9E1B3E48093510B9093520B02
:104ED000A093530BB093540B10921C1110921B1102
:104EE00010921E1110921D111092201110921F117C
:104EF00070932211609321111092241110922311AA
:104F00007093261160932511109228111092271189
:104F100010922A111092291170932C1160932B1169
:104F200020E030EF4FE755E42093D50B3093D60BBC
:104F30004093D70B5093D80B2093D90B3093DA0BB7
:104F40004093DB0B5093DC0B80E090ECAFE7B4E4D4
:104F50008093DD0B9093DE0BA093DF0BB093E00BFF
:104F60002093E10B3093E20B4093E30B5093E40B5F
:104F70008093E50B9093E60BA093E70BB093E80BBF
:104F80008093E90B9093EA0BA093EB0BB093EC0B9F
:104F90008093ED0B9093EE0BA093EF0BB093F00B7F
:104FA0008093F10B9093F20BA093F30BB093F40B5F
:104FB0008093F50B9093F60BA093F70BB093F80B3F
:104FC00025E83BEE4AE753E42093550B3093560B0C
:104FD0004093570B5093580B2093590B30935A0B17
:104FE00040935B0B50935C0B80E090E0A6E9B3E448
:104FF00080935D0B90935E0BA0935F0BB093600B5F
:105000002093610B3093620B4093630B5093640BBE
:105010008093650B9093660BA093670BB093680B1E
:105020008093690B90936A0BA0936B0BB0936C0BFE
:1050300080936D0B90936E0BA0936F0BB093700BDE
:105040008093710B9093720BA093730BB093740BBE
:105050008093750B9093760BA093770BB093780B9E
:10506000C401B30120E335E44EEB50E40E94163B4B
:1050700020E030E040E850E40E9451387B018C0190
:10508000C401B30129E838E848E850E40E94163B1F
:105090002DEC3CEC4CEC5EE30E9452385B016C0161
:1050A000C401B30122E93BE149EB5FE30E94163BF7
:1050B0002AE333E24FE251E40E9452383B014C01B3
:1050C000C201B10120E030E040EC5FE30E94163BFA
:1050D00020E030E040EC5FE30E9452381B012C01DD
:1050E000C701D8018093B10B9093B20BA093B30B7F
:1050F000B093B40B8093B50B9093B60BA093B70B02
:10510000B093B80BC301D4018093B90B9093BA0B41
:10511000A093BB0BB093BC0BC701D8018093BD0B10
:105120009093BE0BA093BF0BB093C00BC501D601EB
:105130008093C10B9093C20BA093C30BB093C40B8D
:105140008093C50B9093C60BA093C70BB093C80B6D
:10515000C301D4018093C90B9093CA0BA093CB0BCE
:10516000B093CC0BC101D2018093CD0B9093CE0BA9
:10517000A093CF0BB093D00B8093D10B9093D20B15
:10518000A093D30BB093D40B8FE197E0EDB7FEB7AC
:1051900092838183C701D80183839483A583B683D7
:1051A0000E94D03E82E397E0EDB7FEB79283818301
:1051B000C501D60183839483A583B6830E94D03E24
:1051C00084E497E0EDB7FEB792838183C301D401F5
:1051D00083839483A583B6830E94D03E86E597E0BF
:1051E000EDB7FEB792838183C101D201838394839B
:1051F000A583B6830E94D03E8DB79EB706960FB6A4
:10520000F8949EBF0FBE8DBF1F910F91FF90EF903E
:10521000DF90CF90BF90AF909F908F907F906F90D6
:105220005F904F903F902F900895CF92DF92EF9232
:10523000FF920F931F93CF93DF93182F092F8EEFB9
:1052400090E00E948D3083E890E00E94903080E0F2
:1052500090E060E270E00E94933081E090E062E0D4
:1052600070E00E949330212F302FC9016C01EE2491
:10527000FF24C2E0D0E0CE01B7010E949330F601D6
:1052800041915191619171916F01C7010E948D020D
:105290008C010894E11CF11C0E94B530BC01CE01C8
:1052A00001960E949330C8010E94B930BC01CE0122
:1052B00002960E9493302396F7E0EF16F104D9F698
:1052C00089E190E00E9498300E94F231809172084A
:1052D00090917308019771F40E9488309093C60EE4
:1052E0008093C50E8130910519F40E941F2502C0DC
:1052F0000E94A70ADF91CF911F910F91FF90EF902D
:10530000DF90CF900895CF92DF92EF92FF920F93AC
:105310001F93CF93DF93182F092F8EEF90E00E94F9
:105320008D3083E890E00E94903080E090E06EE164
:1053300070E00E94933081E090E062E070E00E94B3
:105340009330212F302FC9016C01EE24FF24C2E0DD
:10535000D0E0CE01B7010E949330F6014191519106
:10536000619171916F01C7010E94A2018C010894A3
:10537000E11CF11C0E94B530BC01CE0101960E94D7
:105380009330C8010E94B930BC01CE0102960E9440
:1053900093302396F7E0EF16F104D9F689E190E017
:1053A0000E9498300E94F2310E9488309093C60E7D
:1053B0008093C50E8130910519F40E941F2502C00B
:1053C0000E94A70ADF91CF911F910F91FF90EF905C
:1053D000DF90CF9008954F925F926F927F928F925D
:1053E0009F92AF92BF92CF92DF92EF92FF920F9374
:1053F0001F93DF93CF93CDB7DEB76C970FB6F894BA
:10540000DEBF0FBECDBF8091640890916508019703
:1054100009F003C18091760890917708892B09F0F3
:10542000FCC00E946E120E94F0168091800890913C
:105430008108019709F075C08DB79EB74E970FB6DA
:10544000F8949EBF0FBE8DBFEDB7FEB7319688E6CC
:1054500097E0ADB7BEB712969C938E93119780914B
:10546000790B90917A0BA0917B0BB0917C0B82838E
:105470009383A483B58380917D0B90917E0BA09143
:105480007F0BB091800B86839783A087B187809133
:10549000810B9091820BA091830BB091840B82873A
:1054A0009387A487B5878091850B9091860BA091F7
:1054B000870BB091880B86879787A08BB18B8091E3
:1054C000890B90918A0BA0918B0BB0918C0B828BE6
:1054D000938BA48BB58B80918D0B90918E0BA091AB
:1054E0008F0BB091900B868B978BA08FB18F809193
:1054F000910B9091920BA091930BB091940B828F92
:10550000938FA48FB58F0E94D03E10928108109285
:105510008008EDB7FEB77E960FB6F894FEBF0FBEBB
:10552000EDBF8091800890918108029709F075C0C5
:105530008DB79EB74E970FB6F8949EBF0FBE8DBF26
:10554000EDB7FEB7319683E897E0ADB7BEB71296D8
:105550009C938E9311978091FF1090910011A091D0
:105560000111B091021182839383A483B58380914A
:10557000031190910411A0910511B0910611868339
:105580009783A087B1878091071190910811A0910E
:105590000911B0910A1182879387A487B5878091FA
:1055A0000B1190910C11A0910D11B0910E118687E5
:1055B0009787A08BB18B80910F1190911011A091C2
:1055C0001111B0911211828B938BA48BB58B8091AA
:1055D000131190911411A0911511B0911611868B91
:1055E000978BA08FB18F8091171190911811A09176
:1055F0001911B0911A11828F938FA48FB58F0E94C9
:10560000D03E1092810810928008EDB7FEB77E96CA
:105610000FB6F894FEBF0FBEEDBF80917608909153
:105620007708892B09F496C060917E0870917F08F5
:10563000882777FD8095982F0E94D13920916608A0
:105640003091670840916808509169080E94163BA4
:105650003B014C01EE24FF2400E010E02E010894F1
:10566000411C511C8DB79EB744970FB6F8949EBF4E
:105670000FBE8DBF6DB77EB76F5F7F4FF801EB5EDA
:10568000F44FA080B180C280D380F801E659FE4E6D
:105690002081318142815381D701E4E0AA0FBB1FF1
:1056A000EA95E1F7FB01A750B44F80E10D9001921C
:1056B0008150E1F7DB0150966D927D928D929C9224
:1056C0005397C601B5010E942D13F201E00FF11F9F
:1056D0006083718382839383EDB7FEB774960FB6B0
:1056E000F894FEBF0FBEEDBFC7010E943C11F80148
:1056F000E150FF4E60837183828393830894E11CA1
:10570000F11C0C5F1F4FF7E0EF16F10409F0AACF70
:10571000C2010E94832980E29EE40197F1F7809103
:105720007E0890917F08019690937F0880937E0871
:10573000C401B30120917A0830917B0840917C0824
:1057400050917D080E940B3B882324F0109277082B
:10575000109276086C960FB6F894DEBF0FBECDBFE0
:10576000CF91DF911F910F91FF90EF90DF90CF903D
:10577000BF90AF909F908F907F906F905F904F9071
:1057800008956F927F928F929F92AF92BF92CF9225
:10579000DF92EF92FF920F931F93FC015B014A018E
:1057A000390180E090E068E170E0AF010E943D3295
:1057B00081E090E068E170E0A5010E943D3282E066
:1057C00090E068E170E0A4010E943D3283E090E047
:1057D00068E170E0A3010E943D3284E090E068E15E
:1057E00070E0A8010E943D3285E090E068E170E041
:1057F000A7010E943D3286E090E068E170E0A601DA
:105800000E943D3281E090E01F910F91FF90EF9058
:10581000DF90CF90BF90AF909F908F907F906F90D0
:1058200008950F931F93CF93DF938C01C0E0D0E0D6
:10583000CE0168E170E0A8010E943D322196C73098
:10584000D105B1F7DF91CF911F910F9108952F925C
:105850003F924F925F926F927F928F929F92AF9200
:10586000BF92CF92DF92EF92FF920F931F93DF933D
:10587000CF93CDB7DEB72C970FB6F894DEBF0FBE2F
:10588000CDBF80910C0990910D09892B09F4BFC3FC
:1058900010920D0910920C090E94520B892B09F4E9
:1058A000B6C380912D1190E0FC01E354F040E73342
:1058B000F10508F0ACC3EA59FF4FEE0FFF1F05904A
:1058C000F491E02D19940E94E9119093750880934A
:1058D000740800D00F922EE937E0ADB7BEB712962C
:1058E0003C932E93119714969C938E93139735C1E6
:1058F000109289081092880860912E1170912F11D2
:1059000080913011909131110E9455107DC3EDB7F7
:10591000FEB738970FB6F894FEBF0FBEEDBF0DB7B8
:105920001EB70F5F1F4F84EA97E0928381838091B7
:105930002E1190912F11A0913011B0913111F801D9
:1059400082839383A483B583609132117091331164
:1059500080913411909135110E949E39D80117968B
:105960007C936E9316970E94D03EEDB7FEB73896A3
:105970000FB6F894FEBF0FBEEDBF60912E1170916F
:105980002F1180913011909131110E949E397B012D
:105990008C0160913211709133118091341190918A
:1059A00035110E949E399B01AC01C7016EE170E088
:1059B000A9010E94033228C360912E1170912F110A
:1059C00080913011909131110E949E39DC01CB0100
:1059D0004091321150913311609134117091351111
:1059E0000E942B0F11C38091640890916508019764
:1059F00009F07EC08091620890916308019709F0D8
:105A000077C00E946E122DB73EB72E5130400FB6B0
:105A1000F8943EBF0FBE2DBFEDB7FEB7319681EBB8
:105A200097E0ADB7BEB712969C938E931197809175
:105A3000FF1090910011A0910111B0910211828389
:105A40009383A483B5838091031190910411A09155
:105A50000511B091061186839783A087B187809145
:105A6000071190910811A0910911B0910A11828734
:105A70009387A487B58780910B1190910C11A09109
:105A80000D11B0910E1186879787A08BB18B8091F5
:105A90000F1190911011A0911111B0911211828BE0
:105AA000938BA48BB58B8091131190911411A091BD
:105AB0001511B0911611868B978BA08FB18F8091A5
:105AC000171190911811A0911911B0911A11828F8C
:105AD000938FA48FB58F0E94D03E21E030E0EDB7C8
